{"contracts/AgentRegistry.sol":{"AgentRegistry":{"abi":[{"inputs":[{"internalType":"address","name":"_usdc","type":"address"}],"stateMutability":"nonpayable","type":"constructor"},{"inputs":[],"name":"AgentAlreadyExists","type":"error"},{"inputs":[],"name":"AgentNotActive","type":"error"},{"inputs":[],"name":"AgentNotFound","type":"error"},{"inputs":[{"internalType":"uint256","name":"requested","type":"uint256"},{"internalType":"uint256","name":"remaining","type":"uint256"}],"name":"DailyBudgetExceeded","type":"error"},{"inputs":[{"internalType":"uint256","name":"requested","type":"uint256"},{"internalType":"uint256","name":"available","type":"uint256"}],"name":"InsufficientBalance","type":"error"},{"inputs":[],"name":"InvalidAddress","type":"error"},{"inputs":[],"name":"InvalidAmount","type":"error"},{"inputs":[],"name":"NotAgentOwner","type":"error"},{"inputs":[{"internalType":"uint256","name":"requested","type":"uint256"},{"internalType":"uint256","name":"limit","type":"uint256"}],"name":"PerTxLimitExceeded","type":"error"},{"inputs":[],"name":"RecipientBlacklisted","type":"error"},{"inputs":[],"name":"RecipientNotWhitelisted","type":"error"},{"inputs":[],"name":"ReentrancyGuardReentrantCall","type":"error"},{"inputs":[{"internalType":"address","name":"token","type":"address"}],"name":"SafeERC20FailedOperation","type":"error"},{"anonymous":false,"inputs":[{"indexed":true,"internalType":"address","name":"agent","type":"address"},{"indexed":true,"internalType":"address","name":"addr","type":"address"}],"name":"AddedToBlacklist","type":"event"},{"anonymous":false,"inputs":[{"indexed":true,"internalType":"address","name":"agent","type":"address"},{"indexed":true,"internalType":"address","name":"addr","type":"address"}],"name":"AddedToWhitelist","type":"event"},{"anonymous":false,"inputs":[{"indexed":true,"internalType":"address","name":"agent","type":"address"}],"name":"AgentDeactivated","type":"event"},{"anonymous":false,"inputs":[{"indexed":true,"internalType":"address","name":"agent","type":"address"}],"name":"AgentReactivated","type":"event"},{"anonymous":false,"inputs":[{"indexed":true,"internalType":"address","name":"agent","type":"address"},{"indexed":true,"internalType":"address","name":"owner","type":"address"},{"indexed":false,"internalType":"uint256","name":"dailyBudget","type":"uint256"},{"indexed":false,"internalType":"uint256","name":"perTxLimit","type":"uint256"}],"name":"AgentRegistered","type":"event"},{"anonymous":false,"inputs":[{"indexed":true,"internalType":"address","name":"agent","type":"address"},{"indexed":false,"internalType":"uint256","name":"newDailyBudget","type":"uint256"},{"indexed":false,"internalType":"uint256","name":"newPerTxLimit","type":"uint256"}],"name":"AgentUpdated","type":"event"},{"anonymous":false,"inputs":[{"indexed":true,"internalType":"address","name":"agent","type":"address"},{"indexed":false,"internalType":"uint256","name":"previousSpent","type":"uint256"}],"name":"BudgetReset","type":"event"},{"anonymous":false,"inputs":[{"indexed":true,"internalType":"address","name":"agent","type":"address"},{"indexed":false,"internalType":"uint256","name":"amount","type":"uint256"}],"name":"FundsDeposited","type":"event"},{"anonymous":false,"inputs":[{"indexed":true,"internalType":"address","name":"agent","type":"address"},{"indexed":false,"internalType":"uint256","name":"amount","type":"uint256"}],"name":"FundsWithdrawn","type":"event"},{"anonymous":false,"inputs":[{"indexed":true,"internalType":"address","name":"agent","type":"address"},{"indexed":true,"internalType":"address","name":"recipient","type":"address"},{"indexed":false,"internalType":"uint256","name":"amount","type":"uint256"},{"indexed":false,"internalType":"string","name":"reason","type":"string"}],"name":"PaymentBlocked","type":"event"},{"anonymous":false,"inputs":[{"indexed":true,"internalType":"address","name":"agent","type":"address"},{"indexed":true,"internalType":"address","name":"recipient","type":"address"},{"indexed":false,"internalType":"uint256","name":"amount","type":"uint256"},{"indexed":false,"internalType":"string","name":"memo","type":"string"}],"name":"PaymentExecuted","type":"event"},{"anonymous":false,"inputs":[{"indexed":true,"internalType":"address","name":"agent","type":"address"},{"indexed":true,"internalType":"address","name":"addr","type":"address"}],"name":"RemovedFromBlacklist","type":"event"},{"anonymous":false,"inputs":[{"indexed":true,"internalType":"address","name":"agent","type":"address"},{"indexed":true,"internalType":"address","name":"addr","type":"address"}],"name":"RemovedFromWhitelist","type":"event"},{"inputs":[{"internalType":"address","name":"agent","type":"address"},{"internalType":"address","name":"addr","type":"address"}],"name":"addToBlacklist","outputs":[],"stateMutability":"nonpayable","type":"function"},{"inputs":[{"internalType":"address","name":"agent","type":"address"},{"internalType":"address","name":"addr","type":"address"}],"name":"addToWhitelist","outputs":[],"stateMutability":"nonpayable","type":"function"},{"inputs":[{"internalType":"address","name":"","type":"address"}],"name":"agentBalances","outputs":[{"internalType":"uint256","name":"","type":"uint256"}],"stateMutability":"view","type":"function"},{"inputs":[{"internalType":"address","name":"","type":"address"}],"name":"agents","outputs":[{"internalType":"address","name":"owner","type":"address"},{"internalType":"uint256","name":"dailyBudget","type":"uint256"},{"internalType":"uint256","name":"perTxLimit","type":"uint256"},{"internalType":"uint256","name":"todaySpent","type":"uint256"},{"internalType":"uint256","name":"lastResetTimestamp","type":"uint256"},{"internalType":"bool","name":"active","type":"bool"}],"stateMutability":"view","type":"function"},{"inputs":[{"internalType":"address","name":"","type":"address"},{"internalType":"address","name":"","type":"address"}],"name":"blacklist","outputs":[{"internalType":"bool","name":"","type":"bool"}],"stateMutability":"view","type":"function"},{"inputs":[{"internalType":"address","name":"","type":"address"},{"internalType":"uint256","name":"","type":"uint256"}],"name":"blacklistArray","outputs":[{"internalType":"address","name":"","type":"address"}],"stateMutability":"view","type":"function"},{"inputs":[{"internalType":"address","name":"agent","type":"address"}],"name":"deactivateAgent","outputs":[],"stateMutability":"nonpayable","type":"function"},{"inputs":[{"internalType":"address","name":"agent","type":"address"},{"internalType":"uint256","name":"amount","type":"uint256"}],"name":"depositFunds","outputs":[],"stateMutability":"nonpayable","type":"function"},{"inputs":[{"internalType":"address","name":"agent","type":"address"}],"name":"depositFundsNative","outputs":[],"stateMutability":"payable","type":"function"},{"inputs":[{"internalType":"address","name":"recipient","type":"address"},{"internalType":"uint256","name":"amount","type":"uint256"},{"internalType":"string","name":"memo","type":"string"}],"name":"executePayment","outputs":[],"stateMutability":"nonpayable","type":"function"},{"inputs":[{"internalType":"address","name":"agent","type":"address"}],"name":"getAgentBalance","outputs":[{"internalType":"uint256","name":"","type":"uint256"}],"stateMutability":"view","type":"function"},{"inputs":[{"internalType":"address","name":"agent","type":"address"}],"name":"getAgentConfig","outputs":[{"components":[{"internalType":"address","name":"owner","type":"address"},{"internalType":"uint256","name":"dailyBudget","type":"uint256"},{"internalType":"uint256","name":"perTxLimit","type":"uint256"},{"internalType":"uint256","name":"todaySpent","type":"uint256"},{"internalType":"uint256","name":"lastResetTimestamp","type":"uint256"},{"internalType":"bool","name":"active","type":"bool"}],"internalType":"struct AgentRegistry.AgentConfig","name":"","type":"tuple"}],"stateMutability":"view","type":"function"},{"inputs":[{"internalType":"address","name":"agent","type":"address"}],"name":"getBlacklist","outputs":[{"internalType":"address[]","name":"","type":"address[]"}],"stateMutability":"view","type":"function"},{"inputs":[{"internalType":"address","name":"agent","type":"address"}],"name":"getRemainingDailyBudget","outputs":[{"internalType":"uint256","name":"","type":"uint256"}],"stateMutability":"view","type":"function"},{"inputs":[{"internalType":"address","name":"agent","type":"address"}],"name":"getWhitelist","outputs":[{"internalType":"address[]","name":"","type":"address[]"}],"stateMutability":"view","type":"function"},{"inputs":[{"internalType":"address","name":"agent","type":"address"},{"internalType":"address","name":"addr","type":"address"}],"name":"isBlacklisted","outputs":[{"internalType":"bool","name":"","type":"bool"}],"stateMutability":"view","type":"function"},{"inputs":[{"internalType":"address","name":"agent","type":"address"},{"internalType":"address","name":"addr","type":"address"}],"name":"isWhitelisted","outputs":[{"internalType":"bool","name":"","type":"bool"}],"stateMutability":"view","type":"function"},{"inputs":[{"internalType":"address","name":"agent","type":"address"}],"name":"reactivateAgent","outputs":[],"stateMutability":"nonpayable","type":"function"},{"inputs":[{"internalType":"address","name":"agent","type":"address"},{"internalType":"uint256","name":"dailyBudget","type":"uint256"},{"internalType":"uint256","name":"perTxLimit","type":"uint256"}],"name":"registerAgent","outputs":[],"stateMutability":"nonpayable","type":"function"},{"inputs":[{"internalType":"address","name":"agent","type":"address"},{"internalType":"address","name":"addr","type":"address"}],"name":"removeFromBlacklist","outputs":[],"stateMutability":"nonpayable","type":"function"},{"inputs":[{"internalType":"address","name":"agent","type":"address"},{"internalType":"address","name":"addr","type":"address"}],"name":"removeFromWhitelist","outputs":[],"stateMutability":"nonpayable","type":"function"},{"inputs":[{"internalType":"address","name":"agent","type":"address"},{"internalType":"uint256","name":"newDailyBudget","type":"uint256"},{"internalType":"uint256","name":"newPerTxLimit","type":"uint256"}],"name":"updateAgent","outputs":[],"stateMutability":"nonpayable","type":"function"},{"inputs":[],"name":"usdc","outputs":[{"internalType":"contract IERC20","name":"","type":"address"}],"stateMutability":"view","type":"function"},{"inputs":[{"internalType":"address","name":"","type":"address"},{"internalType":"address","name":"","type":"address"}],"name":"whitelist","outputs":[{"internalType":"bool","name":"","type":"bool"}],"stateMutability":"view","type":"function"},{"inputs":[{"internalType":"address","name":"","type":"address"},{"internalType":"uint256","name":"","type":"uint256"}],"name":"whitelistArray","outputs":[{"internalType":"address","name":"","type":"address"}],"stateMutability":"view","type":"function"},{"inputs":[{"internalType":"address","name":"agent","type":"address"},{"internalType":"uint256","name":"amount","type":"uint256"}],"name":"withdrawFunds","outputs":[],"stateMutability":"nonpayable","type":"function"},{"stateMutability":"payable","type":"receive"}],"evm":{"bytecode":{"linkReferences":{},"object":"60a03461007857601f61157538819003918201601f19168301916001600160401b0383118484101761007d5780849260209460405283398101031261007857516001600160a01b038116908190036100785760016000556080526040516114e190816100948239608051818181610c72015261108f0152f35b600080fd5b634e487b7160e01b600052604160045260246000fdfe60406080815260048036101561007c575b50361561001c57600080fd5b3360009081526001602052819020546001600160a01b031661003a57005b60066020528060002061004e348254611390565b9055513481527f543ba50a5eec5e6178218e364b1d0f396157b3c8fa278522c2cb7fd99407d47460203392a2005b90600091823560e01c80631ad398e7146111c057806325b16a8b146104ba5780632d4af9f21461113657806330edc0f5146110be5780633e413bee1461107a5780634028eddc14610a9c57806356bad86314610fa45780635751824314610ee35780635aca8efa14610e875780635d77d8d014610e0057806364c8179414610d85578063921b004b14610c3057806393210dd214610b965780639d8374b414610aea578063ad28ff8814610a9c578063b092145e146105ca578063b0a0a92714610a25578063b185404f14610645578063b63dcc0214610618578063b6b35272146105ca578063c1075329146104f6578063dc0acd54146104ba578063f8d3277d14610400578063fa90fba51461032f578063fd66091e146102b95763ff2aabb0146101a9575090610010565b346102b5576101b73661126b565b90936001600160a01b039283169390929084156102a75784875260016020528184882054166102995760058493928692897fc11a0cd191555ffbd9c1089fbd0ce6763509fe722d5b402e461de4e8970dd372975192610215846112d9565b338452602084018b81528885019088825260608601928484528a608088019542875260a089019a60018c5281526001602052209651166bffffffffffffffffffffffff60a01b8754161786555160018601555160028501555160038401555190820155019051151560ff80198354169116179055815194855260208501523393a380f35b8351630d82532d60e21b8152fd5b835163e6c4247b60e01b8152fd5b8280fd5b5090346102b55760203660031901126102b55760c0926001600160a01b03908290826102e361120c565b168152600160205220908154169260018201549260028301549060ff600560038601549486015495015416948151968752602087015285015260608401526080830152151560a0820152f35b5090346102b557806003193601126102b55761034961120c565b91610352611227565b60018060a01b03809416928386526020926001845285828820541633036103f257508386526003835280862094821694858752835260ff818720541615610397578580f35b60056103c593858852600381528288208789528152828820600160ff1982541617905585885252852061132d565b7f708802ac7da0a63d9f6b2df693b53345ad263e42d74c245110e1ec1e03a1567e8380a338808080808580f35b9051630e41dcbf60e21b8152fd5b50346102b557816003193601126102b55761041961120c565b91610422611227565b9260018060a01b0380911692838652600160205281838720541633036104ac5750828552600260205281852093169283855260205260ff8185205416610466578380f35b8184526002602052808420838552602052832060ff1981541690557fd288ab5da2e1f37cf384a1565a3f905ad289b092fbdd31950dbbfef148c04f888380a33880808380f35b8251630e41dcbf60e21b8152fd5b5050346104f25760203660031901126104f25760209181906001600160a01b036104e261120c565b1681526006845220549051908152f35b5080fd5b50346102b557816003193601126102b55761050f61120c565b916024359160018060a01b03809416938486526001602052828620541633036103f25761053a611422565b8385526006602052818520548084116105b05750507feaff4b37086828766ad3268786972c0cd24259d4c87a80f9d3963a3c3d999b0d916020918486526006835280862061058983825461136d565b90556105a48680808086335af161059e61139d565b506113dd565b51908152a26001815580f35b83604493519263cf47918160e01b84528301526024820152fd5b5050346104f257806003193601126104f25760ff816020936105ea61120c565b6105f2611227565b6001600160a01b0391821683526002875283832091168252855220549151911615158152f35b5050346104f25760203660031901126104f25760209061063e61063961120c565b611445565b9051908152f35b5090346102b55760609081600319360112610a215761066261120c565b9160248035926044359067ffffffffffffffff95868311610a1d5736602384011215610a1d5782880135968711610a1d5736848885010111610a1d576106a6611422565b3389526020906001825260ff6005848c2001541615610a0d5786156109fd576001600160a01b03169788156109ef57338a5260018252828a2060038352838b208a8c52835260ff848c2054166109a757338b52818352838b205415158061098d575b61094157338b5260018352838b208b83820191620151808084540490420411610906575b50505060028101548089116108b15750600360018201549101916107528354809361136d565b808a1161085c5750338c5260068452848c2054808a116107ff57505092808995936107d18d80808f8e7fedb6cbf79175bc8454def5ca57356fcddfab061547653733817dd4667a7be9799f9e9d9b918d9a6107ae838695611390565b9055338352600688528883206107c583825461136d565b90555af161059e61139d565b8151988952880152860152018284013785818584010152813394601f80199101168101030190a36001815580f35b60449250878a878e8873494e53554646494349454e545f42414c414e434560601b8e8480519387855284015260148584015282015260008051602061148c83398151915260803392a35163cf47918160e01b815293840152820152fd5b60449250878a878e886b111052531657d0955111d15560a21b8e84805193878552840152600c8584015282015260008051602061148c83398151915260803392a35163f7699e7b60e01b815293840152820152fd5b90508588858c6044966b14115497d51617d31253525560a21b8c84805193878552840152600c8584015282015260008051602061148c83398151915260803392a351634fa5781f60e11b815293840152820152fd5b600301805487519081527f684f7e3f41ea938c3b49bf137ab1a7d8b1f0f54090a0654f03dbba7fcdfb9244873392a255429055388b8161072c565b508289886e1393d517d5d2125511531254d51151608a1b8984878151948552840152600f8584015282015260008051602061148c83398151915260803392a3516317b4cc9360e21b8152fd5b5060028352838b208a8c52835260ff848c20541615610708565b508289886a10931050d2d31254d5115160aa1b8984878151948552840152600b8584015282015260008051602061148c83398151915260803392a35163a6add80360e01b8152fd5b825163e6c4247b60e01b8152fd5b825163162908e360e11b81528990fd5b8251632437e77160e11b81528990fd5b8880fd5b8380fd5b5090346102b55760203660031901126102b5576001600160a01b039182610a4a61120c565b16928385526001602052828520541633036103f2575081835260016020528220600501805460ff191690557fa58c733780f5c1527d6106ff1e731cbf2e9ffc0eb11ad399ca33ea55f057ddf48280a280f35b5050346104f257806003193601126104f25760ff81602093610abc61120c565b610ac4611227565b6001600160a01b0391821683526003875283832091168252855220549151911615158152f35b50346102b557816003193601126102b557610b0361120c565b91610b0c611227565b9260018060a01b0380911692838652600160205281838720541633036104ac5750828552600360205281852093169283855260205260ff8185205416610b50578380f35b8184526003602052808420838552602052832060ff1981541690557f576a9aef294e1b4baf3617fde4cbc80ba5344d5eb508222f29e558981704a4578380a33880808380f35b509060203660031901126102b5576001600160a01b039182610bb661120c565b16928385526001602052828520541615610c22573415610c14575060207f543ba50a5eec5e6178218e364b1d0f396157b3c8fa278522c2cb7fd99407d4749183855260068252808520610c0a348254611390565b905551348152a280f35b905163162908e360e11b8152fd5b905163e93ba22360e01b8152fd5b5090346102b557806003193601126102b557610c4a61120c565b6001600160a01b039081168085526001602052828520549093602435939291821615610d77577f000000000000000000000000000000000000000000000000000000000000000091835160208101906323b872dd60e01b82523360248201523060448201528660648201526064815260a0810181811067ffffffffffffffff821117610d645786525160209189919082875af115610d5a5786513d610d5157508083163b155b610d3b575050507f543ba50a5eec5e6178218e364b1d0f396157b3c8fa278522c2cb7fd99407d4749160209184865260068352808620610d31838254611390565b905551908152a280f35b6024935192635274afe760e01b84521690820152fd5b60011415610cf0565b83513d88823e3d90fd5b634e487b7160e01b8a526041855260248afd5b825163e93ba22360e01b8152fd5b5090346102b55760203660031901126102b5576001600160a01b039182610daa61120c565b16928385526001602052828520541633036103f257506005908284526001602052832001600160ff198254161790557f4272097f7cd14b10d38a34d4aecc7896a7dcc5c35ffa96932ff1b1617e7bebe78280a280f35b5050346104f257602090816003193601126102b5576001600160a01b039283610e2761120c565b16815260058352818120938251908194808754938481520196845280842093915b838310610e6e57610e6a8787610e60828c038361130b565b5191829182611295565b0390f35b8454811688529681019660019485019490920191610e48565b5050346104f257806003193601126104f257610ea161120c565b6001600160a01b039081168352600560205281832080546024359490851015610ee05750602093610ed19161123d565b92905490519260031b1c168152f35b80fd5b5090346102b557806003193601126102b557610efd61120c565b91610f06611227565b60018060a01b03809416928386526020926001845285828820541633036103f2578487526002845281872095831695868852845260ff828820541615610f4a578680f35b610f7693858852600281528288208789528152828820600160ff1982541617905585885252852061132d565b7f0c4b48e75a1f7ab0a9a2f786b5d6c1f7789020403bff177fb54d46edb89ccc008380a33880808080808680f35b50346102b55760203660031901126102b5579160c09282610fc361120c565b928060a08351610fd2816112d9565b8281528260208201528285820152826060820152826080820152015260018060a01b0380941681526001602052209083519261100d846112d9565b8254169384845260018301546020850190815260028401549082860191825260a060ff600560038801549660608a019788528801549760808a01988952015416960195151586528251968752516020870152519085015251606084015251608083015251151560a0820152f35b5050346104f257816003193601126104f257517f00000000000000000000000000000000000000000000000000000000000000006001600160a01b03168152602090f35b5090346102b557602080600319360112610a21576001600160a01b03939092846110e661120c565b1682528352818120938251908194808754938481520196845280842093915b83831061111d57610e6a8787610e60828c038361130b565b8454811688529681019660019485019490920191611105565b509190346104f2576111473661126b565b6001600160a01b039283168086526001602052848620549094931633036111b057907fdb5e31d489385293968ccf272c34fefc513097707abd331de6f6d1c7c725bacb92918486526001602052806002848820846001820155015582519182526020820152a280f35b8251630e41dcbf60e21b81528690fd5b509134610ee05781600319360112610ee0576111da61120c565b6001600160a01b0390811682526020939093528181208054602435949290851015610ee05750602093610ed19161123d565b600435906001600160a01b038216820361122257565b600080fd5b602435906001600160a01b038216820361122257565b80548210156112555760005260206000200190600090565b634e487b7160e01b600052603260045260246000fd5b6060906003190112611222576004356001600160a01b038116810361122257906024359060443590565b6020908160408183019282815285518094520193019160005b8281106112bc575050505090565b83516001600160a01b0316855293810193928101926001016112ae565b60c0810190811067ffffffffffffffff8211176112f557604052565b634e487b7160e01b600052604160045260246000fd5b90601f8019910116810190811067ffffffffffffffff8211176112f557604052565b8054680100000000000000008110156112f55761134f9160018201815561123d565b819291549060031b9160018060a01b03809116831b921b1916179055565b9190820391821161137a57565b634e487b7160e01b600052601160045260246000fd5b9190820180921161137a57565b3d156113d8573d9067ffffffffffffffff82116112f557604051916113cc601f8201601f19166020018461130b565b82523d6000602084013e565b606090565b156113e457565b60405162461bcd60e51b815260206004820152601660248201527513985d1a5d99481d1c985b9cd9995c8819985a5b195960521b6044820152606490fd5b600260005414611433576002600055565b604051633ee5aeb560e01b8152600490fd5b60018060a01b0316600052600160205260406000206201518080600483015404904204116114845780600360016114819301549101549061136d565b90565b600101549056fe24242cc7882fafec7d076b752c98772c71e3a78eef110b2f6e59b1f518a04d08a264697066735822122012435741dfbc161dcbbca214b72d62e85cf0f2633f5afe407f3c8ceb98a6a3a764736f6c63430008140033","opcodes":"PUSH1 0xA0 CALLVALUE PUSH2 0x78 JUMPI PUSH1 0x1F PUSH2 0x1575 CODESIZE DUP2 SWAP1 SUB SWAP2 DUP3 ADD PUSH1 0x1F NOT AND DUP4 ADD SWAP2 PUSH1 0x1 PUSH1 0x1 PUSH1 0x40 SHL SUB DUP4 GT DUP5 DUP5 LT OR PUSH2 0x7D JUMPI DUP1 DUP5 SWAP3 PUSH1 0x20 SWAP5 PUSH1 0x40 MSTORE DUP4 CODECOPY DUP2 ADD SUB SLT PUSH2 0x78 JUMPI MLOAD PUSH1 0x1 PUSH1 0x1 PUSH1 0xA0 SHL SUB DUP2 AND SWAP1 DUP2 SWAP1 SUB PUSH2 0x78 JUMPI PUSH1 0x1 PUSH1 0x0 SSTORE PUSH1 0x80 MSTORE PUSH1 0x40 MLOAD PUSH2 0x14E1 SWAP1 DUP2 PUSH2 0x94 DUP3 CODECOPY PUSH1 0x80 MLOAD DUP2 DUP2 DUP2 PUSH2 0xC72 ADD MSTORE PUSH2 0x108F ADD MSTORE RETURN JUMPDEST PUSH1 0x0 DUP1 REVERT JUMPDEST PUSH4 0x4E487B71 PUSH1 0xE0 SHL PUSH1 0x0 MSTORE PUSH1 0x41 PUSH1 0x4 MSTORE PUSH1 0x24 PUSH1 0x0 REVERT INVALID PUSH1 0x40 PUSH1 0x80 DUP2 MSTORE PUSH1 0x4 DUP1 CALLDATASIZE LT ISZERO PUSH2 0x7C JUMPI JUMPDEST POP CALLDATASIZE ISZERO PUSH2 0x1C JUMPI PUSH1 0x0 DUP1 REVERT JUMPDEST CALLER PUSH1 0x0 SWAP1 DUP2 MSTORE PUSH1 0x1 PUSH1 0x20 MSTORE DUP2 SWAP1 KECCAK256 SLOAD PUSH1 0x1 PUSH1 0x1 PUSH1 0xA0 SHL SUB AND PUSH2 0x3A JUMPI STOP JUMPDEST PUSH1 0x6 PUSH1 0x20 MSTORE DUP1 PUSH1 0x0 KECCAK256 PUSH2 0x4E CALLVALUE DUP3 SLOAD PUSH2 0x1390 JUMP JUMPDEST SWAP1 SSTORE MLOAD CALLVALUE DUP2 MSTORE PUSH32 0x543BA50A5EEC5E6178218E364B1D0F396157B3C8FA278522C2CB7FD99407D474 PUSH1 0x20 CALLER SWAP3 LOG2 STOP JUMPDEST SWAP1 PUSH1 0x0 SWAP2 DUP3 CALLDATALOAD PUSH1 0xE0 SHR DUP1 PUSH4 0x1AD398E7 EQ PUSH2 0x11C0 JUMPI DUP1 PUSH4 0x25B16A8B EQ PUSH2 0x4BA JUMPI DUP1 PUSH4 0x2D4AF9F2 EQ PUSH2 0x1136 JUMPI DUP1 PUSH4 0x30EDC0F5 EQ PUSH2 0x10BE JUMPI DUP1 PUSH4 0x3E413BEE EQ PUSH2 0x107A JUMPI DUP1 PUSH4 0x4028EDDC EQ PUSH2 0xA9C JUMPI DUP1 PUSH4 0x56BAD863 EQ PUSH2 0xFA4 JUMPI DUP1 PUSH4 0x57518243 EQ PUSH2 0xEE3 JUMPI DUP1 PUSH4 0x5ACA8EFA EQ PUSH2 0xE87 JUMPI DUP1 PUSH4 0x5D77D8D0 EQ PUSH2 0xE00 JUMPI DUP1 PUSH4 0x64C81794 EQ PUSH2 0xD85 JUMPI DUP1 PUSH4 0x921B004B EQ PUSH2 0xC30 JUMPI DUP1 PUSH4 0x93210DD2 EQ PUSH2 0xB96 JUMPI DUP1 PUSH4 0x9D8374B4 EQ PUSH2 0xAEA JUMPI DUP1 PUSH4 0xAD28FF88 EQ PUSH2 0xA9C JUMPI DUP1 PUSH4 0xB092145E EQ PUSH2 0x5CA JUMPI DUP1 PUSH4 0xB0A0A927 EQ PUSH2 0xA25 JUMPI DUP1 PUSH4 0xB185404F EQ PUSH2 0x645 JUMPI DUP1 PUSH4 0xB63DCC02 EQ PUSH2 0x618 JUMPI DUP1 PUSH4 0xB6B35272 EQ PUSH2 0x5CA JUMPI DUP1 PUSH4 0xC1075329 EQ PUSH2 0x4F6 JUMPI DUP1 PUSH4 0xDC0ACD54 EQ PUSH2 0x4BA JUMPI DUP1 PUSH4 0xF8D3277D EQ PUSH2 0x400 JUMPI DUP1 PUSH4 0xFA90FBA5 EQ PUSH2 0x32F JUMPI DUP1 PUSH4 0xFD66091E EQ PUSH2 0x2B9 JUMPI PUSH4 0xFF2AABB0 EQ PUSH2 0x1A9 JUMPI POP SWAP1 PUSH2 0x10 JUMP JUMPDEST CALLVALUE PUSH2 0x2B5 JUMPI PUSH2 0x1B7 CALLDATASIZE PUSH2 0x126B JUMP JUMPDEST SWAP1 SWAP4 PUSH1 0x1 PUSH1 0x1 PUSH1 0xA0 SHL SUB SWAP3 DUP4 AND SWAP4 SWAP1 SWAP3 SWAP1 DUP5 ISZERO PUSH2 0x2A7 JUMPI DUP5 DUP8 MSTORE PUSH1 0x1 PUSH1 0x20 MSTORE DUP2 DUP5 DUP9 KECCAK256 SLOAD AND PUSH2 0x299 JUMPI PUSH1 0x5 DUP5 SWAP4 SWAP3 DUP7 SWAP3 DUP10 PUSH32 0xC11A0CD191555FFBD9C1089FBD0CE6763509FE722D5B402E461DE4E8970DD372 SWAP8 MLOAD SWAP3 PUSH2 0x215 DUP5 PUSH2 0x12D9 JUMP JUMPDEST CALLER DUP5 MSTORE PUSH1 0x20 DUP5 ADD DUP12 DUP2 MSTORE DUP9 DUP6 ADD SWAP1 DUP9 DUP3 MSTORE PUSH1 0x60 DUP7 ADD SWAP3 DUP5 DUP5 MSTORE DUP11 PUSH1 0x80 DUP9 ADD SWAP6 TIMESTAMP DUP8 MSTORE PUSH1 0xA0 DUP10 ADD SWAP11 PUSH1 0x1 DUP13 MSTORE DUP2 MSTORE PUSH1 0x1 PUSH1 0x20 MSTORE KECCAK256 SWAP7 MLOAD AND PUSH12 0xFFFFFFFFFFFFFFFFFFFFFFFF PUSH1 0xA0 SHL DUP8 SLOAD AND OR DUP7 SSTORE MLOAD PUSH1 0x1 DUP7 ADD SSTORE MLOAD PUSH1 0x2 DUP6 ADD SSTORE MLOAD PUSH1 0x3 DUP5 ADD SSTORE MLOAD SWAP1 DUP3 ADD SSTORE ADD SWAP1 MLOAD ISZERO ISZERO PUSH1 0xFF DUP1 NOT DUP4 SLOAD AND SWAP2 AND OR SWAP1 SSTORE DUP2 MLOAD SWAP5 DUP6 MSTORE PUSH1 0x20 DUP6 ADD MSTORE CALLER SWAP4 LOG3 DUP1 RETURN JUMPDEST DUP4 MLOAD PUSH4 0xD82532D PUSH1 0xE2 SHL DUP2 MSTORE REVERT JUMPDEST DUP4 MLOAD PUSH4 0xE6C4247B PUSH1 0xE0 SHL DUP2 MSTORE REVERT JUMPDEST DUP3 DUP1 REVERT JUMPDEST POP SWAP1 CALLVALUE PUSH2 0x2B5 JUMPI PUSH1 0x20 CALLDATASIZE PUSH1 0x3 NOT ADD SLT PUSH2 0x2B5 JUMPI PUSH1 0xC0 SWAP3 PUSH1 0x1 PUSH1 0x1 PUSH1 0xA0 SHL SUB SWAP1 DUP3 SWAP1 DUP3 PUSH2 0x2E3 PUSH2 0x120C JUMP JUMPDEST AND DUP2 MSTORE PUSH1 0x1 PUSH1 0x20 MSTORE KECCAK256 SWAP1 DUP2 SLOAD AND SWAP3 PUSH1 0x1 DUP3 ADD SLOAD SWAP3 PUSH1 0x2 DUP4 ADD SLOAD SWAP1 PUSH1 0xFF PUSH1 0x5 PUSH1 0x3 DUP7 ADD SLOAD SWAP5 DUP7 ADD SLOAD SWAP6 ADD SLOAD AND SWAP5 DUP2 MLOAD SWAP7 DUP8 MSTORE PUSH1 0x20 DUP8 ADD MSTORE DUP6 ADD MSTORE PUSH1 0x60 DUP5 ADD MSTORE PUSH1 0x80 DUP4 ADD MSTORE ISZERO ISZERO PUSH1 0xA0 DUP3 ADD MSTORE RETURN JUMPDEST POP SWAP1 CALLVALUE PUSH2 0x2B5 JUMPI DUP1 PUSH1 0x3 NOT CALLDATASIZE ADD SLT PUSH2 0x2B5 JUMPI PUSH2 0x349 PUSH2 0x120C JUMP JUMPDEST SWAP2 PUSH2 0x352 PUSH2 0x1227 JUMP JUMPDEST PUSH1 0x1 DUP1 PUSH1 0xA0 SHL SUB DUP1 SWAP5 AND SWAP3 DUP4 DUP7 MSTORE PUSH1 0x20 SWAP3 PUSH1 0x1 DUP5 MSTORE DUP6 DUP3 DUP9 KECCAK256 SLOAD AND CALLER SUB PUSH2 0x3F2 JUMPI POP DUP4 DUP7 MSTORE PUSH1 0x3 DUP4 MSTORE DUP1 DUP7 KECCAK256 SWAP5 DUP3 AND SWAP5 DUP6 DUP8 MSTORE DUP4 MSTORE PUSH1 0xFF DUP2 DUP8 KECCAK256 SLOAD AND ISZERO PUSH2 0x397 JUMPI DUP6 DUP1 RETURN JUMPDEST PUSH1 0x5 PUSH2 0x3C5 SWAP4 DUP6 DUP9 MSTORE PUSH1 0x3 DUP2 MSTORE DUP3 DUP9 KECCAK256 DUP8 DUP10 MSTORE DUP2 MSTORE DUP3 DUP9 KECCAK256 PUSH1 0x1 PUSH1 0xFF NOT DUP3 SLOAD AND OR SWAP1 SSTORE DUP6 DUP9 MSTORE MSTORE DUP6 KECCAK256 PUSH2 0x132D JUMP JUMPDEST PUSH32 0x708802AC7DA0A63D9F6B2DF693B53345AD263E42D74C245110E1EC1E03A1567E DUP4 DUP1 LOG3 CODESIZE DUP1 DUP1 DUP1 DUP1 DUP6 DUP1 RETURN JUMPDEST SWAP1 MLOAD PUSH4 0xE41DCBF PUSH1 0xE2 SHL DUP2 MSTORE REVERT JUMPDEST POP CALLVALUE PUSH2 0x2B5 JUMPI DUP2 PUSH1 0x3 NOT CALLDATASIZE ADD SLT PUSH2 0x2B5 JUMPI PUSH2 0x419 PUSH2 0x120C JUMP JUMPDEST SWAP2 PUSH2 0x422 PUSH2 0x1227 JUMP JUMPDEST SWAP3 PUSH1 0x1 DUP1 PUSH1 0xA0 SHL SUB DUP1 SWAP2 AND SWAP3 DUP4 DUP7 MSTORE PUSH1 0x1 PUSH1 0x20 MSTORE DUP2 DUP4 DUP8 KECCAK256 SLOAD AND CALLER SUB PUSH2 0x4AC JUMPI POP DUP3 DUP6 MSTORE PUSH1 0x2 PUSH1 0x20 MSTORE DUP2 DUP6 KECCAK256 SWAP4 AND SWAP3 DUP4 DUP6 MSTORE PUSH1 0x20 MSTORE PUSH1 0xFF DUP2 DUP6 KECCAK256 SLOAD AND PUSH2 0x466 JUMPI DUP4 DUP1 RETURN JUMPDEST DUP2 DUP5 MSTORE PUSH1 0x2 PUSH1 0x20 MSTORE DUP1 DUP5 KECCAK256 DUP4 DUP6 MSTORE PUSH1 0x20 MSTORE DUP4 KECCAK256 PUSH1 0xFF NOT DUP2 SLOAD AND SWAP1 SSTORE PUSH32 0xD288AB5DA2E1F37CF384A1565A3F905AD289B092FBDD31950DBBFEF148C04F88 DUP4 DUP1 LOG3 CODESIZE DUP1 DUP1 DUP4 DUP1 RETURN JUMPDEST DUP3 MLOAD PUSH4 0xE41DCBF PUSH1 0xE2 SHL DUP2 MSTORE REVERT JUMPDEST POP POP CALLVALUE PUSH2 0x4F2 JUMPI PUSH1 0x20 CALLDATASIZE PUSH1 0x3 NOT ADD SLT PUSH2 0x4F2 JUMPI PUSH1 0x20 SWAP2 DUP2 SWAP1 PUSH1 0x1 PUSH1 0x1 PUSH1 0xA0 SHL SUB PUSH2 0x4E2 PUSH2 0x120C JUMP JUMPDEST AND DUP2 MSTORE PUSH1 0x6 DUP5 MSTORE KECCAK256 SLOAD SWAP1 MLOAD SWAP1 DUP2 MSTORE RETURN JUMPDEST POP DUP1 REVERT JUMPDEST POP CALLVALUE PUSH2 0x2B5 JUMPI DUP2 PUSH1 0x3 NOT CALLDATASIZE ADD SLT PUSH2 0x2B5 JUMPI PUSH2 0x50F PUSH2 0x120C JUMP JUMPDEST SWAP2 PUSH1 0x24 CALLDATALOAD SWAP2 PUSH1 0x1 DUP1 PUSH1 0xA0 SHL SUB DUP1 SWAP5 AND SWAP4 DUP5 DUP7 MSTORE PUSH1 0x1 PUSH1 0x20 MSTORE DUP3 DUP7 KECCAK256 SLOAD AND CALLER SUB PUSH2 0x3F2 JUMPI PUSH2 0x53A PUSH2 0x1422 JUMP JUMPDEST DUP4 DUP6 MSTORE PUSH1 0x6 PUSH1 0x20 MSTORE DUP2 DUP6 KECCAK256 SLOAD DUP1 DUP5 GT PUSH2 0x5B0 JUMPI POP POP PUSH32 0xEAFF4B37086828766AD3268786972C0CD24259D4C87A80F9D3963A3C3D999B0D SWAP2 PUSH1 0x20 SWAP2 DUP5 DUP7 MSTORE PUSH1 0x6 DUP4 MSTORE DUP1 DUP7 KECCAK256 PUSH2 0x589 DUP4 DUP3 SLOAD PUSH2 0x136D JUMP JUMPDEST SWAP1 SSTORE PUSH2 0x5A4 DUP7 DUP1 DUP1 DUP1 DUP7 CALLER GAS CALL PUSH2 0x59E PUSH2 0x139D JUMP JUMPDEST POP PUSH2 0x13DD JUMP JUMPDEST MLOAD SWAP1 DUP2 MSTORE LOG2 PUSH1 0x1 DUP2 SSTORE DUP1 RETURN JUMPDEST DUP4 PUSH1 0x44 SWAP4 MLOAD SWAP3 PUSH4 0xCF479181 PUSH1 0xE0 SHL DUP5 MSTORE DUP4 ADD MSTORE PUSH1 0x24 DUP3 ADD MSTORE REVERT JUMPDEST POP POP CALLVALUE PUSH2 0x4F2 JUMPI DUP1 PUSH1 0x3 NOT CALLDATASIZE ADD SLT PUSH2 0x4F2 JUMPI PUSH1 0xFF DUP2 PUSH1 0x20 SWAP4 PUSH2 0x5EA PUSH2 0x120C JUMP JUMPDEST PUSH2 0x5F2 PUSH2 0x1227 JUMP JUMPDEST PUSH1 0x1 PUSH1 0x1 PUSH1 0xA0 SHL SUB SWAP2 DUP3 AND DUP4 MSTORE PUSH1 0x2 DUP8 MSTORE DUP4 DUP4 KECCAK256 SWAP2 AND DUP3 MSTORE DUP6 MSTORE KECCAK256 SLOAD SWAP2 MLOAD SWAP2 AND ISZERO ISZERO DUP2 MSTORE RETURN JUMPDEST POP POP CALLVALUE PUSH2 0x4F2 JUMPI PUSH1 0x20 CALLDATASIZE PUSH1 0x3 NOT ADD SLT PUSH2 0x4F2 JUMPI PUSH1 0x20 SWAP1 PUSH2 0x63E PUSH2 0x639 PUSH2 0x120C JUMP JUMPDEST PUSH2 0x1445 JUMP JUMPDEST SWAP1 MLOAD SWAP1 DUP2 MSTORE RETURN JUMPDEST POP SWAP1 CALLVALUE PUSH2 0x2B5 JUMPI PUSH1 0x60 SWAP1 DUP2 PUSH1 0x3 NOT CALLDATASIZE ADD SLT PUSH2 0xA21 JUMPI PUSH2 0x662 PUSH2 0x120C JUMP JUMPDEST SWAP2 PUSH1 0x24 DUP1 CALLDATALOAD SWAP3 PUSH1 0x44 CALLDATALOAD SWAP1 PUSH8 0xFFFFFFFFFFFFFFFF SWAP6 DUP7 DUP4 GT PUSH2 0xA1D JUMPI CALLDATASIZE PUSH1 0x23 DUP5 ADD SLT ISZERO PUSH2 0xA1D JUMPI DUP3 DUP9 ADD CALLDATALOAD SWAP7 DUP8 GT PUSH2 0xA1D JUMPI CALLDATASIZE DUP5 DUP9 DUP6 ADD ADD GT PUSH2 0xA1D JUMPI PUSH2 0x6A6 PUSH2 0x1422 JUMP JUMPDEST CALLER DUP10 MSTORE PUSH1 0x20 SWAP1 PUSH1 0x1 DUP3 MSTORE PUSH1 0xFF PUSH1 0x5 DUP5 DUP13 KECCAK256 ADD SLOAD AND ISZERO PUSH2 0xA0D JUMPI DUP7 ISZERO PUSH2 0x9FD JUMPI PUSH1 0x1 PUSH1 0x1 PUSH1 0xA0 SHL SUB AND SWAP8 DUP9 ISZERO PUSH2 0x9EF JUMPI CALLER DUP11 MSTORE PUSH1 0x1 DUP3 MSTORE DUP3 DUP11 KECCAK256 PUSH1 0x3 DUP4 MSTORE DUP4 DUP12 KECCAK256 DUP11 DUP13 MSTORE DUP4 MSTORE PUSH1 0xFF DUP5 DUP13 KECCAK256 SLOAD AND PUSH2 0x9A7 JUMPI CALLER DUP12 MSTORE DUP2 DUP4 MSTORE DUP4 DUP12 KECCAK256 SLOAD ISZERO ISZERO DUP1 PUSH2 0x98D JUMPI JUMPDEST PUSH2 0x941 JUMPI CALLER DUP12 MSTORE PUSH1 0x1 DUP4 MSTORE DUP4 DUP12 KECCAK256 DUP12 DUP4 DUP3 ADD SWAP2 PUSH3 0x15180 DUP1 DUP5 SLOAD DIV SWAP1 TIMESTAMP DIV GT PUSH2 0x906 JUMPI JUMPDEST POP POP POP PUSH1 0x2 DUP2 ADD SLOAD DUP1 DUP10 GT PUSH2 0x8B1 JUMPI POP PUSH1 0x3 PUSH1 0x1 DUP3 ADD SLOAD SWAP2 ADD SWAP2 PUSH2 0x752 DUP4 SLOAD DUP1 SWAP4 PUSH2 0x136D JUMP JUMPDEST DUP1 DUP11 GT PUSH2 0x85C JUMPI POP CALLER DUP13 MSTORE PUSH1 0x6 DUP5 MSTORE DUP5 DUP13 KECCAK256 SLOAD DUP1 DUP11 GT PUSH2 0x7FF JUMPI POP POP SWAP3 DUP1 DUP10 SWAP6 SWAP4 PUSH2 0x7D1 DUP14 DUP1 DUP1 DUP16 DUP15 PUSH32 0xEDB6CBF79175BC8454DEF5CA57356FCDDFAB061547653733817DD4667A7BE979 SWAP16 SWAP15 SWAP14 SWAP12 SWAP2 DUP14 SWAP11 PUSH2 0x7AE DUP4 DUP7 SWAP6 PUSH2 0x1390 JUMP JUMPDEST SWAP1 SSTORE CALLER DUP4 MSTORE PUSH1 0x6 DUP9 MSTORE DUP9 DUP4 KECCAK256 PUSH2 0x7C5 DUP4 DUP3 SLOAD PUSH2 0x136D JUMP JUMPDEST SWAP1 SSTORE GAS CALL PUSH2 0x59E PUSH2 0x139D JUMP JUMPDEST DUP2 MLOAD SWAP9 DUP10 MSTORE DUP9 ADD MSTORE DUP7 ADD MSTORE ADD DUP3 DUP5 ADD CALLDATACOPY DUP6 DUP2 DUP6 DUP5 ADD ADD MSTORE DUP2 CALLER SWAP5 PUSH1 0x1F DUP1 NOT SWAP2 ADD AND DUP2 ADD SUB ADD SWAP1 LOG3 PUSH1 0x1 DUP2 SSTORE DUP1 RETURN JUMPDEST PUSH1 0x44 SWAP3 POP DUP8 DUP11 DUP8 DUP15 DUP9 PUSH20 0x494E53554646494349454E545F42414C414E4345 PUSH1 0x60 SHL DUP15 DUP5 DUP1 MLOAD SWAP4 DUP8 DUP6 MSTORE DUP5 ADD MSTORE PUSH1 0x14 DUP6 DUP5 ADD MSTORE DUP3 ADD MSTORE PUSH1 0x0 DUP1 MLOAD PUSH1 0x20 PUSH2 0x148C DUP4 CODECOPY DUP2 MLOAD SWAP2 MSTORE PUSH1 0x80 CALLER SWAP3 LOG3 MLOAD PUSH4 0xCF479181 PUSH1 0xE0 SHL DUP2 MSTORE SWAP4 DUP5 ADD MSTORE DUP3 ADD MSTORE REVERT JUMPDEST PUSH1 0x44 SWAP3 POP DUP8 DUP11 DUP8 DUP15 DUP9 PUSH12 0x111052531657D0955111D155 PUSH1 0xA2 SHL DUP15 DUP5 DUP1 MLOAD SWAP4 DUP8 DUP6 MSTORE DUP5 ADD MSTORE PUSH1 0xC DUP6 DUP5 ADD MSTORE DUP3 ADD MSTORE PUSH1 0x0 DUP1 MLOAD PUSH1 0x20 PUSH2 0x148C DUP4 CODECOPY DUP2 MLOAD SWAP2 MSTORE PUSH1 0x80 CALLER SWAP3 LOG3 MLOAD PUSH4 0xF7699E7B PUSH1 0xE0 SHL DUP2 MSTORE SWAP4 DUP5 ADD MSTORE DUP3 ADD MSTORE REVERT JUMPDEST SWAP1 POP DUP6 DUP9 DUP6 DUP13 PUSH1 0x44 SWAP7 PUSH12 0x14115497D51617D312535255 PUSH1 0xA2 SHL DUP13 DUP5 DUP1 MLOAD SWAP4 DUP8 DUP6 MSTORE DUP5 ADD MSTORE PUSH1 0xC DUP6 DUP5 ADD MSTORE DUP3 ADD MSTORE PUSH1 0x0 DUP1 MLOAD PUSH1 0x20 PUSH2 0x148C DUP4 CODECOPY DUP2 MLOAD SWAP2 MSTORE PUSH1 0x80 CALLER SWAP3 LOG3 MLOAD PUSH4 0x4FA5781F PUSH1 0xE1 SHL DUP2 MSTORE SWAP4 DUP5 ADD MSTORE DUP3 ADD MSTORE REVERT JUMPDEST PUSH1 0x3 ADD DUP1 SLOAD DUP8 MLOAD SWAP1 DUP2 MSTORE PUSH32 0x684F7E3F41EA938C3B49BF137AB1A7D8B1F0F54090A0654F03DBBA7FCDFB9244 DUP8 CALLER SWAP3 LOG2 SSTORE TIMESTAMP SWAP1 SSTORE CODESIZE DUP12 DUP2 PUSH2 0x72C JUMP JUMPDEST POP DUP3 DUP10 DUP9 PUSH15 0x1393D517D5D2125511531254D51151 PUSH1 0x8A SHL DUP10 DUP5 DUP8 DUP2 MLOAD SWAP5 DUP6 MSTORE DUP5 ADD MSTORE PUSH1 0xF DUP6 DUP5 ADD MSTORE DUP3 ADD MSTORE PUSH1 0x0 DUP1 MLOAD PUSH1 0x20 PUSH2 0x148C DUP4 CODECOPY DUP2 MLOAD SWAP2 MSTORE PUSH1 0x80 CALLER SWAP3 LOG3 MLOAD PUSH4 0x17B4CC93 PUSH1 0xE2 SHL DUP2 MSTORE REVERT JUMPDEST POP PUSH1 0x2 DUP4 MSTORE DUP4 DUP12 KECCAK256 DUP11 DUP13 MSTORE DUP4 MSTORE PUSH1 0xFF DUP5 DUP13 KECCAK256 SLOAD AND ISZERO PUSH2 0x708 JUMP JUMPDEST POP DUP3 DUP10 DUP9 PUSH11 0x10931050D2D31254D51151 PUSH1 0xAA SHL DUP10 DUP5 DUP8 DUP2 MLOAD SWAP5 DUP6 MSTORE DUP5 ADD MSTORE PUSH1 0xB DUP6 DUP5 ADD MSTORE DUP3 ADD MSTORE PUSH1 0x0 DUP1 MLOAD PUSH1 0x20 PUSH2 0x148C DUP4 CODECOPY DUP2 MLOAD SWAP2 MSTORE PUSH1 0x80 CALLER SWAP3 LOG3 MLOAD PUSH4 0xA6ADD803 PUSH1 0xE0 SHL DUP2 MSTORE REVERT JUMPDEST DUP3 MLOAD PUSH4 0xE6C4247B PUSH1 0xE0 SHL DUP2 MSTORE REVERT JUMPDEST DUP3 MLOAD PUSH4 0x162908E3 PUSH1 0xE1 SHL DUP2 MSTORE DUP10 SWAP1 REVERT JUMPDEST DUP3 MLOAD PUSH4 0x2437E771 PUSH1 0xE1 SHL DUP2 MSTORE DUP10 SWAP1 REVERT JUMPDEST DUP9 DUP1 REVERT JUMPDEST DUP4 DUP1 REVERT JUMPDEST POP SWAP1 CALLVALUE PUSH2 0x2B5 JUMPI PUSH1 0x20 CALLDATASIZE PUSH1 0x3 NOT ADD SLT PUSH2 0x2B5 JUMPI PUSH1 0x1 PUSH1 0x1 PUSH1 0xA0 SHL SUB SWAP2 DUP3 PUSH2 0xA4A PUSH2 0x120C JUMP JUMPDEST AND SWAP3 DUP4 DUP6 MSTORE PUSH1 0x1 PUSH1 0x20 MSTORE DUP3 DUP6 KECCAK256 SLOAD AND CALLER SUB PUSH2 0x3F2 JUMPI POP DUP2 DUP4 MSTORE PUSH1 0x1 PUSH1 0x20 MSTORE DUP3 KECCAK256 PUSH1 0x5 ADD DUP1 SLOAD PUSH1 0xFF NOT AND SWAP1 SSTORE PUSH32 0xA58C733780F5C1527D6106FF1E731CBF2E9FFC0EB11AD399CA33EA55F057DDF4 DUP3 DUP1 LOG2 DUP1 RETURN JUMPDEST POP POP CALLVALUE PUSH2 0x4F2 JUMPI DUP1 PUSH1 0x3 NOT CALLDATASIZE ADD SLT PUSH2 0x4F2 JUMPI PUSH1 0xFF DUP2 PUSH1 0x20 SWAP4 PUSH2 0xABC PUSH2 0x120C JUMP JUMPDEST PUSH2 0xAC4 PUSH2 0x1227 JUMP JUMPDEST PUSH1 0x1 PUSH1 0x1 PUSH1 0xA0 SHL SUB SWAP2 DUP3 AND DUP4 MSTORE PUSH1 0x3 DUP8 MSTORE DUP4 DUP4 KECCAK256 SWAP2 AND DUP3 MSTORE DUP6 MSTORE KECCAK256 SLOAD SWAP2 MLOAD SWAP2 AND ISZERO ISZERO DUP2 MSTORE RETURN JUMPDEST POP CALLVALUE PUSH2 0x2B5 JUMPI DUP2 PUSH1 0x3 NOT CALLDATASIZE ADD SLT PUSH2 0x2B5 JUMPI PUSH2 0xB03 PUSH2 0x120C JUMP JUMPDEST SWAP2 PUSH2 0xB0C PUSH2 0x1227 JUMP JUMPDEST SWAP3 PUSH1 0x1 DUP1 PUSH1 0xA0 SHL SUB DUP1 SWAP2 AND SWAP3 DUP4 DUP7 MSTORE PUSH1 0x1 PUSH1 0x20 MSTORE DUP2 DUP4 DUP8 KECCAK256 SLOAD AND CALLER SUB PUSH2 0x4AC JUMPI POP DUP3 DUP6 MSTORE PUSH1 0x3 PUSH1 0x20 MSTORE DUP2 DUP6 KECCAK256 SWAP4 AND SWAP3 DUP4 DUP6 MSTORE PUSH1 0x20 MSTORE PUSH1 0xFF DUP2 DUP6 KECCAK256 SLOAD AND PUSH2 0xB50 JUMPI DUP4 DUP1 RETURN JUMPDEST DUP2 DUP5 MSTORE PUSH1 0x3 PUSH1 0x20 MSTORE DUP1 DUP5 KECCAK256 DUP4 DUP6 MSTORE PUSH1 0x20 MSTORE DUP4 KECCAK256 PUSH1 0xFF NOT DUP2 SLOAD AND SWAP1 SSTORE PUSH32 0x576A9AEF294E1B4BAF3617FDE4CBC80BA5344D5EB508222F29E558981704A457 DUP4 DUP1 LOG3 CODESIZE DUP1 DUP1 DUP4 DUP1 RETURN JUMPDEST POP SWAP1 PUSH1 0x20 CALLDATASIZE PUSH1 0x3 NOT ADD SLT PUSH2 0x2B5 JUMPI PUSH1 0x1 PUSH1 0x1 PUSH1 0xA0 SHL SUB SWAP2 DUP3 PUSH2 0xBB6 PUSH2 0x120C JUMP JUMPDEST AND SWAP3 DUP4 DUP6 MSTORE PUSH1 0x1 PUSH1 0x20 MSTORE DUP3 DUP6 KECCAK256 SLOAD AND ISZERO PUSH2 0xC22 JUMPI CALLVALUE ISZERO PUSH2 0xC14 JUMPI POP PUSH1 0x20 PUSH32 0x543BA50A5EEC5E6178218E364B1D0F396157B3C8FA278522C2CB7FD99407D474 SWAP2 DUP4 DUP6 MSTORE PUSH1 0x6 DUP3 MSTORE DUP1 DUP6 KECCAK256 PUSH2 0xC0A CALLVALUE DUP3 SLOAD PUSH2 0x1390 JUMP JUMPDEST SWAP1 SSTORE MLOAD CALLVALUE DUP2 MSTORE LOG2 DUP1 RETURN JUMPDEST SWAP1 MLOAD PUSH4 0x162908E3 PUSH1 0xE1 SHL DUP2 MSTORE REVERT JUMPDEST SWAP1 MLOAD PUSH4 0xE93BA223 PUSH1 0xE0 SHL DUP2 MSTORE REVERT JUMPDEST POP SWAP1 CALLVALUE PUSH2 0x2B5 JUMPI DUP1 PUSH1 0x3 NOT CALLDATASIZE ADD SLT PUSH2 0x2B5 JUMPI PUSH2 0xC4A PUSH2 0x120C JUMP JUMPDEST PUSH1 0x1 PUSH1 0x1 PUSH1 0xA0 SHL SUB SWAP1 DUP2 AND DUP1 DUP6 MSTORE PUSH1 0x1 PUSH1 0x20 MSTORE DUP3 DUP6 KECCAK256 SLOAD SWAP1 SWAP4 PUSH1 0x24 CALLDATALOAD SWAP4 SWAP3 SWAP2 DUP3 AND ISZERO PUSH2 0xD77 JUMPI PUSH32 0x0 SWAP2 DUP4 MLOAD PUSH1 0x20 DUP2 ADD SWAP1 PUSH4 0x23B872DD PUSH1 0xE0 SHL DUP3 MSTORE CALLER PUSH1 0x24 DUP3 ADD MSTORE ADDRESS PUSH1 0x44 DUP3 ADD MSTORE DUP7 PUSH1 0x64 DUP3 ADD MSTORE PUSH1 0x64 DUP2 MSTORE PUSH1 0xA0 DUP2 ADD DUP2 DUP2 LT PUSH8 0xFFFFFFFFFFFFFFFF DUP3 GT OR PUSH2 0xD64 JUMPI DUP7 MSTORE MLOAD PUSH1 0x20 SWAP2 DUP10 SWAP2 SWAP1 DUP3 DUP8 GAS CALL ISZERO PUSH2 0xD5A JUMPI DUP7 MLOAD RETURNDATASIZE PUSH2 0xD51 JUMPI POP DUP1 DUP4 AND EXTCODESIZE ISZERO JUMPDEST PUSH2 0xD3B JUMPI POP POP POP PUSH32 0x543BA50A5EEC5E6178218E364B1D0F396157B3C8FA278522C2CB7FD99407D474 SWAP2 PUSH1 0x20 SWAP2 DUP5 DUP7 MSTORE PUSH1 0x6 DUP4 MSTORE DUP1 DUP7 KECCAK256 PUSH2 0xD31 DUP4 DUP3 SLOAD PUSH2 0x1390 JUMP JUMPDEST SWAP1 SSTORE MLOAD SWAP1 DUP2 MSTORE LOG2 DUP1 RETURN JUMPDEST PUSH1 0x24 SWAP4 MLOAD SWAP3 PUSH4 0x5274AFE7 PUSH1 0xE0 SHL DUP5 MSTORE AND SWAP1 DUP3 ADD MSTORE REVERT JUMPDEST PUSH1 0x1 EQ ISZERO PUSH2 0xCF0 JUMP JUMPDEST DUP4 MLOAD RETURNDATASIZE DUP9 DUP3 RETURNDATACOPY RETURNDATASIZE SWAP1 REVERT JUMPDEST PUSH4 0x4E487B71 PUSH1 0xE0 SHL DUP11 MSTORE PUSH1 0x41 DUP6 MSTORE PUSH1 0x24 DUP11 REVERT JUMPDEST DUP3 MLOAD PUSH4 0xE93BA223 PUSH1 0xE0 SHL DUP2 MSTORE REVERT JUMPDEST POP SWAP1 CALLVALUE PUSH2 0x2B5 JUMPI PUSH1 0x20 CALLDATASIZE PUSH1 0x3 NOT ADD SLT PUSH2 0x2B5 JUMPI PUSH1 0x1 PUSH1 0x1 PUSH1 0xA0 SHL SUB SWAP2 DUP3 PUSH2 0xDAA PUSH2 0x120C JUMP JUMPDEST AND SWAP3 DUP4 DUP6 MSTORE PUSH1 0x1 PUSH1 0x20 MSTORE DUP3 DUP6 KECCAK256 SLOAD AND CALLER SUB PUSH2 0x3F2 JUMPI POP PUSH1 0x5 SWAP1 DUP3 DUP5 MSTORE PUSH1 0x1 PUSH1 0x20 MSTORE DUP4 KECCAK256 ADD PUSH1 0x1 PUSH1 0xFF NOT DUP3 SLOAD AND OR SWAP1 SSTORE PUSH32 0x4272097F7CD14B10D38A34D4AECC7896A7DCC5C35FFA96932FF1B1617E7BEBE7 DUP3 DUP1 LOG2 DUP1 RETURN JUMPDEST POP POP CALLVALUE PUSH2 0x4F2 JUMPI PUSH1 0x20 SWAP1 DUP2 PUSH1 0x3 NOT CALLDATASIZE ADD SLT PUSH2 0x2B5 JUMPI PUSH1 0x1 PUSH1 0x1 PUSH1 0xA0 SHL SUB SWAP3 DUP4 PUSH2 0xE27 PUSH2 0x120C JUMP JUMPDEST AND DUP2 MSTORE PUSH1 0x5 DUP4 MSTORE DUP2 DUP2 KECCAK256 SWAP4 DUP3 MLOAD SWAP1 DUP2 SWAP5 DUP1 DUP8 SLOAD SWAP4 DUP5 DUP2 MSTORE ADD SWAP7 DUP5 MSTORE DUP1 DUP5 KECCAK256 SWAP4 SWAP2 JUMPDEST DUP4 DUP4 LT PUSH2 0xE6E JUMPI PUSH2 0xE6A DUP8 DUP8 PUSH2 0xE60 DUP3 DUP13 SUB DUP4 PUSH2 0x130B JUMP JUMPDEST MLOAD SWAP2 DUP3 SWAP2 DUP3 PUSH2 0x1295 JUMP JUMPDEST SUB SWAP1 RETURN JUMPDEST DUP5 SLOAD DUP2 AND DUP9 MSTORE SWAP7 DUP2 ADD SWAP7 PUSH1 0x1 SWAP5 DUP6 ADD SWAP5 SWAP1 SWAP3 ADD SWAP2 PUSH2 0xE48 JUMP JUMPDEST POP POP CALLVALUE PUSH2 0x4F2 JUMPI DUP1 PUSH1 0x3 NOT CALLDATASIZE ADD SLT PUSH2 0x4F2 JUMPI PUSH2 0xEA1 PUSH2 0x120C JUMP JUMPDEST PUSH1 0x1 PUSH1 0x1 PUSH1 0xA0 SHL SUB SWAP1 DUP2 AND DUP4 MSTORE PUSH1 0x5 PUSH1 0x20 MSTORE DUP2 DUP4 KECCAK256 DUP1 SLOAD PUSH1 0x24 CALLDATALOAD SWAP5 SWAP1 DUP6 LT ISZERO PUSH2 0xEE0 JUMPI POP PUSH1 0x20 SWAP4 PUSH2 0xED1 SWAP2 PUSH2 0x123D JUMP JUMPDEST SWAP3 SWAP1 SLOAD SWAP1 MLOAD SWAP3 PUSH1 0x3 SHL SHR AND DUP2 MSTORE RETURN JUMPDEST DUP1 REVERT JUMPDEST POP SWAP1 CALLVALUE PUSH2 0x2B5 JUMPI DUP1 PUSH1 0x3 NOT CALLDATASIZE ADD SLT PUSH2 0x2B5 JUMPI PUSH2 0xEFD PUSH2 0x120C JUMP JUMPDEST SWAP2 PUSH2 0xF06 PUSH2 0x1227 JUMP JUMPDEST PUSH1 0x1 DUP1 PUSH1 0xA0 SHL SUB DUP1 SWAP5 AND SWAP3 DUP4 DUP7 MSTORE PUSH1 0x20 SWAP3 PUSH1 0x1 DUP5 MSTORE DUP6 DUP3 DUP9 KECCAK256 SLOAD AND CALLER SUB PUSH2 0x3F2 JUMPI DUP5 DUP8 MSTORE PUSH1 0x2 DUP5 MSTORE DUP2 DUP8 KECCAK256 SWAP6 DUP4 AND SWAP6 DUP7 DUP9 MSTORE DUP5 MSTORE PUSH1 0xFF DUP3 DUP9 KECCAK256 SLOAD AND ISZERO PUSH2 0xF4A JUMPI DUP7 DUP1 RETURN JUMPDEST PUSH2 0xF76 SWAP4 DUP6 DUP9 MSTORE PUSH1 0x2 DUP2 MSTORE DUP3 DUP9 KECCAK256 DUP8 DUP10 MSTORE DUP2 MSTORE DUP3 DUP9 KECCAK256 PUSH1 0x1 PUSH1 0xFF NOT DUP3 SLOAD AND OR SWAP1 SSTORE DUP6 DUP9 MSTORE MSTORE DUP6 KECCAK256 PUSH2 0x132D JUMP JUMPDEST PUSH32 0xC4B48E75A1F7AB0A9A2F786B5D6C1F7789020403BFF177FB54D46EDB89CCC00 DUP4 DUP1 LOG3 CODESIZE DUP1 DUP1 DUP1 DUP1 DUP1 DUP7 DUP1 RETURN JUMPDEST POP CALLVALUE PUSH2 0x2B5 JUMPI PUSH1 0x20 CALLDATASIZE PUSH1 0x3 NOT ADD SLT PUSH2 0x2B5 JUMPI SWAP2 PUSH1 0xC0 SWAP3 DUP3 PUSH2 0xFC3 PUSH2 0x120C JUMP JUMPDEST SWAP3 DUP1 PUSH1 0xA0 DUP4 MLOAD PUSH2 0xFD2 DUP2 PUSH2 0x12D9 JUMP JUMPDEST DUP3 DUP2 MSTORE DUP3 PUSH1 0x20 DUP3 ADD MSTORE DUP3 DUP6 DUP3 ADD MSTORE DUP3 PUSH1 0x60 DUP3 ADD MSTORE DUP3 PUSH1 0x80 DUP3 ADD MSTORE ADD MSTORE PUSH1 0x1 DUP1 PUSH1 0xA0 SHL SUB DUP1 SWAP5 AND DUP2 MSTORE PUSH1 0x1 PUSH1 0x20 MSTORE KECCAK256 SWAP1 DUP4 MLOAD SWAP3 PUSH2 0x100D DUP5 PUSH2 0x12D9 JUMP JUMPDEST DUP3 SLOAD AND SWAP4 DUP5 DUP5 MSTORE PUSH1 0x1 DUP4 ADD SLOAD PUSH1 0x20 DUP6 ADD SWAP1 DUP2 MSTORE PUSH1 0x2 DUP5 ADD SLOAD SWAP1 DUP3 DUP7 ADD SWAP2 DUP3 MSTORE PUSH1 0xA0 PUSH1 0xFF PUSH1 0x5 PUSH1 0x3 DUP9 ADD SLOAD SWAP7 PUSH1 0x60 DUP11 ADD SWAP8 DUP9 MSTORE DUP9 ADD SLOAD SWAP8 PUSH1 0x80 DUP11 ADD SWAP9 DUP10 MSTORE ADD SLOAD AND SWAP7 ADD SWAP6 ISZERO ISZERO DUP7 MSTORE DUP3 MLOAD SWAP7 DUP8 MSTORE MLOAD PUSH1 0x20 DUP8 ADD MSTORE MLOAD SWAP1 DUP6 ADD MSTORE MLOAD PUSH1 0x60 DUP5 ADD MSTORE MLOAD PUSH1 0x80 DUP4 ADD MSTORE MLOAD ISZERO ISZERO PUSH1 0xA0 DUP3 ADD MSTORE RETURN JUMPDEST POP POP CALLVALUE PUSH2 0x4F2 JUMPI DUP2 PUSH1 0x3 NOT CALLDATASIZE ADD SLT PUSH2 0x4F2 JUMPI MLOAD PUSH32 0x0 PUSH1 0x1 PUSH1 0x1 PUSH1 0xA0 SHL SUB AND DUP2 MSTORE PUSH1 0x20 SWAP1 RETURN JUMPDEST POP SWAP1 CALLVALUE PUSH2 0x2B5 JUMPI PUSH1 0x20 DUP1 PUSH1 0x3 NOT CALLDATASIZE ADD SLT PUSH2 0xA21 JUMPI PUSH1 0x1 PUSH1 0x1 PUSH1 0xA0 SHL SUB SWAP4 SWAP1 SWAP3 DUP5 PUSH2 0x10E6 PUSH2 0x120C JUMP JUMPDEST AND DUP3 MSTORE DUP4 MSTORE DUP2 DUP2 KECCAK256 SWAP4 DUP3 MLOAD SWAP1 DUP2 SWAP5 DUP1 DUP8 SLOAD SWAP4 DUP5 DUP2 MSTORE ADD SWAP7 DUP5 MSTORE DUP1 DUP5 KECCAK256 SWAP4 SWAP2 JUMPDEST DUP4 DUP4 LT PUSH2 0x111D JUMPI PUSH2 0xE6A DUP8 DUP8 PUSH2 0xE60 DUP3 DUP13 SUB DUP4 PUSH2 0x130B JUMP JUMPDEST DUP5 SLOAD DUP2 AND DUP9 MSTORE SWAP7 DUP2 ADD SWAP7 PUSH1 0x1 SWAP5 DUP6 ADD SWAP5 SWAP1 SWAP3 ADD SWAP2 PUSH2 0x1105 JUMP JUMPDEST POP SWAP2 SWAP1 CALLVALUE PUSH2 0x4F2 JUMPI PUSH2 0x1147 CALLDATASIZE PUSH2 0x126B JUMP JUMPDEST PUSH1 0x1 PUSH1 0x1 PUSH1 0xA0 SHL SUB SWAP3 DUP4 AND DUP1 DUP7 MSTORE PUSH1 0x1 PUSH1 0x20 MSTORE DUP5 DUP7 KECCAK256 SLOAD SWAP1 SWAP5 SWAP4 AND CALLER SUB PUSH2 0x11B0 JUMPI SWAP1 PUSH32 0xDB5E31D489385293968CCF272C34FEFC513097707ABD331DE6F6D1C7C725BACB SWAP3 SWAP2 DUP5 DUP7 MSTORE PUSH1 0x1 PUSH1 0x20 MSTORE DUP1 PUSH1 0x2 DUP5 DUP9 KECCAK256 DUP5 PUSH1 0x1 DUP3 ADD SSTORE ADD SSTORE DUP3 MLOAD SWAP2 DUP3 MSTORE PUSH1 0x20 DUP3 ADD MSTORE LOG2 DUP1 RETURN JUMPDEST DUP3 MLOAD PUSH4 0xE41DCBF PUSH1 0xE2 SHL DUP2 MSTORE DUP7 SWAP1 REVERT JUMPDEST POP SWAP2 CALLVALUE PUSH2 0xEE0 JUMPI DUP2 PUSH1 0x3 NOT CALLDATASIZE ADD SLT PUSH2 0xEE0 JUMPI PUSH2 0x11DA PUSH2 0x120C JUMP JUMPDEST PUSH1 0x1 PUSH1 0x1 PUSH1 0xA0 SHL SUB SWAP1 DUP2 AND DUP3 MSTORE PUSH1 0x20 SWAP4 SWAP1 SWAP4 MSTORE DUP2 DUP2 KECCAK256 DUP1 SLOAD PUSH1 0x24 CALLDATALOAD SWAP5 SWAP3 SWAP1 DUP6 LT ISZERO PUSH2 0xEE0 JUMPI POP PUSH1 0x20 SWAP4 PUSH2 0xED1 SWAP2 PUSH2 0x123D JUMP JUMPDEST PUSH1 0x4 CALLDATALOAD SWAP1 PUSH1 0x1 PUSH1 0x1 PUSH1 0xA0 SHL SUB DUP3 AND DUP3 SUB PUSH2 0x1222 JUMPI JUMP JUMPDEST PUSH1 0x0 DUP1 REVERT JUMPDEST PUSH1 0x24 CALLDATALOAD SWAP1 PUSH1 0x1 PUSH1 0x1 PUSH1 0xA0 SHL SUB DUP3 AND DUP3 SUB PUSH2 0x1222 JUMPI JUMP JUMPDEST DUP1 SLOAD DUP3 LT ISZERO PUSH2 0x1255 JUMPI PUSH1 0x0 MSTORE PUSH1 0x20 PUSH1 0x0 KECCAK256 ADD SWAP1 PUSH1 0x0 SWAP1 JUMP JUMPDEST PUSH4 0x4E487B71 PUSH1 0xE0 SHL PUSH1 0x0 MSTORE PUSH1 0x32 PUSH1 0x4 MSTORE PUSH1 0x24 PUSH1 0x0 REVERT JUMPDEST PUSH1 0x60 SWAP1 PUSH1 0x3 NOT ADD SLT PUSH2 0x1222 JUMPI PUSH1 0x4 CALLDATALOAD PUSH1 0x1 PUSH1 0x1 PUSH1 0xA0 SHL SUB DUP2 AND DUP2 SUB PUSH2 0x1222 JUMPI SWAP1 PUSH1 0x24 CALLDATALOAD SWAP1 PUSH1 0x44 CALLDATALOAD SWAP1 JUMP JUMPDEST PUSH1 0x20 SWAP1 DUP2 PUSH1 0x40 DUP2 DUP4 ADD SWAP3 DUP3 DUP2 MSTORE DUP6 MLOAD DUP1 SWAP5 MSTORE ADD SWAP4 ADD SWAP2 PUSH1 0x0 JUMPDEST DUP3 DUP2 LT PUSH2 0x12BC JUMPI POP POP POP POP SWAP1 JUMP JUMPDEST DUP4 MLOAD PUSH1 0x1 PUSH1 0x1 PUSH1 0xA0 SHL SUB AND DUP6 MSTORE SWAP4 DUP2 ADD SWAP4 SWAP3 DUP2 ADD SWAP3 PUSH1 0x1 ADD PUSH2 0x12AE JUMP JUMPDEST PUSH1 0xC0 DUP2 ADD SWAP1 DUP2 LT PUSH8 0xFFFFFFFFFFFFFFFF DUP3 GT OR PUSH2 0x12F5 JUMPI PUSH1 0x40 MSTORE JUMP JUMPDEST PUSH4 0x4E487B71 PUSH1 0xE0 SHL PUSH1 0x0 MSTORE PUSH1 0x41 PUSH1 0x4 MSTORE PUSH1 0x24 PUSH1 0x0 REVERT JUMPDEST SWAP1 PUSH1 0x1F DUP1 NOT SWAP2 ADD AND DUP2 ADD SWAP1 DUP2 LT PUSH8 0xFFFFFFFFFFFFFFFF DUP3 GT OR PUSH2 0x12F5 JUMPI PUSH1 0x40 MSTORE JUMP JUMPDEST DUP1 SLOAD PUSH9 0x10000000000000000 DUP2 LT ISZERO PUSH2 0x12F5 JUMPI PUSH2 0x134F SWAP2 PUSH1 0x1 DUP3 ADD DUP2 SSTORE PUSH2 0x123D JUMP JUMPDEST DUP2 SWAP3 SWAP2 SLOAD SWAP1 PUSH1 0x3 SHL SWAP2 PUSH1 0x1 DUP1 PUSH1 0xA0 SHL SUB DUP1 SWAP2 AND DUP4 SHL SWAP3 SHL NOT AND OR SWAP1 SSTORE JUMP JUMPDEST SWAP2 SWAP1 DUP3 SUB SWAP2 DUP3 GT PUSH2 0x137A JUMPI JUMP JUMPDEST PUSH4 0x4E487B71 PUSH1 0xE0 SHL PUSH1 0x0 MSTORE PUSH1 0x11 PUSH1 0x4 MSTORE PUSH1 0x24 PUSH1 0x0 REVERT JUMPDEST SWAP2 SWAP1 DUP3 ADD DUP1 SWAP3 GT PUSH2 0x137A JUMPI JUMP JUMPDEST RETURNDATASIZE ISZERO PUSH2 0x13D8 JUMPI RETURNDATASIZE SWAP1 PUSH8 0xFFFFFFFFFFFFFFFF DUP3 GT PUSH2 0x12F5 JUMPI PUSH1 0x40 MLOAD SWAP2 PUSH2 0x13CC PUSH1 0x1F DUP3 ADD PUSH1 0x1F NOT AND PUSH1 0x20 ADD DUP5 PUSH2 0x130B JUMP JUMPDEST DUP3 MSTORE RETURNDATASIZE PUSH1 0x0 PUSH1 0x20 DUP5 ADD RETURNDATACOPY JUMP JUMPDEST PUSH1 0x60 SWAP1 JUMP JUMPDEST ISZERO PUSH2 0x13E4 JUMPI JUMP JUMPDEST PUSH1 0x40 MLOAD PUSH3 0x461BCD PUSH1 0xE5 SHL DUP2 MSTORE PUSH1 0x20 PUSH1 0x4 DUP3 ADD MSTORE PUSH1 0x16 PUSH1 0x24 DUP3 ADD MSTORE PUSH22 0x13985D1A5D99481D1C985B9CD9995C8819985A5B1959 PUSH1 0x52 SHL PUSH1 0x44 DUP3 ADD MSTORE PUSH1 0x64 SWAP1 REVERT JUMPDEST PUSH1 0x2 PUSH1 0x0 SLOAD EQ PUSH2 0x1433 JUMPI PUSH1 0x2 PUSH1 0x0 SSTORE JUMP JUMPDEST PUSH1 0x40 MLOAD PUSH4 0x3EE5AEB5 PUSH1 0xE0 SHL DUP2 MSTORE PUSH1 0x4 SWAP1 REVERT JUMPDEST PUSH1 0x1 DUP1 PUSH1 0xA0 SHL SUB AND PUSH1 0x0 MSTORE PUSH1 0x1 PUSH1 0x20 MSTORE PUSH1 0x40 PUSH1 0x0 KECCAK256 PUSH3 0x15180 DUP1 PUSH1 0x4 DUP4 ADD SLOAD DIV SWAP1 TIMESTAMP DIV GT PUSH2 0x1484 JUMPI DUP1 PUSH1 0x3 PUSH1 0x1 PUSH2 0x1481 SWAP4 ADD SLOAD SWAP2 ADD SLOAD SWAP1 PUSH2 0x136D JUMP JUMPDEST SWAP1 JUMP JUMPDEST PUSH1 0x1 ADD SLOAD SWAP1 JUMP INVALID 0x24 0x24 0x2C 0xC7 DUP9 0x2F 0xAF 0xEC PUSH30 0x76B752C98772C71E3A78EEF110B2F6E59B1F518A04D08A2646970667358 0x22 SLT KECCAK256 SLT NUMBER JUMPI COINBASE 0xDF 0xBC AND SAR 0xCB 0xBC LOG2 EQ 0xB7 0x2D PUSH3 0xE85CF0 CALLCODE PUSH4 0x3F5AFE40 PUSH32 0x3C8CEB98A6A3A764736F6C634300081400330000000000000000000000000000 "},"methodIdentifiers":{"addToBlacklist(address,address)":"fa90fba5","addToWhitelist(address,address)":"57518243","agentBalances(address)":"25b16a8b","agents(address)":"fd66091e","blacklist(address,address)":"ad28ff88","blacklistArray(address,uint256)":"5aca8efa","deactivateAgent(address)":"b0a0a927","depositFunds(address,uint256)":"921b004b","depositFundsNative(address)":"93210dd2","executePayment(address,uint256,string)":"b185404f","getAgentBalance(address)":"dc0acd54","getAgentConfig(address)":"56bad863","getBlacklist(address)":"5d77d8d0","getRemainingDailyBudget(address)":"b63dcc02","getWhitelist(address)":"30edc0f5","isBlacklisted(address,address)":"4028eddc","isWhitelisted(address,address)":"b6b35272","reactivateAgent(address)":"64c81794","registerAgent(address,uint256,uint256)":"ff2aabb0","removeFromBlacklist(address,address)":"9d8374b4","removeFromWhitelist(address,address)":"f8d3277d","updateAgent(address,uint256,uint256)":"2d4af9f2","usdc()":"3e413bee","whitelist(address,address)":"b092145e","whitelistArray(address,uint256)":"1ad398e7","withdrawFunds(address,uint256)":"c1075329"}}}}}