{"contracts/StreamPayment.sol":{"ArcPayStreamPayment":{"abi":[{"inputs":[{"internalType":"address","name":"_feeCollector","type":"address"},{"internalType":"uint256","name":"_protocolFee","type":"uint256"}],"stateMutability":"nonpayable","type":"constructor"},{"inputs":[],"name":"InvalidAddress","type":"error"},{"inputs":[],"name":"InvalidAmount","type":"error"},{"inputs":[],"name":"InvalidDuration","type":"error"},{"inputs":[],"name":"InvalidState","type":"error"},{"inputs":[],"name":"NotAuthorized","type":"error"},{"inputs":[],"name":"NothingToClaim","type":"error"},{"inputs":[],"name":"ReentrancyGuardReentrantCall","type":"error"},{"inputs":[],"name":"StreamEnded","type":"error"},{"inputs":[],"name":"StreamNotFound","type":"error"},{"inputs":[],"name":"StreamNotStarted","type":"error"},{"inputs":[],"name":"TransferFailed","type":"error"},{"anonymous":false,"inputs":[{"indexed":true,"internalType":"bytes32","name":"id","type":"bytes32"},{"indexed":false,"internalType":"uint256","name":"senderRefund","type":"uint256"},{"indexed":false,"internalType":"uint256","name":"recipientPayment","type":"uint256"}],"name":"StreamCancelled","type":"event"},{"anonymous":false,"inputs":[{"indexed":true,"internalType":"bytes32","name":"id","type":"bytes32"},{"indexed":true,"internalType":"address","name":"recipient","type":"address"},{"indexed":false,"internalType":"uint256","name":"amount","type":"uint256"}],"name":"StreamClaimed","type":"event"},{"anonymous":false,"inputs":[{"indexed":true,"internalType":"bytes32","name":"id","type":"bytes32"},{"indexed":false,"internalType":"uint256","name":"totalClaimed","type":"uint256"}],"name":"StreamCompleted","type":"event"},{"anonymous":false,"inputs":[{"indexed":true,"internalType":"bytes32","name":"id","type":"bytes32"},{"indexed":true,"internalType":"address","name":"sender","type":"address"},{"indexed":true,"internalType":"address","name":"recipient","type":"address"},{"indexed":false,"internalType":"uint256","name":"totalAmount","type":"uint256"},{"indexed":false,"internalType":"uint256","name":"ratePerSecond","type":"uint256"},{"indexed":false,"internalType":"uint256","name":"startTime","type":"uint256"},{"indexed":false,"internalType":"uint256","name":"endTime","type":"uint256"}],"name":"StreamCreated","type":"event"},{"anonymous":false,"inputs":[{"indexed":true,"internalType":"bytes32","name":"id","type":"bytes32"},{"indexed":false,"internalType":"uint256","name":"pausedAt","type":"uint256"}],"name":"StreamPaused","type":"event"},{"anonymous":false,"inputs":[{"indexed":true,"internalType":"bytes32","name":"id","type":"bytes32"},{"indexed":false,"internalType":"uint256","name":"resumedAt","type":"uint256"},{"indexed":false,"internalType":"uint256","name":"newEndTime","type":"uint256"}],"name":"StreamResumed","type":"event"},{"anonymous":false,"inputs":[{"indexed":true,"internalType":"bytes32","name":"id","type":"bytes32"},{"indexed":false,"internalType":"uint256","name":"addedAmount","type":"uint256"},{"indexed":false,"internalType":"uint256","name":"newEndTime","type":"uint256"}],"name":"StreamToppedUp","type":"event"},{"inputs":[{"internalType":"bytes32","name":"streamId","type":"bytes32"}],"name":"cancelStream","outputs":[],"stateMutability":"nonpayable","type":"function"},{"inputs":[{"internalType":"bytes32","name":"streamId","type":"bytes32"}],"name":"claim","outputs":[{"internalType":"uint256","name":"","type":"uint256"}],"stateMutability":"nonpayable","type":"function"},{"inputs":[{"internalType":"address","name":"recipient","type":"address"},{"internalType":"uint256","name":"totalAmount","type":"uint256"},{"internalType":"uint256","name":"startTime","type":"uint256"},{"internalType":"uint256","name":"endTime","type":"uint256"}],"name":"createScheduledStream","outputs":[{"internalType":"bytes32","name":"","type":"bytes32"}],"stateMutability":"payable","type":"function"},{"inputs":[{"internalType":"address","name":"recipient","type":"address"},{"internalType":"uint256","name":"totalAmount","type":"uint256"},{"internalType":"uint256","name":"duration","type":"uint256"}],"name":"createStream","outputs":[{"internalType":"bytes32","name":"","type":"bytes32"}],"stateMutability":"payable","type":"function"},{"inputs":[],"name":"feeCollector","outputs":[{"internalType":"address","name":"","type":"address"}],"stateMutability":"view","type":"function"},{"inputs":[{"internalType":"bytes32","name":"streamId","type":"bytes32"}],"name":"getClaimableAmount","outputs":[{"internalType":"uint256","name":"","type":"uint256"}],"stateMutability":"view","type":"function"},{"inputs":[{"internalType":"address","name":"recipient","type":"address"}],"name":"getRecipientStreams","outputs":[{"internalType":"bytes32[]","name":"","type":"bytes32[]"}],"stateMutability":"view","type":"function"},{"inputs":[{"internalType":"address","name":"sender","type":"address"}],"name":"getSenderStreams","outputs":[{"internalType":"bytes32[]","name":"","type":"bytes32[]"}],"stateMutability":"view","type":"function"},{"inputs":[{"internalType":"bytes32","name":"streamId","type":"bytes32"}],"name":"getStream","outputs":[{"components":[{"internalType":"bytes32","name":"id","type":"bytes32"},{"internalType":"address","name":"sender","type":"address"},{"internalType":"address","name":"recipient","type":"address"},{"internalType":"uint256","name":"totalAmount","type":"uint256"},{"internalType":"uint256","name":"claimedAmount","type":"uint256"},{"internalType":"uint256","name":"ratePerSecond","type":"uint256"},{"internalType":"uint256","name":"startTime","type":"uint256"},{"internalType":"uint256","name":"endTime","type":"uint256"},{"internalType":"uint256","name":"pausedAt","type":"uint256"},{"internalType":"uint256","name":"pausedDuration","type":"uint256"},{"internalType":"enum ArcPayStreamPayment.StreamState","name":"state","type":"uint8"}],"internalType":"struct ArcPayStreamPayment.Stream","name":"","type":"tuple"}],"stateMutability":"view","type":"function"},{"inputs":[{"internalType":"bytes32","name":"streamId","type":"bytes32"}],"name":"getStreamProgress","outputs":[{"internalType":"uint256","name":"totalAmount","type":"uint256"},{"internalType":"uint256","name":"claimedAmount","type":"uint256"},{"internalType":"uint256","name":"claimableAmount","type":"uint256"},{"internalType":"uint256","name":"remainingAmount","type":"uint256"},{"internalType":"uint256","name":"percentComplete","type":"uint256"}],"stateMutability":"view","type":"function"},{"inputs":[{"internalType":"bytes32","name":"streamId","type":"bytes32"}],"name":"pauseStream","outputs":[],"stateMutability":"nonpayable","type":"function"},{"inputs":[],"name":"protocolFee","outputs":[{"internalType":"uint256","name":"","type":"uint256"}],"stateMutability":"view","type":"function"},{"inputs":[{"internalType":"address","name":"","type":"address"},{"internalType":"uint256","name":"","type":"uint256"}],"name":"recipientStreams","outputs":[{"internalType":"bytes32","name":"","type":"bytes32"}],"stateMutability":"view","type":"function"},{"inputs":[{"internalType":"bytes32","name":"streamId","type":"bytes32"}],"name":"resumeStream","outputs":[],"stateMutability":"nonpayable","type":"function"},{"inputs":[{"internalType":"address","name":"","type":"address"},{"internalType":"uint256","name":"","type":"uint256"}],"name":"senderStreams","outputs":[{"internalType":"bytes32","name":"","type":"bytes32"}],"stateMutability":"view","type":"function"},{"inputs":[{"internalType":"address","name":"_feeCollector","type":"address"}],"name":"setFeeCollector","outputs":[],"stateMutability":"nonpayable","type":"function"},{"inputs":[{"internalType":"uint256","name":"_protocolFee","type":"uint256"}],"name":"setProtocolFee","outputs":[],"stateMutability":"nonpayable","type":"function"},{"inputs":[],"name":"streamCount","outputs":[{"internalType":"uint256","name":"","type":"uint256"}],"stateMutability":"view","type":"function"},{"inputs":[{"internalType":"bytes32","name":"","type":"bytes32"}],"name":"streams","outputs":[{"internalType":"bytes32","name":"id","type":"bytes32"},{"internalType":"address","name":"sender","type":"address"},{"internalType":"address","name":"recipient","type":"address"},{"internalType":"uint256","name":"totalAmount","type":"uint256"},{"internalType":"uint256","name":"claimedAmount","type":"uint256"},{"internalType":"uint256","name":"ratePerSecond","type":"uint256"},{"internalType":"uint256","name":"startTime","type":"uint256"},{"internalType":"uint256","name":"endTime","type":"uint256"},{"internalType":"uint256","name":"pausedAt","type":"uint256"},{"internalType":"uint256","name":"pausedDuration","type":"uint256"},{"internalType":"enum ArcPayStreamPayment.StreamState","name":"state","type":"uint8"}],"stateMutability":"view","type":"function"},{"inputs":[{"internalType":"bytes32","name":"streamId","type":"bytes32"}],"name":"topUpStream","outputs":[],"stateMutability":"payable","type":"function"},{"stateMutability":"payable","type":"receive"}],"evm":{"bytecode":{"linkReferences":{},"object":"60803461009a57601f61160e38819003918201601f19168301916001600160401b0383118484101761009f57808492604094855283398101031261009a5780516001600160a01b038116919082900361009a5760200151906001600055801561008857600380546001600160a01b03191691909117905560025560405161155890816100b68239f35b60405163e6c4247b60e01b8152600490fd5b600080fd5b634e487b7160e01b600052604160045260246000fdfe608080604052600436101561001d575b50361561001b57600080fd5b005b60003560e01c9081631290abe814611009575080632019de2814610fbf57806350be339414610f31578063787dce3d14610ec65780637f7bd2df14610e1557806389d0e11914610df757806395dfb95114610d3257806396890e8814610c59578063a42dce8014610c0e578063a8693d5214610b5b578063acc8e1c1146108ce578063b0e21e8a146108b0578063bb64fd441461088a578063bd66528a14610707578063c019f4fc1461068f578063c415b95c14610666578063cb3d97d9146104ce578063cd9e3fe8146101eb578063dbf13122146101935763f7afe90214610106573861000f565b3461018e5760208060031936011261018e576001600160a01b036101286111a0565b1660005260068152604060002090604051908181845491828152019360005281600020916000905b828210610177576101738561016781890382611281565b604051918291826111e4565b0390f35b835486529485019460019384019390910190610150565b600080fd5b3461018e57604036600319011261018e576101ac6111a0565b6001600160a01b031660009081526006602052604090208054602435919082101561018e576020916101dd916111b6565b90546040519160031b1c8152f35b606036600319011261018e576101ff6111a0565b610207611302565b6001600160a01b038116156104bc576001600160a01b03811633146104bc57341561049857602435340361049857604435156104aa5761024b60443560243561121f565b80156104985760015461025d8161123f565b60015560405133606090811b6bffffffffffffffffffffffff19908116602084019081529186901b166034830152602435604883015242606883015260888201929092526102b88160a881015b03601f198101835282611281565b519020906102c8604435426112a3565b90604051936102d68561124e565b83855233602086015260018060a01b03811660408601526024356060860152600060808601528160a08601524260c08601528260e0860152600061010086015260006101208601526000610140860152836000526004602052610140604060002095805187556001870160018060a01b03602083015116906bffffffffffffffffffffffff60a01b9182825416179055600288019060018060a01b0360408401511690825416179055606081015160038801556080810151600488015560a0810151600588015560c0810151600688015560e08101516007880155610100810151600888015561012081015160098801550151946004861015610482576104728592610408602098600a7f272473124f7bc3dc48f49ee1689c95c5e383fe762acf7ea2a8a6cb1029f77d1995016112b0565b336000526005885261041e8460406000206112c8565b60018060a01b0381166000526006885261043c8460406000206112c8565b6040805160243581526020810196909652429086015260608501959095526001600160a01b039094169333939081906080820190565b0390a46001600055604051908152f35b634e487b7160e01b600052602160045260246000fd5b60405163162908e360e11b8152600490fd5b604051637616640160e01b8152600490fd5b60405163e6c4247b60e01b8152600490fd5b3461018e57602036600319011261018e576004356104ea611302565b600081815260046020526040902060018101805490916001600160a01b03918216801561065457330361064257600a810180549360ff851660048110156104825760028114908115610637575b50610625577fbe99d604d55dd3340971855337d2dde5515f540cd04a0738b8b07436ebd6e1ff9460409460029461056d896113c3565b80956105a182600385015460048601936105928361058d87548095611325565b611325565b9b8c9960ff19161790556112a3565b905582816105db575b505050816105c8575b50505082519182526020820152a26001600055005b6105d3925416611345565b8582816105b3565b610600926127106105ee60025485611332565b0480610608575b506002015416611345565b8880826105aa565b806002929461058d61061e938660035416611345565b92906105f5565b60405163baf3f0f760e01b8152600490fd5b600391501487610537565b60405163ea8e4eb560e01b8152600490fd5b6040516309e4397760e11b8152600490fd5b3461018e57600036600319011261018e576003546040516001600160a01b039091168152602090f35b3461018e5760208060031936011261018e576001600160a01b036106b16111a0565b1660005260058152604060002090604051908181845491828152019360005281600020916000905b8282106106f0576101738561016781890382611281565b8354865294850194600193840193909101906106d9565b3461018e57602036600319011261018e57600435610723611302565b6000818152600460205260409020600181015490916001600160a01b039182161561065457600283019180835416330361064257600a84019283549460ff86166004811015610482576002811490811561087f575b5061062557610786846113c3565b94851561086d576020968260036004889501916107a48a84546112a3565b8093550154811015610830575b505050506107e36127106107c760025487611332565b046107d28187611325565b908061081c575b5083835416611345565b5416907f51f17e54b4babb994b0311374a7c1d7c2668635b76ec4f81e4118fd3b406924d84604051858152a36001600055604051908152f35b61082a908560035416611345565b876107d9565b7ff36c430bc940c04132212a8fe964af1705d6f28a641cf90b21c840a750933eb89260038a9360ff1916179055604051908152a2828680806107b1565b6040516312d37ee560e31b8152600490fd5b600391501487610778565b3461018e57602036600319011261018e5760206108a86004356113c3565b604051908152f35b3461018e57600036600319011261018e576020600254604051908152f35b608036600319011261018e576108e26111a0565b6108ea611302565b6001600160a01b038116156104bc576001600160a01b03811633146104bc5734156104985760243534036104985742604435106104aa5760443560643511156104aa5761094661093e604435606435611325565b60243561121f565b908115610498576001546109598161123f565b60015560405133606090811b6bffffffffffffffffffffffff19908116602084019081529185901b166034830152602435604883015242606883015260888201929092526109aa8160a881016102aa565b51902090604051926109bb8461124e565b82845233602085015260018060a01b03821660408501526024356060850152600060808501528060a085015260443560c085015260643560e0850152600061010085015260006101208501526000610140850152826000526004602052610140604060002094805186556001860160018060a01b03602083015116906bffffffffffffffffffffffff60a01b9182825416179055600287019060018060a01b0360408401511690825416179055606081015160038701556080810151600487015560a0810151600587015560c0810151600687015560e0810151600787015561010081015160088701556101208101516009870155015193600485101561048257602094600a610acb92016112b0565b3360005260058452610ae18360406000206112c8565b60018060a01b03821660005260068452610aff8360406000206112c8565b60408051602435815260208101929092526044359082015260643560608201526001600160a01b0390911690339083907f272473124f7bc3dc48f49ee1689c95c5e383fe762acf7ea2a8a6cb1029f77d19908060808101610472565b3461018e57602036600319011261018e576004358060005260046020526040600020610b9060046003830154920154926113c3565b91610b9f8361058d8385611325565b8215610c0357610baf84836112a3565b93606485029480860460641490151715610bed57610bcf8460a09661121f565b925b6040519485526020850152604084015260608301526080820152f35b634e487b7160e01b600052601160045260246000fd5b60a093600092610bd1565b3461018e57602036600319011261018e57610c276111a0565b600354906001600160a01b0390610c4133838516146114e5565b169081156104bc576001600160a01b03191617600355005b602036600319011261018e57600435610c70611302565b600081815260046020526040902060018101546001600160a01b031680156106545733036106425760ff600a820154166004811015610482578015159081610d26575b506106255734156104985760408160037fa7804aa224707b79ad0a4b929e57c9c3fb451ab6d4930dbf9daaf0900eda14179301610cf13482546112a3565b9055610d106007610d0660058401543461121f565b92019182546112a3565b8091558151903482526020820152a26001600055005b60019150141583610cb3565b3461018e57602036600319011261018e57600435806000526004602052604060002060018060a01b03600182015416801561065457330361064257600a81019081549060ff8216600481101561048257600103610625577f67378ce188b792c571058050f012103bfbb4b4c5d66b4341ce417d3f222901fd92604092600060088401610ddf6007610dc4835442611325565b9660098101610dd48982546112a3565b9055019586546112a3565b8095555560ff191690558151904282526020820152a2005b3461018e57600036600319011261018e576020600154604051908152f35b3461018e57602036600319011261018e5760043560005260046020526101606040600020610ec481549160018060a01b0390816001820154169160028201541660038201546004830154600584015460068501549160078601549360088701549560ff600a60098a015499015416986040519b8c5260208c015260408b015260608a0152608089015260a088015260c087015260e0860152610100850152610120840152610140830190611193565bf35b3461018e57602036600319011261018e57600435610eef60018060a01b036003541633146114e5565b6101f48111610efd57600255005b60405162461bcd60e51b815260206004820152600c60248201526b08ccaca40e8dede40d0d2ced60a31b6044820152606490fd5b3461018e57602036600319011261018e57600435806000526004602052604060002060018060a01b03600182015416801561065457330361064257600a8101805460ff81166004811015610482576106255760019060ff19161790556008429101557ffacec5cbc0fc96fa82af9be34ee99eb885a40c2f2ea1bff73704ea4e209950496020604051428152a2005b3461018e57604036600319011261018e57610fd86111a0565b6001600160a01b031660009081526005602052604090208054602435919082101561018e576020916101dd916111b6565b3461018e57602036600319011261018e576101408161102960009361124e565b8281528260208201528260408201528260608201528260808201528260a08201528260c08201528260e0820152826101008201528261012082015201526004356000526004602052604060002060ff600a604051926110878461124e565b8054845260018101546001600160a01b0390811660208601526002820154166040850152600381015460608501526004808201546080860152600582015460a0860152600682015460c0860152600782015460e0860152600882015461010086015260098201546101208601529101549190911691908210156104825761016091610140820152610ec4610140604051928051845260018060a01b03602082015116602085015260018060a01b036040820151166040850152606081015160608501526080810151608085015260a081015160a085015260c081015160c085015260e081015160e085015261010081015161010085015261012081015161012085015201516101408301905b9060048210156104825752565b600435906001600160a01b038216820361018e57565b80548210156111ce5760005260206000200190600090565b634e487b7160e01b600052603260045260246000fd5b6020908160408183019282815285518094520193019160005b82811061120b575050505090565b8351855293810193928101926001016111fd565b8115611229570490565b634e487b7160e01b600052601260045260246000fd5b6000198114610bed5760010190565b610160810190811067ffffffffffffffff82111761126b57604052565b634e487b7160e01b600052604160045260246000fd5b90601f8019910116810190811067ffffffffffffffff82111761126b57604052565b91908201809211610bed57565b9060048110156104825760ff80198354169116179055565b80546801000000000000000081101561126b576112ea916001820181556111b6565b819291549060031b91821b91600019901b1916179055565b600260005414611313576002600055565b604051633ee5aeb560e01b8152600490fd5b91908203918211610bed57565b81810292918115918404141715610bed57565b600080808094819460018060a01b03165af1903d156113bd573d9067ffffffffffffffff82116113a95760405191611387601f8201601f191660200184611281565b825260203d92013e5b1561139757565b6040516312171d8360e31b8152600490fd5b634e487b7160e01b81526041600452602490fd5b50611390565b600090815260046020526040812060018101546001600160a01b0316156114e15760ff600a820154166004811015806114cd576002821480156114c1575b6114a1576114ad576001036114a75760088101545b60068201548082106114a15760078301546114569281811061148d575061144b9161144091611325565b600984015490611325565b600583015490611332565b906003810154808311611484575b5060040154908181111561147f5761147c9250611325565b90565b505090565b91506004611464565b61144091509161149c92611325565b61144b565b50505090565b42611416565b634e487b7160e01b83526021600452602483fd5b50508260038214611401565b634e487b7160e01b84526021600452602484fd5b5090565b156114ec57565b60405162461bcd60e51b815260206004820152600e60248201526d139bdd08185d5d1a1bdc9a5e995960921b6044820152606490fdfea2646970667358221220766aad5c375186fdef94bf82a1dd6898bfb9e438e2b7e497f1a213dd445a1d4364736f6c63430008140033","opcodes":"PUSH1 0x80 CALLVALUE PUSH2 0x9A JUMPI PUSH1 0x1F PUSH2 0x160E CODESIZE DUP2 SWAP1 SUB SWAP2 DUP3 ADD PUSH1 0x1F NOT AND DUP4 ADD SWAP2 PUSH1 0x1 PUSH1 0x1 PUSH1 0x40 SHL SUB DUP4 GT DUP5 DUP5 LT OR PUSH2 0x9F JUMPI DUP1 DUP5 SWAP3 PUSH1 0x40 SWAP5 DUP6 MSTORE DUP4 CODECOPY DUP2 ADD SUB SLT PUSH2 0x9A JUMPI DUP1 MLOAD PUSH1 0x1 PUSH1 0x1 PUSH1 0xA0 SHL SUB DUP2 AND SWAP2 SWAP1 DUP3 SWAP1 SUB PUSH2 0x9A JUMPI PUSH1 0x20 ADD MLOAD SWAP1 PUSH1 0x1 PUSH1 0x0 SSTORE DUP1 ISZERO PUSH2 0x88 JUMPI PUSH1 0x3 DUP1 SLOAD PUSH1 0x1 PUSH1 0x1 PUSH1 0xA0 SHL SUB NOT AND SWAP2 SWAP1 SWAP2 OR SWAP1 SSTORE PUSH1 0x2 SSTORE PUSH1 0x40 MLOAD PUSH2 0x1558 SWAP1 DUP2 PUSH2 0xB6 DUP3 CODECOPY RETURN JUMPDEST PUSH1 0x40 MLOAD PUSH4 0xE6C4247B PUSH1 0xE0 SHL DUP2 MSTORE PUSH1 0x4 SWAP1 REVERT JUMPDEST PUSH1 0x0 DUP1 REVERT JUMPDEST PUSH4 0x4E487B71 PUSH1 0xE0 SHL PUSH1 0x0 MSTORE PUSH1 0x41 PUSH1 0x4 MSTORE PUSH1 0x24 PUSH1 0x0 REVERT INVALID PUSH1 0x80 DUP1 PUSH1 0x40 MSTORE PUSH1 0x4 CALLDATASIZE LT ISZERO PUSH2 0x1D JUMPI JUMPDEST POP CALLDATASIZE ISZERO PUSH2 0x1B JUMPI PUSH1 0x0 DUP1 REVERT JUMPDEST STOP JUMPDEST PUSH1 0x0 CALLDATALOAD PUSH1 0xE0 SHR SWAP1 DUP2 PUSH4 0x1290ABE8 EQ PUSH2 0x1009 JUMPI POP DUP1 PUSH4 0x2019DE28 EQ PUSH2 0xFBF JUMPI DUP1 PUSH4 0x50BE3394 EQ PUSH2 0xF31 JUMPI DUP1 PUSH4 0x787DCE3D EQ PUSH2 0xEC6 JUMPI DUP1 PUSH4 0x7F7BD2DF EQ PUSH2 0xE15 JUMPI DUP1 PUSH4 0x89D0E119 EQ PUSH2 0xDF7 JUMPI DUP1 PUSH4 0x95DFB951 EQ PUSH2 0xD32 JUMPI DUP1 PUSH4 0x96890E88 EQ PUSH2 0xC59 JUMPI DUP1 PUSH4 0xA42DCE80 EQ PUSH2 0xC0E JUMPI DUP1 PUSH4 0xA8693D52 EQ PUSH2 0xB5B JUMPI DUP1 PUSH4 0xACC8E1C1 EQ PUSH2 0x8CE JUMPI DUP1 PUSH4 0xB0E21E8A EQ PUSH2 0x8B0 JUMPI DUP1 PUSH4 0xBB64FD44 EQ PUSH2 0x88A JUMPI DUP1 PUSH4 0xBD66528A EQ PUSH2 0x707 JUMPI DUP1 PUSH4 0xC019F4FC EQ PUSH2 0x68F JUMPI DUP1 PUSH4 0xC415B95C EQ PUSH2 0x666 JUMPI DUP1 PUSH4 0xCB3D97D9 EQ PUSH2 0x4CE JUMPI DUP1 PUSH4 0xCD9E3FE8 EQ PUSH2 0x1EB JUMPI DUP1 PUSH4 0xDBF13122 EQ PUSH2 0x193 JUMPI PUSH4 0xF7AFE902 EQ PUSH2 0x106 JUMPI CODESIZE PUSH2 0xF JUMP JUMPDEST CALLVALUE PUSH2 0x18E JUMPI PUSH1 0x20 DUP1 PUSH1 0x3 NOT CALLDATASIZE ADD SLT PUSH2 0x18E JUMPI PUSH1 0x1 PUSH1 0x1 PUSH1 0xA0 SHL SUB PUSH2 0x128 PUSH2 0x11A0 JUMP JUMPDEST AND PUSH1 0x0 MSTORE PUSH1 0x6 DUP2 MSTORE PUSH1 0x40 PUSH1 0x0 KECCAK256 SWAP1 PUSH1 0x40 MLOAD SWAP1 DUP2 DUP2 DUP5 SLOAD SWAP2 DUP3 DUP2 MSTORE ADD SWAP4 PUSH1 0x0 MSTORE DUP2 PUSH1 0x0 KECCAK256 SWAP2 PUSH1 0x0 SWAP1 JUMPDEST DUP3 DUP3 LT PUSH2 0x177 JUMPI PUSH2 0x173 DUP6 PUSH2 0x167 DUP2 DUP10 SUB DUP3 PUSH2 0x1281 JUMP JUMPDEST PUSH1 0x40 MLOAD SWAP2 DUP3 SWAP2 DUP3 PUSH2 0x11E4 JUMP JUMPDEST SUB SWAP1 RETURN JUMPDEST DUP4 SLOAD DUP7 MSTORE SWAP5 DUP6 ADD SWAP5 PUSH1 0x1 SWAP4 DUP5 ADD SWAP4 SWAP1 SWAP2 ADD SWAP1 PUSH2 0x150 JUMP JUMPDEST PUSH1 0x0 DUP1 REVERT JUMPDEST CALLVALUE PUSH2 0x18E JUMPI PUSH1 0x40 CALLDATASIZE PUSH1 0x3 NOT ADD SLT PUSH2 0x18E JUMPI PUSH2 0x1AC PUSH2 0x11A0 JUMP JUMPDEST PUSH1 0x1 PUSH1 0x1 PUSH1 0xA0 SHL SUB AND PUSH1 0x0 SWAP1 DUP2 MSTORE PUSH1 0x6 PUSH1 0x20 MSTORE PUSH1 0x40 SWAP1 KECCAK256 DUP1 SLOAD PUSH1 0x24 CALLDATALOAD SWAP2 SWAP1 DUP3 LT ISZERO PUSH2 0x18E JUMPI PUSH1 0x20 SWAP2 PUSH2 0x1DD SWAP2 PUSH2 0x11B6 JUMP JUMPDEST SWAP1 SLOAD PUSH1 0x40 MLOAD SWAP2 PUSH1 0x3 SHL SHR DUP2 MSTORE RETURN JUMPDEST PUSH1 0x60 CALLDATASIZE PUSH1 0x3 NOT ADD SLT PUSH2 0x18E JUMPI PUSH2 0x1FF PUSH2 0x11A0 JUMP JUMPDEST PUSH2 0x207 PUSH2 0x1302 JUMP JUMPDEST PUSH1 0x1 PUSH1 0x1 PUSH1 0xA0 SHL SUB DUP2 AND ISZERO PUSH2 0x4BC JUMPI PUSH1 0x1 PUSH1 0x1 PUSH1 0xA0 SHL SUB DUP2 AND CALLER EQ PUSH2 0x4BC JUMPI CALLVALUE ISZERO PUSH2 0x498 JUMPI PUSH1 0x24 CALLDATALOAD CALLVALUE SUB PUSH2 0x498 JUMPI PUSH1 0x44 CALLDATALOAD ISZERO PUSH2 0x4AA JUMPI PUSH2 0x24B PUSH1 0x44 CALLDATALOAD PUSH1 0x24 CALLDATALOAD PUSH2 0x121F JUMP JUMPDEST DUP1 ISZERO PUSH2 0x498 JUMPI PUSH1 0x1 SLOAD PUSH2 0x25D DUP2 PUSH2 0x123F JUMP JUMPDEST PUSH1 0x1 SSTORE PUSH1 0x40 MLOAD CALLER PUSH1 0x60 SWAP1 DUP2 SHL PUSH12 0xFFFFFFFFFFFFFFFFFFFFFFFF NOT SWAP1 DUP2 AND PUSH1 0x20 DUP5 ADD SWAP1 DUP2 MSTORE SWAP2 DUP7 SWAP1 SHL AND PUSH1 0x34 DUP4 ADD MSTORE PUSH1 0x24 CALLDATALOAD PUSH1 0x48 DUP4 ADD MSTORE TIMESTAMP PUSH1 0x68 DUP4 ADD MSTORE PUSH1 0x88 DUP3 ADD SWAP3 SWAP1 SWAP3 MSTORE PUSH2 0x2B8 DUP2 PUSH1 0xA8 DUP2 ADD JUMPDEST SUB PUSH1 0x1F NOT DUP2 ADD DUP4 MSTORE DUP3 PUSH2 0x1281 JUMP JUMPDEST MLOAD SWAP1 KECCAK256 SWAP1 PUSH2 0x2C8 PUSH1 0x44 CALLDATALOAD TIMESTAMP PUSH2 0x12A3 JUMP JUMPDEST SWAP1 PUSH1 0x40 MLOAD SWAP4 PUSH2 0x2D6 DUP6 PUSH2 0x124E JUMP JUMPDEST DUP4 DUP6 MSTORE CALLER PUSH1 0x20 DUP7 ADD MSTORE PUSH1 0x1 DUP1 PUSH1 0xA0 SHL SUB DUP2 AND PUSH1 0x40 DUP7 ADD MSTORE PUSH1 0x24 CALLDATALOAD PUSH1 0x60 DUP7 ADD MSTORE PUSH1 0x0 PUSH1 0x80 DUP7 ADD MSTORE DUP2 PUSH1 0xA0 DUP7 ADD MSTORE TIMESTAMP PUSH1 0xC0 DUP7 ADD MSTORE DUP3 PUSH1 0xE0 DUP7 ADD MSTORE PUSH1 0x0 PUSH2 0x100 DUP7 ADD MSTORE PUSH1 0x0 PUSH2 0x120 DUP7 ADD MSTORE PUSH1 0x0 PUSH2 0x140 DUP7 ADD MSTORE DUP4 PUSH1 0x0 MSTORE PUSH1 0x4 PUSH1 0x20 MSTORE PUSH2 0x140 PUSH1 0x40 PUSH1 0x0 KECCAK256 SWAP6 DUP1 MLOAD DUP8 SSTORE PUSH1 0x1 DUP8 ADD PUSH1 0x1 DUP1 PUSH1 0xA0 SHL SUB PUSH1 0x20 DUP4 ADD MLOAD AND SWAP1 PUSH12 0xFFFFFFFFFFFFFFFFFFFFFFFF PUSH1 0xA0 SHL SWAP2 DUP3 DUP3 SLOAD AND OR SWAP1 SSTORE PUSH1 0x2 DUP9 ADD SWAP1 PUSH1 0x1 DUP1 PUSH1 0xA0 SHL SUB PUSH1 0x40 DUP5 ADD MLOAD AND SWAP1 DUP3 SLOAD AND OR SWAP1 SSTORE PUSH1 0x60 DUP2 ADD MLOAD PUSH1 0x3 DUP9 ADD SSTORE PUSH1 0x80 DUP2 ADD MLOAD PUSH1 0x4 DUP9 ADD SSTORE PUSH1 0xA0 DUP2 ADD MLOAD PUSH1 0x5 DUP9 ADD SSTORE PUSH1 0xC0 DUP2 ADD MLOAD PUSH1 0x6 DUP9 ADD SSTORE PUSH1 0xE0 DUP2 ADD MLOAD PUSH1 0x7 DUP9 ADD SSTORE PUSH2 0x100 DUP2 ADD MLOAD PUSH1 0x8 DUP9 ADD SSTORE PUSH2 0x120 DUP2 ADD MLOAD PUSH1 0x9 DUP9 ADD SSTORE ADD MLOAD SWAP5 PUSH1 0x4 DUP7 LT ISZERO PUSH2 0x482 JUMPI PUSH2 0x472 DUP6 SWAP3 PUSH2 0x408 PUSH1 0x20 SWAP9 PUSH1 0xA PUSH32 0x272473124F7BC3DC48F49EE1689C95C5E383FE762ACF7EA2A8A6CB1029F77D19 SWAP6 ADD PUSH2 0x12B0 JUMP JUMPDEST CALLER PUSH1 0x0 MSTORE PUSH1 0x5 DUP9 MSTORE PUSH2 0x41E DUP5 PUSH1 0x40 PUSH1 0x0 KECCAK256 PUSH2 0x12C8 JUMP JUMPDEST PUSH1 0x1 DUP1 PUSH1 0xA0 SHL SUB DUP2 AND PUSH1 0x0 MSTORE PUSH1 0x6 DUP9 MSTORE PUSH2 0x43C DUP5 PUSH1 0x40 PUSH1 0x0 KECCAK256 PUSH2 0x12C8 JUMP JUMPDEST PUSH1 0x40 DUP1 MLOAD PUSH1 0x24 CALLDATALOAD DUP2 MSTORE PUSH1 0x20 DUP2 ADD SWAP7 SWAP1 SWAP7 MSTORE TIMESTAMP SWAP1 DUP7 ADD MSTORE PUSH1 0x60 DUP6 ADD SWAP6 SWAP1 SWAP6 MSTORE PUSH1 0x1 PUSH1 0x1 PUSH1 0xA0 SHL SUB SWAP1 SWAP5 AND SWAP4 CALLER SWAP4 SWAP1 DUP2 SWAP1 PUSH1 0x80 DUP3 ADD SWAP1 JUMP JUMPDEST SUB SWAP1 LOG4 PUSH1 0x1 PUSH1 0x0 SSTORE PUSH1 0x40 MLOAD SWAP1 DUP2 MSTORE RETURN JUMPDEST PUSH4 0x4E487B71 PUSH1 0xE0 SHL PUSH1 0x0 MSTORE PUSH1 0x21 PUSH1 0x4 MSTORE PUSH1 0x24 PUSH1 0x0 REVERT JUMPDEST PUSH1 0x40 MLOAD PUSH4 0x162908E3 PUSH1 0xE1 SHL DUP2 MSTORE PUSH1 0x4 SWAP1 REVERT JUMPDEST PUSH1 0x40 MLOAD PUSH4 0x76166401 PUSH1 0xE0 SHL DUP2 MSTORE PUSH1 0x4 SWAP1 REVERT JUMPDEST PUSH1 0x40 MLOAD PUSH4 0xE6C4247B PUSH1 0xE0 SHL DUP2 MSTORE PUSH1 0x4 SWAP1 REVERT JUMPDEST CALLVALUE PUSH2 0x18E JUMPI PUSH1 0x20 CALLDATASIZE PUSH1 0x3 NOT ADD SLT PUSH2 0x18E JUMPI PUSH1 0x4 CALLDATALOAD PUSH2 0x4EA PUSH2 0x1302 JUMP JUMPDEST PUSH1 0x0 DUP2 DUP2 MSTORE PUSH1 0x4 PUSH1 0x20 MSTORE PUSH1 0x40 SWAP1 KECCAK256 PUSH1 0x1 DUP2 ADD DUP1 SLOAD SWAP1 SWAP2 PUSH1 0x1 PUSH1 0x1 PUSH1 0xA0 SHL SUB SWAP2 DUP3 AND DUP1 ISZERO PUSH2 0x654 JUMPI CALLER SUB PUSH2 0x642 JUMPI PUSH1 0xA DUP2 ADD DUP1 SLOAD SWAP4 PUSH1 0xFF DUP6 AND PUSH1 0x4 DUP2 LT ISZERO PUSH2 0x482 JUMPI PUSH1 0x2 DUP2 EQ SWAP1 DUP2 ISZERO PUSH2 0x637 JUMPI JUMPDEST POP PUSH2 0x625 JUMPI PUSH32 0xBE99D604D55DD3340971855337D2DDE5515F540CD04A0738B8B07436EBD6E1FF SWAP5 PUSH1 0x40 SWAP5 PUSH1 0x2 SWAP5 PUSH2 0x56D DUP10 PUSH2 0x13C3 JUMP JUMPDEST DUP1 SWAP6 PUSH2 0x5A1 DUP3 PUSH1 0x3 DUP6 ADD SLOAD PUSH1 0x4 DUP7 ADD SWAP4 PUSH2 0x592 DUP4 PUSH2 0x58D DUP8 SLOAD DUP1 SWAP6 PUSH2 0x1325 JUMP JUMPDEST PUSH2 0x1325 JUMP JUMPDEST SWAP12 DUP13 SWAP10 PUSH1 0xFF NOT AND OR SWAP1 SSTORE PUSH2 0x12A3 JUMP JUMPDEST SWAP1 SSTORE DUP3 DUP2 PUSH2 0x5DB JUMPI JUMPDEST POP POP POP DUP2 PUSH2 0x5C8 JUMPI JUMPDEST POP POP POP DUP3 MLOAD SWAP2 DUP3 MSTORE PUSH1 0x20 DUP3 ADD MSTORE LOG2 PUSH1 0x1 PUSH1 0x0 SSTORE STOP JUMPDEST PUSH2 0x5D3 SWAP3 SLOAD AND PUSH2 0x1345 JUMP JUMPDEST DUP6 DUP3 DUP2 PUSH2 0x5B3 JUMP JUMPDEST PUSH2 0x600 SWAP3 PUSH2 0x2710 PUSH2 0x5EE PUSH1 0x2 SLOAD DUP6 PUSH2 0x1332 JUMP JUMPDEST DIV DUP1 PUSH2 0x608 JUMPI JUMPDEST POP PUSH1 0x2 ADD SLOAD AND PUSH2 0x1345 JUMP JUMPDEST DUP9 DUP1 DUP3 PUSH2 0x5AA JUMP JUMPDEST DUP1 PUSH1 0x2 SWAP3 SWAP5 PUSH2 0x58D PUSH2 0x61E SWAP4 DUP7 PUSH1 0x3 SLOAD AND PUSH2 0x1345 JUMP JUMPDEST SWAP3 SWAP1 PUSH2 0x5F5 JUMP JUMPDEST PUSH1 0x40 MLOAD PUSH4 0xBAF3F0F7 PUSH1 0xE0 SHL DUP2 MSTORE PUSH1 0x4 SWAP1 REVERT JUMPDEST PUSH1 0x3 SWAP2 POP EQ DUP8 PUSH2 0x537 JUMP JUMPDEST PUSH1 0x40 MLOAD PUSH4 0xEA8E4EB5 PUSH1 0xE0 SHL DUP2 MSTORE PUSH1 0x4 SWAP1 REVERT JUMPDEST PUSH1 0x40 MLOAD PUSH4 0x9E43977 PUSH1 0xE1 SHL DUP2 MSTORE PUSH1 0x4 SWAP1 REVERT JUMPDEST CALLVALUE PUSH2 0x18E JUMPI PUSH1 0x0 CALLDATASIZE PUSH1 0x3 NOT ADD SLT PUSH2 0x18E JUMPI PUSH1 0x3 SLOAD PUSH1 0x40 MLOAD PUSH1 0x1 PUSH1 0x1 PUSH1 0xA0 SHL SUB SWAP1 SWAP2 AND DUP2 MSTORE PUSH1 0x20 SWAP1 RETURN JUMPDEST CALLVALUE PUSH2 0x18E JUMPI PUSH1 0x20 DUP1 PUSH1 0x3 NOT CALLDATASIZE ADD SLT PUSH2 0x18E JUMPI PUSH1 0x1 PUSH1 0x1 PUSH1 0xA0 SHL SUB PUSH2 0x6B1 PUSH2 0x11A0 JUMP JUMPDEST AND PUSH1 0x0 MSTORE PUSH1 0x5 DUP2 MSTORE PUSH1 0x40 PUSH1 0x0 KECCAK256 SWAP1 PUSH1 0x40 MLOAD SWAP1 DUP2 DUP2 DUP5 SLOAD SWAP2 DUP3 DUP2 MSTORE ADD SWAP4 PUSH1 0x0 MSTORE DUP2 PUSH1 0x0 KECCAK256 SWAP2 PUSH1 0x0 SWAP1 JUMPDEST DUP3 DUP3 LT PUSH2 0x6F0 JUMPI PUSH2 0x173 DUP6 PUSH2 0x167 DUP2 DUP10 SUB DUP3 PUSH2 0x1281 JUMP JUMPDEST DUP4 SLOAD DUP7 MSTORE SWAP5 DUP6 ADD SWAP5 PUSH1 0x1 SWAP4 DUP5 ADD SWAP4 SWAP1 SWAP2 ADD SWAP1 PUSH2 0x6D9 JUMP JUMPDEST CALLVALUE PUSH2 0x18E JUMPI PUSH1 0x20 CALLDATASIZE PUSH1 0x3 NOT ADD SLT PUSH2 0x18E JUMPI PUSH1 0x4 CALLDATALOAD PUSH2 0x723 PUSH2 0x1302 JUMP JUMPDEST PUSH1 0x0 DUP2 DUP2 MSTORE PUSH1 0x4 PUSH1 0x20 MSTORE PUSH1 0x40 SWAP1 KECCAK256 PUSH1 0x1 DUP2 ADD SLOAD SWAP1 SWAP2 PUSH1 0x1 PUSH1 0x1 PUSH1 0xA0 SHL SUB SWAP2 DUP3 AND ISZERO PUSH2 0x654 JUMPI PUSH1 0x2 DUP4 ADD SWAP2 DUP1 DUP4 SLOAD AND CALLER SUB PUSH2 0x642 JUMPI PUSH1 0xA DUP5 ADD SWAP3 DUP4 SLOAD SWAP5 PUSH1 0xFF DUP7 AND PUSH1 0x4 DUP2 LT ISZERO PUSH2 0x482 JUMPI PUSH1 0x2 DUP2 EQ SWAP1 DUP2 ISZERO PUSH2 0x87F JUMPI JUMPDEST POP PUSH2 0x625 JUMPI PUSH2 0x786 DUP5 PUSH2 0x13C3 JUMP JUMPDEST SWAP5 DUP6 ISZERO PUSH2 0x86D JUMPI PUSH1 0x20 SWAP7 DUP3 PUSH1 0x3 PUSH1 0x4 DUP9 SWAP6 ADD SWAP2 PUSH2 0x7A4 DUP11 DUP5 SLOAD PUSH2 0x12A3 JUMP JUMPDEST DUP1 SWAP4 SSTORE ADD SLOAD DUP2 LT ISZERO PUSH2 0x830 JUMPI JUMPDEST POP POP POP POP PUSH2 0x7E3 PUSH2 0x2710 PUSH2 0x7C7 PUSH1 0x2 SLOAD DUP8 PUSH2 0x1332 JUMP JUMPDEST DIV PUSH2 0x7D2 DUP2 DUP8 PUSH2 0x1325 JUMP JUMPDEST SWAP1 DUP1 PUSH2 0x81C JUMPI JUMPDEST POP DUP4 DUP4 SLOAD AND PUSH2 0x1345 JUMP JUMPDEST SLOAD AND SWAP1 PUSH32 0x51F17E54B4BABB994B0311374A7C1D7C2668635B76EC4F81E4118FD3B406924D DUP5 PUSH1 0x40 MLOAD DUP6 DUP2 MSTORE LOG3 PUSH1 0x1 PUSH1 0x0 SSTORE PUSH1 0x40 MLOAD SWAP1 DUP2 MSTORE RETURN JUMPDEST PUSH2 0x82A SWAP1 DUP6 PUSH1 0x3 SLOAD AND PUSH2 0x1345 JUMP JUMPDEST DUP8 PUSH2 0x7D9 JUMP JUMPDEST PUSH32 0xF36C430BC940C04132212A8FE964AF1705D6F28A641CF90B21C840A750933EB8 SWAP3 PUSH1 0x3 DUP11 SWAP4 PUSH1 0xFF NOT AND OR SWAP1 SSTORE PUSH1 0x40 MLOAD SWAP1 DUP2 MSTORE LOG2 DUP3 DUP7 DUP1 DUP1 PUSH2 0x7B1 JUMP JUMPDEST PUSH1 0x40 MLOAD PUSH4 0x12D37EE5 PUSH1 0xE3 SHL DUP2 MSTORE PUSH1 0x4 SWAP1 REVERT JUMPDEST PUSH1 0x3 SWAP2 POP EQ DUP8 PUSH2 0x778 JUMP JUMPDEST CALLVALUE PUSH2 0x18E JUMPI PUSH1 0x20 CALLDATASIZE PUSH1 0x3 NOT ADD SLT PUSH2 0x18E JUMPI PUSH1 0x20 PUSH2 0x8A8 PUSH1 0x4 CALLDATALOAD PUSH2 0x13C3 JUMP JUMPDEST PUSH1 0x40 MLOAD SWAP1 DUP2 MSTORE RETURN JUMPDEST CALLVALUE PUSH2 0x18E JUMPI PUSH1 0x0 CALLDATASIZE PUSH1 0x3 NOT ADD SLT PUSH2 0x18E JUMPI PUSH1 0x20 PUSH1 0x2 SLOAD PUSH1 0x40 MLOAD SWAP1 DUP2 MSTORE RETURN JUMPDEST PUSH1 0x80 CALLDATASIZE PUSH1 0x3 NOT ADD SLT PUSH2 0x18E JUMPI PUSH2 0x8E2 PUSH2 0x11A0 JUMP JUMPDEST PUSH2 0x8EA PUSH2 0x1302 JUMP JUMPDEST PUSH1 0x1 PUSH1 0x1 PUSH1 0xA0 SHL SUB DUP2 AND ISZERO PUSH2 0x4BC JUMPI PUSH1 0x1 PUSH1 0x1 PUSH1 0xA0 SHL SUB DUP2 AND CALLER EQ PUSH2 0x4BC JUMPI CALLVALUE ISZERO PUSH2 0x498 JUMPI PUSH1 0x24 CALLDATALOAD CALLVALUE SUB PUSH2 0x498 JUMPI TIMESTAMP PUSH1 0x44 CALLDATALOAD LT PUSH2 0x4AA JUMPI PUSH1 0x44 CALLDATALOAD PUSH1 0x64 CALLDATALOAD GT ISZERO PUSH2 0x4AA JUMPI PUSH2 0x946 PUSH2 0x93E PUSH1 0x44 CALLDATALOAD PUSH1 0x64 CALLDATALOAD PUSH2 0x1325 JUMP JUMPDEST PUSH1 0x24 CALLDATALOAD PUSH2 0x121F JUMP JUMPDEST SWAP1 DUP2 ISZERO PUSH2 0x498 JUMPI PUSH1 0x1 SLOAD PUSH2 0x959 DUP2 PUSH2 0x123F JUMP JUMPDEST PUSH1 0x1 SSTORE PUSH1 0x40 MLOAD CALLER PUSH1 0x60 SWAP1 DUP2 SHL PUSH12 0xFFFFFFFFFFFFFFFFFFFFFFFF NOT SWAP1 DUP2 AND PUSH1 0x20 DUP5 ADD SWAP1 DUP2 MSTORE SWAP2 DUP6 SWAP1 SHL AND PUSH1 0x34 DUP4 ADD MSTORE PUSH1 0x24 CALLDATALOAD PUSH1 0x48 DUP4 ADD MSTORE TIMESTAMP PUSH1 0x68 DUP4 ADD MSTORE PUSH1 0x88 DUP3 ADD SWAP3 SWAP1 SWAP3 MSTORE PUSH2 0x9AA DUP2 PUSH1 0xA8 DUP2 ADD PUSH2 0x2AA JUMP JUMPDEST MLOAD SWAP1 KECCAK256 SWAP1 PUSH1 0x40 MLOAD SWAP3 PUSH2 0x9BB DUP5 PUSH2 0x124E JUMP JUMPDEST DUP3 DUP5 MSTORE CALLER PUSH1 0x20 DUP6 ADD MSTORE PUSH1 0x1 DUP1 PUSH1 0xA0 SHL SUB DUP3 AND PUSH1 0x40 DUP6 ADD MSTORE PUSH1 0x24 CALLDATALOAD PUSH1 0x60 DUP6 ADD MSTORE PUSH1 0x0 PUSH1 0x80 DUP6 ADD MSTORE DUP1 PUSH1 0xA0 DUP6 ADD MSTORE PUSH1 0x44 CALLDATALOAD PUSH1 0xC0 DUP6 ADD MSTORE PUSH1 0x64 CALLDATALOAD PUSH1 0xE0 DUP6 ADD MSTORE PUSH1 0x0 PUSH2 0x100 DUP6 ADD MSTORE PUSH1 0x0 PUSH2 0x120 DUP6 ADD MSTORE PUSH1 0x0 PUSH2 0x140 DUP6 ADD MSTORE DUP3 PUSH1 0x0 MSTORE PUSH1 0x4 PUSH1 0x20 MSTORE PUSH2 0x140 PUSH1 0x40 PUSH1 0x0 KECCAK256 SWAP5 DUP1 MLOAD DUP7 SSTORE PUSH1 0x1 DUP7 ADD PUSH1 0x1 DUP1 PUSH1 0xA0 SHL SUB PUSH1 0x20 DUP4 ADD MLOAD AND SWAP1 PUSH12 0xFFFFFFFFFFFFFFFFFFFFFFFF PUSH1 0xA0 SHL SWAP2 DUP3 DUP3 SLOAD AND OR SWAP1 SSTORE PUSH1 0x2 DUP8 ADD SWAP1 PUSH1 0x1 DUP1 PUSH1 0xA0 SHL SUB PUSH1 0x40 DUP5 ADD MLOAD AND SWAP1 DUP3 SLOAD AND OR SWAP1 SSTORE PUSH1 0x60 DUP2 ADD MLOAD PUSH1 0x3 DUP8 ADD SSTORE PUSH1 0x80 DUP2 ADD MLOAD PUSH1 0x4 DUP8 ADD SSTORE PUSH1 0xA0 DUP2 ADD MLOAD PUSH1 0x5 DUP8 ADD SSTORE PUSH1 0xC0 DUP2 ADD MLOAD PUSH1 0x6 DUP8 ADD SSTORE PUSH1 0xE0 DUP2 ADD MLOAD PUSH1 0x7 DUP8 ADD SSTORE PUSH2 0x100 DUP2 ADD MLOAD PUSH1 0x8 DUP8 ADD SSTORE PUSH2 0x120 DUP2 ADD MLOAD PUSH1 0x9 DUP8 ADD SSTORE ADD MLOAD SWAP4 PUSH1 0x4 DUP6 LT ISZERO PUSH2 0x482 JUMPI PUSH1 0x20 SWAP5 PUSH1 0xA PUSH2 0xACB SWAP3 ADD PUSH2 0x12B0 JUMP JUMPDEST CALLER PUSH1 0x0 MSTORE PUSH1 0x5 DUP5 MSTORE PUSH2 0xAE1 DUP4 PUSH1 0x40 PUSH1 0x0 KECCAK256 PUSH2 0x12C8 JUMP JUMPDEST PUSH1 0x1 DUP1 PUSH1 0xA0 SHL SUB DUP3 AND PUSH1 0x0 MSTORE PUSH1 0x6 DUP5 MSTORE PUSH2 0xAFF DUP4 PUSH1 0x40 PUSH1 0x0 KECCAK256 PUSH2 0x12C8 JUMP JUMPDEST PUSH1 0x40 DUP1 MLOAD PUSH1 0x24 CALLDATALOAD DUP2 MSTORE PUSH1 0x20 DUP2 ADD SWAP3 SWAP1 SWAP3 MSTORE PUSH1 0x44 CALLDATALOAD SWAP1 DUP3 ADD MSTORE PUSH1 0x64 CALLDATALOAD PUSH1 0x60 DUP3 ADD MSTORE PUSH1 0x1 PUSH1 0x1 PUSH1 0xA0 SHL SUB SWAP1 SWAP2 AND SWAP1 CALLER SWAP1 DUP4 SWAP1 PUSH32 0x272473124F7BC3DC48F49EE1689C95C5E383FE762ACF7EA2A8A6CB1029F77D19 SWAP1 DUP1 PUSH1 0x80 DUP2 ADD PUSH2 0x472 JUMP JUMPDEST CALLVALUE PUSH2 0x18E JUMPI PUSH1 0x20 CALLDATASIZE PUSH1 0x3 NOT ADD SLT PUSH2 0x18E JUMPI PUSH1 0x4 CALLDATALOAD DUP1 PUSH1 0x0 MSTORE PUSH1 0x4 PUSH1 0x20 MSTORE PUSH1 0x40 PUSH1 0x0 KECCAK256 PUSH2 0xB90 PUSH1 0x4 PUSH1 0x3 DUP4 ADD SLOAD SWAP3 ADD SLOAD SWAP3 PUSH2 0x13C3 JUMP JUMPDEST SWAP2 PUSH2 0xB9F DUP4 PUSH2 0x58D DUP4 DUP6 PUSH2 0x1325 JUMP JUMPDEST DUP3 ISZERO PUSH2 0xC03 JUMPI PUSH2 0xBAF DUP5 DUP4 PUSH2 0x12A3 JUMP JUMPDEST SWAP4 PUSH1 0x64 DUP6 MUL SWAP5 DUP1 DUP7 DIV PUSH1 0x64 EQ SWAP1 ISZERO OR ISZERO PUSH2 0xBED JUMPI PUSH2 0xBCF DUP5 PUSH1 0xA0 SWAP7 PUSH2 0x121F JUMP JUMPDEST SWAP3 JUMPDEST PUSH1 0x40 MLOAD SWAP5 DUP6 MSTORE PUSH1 0x20 DUP6 ADD MSTORE PUSH1 0x40 DUP5 ADD MSTORE PUSH1 0x60 DUP4 ADD MSTORE PUSH1 0x80 DUP3 ADD MSTORE RETURN JUMPDEST PUSH4 0x4E487B71 PUSH1 0xE0 SHL PUSH1 0x0 MSTORE PUSH1 0x11 PUSH1 0x4 MSTORE PUSH1 0x24 PUSH1 0x0 REVERT JUMPDEST PUSH1 0xA0 SWAP4 PUSH1 0x0 SWAP3 PUSH2 0xBD1 JUMP JUMPDEST CALLVALUE PUSH2 0x18E JUMPI PUSH1 0x20 CALLDATASIZE PUSH1 0x3 NOT ADD SLT PUSH2 0x18E JUMPI PUSH2 0xC27 PUSH2 0x11A0 JUMP JUMPDEST PUSH1 0x3 SLOAD SWAP1 PUSH1 0x1 PUSH1 0x1 PUSH1 0xA0 SHL SUB SWAP1 PUSH2 0xC41 CALLER DUP4 DUP6 AND EQ PUSH2 0x14E5 JUMP JUMPDEST AND SWAP1 DUP2 ISZERO PUSH2 0x4BC JUMPI PUSH1 0x1 PUSH1 0x1 PUSH1 0xA0 SHL SUB NOT AND OR PUSH1 0x3 SSTORE STOP JUMPDEST PUSH1 0x20 CALLDATASIZE PUSH1 0x3 NOT ADD SLT PUSH2 0x18E JUMPI PUSH1 0x4 CALLDATALOAD PUSH2 0xC70 PUSH2 0x1302 JUMP JUMPDEST PUSH1 0x0 DUP2 DUP2 MSTORE PUSH1 0x4 PUSH1 0x20 MSTORE PUSH1 0x40 SWAP1 KECCAK256 PUSH1 0x1 DUP2 ADD SLOAD PUSH1 0x1 PUSH1 0x1 PUSH1 0xA0 SHL SUB AND DUP1 ISZERO PUSH2 0x654 JUMPI CALLER SUB PUSH2 0x642 JUMPI PUSH1 0xFF PUSH1 0xA DUP3 ADD SLOAD AND PUSH1 0x4 DUP2 LT ISZERO PUSH2 0x482 JUMPI DUP1 ISZERO ISZERO SWAP1 DUP2 PUSH2 0xD26 JUMPI JUMPDEST POP PUSH2 0x625 JUMPI CALLVALUE ISZERO PUSH2 0x498 JUMPI PUSH1 0x40 DUP2 PUSH1 0x3 PUSH32 0xA7804AA224707B79AD0A4B929E57C9C3FB451AB6D4930DBF9DAAF0900EDA1417 SWAP4 ADD PUSH2 0xCF1 CALLVALUE DUP3 SLOAD PUSH2 0x12A3 JUMP JUMPDEST SWAP1 SSTORE PUSH2 0xD10 PUSH1 0x7 PUSH2 0xD06 PUSH1 0x5 DUP5 ADD SLOAD CALLVALUE PUSH2 0x121F JUMP JUMPDEST SWAP3 ADD SWAP2 DUP3 SLOAD PUSH2 0x12A3 JUMP JUMPDEST DUP1 SWAP2 SSTORE DUP2 MLOAD SWAP1 CALLVALUE DUP3 MSTORE PUSH1 0x20 DUP3 ADD MSTORE LOG2 PUSH1 0x1 PUSH1 0x0 SSTORE STOP JUMPDEST PUSH1 0x1 SWAP2 POP EQ ISZERO DUP4 PUSH2 0xCB3 JUMP JUMPDEST CALLVALUE PUSH2 0x18E JUMPI PUSH1 0x20 CALLDATASIZE PUSH1 0x3 NOT ADD SLT PUSH2 0x18E JUMPI PUSH1 0x4 CALLDATALOAD DUP1 PUSH1 0x0 MSTORE PUSH1 0x4 PUSH1 0x20 MSTORE PUSH1 0x40 PUSH1 0x0 KECCAK256 PUSH1 0x1 DUP1 PUSH1 0xA0 SHL SUB PUSH1 0x1 DUP3 ADD SLOAD AND DUP1 ISZERO PUSH2 0x654 JUMPI CALLER SUB PUSH2 0x642 JUMPI PUSH1 0xA DUP2 ADD SWAP1 DUP2 SLOAD SWAP1 PUSH1 0xFF DUP3 AND PUSH1 0x4 DUP2 LT ISZERO PUSH2 0x482 JUMPI PUSH1 0x1 SUB PUSH2 0x625 JUMPI PUSH32 0x67378CE188B792C571058050F012103BFBB4B4C5D66B4341CE417D3F222901FD SWAP3 PUSH1 0x40 SWAP3 PUSH1 0x0 PUSH1 0x8 DUP5 ADD PUSH2 0xDDF PUSH1 0x7 PUSH2 0xDC4 DUP4 SLOAD TIMESTAMP PUSH2 0x1325 JUMP JUMPDEST SWAP7 PUSH1 0x9 DUP2 ADD PUSH2 0xDD4 DUP10 DUP3 SLOAD PUSH2 0x12A3 JUMP JUMPDEST SWAP1 SSTORE ADD SWAP6 DUP7 SLOAD PUSH2 0x12A3 JUMP JUMPDEST DUP1 SWAP6 SSTORE SSTORE PUSH1 0xFF NOT AND SWAP1 SSTORE DUP2 MLOAD SWAP1 TIMESTAMP DUP3 MSTORE PUSH1 0x20 DUP3 ADD MSTORE LOG2 STOP JUMPDEST CALLVALUE PUSH2 0x18E JUMPI PUSH1 0x0 CALLDATASIZE PUSH1 0x3 NOT ADD SLT PUSH2 0x18E JUMPI PUSH1 0x20 PUSH1 0x1 SLOAD PUSH1 0x40 MLOAD SWAP1 DUP2 MSTORE RETURN JUMPDEST CALLVALUE PUSH2 0x18E JUMPI PUSH1 0x20 CALLDATASIZE PUSH1 0x3 NOT ADD SLT PUSH2 0x18E JUMPI PUSH1 0x4 CALLDATALOAD PUSH1 0x0 MSTORE PUSH1 0x4 PUSH1 0x20 MSTORE PUSH2 0x160 PUSH1 0x40 PUSH1 0x0 KECCAK256 PUSH2 0xEC4 DUP2 SLOAD SWAP2 PUSH1 0x1 DUP1 PUSH1 0xA0 SHL SUB SWAP1 DUP2 PUSH1 0x1 DUP3 ADD SLOAD AND SWAP2 PUSH1 0x2 DUP3 ADD SLOAD AND PUSH1 0x3 DUP3 ADD SLOAD PUSH1 0x4 DUP4 ADD SLOAD PUSH1 0x5 DUP5 ADD SLOAD PUSH1 0x6 DUP6 ADD SLOAD SWAP2 PUSH1 0x7 DUP7 ADD SLOAD SWAP4 PUSH1 0x8 DUP8 ADD SLOAD SWAP6 PUSH1 0xFF PUSH1 0xA PUSH1 0x9 DUP11 ADD SLOAD SWAP10 ADD SLOAD AND SWAP9 PUSH1 0x40 MLOAD SWAP12 DUP13 MSTORE PUSH1 0x20 DUP13 ADD MSTORE PUSH1 0x40 DUP12 ADD MSTORE PUSH1 0x60 DUP11 ADD MSTORE PUSH1 0x80 DUP10 ADD MSTORE PUSH1 0xA0 DUP9 ADD MSTORE PUSH1 0xC0 DUP8 ADD MSTORE PUSH1 0xE0 DUP7 ADD MSTORE PUSH2 0x100 DUP6 ADD MSTORE PUSH2 0x120 DUP5 ADD MSTORE PUSH2 0x140 DUP4 ADD SWAP1 PUSH2 0x1193 JUMP JUMPDEST RETURN JUMPDEST CALLVALUE PUSH2 0x18E JUMPI PUSH1 0x20 CALLDATASIZE PUSH1 0x3 NOT ADD SLT PUSH2 0x18E JUMPI PUSH1 0x4 CALLDATALOAD PUSH2 0xEEF PUSH1 0x1 DUP1 PUSH1 0xA0 SHL SUB PUSH1 0x3 SLOAD AND CALLER EQ PUSH2 0x14E5 JUMP JUMPDEST PUSH2 0x1F4 DUP2 GT PUSH2 0xEFD JUMPI PUSH1 0x2 SSTORE STOP JUMPDEST PUSH1 0x40 MLOAD PUSH3 0x461BCD PUSH1 0xE5 SHL DUP2 MSTORE PUSH1 0x20 PUSH1 0x4 DUP3 ADD MSTORE PUSH1 0xC PUSH1 0x24 DUP3 ADD MSTORE PUSH12 0x8CCACA40E8DEDE40D0D2CED PUSH1 0xA3 SHL PUSH1 0x44 DUP3 ADD MSTORE PUSH1 0x64 SWAP1 REVERT JUMPDEST CALLVALUE PUSH2 0x18E JUMPI PUSH1 0x20 CALLDATASIZE PUSH1 0x3 NOT ADD SLT PUSH2 0x18E JUMPI PUSH1 0x4 CALLDATALOAD DUP1 PUSH1 0x0 MSTORE PUSH1 0x4 PUSH1 0x20 MSTORE PUSH1 0x40 PUSH1 0x0 KECCAK256 PUSH1 0x1 DUP1 PUSH1 0xA0 SHL SUB PUSH1 0x1 DUP3 ADD SLOAD AND DUP1 ISZERO PUSH2 0x654 JUMPI CALLER SUB PUSH2 0x642 JUMPI PUSH1 0xA DUP2 ADD DUP1 SLOAD PUSH1 0xFF DUP2 AND PUSH1 0x4 DUP2 LT ISZERO PUSH2 0x482 JUMPI PUSH2 0x625 JUMPI PUSH1 0x1 SWAP1 PUSH1 0xFF NOT AND OR SWAP1 SSTORE PUSH1 0x8 TIMESTAMP SWAP2 ADD SSTORE PUSH32 0xFACEC5CBC0FC96FA82AF9BE34EE99EB885A40C2F2EA1BFF73704EA4E20995049 PUSH1 0x20 PUSH1 0x40 MLOAD TIMESTAMP DUP2 MSTORE LOG2 STOP JUMPDEST CALLVALUE PUSH2 0x18E JUMPI PUSH1 0x40 CALLDATASIZE PUSH1 0x3 NOT ADD SLT PUSH2 0x18E JUMPI PUSH2 0xFD8 PUSH2 0x11A0 JUMP JUMPDEST PUSH1 0x1 PUSH1 0x1 PUSH1 0xA0 SHL SUB AND PUSH1 0x0 SWAP1 DUP2 MSTORE PUSH1 0x5 PUSH1 0x20 MSTORE PUSH1 0x40 SWAP1 KECCAK256 DUP1 SLOAD PUSH1 0x24 CALLDATALOAD SWAP2 SWAP1 DUP3 LT ISZERO PUSH2 0x18E JUMPI PUSH1 0x20 SWAP2 PUSH2 0x1DD SWAP2 PUSH2 0x11B6 JUMP JUMPDEST CALLVALUE PUSH2 0x18E JUMPI PUSH1 0x20 CALLDATASIZE PUSH1 0x3 NOT ADD SLT PUSH2 0x18E JUMPI PUSH2 0x140 DUP2 PUSH2 0x1029 PUSH1 0x0 SWAP4 PUSH2 0x124E JUMP JUMPDEST DUP3 DUP2 MSTORE DUP3 PUSH1 0x20 DUP3 ADD MSTORE DUP3 PUSH1 0x40 DUP3 ADD MSTORE DUP3 PUSH1 0x60 DUP3 ADD MSTORE DUP3 PUSH1 0x80 DUP3 ADD MSTORE DUP3 PUSH1 0xA0 DUP3 ADD MSTORE DUP3 PUSH1 0xC0 DUP3 ADD MSTORE DUP3 PUSH1 0xE0 DUP3 ADD MSTORE DUP3 PUSH2 0x100 DUP3 ADD MSTORE DUP3 PUSH2 0x120 DUP3 ADD MSTORE ADD MSTORE PUSH1 0x4 CALLDATALOAD PUSH1 0x0 MSTORE PUSH1 0x4 PUSH1 0x20 MSTORE PUSH1 0x40 PUSH1 0x0 KECCAK256 PUSH1 0xFF PUSH1 0xA PUSH1 0x40 MLOAD SWAP3 PUSH2 0x1087 DUP5 PUSH2 0x124E JUMP JUMPDEST DUP1 SLOAD DUP5 MSTORE PUSH1 0x1 DUP2 ADD SLOAD PUSH1 0x1 PUSH1 0x1 PUSH1 0xA0 SHL SUB SWAP1 DUP2 AND PUSH1 0x20 DUP7 ADD MSTORE PUSH1 0x2 DUP3 ADD SLOAD AND PUSH1 0x40 DUP6 ADD MSTORE PUSH1 0x3 DUP2 ADD SLOAD PUSH1 0x60 DUP6 ADD MSTORE PUSH1 0x4 DUP1 DUP3 ADD SLOAD PUSH1 0x80 DUP7 ADD MSTORE PUSH1 0x5 DUP3 ADD SLOAD PUSH1 0xA0 DUP7 ADD MSTORE PUSH1 0x6 DUP3 ADD SLOAD PUSH1 0xC0 DUP7 ADD MSTORE PUSH1 0x7 DUP3 ADD SLOAD PUSH1 0xE0 DUP7 ADD MSTORE PUSH1 0x8 DUP3 ADD SLOAD PUSH2 0x100 DUP7 ADD MSTORE PUSH1 0x9 DUP3 ADD SLOAD PUSH2 0x120 DUP7 ADD MSTORE SWAP2 ADD SLOAD SWAP2 SWAP1 SWAP2 AND SWAP2 SWAP1 DUP3 LT ISZERO PUSH2 0x482 JUMPI PUSH2 0x160 SWAP2 PUSH2 0x140 DUP3 ADD MSTORE PUSH2 0xEC4 PUSH2 0x140 PUSH1 0x40 MLOAD SWAP3 DUP1 MLOAD DUP5 MSTORE PUSH1 0x1 DUP1 PUSH1 0xA0 SHL SUB PUSH1 0x20 DUP3 ADD MLOAD AND PUSH1 0x20 DUP6 ADD MSTORE PUSH1 0x1 DUP1 PUSH1 0xA0 SHL SUB PUSH1 0x40 DUP3 ADD MLOAD AND PUSH1 0x40 DUP6 ADD MSTORE PUSH1 0x60 DUP2 ADD MLOAD PUSH1 0x60 DUP6 ADD MSTORE PUSH1 0x80 DUP2 ADD MLOAD PUSH1 0x80 DUP6 ADD MSTORE PUSH1 0xA0 DUP2 ADD MLOAD PUSH1 0xA0 DUP6 ADD MSTORE PUSH1 0xC0 DUP2 ADD MLOAD PUSH1 0xC0 DUP6 ADD MSTORE PUSH1 0xE0 DUP2 ADD MLOAD PUSH1 0xE0 DUP6 ADD MSTORE PUSH2 0x100 DUP2 ADD MLOAD PUSH2 0x100 DUP6 ADD MSTORE PUSH2 0x120 DUP2 ADD MLOAD PUSH2 0x120 DUP6 ADD MSTORE ADD MLOAD PUSH2 0x140 DUP4 ADD SWAP1 JUMPDEST SWAP1 PUSH1 0x4 DUP3 LT ISZERO PUSH2 0x482 JUMPI MSTORE JUMP JUMPDEST PUSH1 0x4 CALLDATALOAD SWAP1 PUSH1 0x1 PUSH1 0x1 PUSH1 0xA0 SHL SUB DUP3 AND DUP3 SUB PUSH2 0x18E JUMPI JUMP JUMPDEST DUP1 SLOAD DUP3 LT ISZERO PUSH2 0x11CE JUMPI PUSH1 0x0 MSTORE PUSH1 0x20 PUSH1 0x0 KECCAK256 ADD SWAP1 PUSH1 0x0 SWAP1 JUMP JUMPDEST PUSH4 0x4E487B71 PUSH1 0xE0 SHL PUSH1 0x0 MSTORE PUSH1 0x32 PUSH1 0x4 MSTORE PUSH1 0x24 PUSH1 0x0 REVERT JUMPDEST PUSH1 0x20 SWAP1 DUP2 PUSH1 0x40 DUP2 DUP4 ADD SWAP3 DUP3 DUP2 MSTORE DUP6 MLOAD DUP1 SWAP5 MSTORE ADD SWAP4 ADD SWAP2 PUSH1 0x0 JUMPDEST DUP3 DUP2 LT PUSH2 0x120B JUMPI POP POP POP POP SWAP1 JUMP JUMPDEST DUP4 MLOAD DUP6 MSTORE SWAP4 DUP2 ADD SWAP4 SWAP3 DUP2 ADD SWAP3 PUSH1 0x1 ADD PUSH2 0x11FD JUMP JUMPDEST DUP2 ISZERO PUSH2 0x1229 JUMPI DIV SWAP1 JUMP JUMPDEST PUSH4 0x4E487B71 PUSH1 0xE0 SHL PUSH1 0x0 MSTORE PUSH1 0x12 PUSH1 0x4 MSTORE PUSH1 0x24 PUSH1 0x0 REVERT JUMPDEST PUSH1 0x0 NOT DUP2 EQ PUSH2 0xBED JUMPI PUSH1 0x1 ADD SWAP1 JUMP JUMPDEST PUSH2 0x160 DUP2 ADD SWAP1 DUP2 LT PUSH8 0xFFFFFFFFFFFFFFFF DUP3 GT OR PUSH2 0x126B JUMPI PUSH1 0x40 MSTORE JUMP JUMPDEST PUSH4 0x4E487B71 PUSH1 0xE0 SHL PUSH1 0x0 MSTORE PUSH1 0x41 PUSH1 0x4 MSTORE PUSH1 0x24 PUSH1 0x0 REVERT JUMPDEST SWAP1 PUSH1 0x1F DUP1 NOT SWAP2 ADD AND DUP2 ADD SWAP1 DUP2 LT PUSH8 0xFFFFFFFFFFFFFFFF DUP3 GT OR PUSH2 0x126B JUMPI PUSH1 0x40 MSTORE JUMP JUMPDEST SWAP2 SWAP1 DUP3 ADD DUP1 SWAP3 GT PUSH2 0xBED JUMPI JUMP JUMPDEST SWAP1 PUSH1 0x4 DUP2 LT ISZERO PUSH2 0x482 JUMPI PUSH1 0xFF DUP1 NOT DUP4 SLOAD AND SWAP2 AND OR SWAP1 SSTORE JUMP JUMPDEST DUP1 SLOAD PUSH9 0x10000000000000000 DUP2 LT ISZERO PUSH2 0x126B JUMPI PUSH2 0x12EA SWAP2 PUSH1 0x1 DUP3 ADD DUP2 SSTORE PUSH2 0x11B6 JUMP JUMPDEST DUP2 SWAP3 SWAP2 SLOAD SWAP1 PUSH1 0x3 SHL SWAP2 DUP3 SHL SWAP2 PUSH1 0x0 NOT SWAP1 SHL NOT AND OR SWAP1 SSTORE JUMP JUMPDEST PUSH1 0x2 PUSH1 0x0 SLOAD EQ PUSH2 0x1313 JUMPI PUSH1 0x2 PUSH1 0x0 SSTORE JUMP JUMPDEST PUSH1 0x40 MLOAD PUSH4 0x3EE5AEB5 PUSH1 0xE0 SHL DUP2 MSTORE PUSH1 0x4 SWAP1 REVERT JUMPDEST SWAP2 SWAP1 DUP3 SUB SWAP2 DUP3 GT PUSH2 0xBED JUMPI JUMP JUMPDEST DUP2 DUP2 MUL SWAP3 SWAP2 DUP2 ISZERO SWAP2 DUP5 DIV EQ OR ISZERO PUSH2 0xBED JUMPI JUMP JUMPDEST PUSH1 0x0 DUP1 DUP1 DUP1 SWAP5 DUP2 SWAP5 PUSH1 0x1 DUP1 PUSH1 0xA0 SHL SUB AND GAS CALL SWAP1 RETURNDATASIZE ISZERO PUSH2 0x13BD JUMPI RETURNDATASIZE SWAP1 PUSH8 0xFFFFFFFFFFFFFFFF DUP3 GT PUSH2 0x13A9 JUMPI PUSH1 0x40 MLOAD SWAP2 PUSH2 0x1387 PUSH1 0x1F DUP3 ADD PUSH1 0x1F NOT AND PUSH1 0x20 ADD DUP5 PUSH2 0x1281 JUMP JUMPDEST DUP3 MSTORE PUSH1 0x20 RETURNDATASIZE SWAP3 ADD RETURNDATACOPY JUMPDEST ISZERO PUSH2 0x1397 JUMPI JUMP JUMPDEST PUSH1 0x40 MLOAD PUSH4 0x12171D83 PUSH1 0xE3 SHL DUP2 MSTORE PUSH1 0x4 SWAP1 REVERT JUMPDEST PUSH4 0x4E487B71 PUSH1 0xE0 SHL DUP2 MSTORE PUSH1 0x41 PUSH1 0x4 MSTORE PUSH1 0x24 SWAP1 REVERT JUMPDEST POP PUSH2 0x1390 JUMP JUMPDEST PUSH1 0x0 SWAP1 DUP2 MSTORE PUSH1 0x4 PUSH1 0x20 MSTORE PUSH1 0x40 DUP2 KECCAK256 PUSH1 0x1 DUP2 ADD SLOAD PUSH1 0x1 PUSH1 0x1 PUSH1 0xA0 SHL SUB AND ISZERO PUSH2 0x14E1 JUMPI PUSH1 0xFF PUSH1 0xA DUP3 ADD SLOAD AND PUSH1 0x4 DUP2 LT ISZERO DUP1 PUSH2 0x14CD JUMPI PUSH1 0x2 DUP3 EQ DUP1 ISZERO PUSH2 0x14C1 JUMPI JUMPDEST PUSH2 0x14A1 JUMPI PUSH2 0x14AD JUMPI PUSH1 0x1 SUB PUSH2 0x14A7 JUMPI PUSH1 0x8 DUP2 ADD SLOAD JUMPDEST PUSH1 0x6 DUP3 ADD SLOAD DUP1 DUP3 LT PUSH2 0x14A1 JUMPI PUSH1 0x7 DUP4 ADD SLOAD PUSH2 0x1456 SWAP3 DUP2 DUP2 LT PUSH2 0x148D JUMPI POP PUSH2 0x144B SWAP2 PUSH2 0x1440 SWAP2 PUSH2 0x1325 JUMP JUMPDEST PUSH1 0x9 DUP5 ADD SLOAD SWAP1 PUSH2 0x1325 JUMP JUMPDEST PUSH1 0x5 DUP4 ADD SLOAD SWAP1 PUSH2 0x1332 JUMP JUMPDEST SWAP1 PUSH1 0x3 DUP2 ADD SLOAD DUP1 DUP4 GT PUSH2 0x1484 JUMPI JUMPDEST POP PUSH1 0x4 ADD SLOAD SWAP1 DUP2 DUP2 GT ISZERO PUSH2 0x147F JUMPI PUSH2 0x147C SWAP3 POP PUSH2 0x1325 JUMP JUMPDEST SWAP1 JUMP JUMPDEST POP POP SWAP1 JUMP JUMPDEST SWAP2 POP PUSH1 0x4 PUSH2 0x1464 JUMP JUMPDEST PUSH2 0x1440 SWAP2 POP SWAP2 PUSH2 0x149C SWAP3 PUSH2 0x1325 JUMP JUMPDEST PUSH2 0x144B JUMP JUMPDEST POP POP POP SWAP1 JUMP JUMPDEST TIMESTAMP PUSH2 0x1416 JUMP JUMPDEST PUSH4 0x4E487B71 PUSH1 0xE0 SHL DUP4 MSTORE PUSH1 0x21 PUSH1 0x4 MSTORE PUSH1 0x24 DUP4 REVERT JUMPDEST POP POP DUP3 PUSH1 0x3 DUP3 EQ PUSH2 0x1401 JUMP JUMPDEST PUSH4 0x4E487B71 PUSH1 0xE0 SHL DUP5 MSTORE PUSH1 0x21 PUSH1 0x4 MSTORE PUSH1 0x24 DUP5 REVERT JUMPDEST POP SWAP1 JUMP JUMPDEST ISZERO PUSH2 0x14EC JUMPI JUMP JUMPDEST PUSH1 0x40 MLOAD PUSH3 0x461BCD PUSH1 0xE5 SHL DUP2 MSTORE PUSH1 0x20 PUSH1 0x4 DUP3 ADD MSTORE PUSH1 0xE PUSH1 0x24 DUP3 ADD MSTORE PUSH14 0x139BDD08185D5D1A1BDC9A5E9959 PUSH1 0x92 SHL PUSH1 0x44 DUP3 ADD MSTORE PUSH1 0x64 SWAP1 REVERT INVALID LOG2 PUSH5 0x6970667358 0x22 SLT KECCAK256 PUSH23 0x6AAD5C375186FDEF94BF82A1DD6898BFB9E438E2B7E497 CALL LOG2 SGT 0xDD PREVRANDAO GAS SAR NUMBER PUSH5 0x736F6C6343 STOP ADDMOD EQ STOP CALLER "},"methodIdentifiers":{"cancelStream(bytes32)":"cb3d97d9","claim(bytes32)":"bd66528a","createScheduledStream(address,uint256,uint256,uint256)":"acc8e1c1","createStream(address,uint256,uint256)":"cd9e3fe8","feeCollector()":"c415b95c","getClaimableAmount(bytes32)":"bb64fd44","getRecipientStreams(address)":"f7afe902","getSenderStreams(address)":"c019f4fc","getStream(bytes32)":"1290abe8","getStreamProgress(bytes32)":"a8693d52","pauseStream(bytes32)":"50be3394","protocolFee()":"b0e21e8a","recipientStreams(address,uint256)":"dbf13122","resumeStream(bytes32)":"95dfb951","senderStreams(address,uint256)":"2019de28","setFeeCollector(address)":"a42dce80","setProtocolFee(uint256)":"787dce3d","streamCount()":"89d0e119","streams(bytes32)":"7f7bd2df","topUpStream(bytes32)":"96890e88"}}}}}