{"contracts/PaymentChannel.sol":{"ArcPayPaymentChannel":{"abi":[{"inputs":[],"name":"ChannelNotFound","type":"error"},{"inputs":[],"name":"DisputePeriodActive","type":"error"},{"inputs":[],"name":"DisputePeriodExpired","type":"error"},{"inputs":[],"name":"ECDSAInvalidSignature","type":"error"},{"inputs":[{"internalType":"uint256","name":"length","type":"uint256"}],"name":"ECDSAInvalidSignatureLength","type":"error"},{"inputs":[{"internalType":"bytes32","name":"s","type":"bytes32"}],"name":"ECDSAInvalidSignatureS","type":"error"},{"inputs":[],"name":"InsufficientBalance","type":"error"},{"inputs":[],"name":"InvalidAddress","type":"error"},{"inputs":[],"name":"InvalidAmount","type":"error"},{"inputs":[],"name":"InvalidDeposit","type":"error"},{"inputs":[],"name":"InvalidNonce","type":"error"},{"inputs":[],"name":"InvalidSignature","type":"error"},{"inputs":[],"name":"InvalidState","type":"error"},{"inputs":[],"name":"NotAuthorized","type":"error"},{"inputs":[],"name":"ReentrancyGuardReentrantCall","type":"error"},{"inputs":[],"name":"TransferFailed","type":"error"},{"anonymous":false,"inputs":[{"indexed":true,"internalType":"bytes32","name":"id","type":"bytes32"},{"indexed":false,"internalType":"uint256","name":"senderRefund","type":"uint256"},{"indexed":false,"internalType":"uint256","name":"recipientPayment","type":"uint256"}],"name":"ChannelClosed","type":"event"},{"anonymous":false,"inputs":[{"indexed":true,"internalType":"bytes32","name":"id","type":"bytes32"},{"indexed":false,"internalType":"uint256","name":"spent","type":"uint256"},{"indexed":false,"internalType":"uint256","name":"closingAt","type":"uint256"}],"name":"ChannelClosing","type":"event"},{"anonymous":false,"inputs":[{"indexed":true,"internalType":"bytes32","name":"id","type":"bytes32"},{"indexed":false,"internalType":"uint256","name":"newSpent","type":"uint256"},{"indexed":false,"internalType":"uint256","name":"newNonce","type":"uint256"}],"name":"ChannelDisputed","type":"event"},{"anonymous":false,"inputs":[{"indexed":true,"internalType":"bytes32","name":"id","type":"bytes32"},{"indexed":true,"internalType":"address","name":"sender","type":"address"},{"indexed":true,"internalType":"address","name":"recipient","type":"address"},{"indexed":false,"internalType":"uint256","name":"deposit","type":"uint256"}],"name":"ChannelOpened","type":"event"},{"anonymous":false,"inputs":[{"indexed":true,"internalType":"bytes32","name":"id","type":"bytes32"},{"indexed":false,"internalType":"uint256","name":"additionalDeposit","type":"uint256"},{"indexed":false,"internalType":"uint256","name":"newTotal","type":"uint256"}],"name":"ChannelTopUp","type":"event"},{"anonymous":false,"inputs":[{"indexed":true,"internalType":"bytes32","name":"channelId","type":"bytes32"},{"indexed":false,"internalType":"uint256","name":"amount","type":"uint256"},{"indexed":false,"internalType":"uint256","name":"totalSpent","type":"uint256"},{"indexed":false,"internalType":"uint256","name":"nonce","type":"uint256"}],"name":"PaymentSigned","type":"event"},{"inputs":[],"name":"DISPUTE_PERIOD","outputs":[{"internalType":"uint256","name":"","type":"uint256"}],"stateMutability":"view","type":"function"},{"inputs":[],"name":"MIN_DEPOSIT","outputs":[{"internalType":"uint256","name":"","type":"uint256"}],"stateMutability":"view","type":"function"},{"inputs":[],"name":"channelCount","outputs":[{"internalType":"uint256","name":"","type":"uint256"}],"stateMutability":"view","type":"function"},{"inputs":[{"internalType":"bytes32","name":"","type":"bytes32"}],"name":"channels","outputs":[{"internalType":"bytes32","name":"id","type":"bytes32"},{"internalType":"address","name":"sender","type":"address"},{"internalType":"address","name":"recipient","type":"address"},{"internalType":"uint256","name":"deposit","type":"uint256"},{"internalType":"uint256","name":"spent","type":"uint256"},{"internalType":"uint256","name":"nonce","type":"uint256"},{"internalType":"enum ArcPayPaymentChannel.ChannelState","name":"state","type":"uint8"},{"internalType":"uint256","name":"createdAt","type":"uint256"},{"internalType":"uint256","name":"closingAt","type":"uint256"},{"internalType":"uint256","name":"closedAt","type":"uint256"}],"stateMutability":"view","type":"function"},{"inputs":[{"internalType":"bytes32","name":"channelId","type":"bytes32"},{"internalType":"uint256","name":"spent","type":"uint256"},{"internalType":"uint256","name":"nonce","type":"uint256"},{"internalType":"bytes","name":"signature","type":"bytes"}],"name":"closeChannel","outputs":[],"stateMutability":"nonpayable","type":"function"},{"inputs":[{"internalType":"bytes32","name":"channelId","type":"bytes32"},{"internalType":"uint256","name":"spent","type":"uint256"},{"internalType":"bytes","name":"senderSignature","type":"bytes"},{"internalType":"bytes","name":"recipientSignature","type":"bytes"}],"name":"cooperativeClose","outputs":[],"stateMutability":"nonpayable","type":"function"},{"inputs":[{"internalType":"bytes32","name":"channelId","type":"bytes32"},{"internalType":"uint256","name":"spent","type":"uint256"},{"internalType":"uint256","name":"nonce","type":"uint256"},{"internalType":"bytes","name":"signature","type":"bytes"}],"name":"disputeChannel","outputs":[],"stateMutability":"nonpayable","type":"function"},{"inputs":[{"internalType":"bytes32","name":"channelId","type":"bytes32"}],"name":"emergencyClose","outputs":[],"stateMutability":"nonpayable","type":"function"},{"inputs":[{"internalType":"bytes32","name":"channelId","type":"bytes32"}],"name":"finalizeClose","outputs":[],"stateMutability":"nonpayable","type":"function"},{"inputs":[{"internalType":"bytes32","name":"channelId","type":"bytes32"}],"name":"getChannel","outputs":[{"components":[{"internalType":"bytes32","name":"id","type":"bytes32"},{"internalType":"address","name":"sender","type":"address"},{"internalType":"address","name":"recipient","type":"address"},{"internalType":"uint256","name":"deposit","type":"uint256"},{"internalType":"uint256","name":"spent","type":"uint256"},{"internalType":"uint256","name":"nonce","type":"uint256"},{"internalType":"enum ArcPayPaymentChannel.ChannelState","name":"state","type":"uint8"},{"internalType":"uint256","name":"createdAt","type":"uint256"},{"internalType":"uint256","name":"closingAt","type":"uint256"},{"internalType":"uint256","name":"closedAt","type":"uint256"}],"internalType":"struct ArcPayPaymentChannel.Channel","name":"","type":"tuple"}],"stateMutability":"view","type":"function"},{"inputs":[{"internalType":"bytes32","name":"channelId","type":"bytes32"}],"name":"getChannelBalance","outputs":[{"internalType":"uint256","name":"available","type":"uint256"},{"internalType":"uint256","name":"spent","type":"uint256"}],"stateMutability":"view","type":"function"},{"inputs":[{"internalType":"bytes32","name":"channelId","type":"bytes32"},{"internalType":"uint256","name":"spent","type":"uint256"},{"internalType":"uint256","name":"nonce","type":"uint256"}],"name":"getPaymentHash","outputs":[{"internalType":"bytes32","name":"","type":"bytes32"}],"stateMutability":"pure","type":"function"},{"inputs":[{"internalType":"address","name":"recipient","type":"address"}],"name":"getRecipientChannels","outputs":[{"internalType":"bytes32[]","name":"","type":"bytes32[]"}],"stateMutability":"view","type":"function"},{"inputs":[{"internalType":"address","name":"sender","type":"address"}],"name":"getSenderChannels","outputs":[{"internalType":"bytes32[]","name":"","type":"bytes32[]"}],"stateMutability":"view","type":"function"},{"inputs":[{"internalType":"address","name":"recipient","type":"address"},{"internalType":"uint256","name":"deposit","type":"uint256"}],"name":"openChannel","outputs":[{"internalType":"bytes32","name":"","type":"bytes32"}],"stateMutability":"payable","type":"function"},{"inputs":[{"internalType":"address","name":"","type":"address"},{"internalType":"uint256","name":"","type":"uint256"}],"name":"recipientChannels","outputs":[{"internalType":"bytes32","name":"","type":"bytes32"}],"stateMutability":"view","type":"function"},{"inputs":[{"internalType":"address","name":"","type":"address"},{"internalType":"uint256","name":"","type":"uint256"}],"name":"senderChannels","outputs":[{"internalType":"bytes32","name":"","type":"bytes32"}],"stateMutability":"view","type":"function"},{"inputs":[{"internalType":"bytes32","name":"channelId","type":"bytes32"}],"name":"topUpChannel","outputs":[],"stateMutability":"payable","type":"function"},{"inputs":[{"internalType":"bytes32","name":"channelId","type":"bytes32"},{"internalType":"uint256","name":"spent","type":"uint256"},{"internalType":"uint256","name":"nonce","type":"uint256"},{"internalType":"bytes","name":"signature","type":"bytes"}],"name":"verifyPayment","outputs":[{"internalType":"bool","name":"","type":"bool"}],"stateMutability":"view","type":"function"},{"stateMutability":"payable","type":"receive"}],"evm":{"bytecode":{"linkReferences":{},"object":"6080806040523461001b57600160005561153b90816100218239f35b600080fdfe608060405260048036101561001d575b50361561001b57600080fd5b005b60009060e08235811c908163093c4ee614611047578163093f643614610e1357816324f453d114610bac57816326dddd8314610b395781632bf87466146109f157816362e223bb146109995781637098f8561461091657816377d18161146108ef5781637a7ebd7b14610848578163831c2b82146106cd57508063a5bbe22b146106b0578063acf8bf2a14610692578063af035ab414610665578063b589db7b14610520578063cf02791514610373578063d99457421461031c578063e1e158a5146102f7578063e7e531c91461020d5763ef3983ec146100fe575061000f565b346102095760203660031901126102095780359061011a611244565b81835260026020526040832060018101549091906001600160a01b0390811680156101f85733036101e857600683019283549360ff851660038110156101d5576002146101c457927faee37d46ae7638649199a415cd6d49cc67df520cf2c80210daac017e0df3ab9894926002836040968260036101b09701978854809785015560ff1916179055426009820155015416611418565b548151908582526020820152a26001815580f35b60405163baf3f0f760e01b81528490fd5b634e487b7160e01b885260218552602488fd5b5060405163ea8e4eb560e01b8152fd5b604051630781f76560e21b81528390fd5b5080fd5b50602036600319011261020957803590610225611244565b81835260026020526040832060018101546001600160a01b031680156101f85733036101e85760ff60068201541660038110156102e4576102d45734156102c4576003018054913483018093116102b15750817f211ddc278e48a0587f835c2b8c2cd91385b678a9541738aab765455f4d117a6192604092558151903482526020820152a26001815580f35b634e487b7160e01b855260119052602484fd5b5060405163162908e360e11b8152fd5b5060405163baf3f0f760e01b8152fd5b634e487b7160e01b855260218352602485fd5b8234610319578060031936011261031957602060405166038d7ea4c680008152f35b80fd5b8234610319576040366003190112610319576103366110bb565b6001600160a01b03168152600360205260408120805460243592908310156103195760206103648484611148565b90549060031b1c604051908152f35b5034610209576103823661110c565b9061038f95939495611244565b85875260026020526040872060018101549093906001600160a01b0390811690811561050f578060028701541633036104fe57600686019485549460ff861660038110156104eb576104da5760038801548a116104c95761043f9161043061043692603c8f8f8f8b9061040192611473565b7f19457468657265756d205369676e6564204d6573736167653a0a3332000000008252601c5220923691611283565b906112ba565b90929192611386565b16036104b857906001918686860155600585015560ff1916179055610e104201918242116104a55750918160409260087f4bed3455798bb016511dab3740951b12a6874f2b0670992e78dcb210a3362ace95015582519182526020820152a26001815580f35b634e487b7160e01b865260119052602485fd5b604051638baa579f60e01b81528590fd5b604051631e9acf1760e31b81528990fd5b60405163baf3f0f760e01b81528990fd5b634e487b7160e01b8d5260218a5260248dfd5b60405163ea8e4eb560e01b81528790fd5b604051630781f76560e21b81528790fd5b50346102095760203660031901126102095780359061053d611244565b8183526002602052604083206001810180546001600160a01b0393908416156106565760068301805460ff811660038110156106435760010361063257600885015442106106215760ff1916600217905542600984015582015460038301547faee37d46ae7638649199a415cd6d49cc67df520cf2c80210daac017e0df3ab98946040949093916105cf9084906113f5565b93849184828161060b575b505050816105f8575b50505082519182526020820152a26001815580f35b610603925416611418565b3882816105e3565b600261061993015416611418565b3884826105da565b604051637cf214ed60e01b81528390fd5b60405163baf3f0f760e01b81528390fd5b634e487b7160e01b895260218452602489fd5b604051630781f76560e21b8152fd5b50903461031957606036600319011261031957602061068a6044356024358535611473565b604051908152f35b82346103195780600319360112610319576020600154604051908152f35b82346103195780600319360112610319576020604051610e108152f35b90508234610319576020366003190112610319576040516106ed81611199565b8181528160208201528160408201528160608201528160808201528160a08201528160c08201528183820152816101206101009282848201520152833582526002602052604082206040519261074284611199565b8154845260018201546001600160a01b03908116602086015260028301541660408501526003808301546060860152868301546080860152600583015460a0860152600683015460ff169190821015610835576101408661012087876009888860c0850152600781015486850152600881015483850152015483830152604051938251855260018060a01b03602084015116602086015260018060a01b036040840151166040860152606083015160608601526080830151608086015260a083015160a086015261081b60c084015160c0870190611176565b808301519085015280820151908401520151610120820152f35b634e487b7160e01b815260218752602490fd5b9050346108eb5760203660031901126108eb576040610140938335815260026020522080549260018060a01b03926108da84600185015416946002850154169260038501549085015460058601549060ff60068801541692600788015496600960088a0154990154996040519b8c5260208c015260408b015260608a0152608089015260a088015260c0870190611176565b840152610100830152610120820152f35b8280fd5b833461031957602061090c6109033661110c565b9392909261149c565b6040519015158152f35b833461031957602080600319360112610209576001600160a01b036109396110bb565b1682526003815260408220916040518092808554928381520194835280832092905b8282106109825761097e85610972818903826111e8565b604051918291826110d1565b0390f35b83548652948501946001938401939091019061095b565b828434610319576040366003190112610319576109b46110bb565b6001600160a01b0316815260209190915260408120805460243592908310156103195760206109e38484611148565b90546040519160031b1c8152f35b50503461020957610a013661110c565b8487969293949596526002602052604087209060018060a01b0380600184015416918215610b285760ff6006850154166003811015610b1557600103610b04576008840154421015610af35760058401958654881115610ae25760038501548911610ad157610a809161043061043692603c8e6104018f8f8f91611473565b1603610ac1579284927fc669951fba8a1db4a33b34c47fafe7cbb6f3efb10d40acffbfc52769d5f1689e95829360409601555582519182526020820152a280f35b50604051638baa579f60e01b8152fd5b604051631e9acf1760e31b81528690fd5b604051633ab3447f60e11b81528690fd5b604051630435161560e51b81528590fd5b60405163baf3f0f760e01b81528590fd5b634e487b7160e01b8b526021865260248bfd5b604051630781f76560e21b81528590fd5b50503461020957602090816003193601126108eb576001600160a01b03610b5e6110bb565b168352815260408220916040518092808554928381520194835280832092905b828210610b955761097e85610972818903826111e8565b835486529485019460019384019390910190610b7e565b905082604036600319011261031957610bc36110bb565b9060243591610bd0611244565b6001600160a01b0392818416918215610e0257338314610e025766038d7ea4c680003410610df157813403610de057600154956000198714610dcd5760018701600155604051602097888201933360601b85526bffffffffffffffffffffffff199060601b16603483015242604883015260688201526068815260a081019281841067ffffffffffffffff851117610dba5788908460405282519020978893610c7886611199565b84865260c0840190338252840188815261010085018881526101208601918b83526101408701938c85526101608801958d87528d6101808a0198428a526101a08b019a828c526101c0019b828d52825260029052604090209a518b558060018c01925116916bffffffffffffffffffffffff60a01b928382541617905560028b0192511690825416179055516003880155518c8701555160058601556006850190516003811015610da757916009939160019a9b9c96959360ff801983541691161790555160078501555160088401555191015533845260038752610d60866040862061120a565b8284528652610d72856040852061120a565b604051908152847f448d27f1fe12f92a2070111296e68fd6ef0a01c0e05bf5819eda0dbcf267bf3d873393a455604051908152f35b634e487b7160e01b895260218c52602489fd5b634e487b7160e01b875260418a52602487fd5b634e487b7160e01b855260118852602485fd5b60405163162908e360e11b81528790fd5b604051635972996f60e11b81528790fd5b60405163e6c4247b60e01b81528790fd5b505034610209576080366003190112610209578035906024356044359167ffffffffffffffff9283811161104357610e4e9036908301611088565b9360643590811161103f57610e669036908401611088565b9490610e70611244565b86885260026020526040882091600183019460018060a01b0397888754169081156101f857600686019485549460ff8616600381101561102c578015159081611020575b50610b0457600388015498898c11610ad157610f7694938f8f948f958f92610f5f96610f6d96610f56603c94610430976040519060208201928352604082015270636f6f70657261746976655f636c6f736560781b606082015260518152610f1b816111cc565b519020926104307f19457468657265756d205369676e6564204d6573736167653a0a3332000000009384875285601c52878720923691611283565b909a919a611386565b8252601c5220923691611283565b90959195611386565b1603610ac157600285015489169594939291908916869003611011579383610fdb9360028a989694897faee37d46ae7638649199a415cd6d49cc67df520cf2c80210daac017e0df3ab989d9b9960409d97015560ff19161790556009429101556113f5565b9384918480611001575b5050816105f85750505082519182526020820152a26001815580f35b61100a91611418565b3884610fe5565b604051638baa579f60e01b8152fd5b60019150141538610eb4565b634e487b7160e01b8f526021865260248ffd5b8680fd5b8580fd5b5050346102095760203660031901126102095761107b604080938335815260026020522091600383015492015480926113f5565b9082519182526020820152f35b9181601f840112156110b65782359167ffffffffffffffff83116110b657602083818601950101116110b657565b600080fd5b600435906001600160a01b03821682036110b657565b6020908160408183019282815285518094520193019160005b8281106110f8575050505090565b8351855293810193928101926001016110ea565b9060806003198301126110b6576004359160243591604435916064359067ffffffffffffffff82116110b65761114491600401611088565b9091565b80548210156111605760005260206000200190600090565b634e487b7160e01b600052603260045260246000fd5b9060038210156111835752565b634e487b7160e01b600052602160045260246000fd5b610140810190811067ffffffffffffffff8211176111b657604052565b634e487b7160e01b600052604160045260246000fd5b6080810190811067ffffffffffffffff8211176111b657604052565b90601f8019910116810190811067ffffffffffffffff8211176111b657604052565b8054680100000000000000008110156111b65761122c91600182018155611148565b819291549060031b91821b91600019901b1916179055565b600260005414611255576002600055565b604051633ee5aeb560e01b8152600490fd5b67ffffffffffffffff81116111b657601f01601f191660200190565b92919261128f82611267565b9161129d60405193846111e8565b8294818452818301116110b6578281602093846000960137010152565b81519190604183036112eb576112e492506020820151906060604084015193015160001a906112f6565b9192909190565b505060009160029190565b91907f7fffffffffffffffffffffffffffffff5d576e7357a4501ddfe92f46681b20a0841161137a57926020929160ff608095604051948552168484015260408301526060820152600092839182805260015afa1561136e5780516001600160a01b0381161561136557918190565b50809160019190565b604051903d90823e3d90fd5b50505060009160039190565b60048110156111835780611398575050565b600181036113b25760405163f645eedf60e01b8152600490fd5b600281036113d35760405163fce698f760e01b815260048101839052602490fd5b6003146113dd5750565b602490604051906335e2f38360e21b82526004820152fd5b9190820391821161140257565b634e487b7160e01b600052601160045260246000fd5b6000918291829182916001600160a01b03165af13d1561146e573d61143c81611267565b9061144a60405192836111e8565b8152600060203d92013e5b1561145c57565b6040516312171d8360e31b8152600490fd5b611455565b9160405191602083019384526040830152606082015260608152611496816111cc565b51902090565b929093916000908482526002602052604082209560018060a01b0395866001890154169788156114f9576003015482116114ee576114e99593610401610430946104369794603c94611473565b161490565b505050935050505090565b5050505093505050509056fea26469706673582212208980f136a49457374290932528eff51f6fd8e32f154d7f03231d9e791bf3451764736f6c63430008140033","opcodes":"PUSH1 0x80 DUP1 PUSH1 0x40 MSTORE CALLVALUE PUSH2 0x1B JUMPI PUSH1 0x1 PUSH1 0x0 SSTORE PUSH2 0x153B SWAP1 DUP2 PUSH2 0x21 DUP3 CODECOPY RETURN JUMPDEST PUSH1 0x0 DUP1 REVERT INVALID PUSH1 0x80 PUSH1 0x40 MSTORE PUSH1 0x4 DUP1 CALLDATASIZE LT ISZERO PUSH2 0x1D JUMPI JUMPDEST POP CALLDATASIZE ISZERO PUSH2 0x1B JUMPI PUSH1 0x0 DUP1 REVERT JUMPDEST STOP JUMPDEST PUSH1 0x0 SWAP1 PUSH1 0xE0 DUP3 CALLDATALOAD DUP2 SHR SWAP1 DUP2 PUSH4 0x93C4EE6 EQ PUSH2 0x1047 JUMPI DUP2 PUSH4 0x93F6436 EQ PUSH2 0xE13 JUMPI DUP2 PUSH4 0x24F453D1 EQ PUSH2 0xBAC JUMPI DUP2 PUSH4 0x26DDDD83 EQ PUSH2 0xB39 JUMPI DUP2 PUSH4 0x2BF87466 EQ PUSH2 0x9F1 JUMPI DUP2 PUSH4 0x62E223BB EQ PUSH2 0x999 JUMPI DUP2 PUSH4 0x7098F856 EQ PUSH2 0x916 JUMPI DUP2 PUSH4 0x77D18161 EQ PUSH2 0x8EF JUMPI DUP2 PUSH4 0x7A7EBD7B EQ PUSH2 0x848 JUMPI DUP2 PUSH4 0x831C2B82 EQ PUSH2 0x6CD JUMPI POP DUP1 PUSH4 0xA5BBE22B EQ PUSH2 0x6B0 JUMPI DUP1 PUSH4 0xACF8BF2A EQ PUSH2 0x692 JUMPI DUP1 PUSH4 0xAF035AB4 EQ PUSH2 0x665 JUMPI DUP1 PUSH4 0xB589DB7B EQ PUSH2 0x520 JUMPI DUP1 PUSH4 0xCF027915 EQ PUSH2 0x373 JUMPI DUP1 PUSH4 0xD9945742 EQ PUSH2 0x31C JUMPI DUP1 PUSH4 0xE1E158A5 EQ PUSH2 0x2F7 JUMPI DUP1 PUSH4 0xE7E531C9 EQ PUSH2 0x20D JUMPI PUSH4 0xEF3983EC EQ PUSH2 0xFE JUMPI POP PUSH2 0xF JUMP JUMPDEST CALLVALUE PUSH2 0x209 JUMPI PUSH1 0x20 CALLDATASIZE PUSH1 0x3 NOT ADD SLT PUSH2 0x209 JUMPI DUP1 CALLDATALOAD SWAP1 PUSH2 0x11A PUSH2 0x1244 JUMP JUMPDEST DUP2 DUP4 MSTORE PUSH1 0x2 PUSH1 0x20 MSTORE PUSH1 0x40 DUP4 KECCAK256 PUSH1 0x1 DUP2 ADD SLOAD SWAP1 SWAP2 SWAP1 PUSH1 0x1 PUSH1 0x1 PUSH1 0xA0 SHL SUB SWAP1 DUP2 AND DUP1 ISZERO PUSH2 0x1F8 JUMPI CALLER SUB PUSH2 0x1E8 JUMPI PUSH1 0x6 DUP4 ADD SWAP3 DUP4 SLOAD SWAP4 PUSH1 0xFF DUP6 AND PUSH1 0x3 DUP2 LT ISZERO PUSH2 0x1D5 JUMPI PUSH1 0x2 EQ PUSH2 0x1C4 JUMPI SWAP3 PUSH32 0xAEE37D46AE7638649199A415CD6D49CC67DF520CF2C80210DAAC017E0DF3AB98 SWAP5 SWAP3 PUSH1 0x2 DUP4 PUSH1 0x40 SWAP7 DUP3 PUSH1 0x3 PUSH2 0x1B0 SWAP8 ADD SWAP8 DUP9 SLOAD DUP1 SWAP8 DUP6 ADD SSTORE PUSH1 0xFF NOT AND OR SWAP1 SSTORE TIMESTAMP PUSH1 0x9 DUP3 ADD SSTORE ADD SLOAD AND PUSH2 0x1418 JUMP JUMPDEST SLOAD DUP2 MLOAD SWAP1 DUP6 DUP3 MSTORE PUSH1 0x20 DUP3 ADD MSTORE LOG2 PUSH1 0x1 DUP2 SSTORE DUP1 RETURN JUMPDEST PUSH1 0x40 MLOAD PUSH4 0xBAF3F0F7 PUSH1 0xE0 SHL DUP2 MSTORE DUP5 SWAP1 REVERT JUMPDEST PUSH4 0x4E487B71 PUSH1 0xE0 SHL DUP9 MSTORE PUSH1 0x21 DUP6 MSTORE PUSH1 0x24 DUP9 REVERT JUMPDEST POP PUSH1 0x40 MLOAD PUSH4 0xEA8E4EB5 PUSH1 0xE0 SHL DUP2 MSTORE REVERT JUMPDEST PUSH1 0x40 MLOAD PUSH4 0x781F765 PUSH1 0xE2 SHL DUP2 MSTORE DUP4 SWAP1 REVERT JUMPDEST POP DUP1 REVERT JUMPDEST POP PUSH1 0x20 CALLDATASIZE PUSH1 0x3 NOT ADD SLT PUSH2 0x209 JUMPI DUP1 CALLDATALOAD SWAP1 PUSH2 0x225 PUSH2 0x1244 JUMP JUMPDEST DUP2 DUP4 MSTORE PUSH1 0x2 PUSH1 0x20 MSTORE PUSH1 0x40 DUP4 KECCAK256 PUSH1 0x1 DUP2 ADD SLOAD PUSH1 0x1 PUSH1 0x1 PUSH1 0xA0 SHL SUB AND DUP1 ISZERO PUSH2 0x1F8 JUMPI CALLER SUB PUSH2 0x1E8 JUMPI PUSH1 0xFF PUSH1 0x6 DUP3 ADD SLOAD AND PUSH1 0x3 DUP2 LT ISZERO PUSH2 0x2E4 JUMPI PUSH2 0x2D4 JUMPI CALLVALUE ISZERO PUSH2 0x2C4 JUMPI PUSH1 0x3 ADD DUP1 SLOAD SWAP2 CALLVALUE DUP4 ADD DUP1 SWAP4 GT PUSH2 0x2B1 JUMPI POP DUP2 PUSH32 0x211DDC278E48A0587F835C2B8C2CD91385B678A9541738AAB765455F4D117A61 SWAP3 PUSH1 0x40 SWAP3 SSTORE DUP2 MLOAD SWAP1 CALLVALUE DUP3 MSTORE PUSH1 0x20 DUP3 ADD MSTORE LOG2 PUSH1 0x1 DUP2 SSTORE DUP1 RETURN JUMPDEST PUSH4 0x4E487B71 PUSH1 0xE0 SHL DUP6 MSTORE PUSH1 0x11 SWAP1 MSTORE PUSH1 0x24 DUP5 REVERT JUMPDEST POP PUSH1 0x40 MLOAD PUSH4 0x162908E3 PUSH1 0xE1 SHL DUP2 MSTORE REVERT JUMPDEST POP PUSH1 0x40 MLOAD PUSH4 0xBAF3F0F7 PUSH1 0xE0 SHL DUP2 MSTORE REVERT JUMPDEST PUSH4 0x4E487B71 PUSH1 0xE0 SHL DUP6 MSTORE PUSH1 0x21 DUP4 MSTORE PUSH1 0x24 DUP6 REVERT JUMPDEST DUP3 CALLVALUE PUSH2 0x319 JUMPI DUP1 PUSH1 0x3 NOT CALLDATASIZE ADD SLT PUSH2 0x319 JUMPI PUSH1 0x20 PUSH1 0x40 MLOAD PUSH7 0x38D7EA4C68000 DUP2 MSTORE RETURN JUMPDEST DUP1 REVERT JUMPDEST DUP3 CALLVALUE PUSH2 0x319 JUMPI PUSH1 0x40 CALLDATASIZE PUSH1 0x3 NOT ADD SLT PUSH2 0x319 JUMPI PUSH2 0x336 PUSH2 0x10BB JUMP JUMPDEST PUSH1 0x1 PUSH1 0x1 PUSH1 0xA0 SHL SUB AND DUP2 MSTORE PUSH1 0x3 PUSH1 0x20 MSTORE PUSH1 0x40 DUP2 KECCAK256 DUP1 SLOAD PUSH1 0x24 CALLDATALOAD SWAP3 SWAP1 DUP4 LT ISZERO PUSH2 0x319 JUMPI PUSH1 0x20 PUSH2 0x364 DUP5 DUP5 PUSH2 0x1148 JUMP JUMPDEST SWAP1 SLOAD SWAP1 PUSH1 0x3 SHL SHR PUSH1 0x40 MLOAD SWAP1 DUP2 MSTORE RETURN JUMPDEST POP CALLVALUE PUSH2 0x209 JUMPI PUSH2 0x382 CALLDATASIZE PUSH2 0x110C JUMP JUMPDEST SWAP1 PUSH2 0x38F SWAP6 SWAP4 SWAP5 SWAP6 PUSH2 0x1244 JUMP JUMPDEST DUP6 DUP8 MSTORE PUSH1 0x2 PUSH1 0x20 MSTORE PUSH1 0x40 DUP8 KECCAK256 PUSH1 0x1 DUP2 ADD SLOAD SWAP1 SWAP4 SWAP1 PUSH1 0x1 PUSH1 0x1 PUSH1 0xA0 SHL SUB SWAP1 DUP2 AND SWAP1 DUP2 ISZERO PUSH2 0x50F JUMPI DUP1 PUSH1 0x2 DUP8 ADD SLOAD AND CALLER SUB PUSH2 0x4FE JUMPI PUSH1 0x6 DUP7 ADD SWAP5 DUP6 SLOAD SWAP5 PUSH1 0xFF DUP7 AND PUSH1 0x3 DUP2 LT ISZERO PUSH2 0x4EB JUMPI PUSH2 0x4DA JUMPI PUSH1 0x3 DUP9 ADD SLOAD DUP11 GT PUSH2 0x4C9 JUMPI PUSH2 0x43F SWAP2 PUSH2 0x430 PUSH2 0x436 SWAP3 PUSH1 0x3C DUP16 DUP16 DUP16 DUP12 SWAP1 PUSH2 0x401 SWAP3 PUSH2 0x1473 JUMP JUMPDEST PUSH32 0x19457468657265756D205369676E6564204D6573736167653A0A333200000000 DUP3 MSTORE PUSH1 0x1C MSTORE KECCAK256 SWAP3 CALLDATASIZE SWAP2 PUSH2 0x1283 JUMP JUMPDEST SWAP1 PUSH2 0x12BA JUMP JUMPDEST SWAP1 SWAP3 SWAP2 SWAP3 PUSH2 0x1386 JUMP JUMPDEST AND SUB PUSH2 0x4B8 JUMPI SWAP1 PUSH1 0x1 SWAP2 DUP7 DUP7 DUP7 ADD SSTORE PUSH1 0x5 DUP6 ADD SSTORE PUSH1 0xFF NOT AND OR SWAP1 SSTORE PUSH2 0xE10 TIMESTAMP ADD SWAP2 DUP3 TIMESTAMP GT PUSH2 0x4A5 JUMPI POP SWAP2 DUP2 PUSH1 0x40 SWAP3 PUSH1 0x8 PUSH32 0x4BED3455798BB016511DAB3740951B12A6874F2B0670992E78DCB210A3362ACE SWAP6 ADD SSTORE DUP3 MLOAD SWAP2 DUP3 MSTORE PUSH1 0x20 DUP3 ADD MSTORE LOG2 PUSH1 0x1 DUP2 SSTORE DUP1 RETURN JUMPDEST PUSH4 0x4E487B71 PUSH1 0xE0 SHL DUP7 MSTORE PUSH1 0x11 SWAP1 MSTORE PUSH1 0x24 DUP6 REVERT JUMPDEST PUSH1 0x40 MLOAD PUSH4 0x8BAA579F PUSH1 0xE0 SHL DUP2 MSTORE DUP6 SWAP1 REVERT JUMPDEST PUSH1 0x40 MLOAD PUSH4 0x1E9ACF17 PUSH1 0xE3 SHL DUP2 MSTORE DUP10 SWAP1 REVERT JUMPDEST PUSH1 0x40 MLOAD PUSH4 0xBAF3F0F7 PUSH1 0xE0 SHL DUP2 MSTORE DUP10 SWAP1 REVERT JUMPDEST PUSH4 0x4E487B71 PUSH1 0xE0 SHL DUP14 MSTORE PUSH1 0x21 DUP11 MSTORE PUSH1 0x24 DUP14 REVERT JUMPDEST PUSH1 0x40 MLOAD PUSH4 0xEA8E4EB5 PUSH1 0xE0 SHL DUP2 MSTORE DUP8 SWAP1 REVERT JUMPDEST PUSH1 0x40 MLOAD PUSH4 0x781F765 PUSH1 0xE2 SHL DUP2 MSTORE DUP8 SWAP1 REVERT JUMPDEST POP CALLVALUE PUSH2 0x209 JUMPI PUSH1 0x20 CALLDATASIZE PUSH1 0x3 NOT ADD SLT PUSH2 0x209 JUMPI DUP1 CALLDATALOAD SWAP1 PUSH2 0x53D PUSH2 0x1244 JUMP JUMPDEST DUP2 DUP4 MSTORE PUSH1 0x2 PUSH1 0x20 MSTORE PUSH1 0x40 DUP4 KECCAK256 PUSH1 0x1 DUP2 ADD DUP1 SLOAD PUSH1 0x1 PUSH1 0x1 PUSH1 0xA0 SHL SUB SWAP4 SWAP1 DUP5 AND ISZERO PUSH2 0x656 JUMPI PUSH1 0x6 DUP4 ADD DUP1 SLOAD PUSH1 0xFF DUP2 AND PUSH1 0x3 DUP2 LT ISZERO PUSH2 0x643 JUMPI PUSH1 0x1 SUB PUSH2 0x632 JUMPI PUSH1 0x8 DUP6 ADD SLOAD TIMESTAMP LT PUSH2 0x621 JUMPI PUSH1 0xFF NOT AND PUSH1 0x2 OR SWAP1 SSTORE TIMESTAMP PUSH1 0x9 DUP5 ADD SSTORE DUP3 ADD SLOAD PUSH1 0x3 DUP4 ADD SLOAD PUSH32 0xAEE37D46AE7638649199A415CD6D49CC67DF520CF2C80210DAAC017E0DF3AB98 SWAP5 PUSH1 0x40 SWAP5 SWAP1 SWAP4 SWAP2 PUSH2 0x5CF SWAP1 DUP5 SWAP1 PUSH2 0x13F5 JUMP JUMPDEST SWAP4 DUP5 SWAP2 DUP5 DUP3 DUP2 PUSH2 0x60B JUMPI JUMPDEST POP POP POP DUP2 PUSH2 0x5F8 JUMPI JUMPDEST POP POP POP DUP3 MLOAD SWAP2 DUP3 MSTORE PUSH1 0x20 DUP3 ADD MSTORE LOG2 PUSH1 0x1 DUP2 SSTORE DUP1 RETURN JUMPDEST PUSH2 0x603 SWAP3 SLOAD AND PUSH2 0x1418 JUMP JUMPDEST CODESIZE DUP3 DUP2 PUSH2 0x5E3 JUMP JUMPDEST PUSH1 0x2 PUSH2 0x619 SWAP4 ADD SLOAD AND PUSH2 0x1418 JUMP JUMPDEST CODESIZE DUP5 DUP3 PUSH2 0x5DA JUMP JUMPDEST PUSH1 0x40 MLOAD PUSH4 0x7CF214ED PUSH1 0xE0 SHL DUP2 MSTORE DUP4 SWAP1 REVERT JUMPDEST PUSH1 0x40 MLOAD PUSH4 0xBAF3F0F7 PUSH1 0xE0 SHL DUP2 MSTORE DUP4 SWAP1 REVERT JUMPDEST PUSH4 0x4E487B71 PUSH1 0xE0 SHL DUP10 MSTORE PUSH1 0x21 DUP5 MSTORE PUSH1 0x24 DUP10 REVERT JUMPDEST PUSH1 0x40 MLOAD PUSH4 0x781F765 PUSH1 0xE2 SHL DUP2 MSTORE REVERT JUMPDEST POP SWAP1 CALLVALUE PUSH2 0x319 JUMPI PUSH1 0x60 CALLDATASIZE PUSH1 0x3 NOT ADD SLT PUSH2 0x319 JUMPI PUSH1 0x20 PUSH2 0x68A PUSH1 0x44 CALLDATALOAD PUSH1 0x24 CALLDATALOAD DUP6 CALLDATALOAD PUSH2 0x1473 JUMP JUMPDEST PUSH1 0x40 MLOAD SWAP1 DUP2 MSTORE RETURN JUMPDEST DUP3 CALLVALUE PUSH2 0x319 JUMPI DUP1 PUSH1 0x3 NOT CALLDATASIZE ADD SLT PUSH2 0x319 JUMPI PUSH1 0x20 PUSH1 0x1 SLOAD PUSH1 0x40 MLOAD SWAP1 DUP2 MSTORE RETURN JUMPDEST DUP3 CALLVALUE PUSH2 0x319 JUMPI DUP1 PUSH1 0x3 NOT CALLDATASIZE ADD SLT PUSH2 0x319 JUMPI PUSH1 0x20 PUSH1 0x40 MLOAD PUSH2 0xE10 DUP2 MSTORE RETURN JUMPDEST SWAP1 POP DUP3 CALLVALUE PUSH2 0x319 JUMPI PUSH1 0x20 CALLDATASIZE PUSH1 0x3 NOT ADD SLT PUSH2 0x319 JUMPI PUSH1 0x40 MLOAD PUSH2 0x6ED DUP2 PUSH2 0x1199 JUMP JUMPDEST DUP2 DUP2 MSTORE DUP2 PUSH1 0x20 DUP3 ADD MSTORE DUP2 PUSH1 0x40 DUP3 ADD MSTORE DUP2 PUSH1 0x60 DUP3 ADD MSTORE DUP2 PUSH1 0x80 DUP3 ADD MSTORE DUP2 PUSH1 0xA0 DUP3 ADD MSTORE DUP2 PUSH1 0xC0 DUP3 ADD MSTORE DUP2 DUP4 DUP3 ADD MSTORE DUP2 PUSH2 0x120 PUSH2 0x100 SWAP3 DUP3 DUP5 DUP3 ADD MSTORE ADD MSTORE DUP4 CALLDATALOAD DUP3 MSTORE PUSH1 0x2 PUSH1 0x20 MSTORE PUSH1 0x40 DUP3 KECCAK256 PUSH1 0x40 MLOAD SWAP3 PUSH2 0x742 DUP5 PUSH2 0x1199 JUMP JUMPDEST DUP2 SLOAD DUP5 MSTORE PUSH1 0x1 DUP3 ADD SLOAD PUSH1 0x1 PUSH1 0x1 PUSH1 0xA0 SHL SUB SWAP1 DUP2 AND PUSH1 0x20 DUP7 ADD MSTORE PUSH1 0x2 DUP4 ADD SLOAD AND PUSH1 0x40 DUP6 ADD MSTORE PUSH1 0x3 DUP1 DUP4 ADD SLOAD PUSH1 0x60 DUP7 ADD MSTORE DUP7 DUP4 ADD SLOAD PUSH1 0x80 DUP7 ADD MSTORE PUSH1 0x5 DUP4 ADD SLOAD PUSH1 0xA0 DUP7 ADD MSTORE PUSH1 0x6 DUP4 ADD SLOAD PUSH1 0xFF AND SWAP2 SWAP1 DUP3 LT ISZERO PUSH2 0x835 JUMPI PUSH2 0x140 DUP7 PUSH2 0x120 DUP8 DUP8 PUSH1 0x9 DUP9 DUP9 PUSH1 0xC0 DUP6 ADD MSTORE PUSH1 0x7 DUP2 ADD SLOAD DUP7 DUP6 ADD MSTORE PUSH1 0x8 DUP2 ADD SLOAD DUP4 DUP6 ADD MSTORE ADD SLOAD DUP4 DUP4 ADD MSTORE PUSH1 0x40 MLOAD SWAP4 DUP3 MLOAD DUP6 MSTORE PUSH1 0x1 DUP1 PUSH1 0xA0 SHL SUB PUSH1 0x20 DUP5 ADD MLOAD AND PUSH1 0x20 DUP7 ADD MSTORE PUSH1 0x1 DUP1 PUSH1 0xA0 SHL SUB PUSH1 0x40 DUP5 ADD MLOAD AND PUSH1 0x40 DUP7 ADD MSTORE PUSH1 0x60 DUP4 ADD MLOAD PUSH1 0x60 DUP7 ADD MSTORE PUSH1 0x80 DUP4 ADD MLOAD PUSH1 0x80 DUP7 ADD MSTORE PUSH1 0xA0 DUP4 ADD MLOAD PUSH1 0xA0 DUP7 ADD MSTORE PUSH2 0x81B PUSH1 0xC0 DUP5 ADD MLOAD PUSH1 0xC0 DUP8 ADD SWAP1 PUSH2 0x1176 JUMP JUMPDEST DUP1 DUP4 ADD MLOAD SWAP1 DUP6 ADD MSTORE DUP1 DUP3 ADD MLOAD SWAP1 DUP5 ADD MSTORE ADD MLOAD PUSH2 0x120 DUP3 ADD MSTORE RETURN JUMPDEST PUSH4 0x4E487B71 PUSH1 0xE0 SHL DUP2 MSTORE PUSH1 0x21 DUP8 MSTORE PUSH1 0x24 SWAP1 REVERT JUMPDEST SWAP1 POP CALLVALUE PUSH2 0x8EB JUMPI PUSH1 0x20 CALLDATASIZE PUSH1 0x3 NOT ADD SLT PUSH2 0x8EB JUMPI PUSH1 0x40 PUSH2 0x140 SWAP4 DUP4 CALLDATALOAD DUP2 MSTORE PUSH1 0x2 PUSH1 0x20 MSTORE KECCAK256 DUP1 SLOAD SWAP3 PUSH1 0x1 DUP1 PUSH1 0xA0 SHL SUB SWAP3 PUSH2 0x8DA DUP5 PUSH1 0x1 DUP6 ADD SLOAD AND SWAP5 PUSH1 0x2 DUP6 ADD SLOAD AND SWAP3 PUSH1 0x3 DUP6 ADD SLOAD SWAP1 DUP6 ADD SLOAD PUSH1 0x5 DUP7 ADD SLOAD SWAP1 PUSH1 0xFF PUSH1 0x6 DUP9 ADD SLOAD AND SWAP3 PUSH1 0x7 DUP9 ADD SLOAD SWAP7 PUSH1 0x9 PUSH1 0x8 DUP11 ADD SLOAD SWAP10 ADD SLOAD SWAP10 PUSH1 0x40 MLOAD SWAP12 DUP13 MSTORE PUSH1 0x20 DUP13 ADD MSTORE PUSH1 0x40 DUP12 ADD MSTORE PUSH1 0x60 DUP11 ADD MSTORE PUSH1 0x80 DUP10 ADD MSTORE PUSH1 0xA0 DUP9 ADD MSTORE PUSH1 0xC0 DUP8 ADD SWAP1 PUSH2 0x1176 JUMP JUMPDEST DUP5 ADD MSTORE PUSH2 0x100 DUP4 ADD MSTORE PUSH2 0x120 DUP3 ADD MSTORE RETURN JUMPDEST DUP3 DUP1 REVERT JUMPDEST DUP4 CALLVALUE PUSH2 0x319 JUMPI PUSH1 0x20 PUSH2 0x90C PUSH2 0x903 CALLDATASIZE PUSH2 0x110C JUMP JUMPDEST SWAP4 SWAP3 SWAP1 SWAP3 PUSH2 0x149C JUMP JUMPDEST PUSH1 0x40 MLOAD SWAP1 ISZERO ISZERO DUP2 MSTORE RETURN JUMPDEST DUP4 CALLVALUE PUSH2 0x319 JUMPI PUSH1 0x20 DUP1 PUSH1 0x3 NOT CALLDATASIZE ADD SLT PUSH2 0x209 JUMPI PUSH1 0x1 PUSH1 0x1 PUSH1 0xA0 SHL SUB PUSH2 0x939 PUSH2 0x10BB JUMP JUMPDEST AND DUP3 MSTORE PUSH1 0x3 DUP2 MSTORE PUSH1 0x40 DUP3 KECCAK256 SWAP2 PUSH1 0x40 MLOAD DUP1 SWAP3 DUP1 DUP6 SLOAD SWAP3 DUP4 DUP2 MSTORE ADD SWAP5 DUP4 MSTORE DUP1 DUP4 KECCAK256 SWAP3 SWAP1 JUMPDEST DUP3 DUP3 LT PUSH2 0x982 JUMPI PUSH2 0x97E DUP6 PUSH2 0x972 DUP2 DUP10 SUB DUP3 PUSH2 0x11E8 JUMP JUMPDEST PUSH1 0x40 MLOAD SWAP2 DUP3 SWAP2 DUP3 PUSH2 0x10D1 JUMP JUMPDEST SUB SWAP1 RETURN JUMPDEST DUP4 SLOAD DUP7 MSTORE SWAP5 DUP6 ADD SWAP5 PUSH1 0x1 SWAP4 DUP5 ADD SWAP4 SWAP1 SWAP2 ADD SWAP1 PUSH2 0x95B JUMP JUMPDEST DUP3 DUP5 CALLVALUE PUSH2 0x319 JUMPI PUSH1 0x40 CALLDATASIZE PUSH1 0x3 NOT ADD SLT PUSH2 0x319 JUMPI PUSH2 0x9B4 PUSH2 0x10BB JUMP JUMPDEST PUSH1 0x1 PUSH1 0x1 PUSH1 0xA0 SHL SUB AND DUP2 MSTORE PUSH1 0x20 SWAP2 SWAP1 SWAP2 MSTORE PUSH1 0x40 DUP2 KECCAK256 DUP1 SLOAD PUSH1 0x24 CALLDATALOAD SWAP3 SWAP1 DUP4 LT ISZERO PUSH2 0x319 JUMPI PUSH1 0x20 PUSH2 0x9E3 DUP5 DUP5 PUSH2 0x1148 JUMP JUMPDEST SWAP1 SLOAD PUSH1 0x40 MLOAD SWAP2 PUSH1 0x3 SHL SHR DUP2 MSTORE RETURN JUMPDEST POP POP CALLVALUE PUSH2 0x209 JUMPI PUSH2 0xA01 CALLDATASIZE PUSH2 0x110C JUMP JUMPDEST DUP5 DUP8 SWAP7 SWAP3 SWAP4 SWAP5 SWAP6 SWAP7 MSTORE PUSH1 0x2 PUSH1 0x20 MSTORE PUSH1 0x40 DUP8 KECCAK256 SWAP1 PUSH1 0x1 DUP1 PUSH1 0xA0 SHL SUB DUP1 PUSH1 0x1 DUP5 ADD SLOAD AND SWAP2 DUP3 ISZERO PUSH2 0xB28 JUMPI PUSH1 0xFF PUSH1 0x6 DUP6 ADD SLOAD AND PUSH1 0x3 DUP2 LT ISZERO PUSH2 0xB15 JUMPI PUSH1 0x1 SUB PUSH2 0xB04 JUMPI PUSH1 0x8 DUP5 ADD SLOAD TIMESTAMP LT ISZERO PUSH2 0xAF3 JUMPI PUSH1 0x5 DUP5 ADD SWAP6 DUP7 SLOAD DUP9 GT ISZERO PUSH2 0xAE2 JUMPI PUSH1 0x3 DUP6 ADD SLOAD DUP10 GT PUSH2 0xAD1 JUMPI PUSH2 0xA80 SWAP2 PUSH2 0x430 PUSH2 0x436 SWAP3 PUSH1 0x3C DUP15 PUSH2 0x401 DUP16 DUP16 DUP16 SWAP2 PUSH2 0x1473 JUMP JUMPDEST AND SUB PUSH2 0xAC1 JUMPI SWAP3 DUP5 SWAP3 PUSH32 0xC669951FBA8A1DB4A33B34C47FAFE7CBB6F3EFB10D40ACFFBFC52769D5F1689E SWAP6 DUP3 SWAP4 PUSH1 0x40 SWAP7 ADD SSTORE SSTORE DUP3 MLOAD SWAP2 DUP3 MSTORE PUSH1 0x20 DUP3 ADD MSTORE LOG2 DUP1 RETURN JUMPDEST POP PUSH1 0x40 MLOAD PUSH4 0x8BAA579F PUSH1 0xE0 SHL DUP2 MSTORE REVERT JUMPDEST PUSH1 0x40 MLOAD PUSH4 0x1E9ACF17 PUSH1 0xE3 SHL DUP2 MSTORE DUP7 SWAP1 REVERT JUMPDEST PUSH1 0x40 MLOAD PUSH4 0x3AB3447F PUSH1 0xE1 SHL DUP2 MSTORE DUP7 SWAP1 REVERT JUMPDEST PUSH1 0x40 MLOAD PUSH4 0x4351615 PUSH1 0xE5 SHL DUP2 MSTORE DUP6 SWAP1 REVERT JUMPDEST PUSH1 0x40 MLOAD PUSH4 0xBAF3F0F7 PUSH1 0xE0 SHL DUP2 MSTORE DUP6 SWAP1 REVERT JUMPDEST PUSH4 0x4E487B71 PUSH1 0xE0 SHL DUP12 MSTORE PUSH1 0x21 DUP7 MSTORE PUSH1 0x24 DUP12 REVERT JUMPDEST PUSH1 0x40 MLOAD PUSH4 0x781F765 PUSH1 0xE2 SHL DUP2 MSTORE DUP6 SWAP1 REVERT JUMPDEST POP POP CALLVALUE PUSH2 0x209 JUMPI PUSH1 0x20 SWAP1 DUP2 PUSH1 0x3 NOT CALLDATASIZE ADD SLT PUSH2 0x8EB JUMPI PUSH1 0x1 PUSH1 0x1 PUSH1 0xA0 SHL SUB PUSH2 0xB5E PUSH2 0x10BB JUMP JUMPDEST AND DUP4 MSTORE DUP2 MSTORE PUSH1 0x40 DUP3 KECCAK256 SWAP2 PUSH1 0x40 MLOAD DUP1 SWAP3 DUP1 DUP6 SLOAD SWAP3 DUP4 DUP2 MSTORE ADD SWAP5 DUP4 MSTORE DUP1 DUP4 KECCAK256 SWAP3 SWAP1 JUMPDEST DUP3 DUP3 LT PUSH2 0xB95 JUMPI PUSH2 0x97E DUP6 PUSH2 0x972 DUP2 DUP10 SUB DUP3 PUSH2 0x11E8 JUMP JUMPDEST DUP4 SLOAD DUP7 MSTORE SWAP5 DUP6 ADD SWAP5 PUSH1 0x1 SWAP4 DUP5 ADD SWAP4 SWAP1 SWAP2 ADD SWAP1 PUSH2 0xB7E JUMP JUMPDEST SWAP1 POP DUP3 PUSH1 0x40 CALLDATASIZE PUSH1 0x3 NOT ADD SLT PUSH2 0x319 JUMPI PUSH2 0xBC3 PUSH2 0x10BB JUMP JUMPDEST SWAP1 PUSH1 0x24 CALLDATALOAD SWAP2 PUSH2 0xBD0 PUSH2 0x1244 JUMP JUMPDEST PUSH1 0x1 PUSH1 0x1 PUSH1 0xA0 SHL SUB SWAP3 DUP2 DUP5 AND SWAP2 DUP3 ISZERO PUSH2 0xE02 JUMPI CALLER DUP4 EQ PUSH2 0xE02 JUMPI PUSH7 0x38D7EA4C68000 CALLVALUE LT PUSH2 0xDF1 JUMPI DUP2 CALLVALUE SUB PUSH2 0xDE0 JUMPI PUSH1 0x1 SLOAD SWAP6 PUSH1 0x0 NOT DUP8 EQ PUSH2 0xDCD JUMPI PUSH1 0x1 DUP8 ADD PUSH1 0x1 SSTORE PUSH1 0x40 MLOAD PUSH1 0x20 SWAP8 DUP9 DUP3 ADD SWAP4 CALLER PUSH1 0x60 SHL DUP6 MSTORE PUSH12 0xFFFFFFFFFFFFFFFFFFFFFFFF NOT SWAP1 PUSH1 0x60 SHL AND PUSH1 0x34 DUP4 ADD MSTORE TIMESTAMP PUSH1 0x48 DUP4 ADD MSTORE PUSH1 0x68 DUP3 ADD MSTORE PUSH1 0x68 DUP2 MSTORE PUSH1 0xA0 DUP2 ADD SWAP3 DUP2 DUP5 LT PUSH8 0xFFFFFFFFFFFFFFFF DUP6 GT OR PUSH2 0xDBA JUMPI DUP9 SWAP1 DUP5 PUSH1 0x40 MSTORE DUP3 MLOAD SWAP1 KECCAK256 SWAP8 DUP9 SWAP4 PUSH2 0xC78 DUP7 PUSH2 0x1199 JUMP JUMPDEST DUP5 DUP7 MSTORE PUSH1 0xC0 DUP5 ADD SWAP1 CALLER DUP3 MSTORE DUP5 ADD DUP9 DUP2 MSTORE PUSH2 0x100 DUP6 ADD DUP9 DUP2 MSTORE PUSH2 0x120 DUP7 ADD SWAP2 DUP12 DUP4 MSTORE PUSH2 0x140 DUP8 ADD SWAP4 DUP13 DUP6 MSTORE PUSH2 0x160 DUP9 ADD SWAP6 DUP14 DUP8 MSTORE DUP14 PUSH2 0x180 DUP11 ADD SWAP9 TIMESTAMP DUP11 MSTORE PUSH2 0x1A0 DUP12 ADD SWAP11 DUP3 DUP13 MSTORE PUSH2 0x1C0 ADD SWAP12 DUP3 DUP14 MSTORE DUP3 MSTORE PUSH1 0x2 SWAP1 MSTORE PUSH1 0x40 SWAP1 KECCAK256 SWAP11 MLOAD DUP12 SSTORE DUP1 PUSH1 0x1 DUP13 ADD SWAP3 MLOAD AND SWAP2 PUSH12 0xFFFFFFFFFFFFFFFFFFFFFFFF PUSH1 0xA0 SHL SWAP3 DUP4 DUP3 SLOAD AND OR SWAP1 SSTORE PUSH1 0x2 DUP12 ADD SWAP3 MLOAD AND SWAP1 DUP3 SLOAD AND OR SWAP1 SSTORE MLOAD PUSH1 0x3 DUP9 ADD SSTORE MLOAD DUP13 DUP8 ADD SSTORE MLOAD PUSH1 0x5 DUP7 ADD SSTORE PUSH1 0x6 DUP6 ADD SWAP1 MLOAD PUSH1 0x3 DUP2 LT ISZERO PUSH2 0xDA7 JUMPI SWAP2 PUSH1 0x9 SWAP4 SWAP2 PUSH1 0x1 SWAP11 SWAP12 SWAP13 SWAP7 SWAP6 SWAP4 PUSH1 0xFF DUP1 NOT DUP4 SLOAD AND SWAP2 AND OR SWAP1 SSTORE MLOAD PUSH1 0x7 DUP6 ADD SSTORE MLOAD PUSH1 0x8 DUP5 ADD SSTORE MLOAD SWAP2 ADD SSTORE CALLER DUP5 MSTORE PUSH1 0x3 DUP8 MSTORE PUSH2 0xD60 DUP7 PUSH1 0x40 DUP7 KECCAK256 PUSH2 0x120A JUMP JUMPDEST DUP3 DUP5 MSTORE DUP7 MSTORE PUSH2 0xD72 DUP6 PUSH1 0x40 DUP6 KECCAK256 PUSH2 0x120A JUMP JUMPDEST PUSH1 0x40 MLOAD SWAP1 DUP2 MSTORE DUP5 PUSH32 0x448D27F1FE12F92A2070111296E68FD6EF0A01C0E05BF5819EDA0DBCF267BF3D DUP8 CALLER SWAP4 LOG4 SSTORE PUSH1 0x40 MLOAD SWAP1 DUP2 MSTORE RETURN JUMPDEST PUSH4 0x4E487B71 PUSH1 0xE0 SHL DUP10 MSTORE PUSH1 0x21 DUP13 MSTORE PUSH1 0x24 DUP10 REVERT JUMPDEST PUSH4 0x4E487B71 PUSH1 0xE0 SHL DUP8 MSTORE PUSH1 0x41 DUP11 MSTORE PUSH1 0x24 DUP8 REVERT JUMPDEST PUSH4 0x4E487B71 PUSH1 0xE0 SHL DUP6 MSTORE PUSH1 0x11 DUP9 MSTORE PUSH1 0x24 DUP6 REVERT JUMPDEST PUSH1 0x40 MLOAD PUSH4 0x162908E3 PUSH1 0xE1 SHL DUP2 MSTORE DUP8 SWAP1 REVERT JUMPDEST PUSH1 0x40 MLOAD PUSH4 0x5972996F PUSH1 0xE1 SHL DUP2 MSTORE DUP8 SWAP1 REVERT JUMPDEST PUSH1 0x40 MLOAD PUSH4 0xE6C4247B PUSH1 0xE0 SHL DUP2 MSTORE DUP8 SWAP1 REVERT JUMPDEST POP POP CALLVALUE PUSH2 0x209 JUMPI PUSH1 0x80 CALLDATASIZE PUSH1 0x3 NOT ADD SLT PUSH2 0x209 JUMPI DUP1 CALLDATALOAD SWAP1 PUSH1 0x24 CALLDATALOAD PUSH1 0x44 CALLDATALOAD SWAP2 PUSH8 0xFFFFFFFFFFFFFFFF SWAP3 DUP4 DUP2 GT PUSH2 0x1043 JUMPI PUSH2 0xE4E SWAP1 CALLDATASIZE SWAP1 DUP4 ADD PUSH2 0x1088 JUMP JUMPDEST SWAP4 PUSH1 0x64 CALLDATALOAD SWAP1 DUP2 GT PUSH2 0x103F JUMPI PUSH2 0xE66 SWAP1 CALLDATASIZE SWAP1 DUP5 ADD PUSH2 0x1088 JUMP JUMPDEST SWAP5 SWAP1 PUSH2 0xE70 PUSH2 0x1244 JUMP JUMPDEST DUP7 DUP9 MSTORE PUSH1 0x2 PUSH1 0x20 MSTORE PUSH1 0x40 DUP9 KECCAK256 SWAP2 PUSH1 0x1 DUP4 ADD SWAP5 PUSH1 0x1 DUP1 PUSH1 0xA0 SHL SUB SWAP8 DUP9 DUP8 SLOAD AND SWAP1 DUP2 ISZERO PUSH2 0x1F8 JUMPI PUSH1 0x6 DUP7 ADD SWAP5 DUP6 SLOAD SWAP5 PUSH1 0xFF DUP7 AND PUSH1 0x3 DUP2 LT ISZERO PUSH2 0x102C JUMPI DUP1 ISZERO ISZERO SWAP1 DUP2 PUSH2 0x1020 JUMPI JUMPDEST POP PUSH2 0xB04 JUMPI PUSH1 0x3 DUP9 ADD SLOAD SWAP9 DUP10 DUP13 GT PUSH2 0xAD1 JUMPI PUSH2 0xF76 SWAP5 SWAP4 DUP16 DUP16 SWAP5 DUP16 SWAP6 DUP16 SWAP3 PUSH2 0xF5F SWAP7 PUSH2 0xF6D SWAP7 PUSH2 0xF56 PUSH1 0x3C SWAP5 PUSH2 0x430 SWAP8 PUSH1 0x40 MLOAD SWAP1 PUSH1 0x20 DUP3 ADD SWAP3 DUP4 MSTORE PUSH1 0x40 DUP3 ADD MSTORE PUSH17 0x636F6F70657261746976655F636C6F7365 PUSH1 0x78 SHL PUSH1 0x60 DUP3 ADD MSTORE PUSH1 0x51 DUP2 MSTORE PUSH2 0xF1B DUP2 PUSH2 0x11CC JUMP JUMPDEST MLOAD SWAP1 KECCAK256 SWAP3 PUSH2 0x430 PUSH32 0x19457468657265756D205369676E6564204D6573736167653A0A333200000000 SWAP4 DUP5 DUP8 MSTORE DUP6 PUSH1 0x1C MSTORE DUP8 DUP8 KECCAK256 SWAP3 CALLDATASIZE SWAP2 PUSH2 0x1283 JUMP JUMPDEST SWAP1 SWAP11 SWAP2 SWAP11 PUSH2 0x1386 JUMP JUMPDEST DUP3 MSTORE PUSH1 0x1C MSTORE KECCAK256 SWAP3 CALLDATASIZE SWAP2 PUSH2 0x1283 JUMP JUMPDEST SWAP1 SWAP6 SWAP2 SWAP6 PUSH2 0x1386 JUMP JUMPDEST AND SUB PUSH2 0xAC1 JUMPI PUSH1 0x2 DUP6 ADD SLOAD DUP10 AND SWAP6 SWAP5 SWAP4 SWAP3 SWAP2 SWAP1 DUP10 AND DUP7 SWAP1 SUB PUSH2 0x1011 JUMPI SWAP4 DUP4 PUSH2 0xFDB SWAP4 PUSH1 0x2 DUP11 SWAP9 SWAP7 SWAP5 DUP10 PUSH32 0xAEE37D46AE7638649199A415CD6D49CC67DF520CF2C80210DAAC017E0DF3AB98 SWAP14 SWAP12 SWAP10 PUSH1 0x40 SWAP14 SWAP8 ADD SSTORE PUSH1 0xFF NOT AND OR SWAP1 SSTORE PUSH1 0x9 TIMESTAMP SWAP2 ADD SSTORE PUSH2 0x13F5 JUMP JUMPDEST SWAP4 DUP5 SWAP2 DUP5 DUP1 PUSH2 0x1001 JUMPI JUMPDEST POP POP DUP2 PUSH2 0x5F8 JUMPI POP POP POP DUP3 MLOAD SWAP2 DUP3 MSTORE PUSH1 0x20 DUP3 ADD MSTORE LOG2 PUSH1 0x1 DUP2 SSTORE DUP1 RETURN JUMPDEST PUSH2 0x100A SWAP2 PUSH2 0x1418 JUMP JUMPDEST CODESIZE DUP5 PUSH2 0xFE5 JUMP JUMPDEST PUSH1 0x40 MLOAD PUSH4 0x8BAA579F PUSH1 0xE0 SHL DUP2 MSTORE REVERT JUMPDEST PUSH1 0x1 SWAP2 POP EQ ISZERO CODESIZE PUSH2 0xEB4 JUMP JUMPDEST PUSH4 0x4E487B71 PUSH1 0xE0 SHL DUP16 MSTORE PUSH1 0x21 DUP7 MSTORE PUSH1 0x24 DUP16 REVERT JUMPDEST DUP7 DUP1 REVERT JUMPDEST DUP6 DUP1 REVERT JUMPDEST POP POP CALLVALUE PUSH2 0x209 JUMPI PUSH1 0x20 CALLDATASIZE PUSH1 0x3 NOT ADD SLT PUSH2 0x209 JUMPI PUSH2 0x107B PUSH1 0x40 DUP1 SWAP4 DUP4 CALLDATALOAD DUP2 MSTORE PUSH1 0x2 PUSH1 0x20 MSTORE KECCAK256 SWAP2 PUSH1 0x3 DUP4 ADD SLOAD SWAP3 ADD SLOAD DUP1 SWAP3 PUSH2 0x13F5 JUMP JUMPDEST SWAP1 DUP3 MLOAD SWAP2 DUP3 MSTORE PUSH1 0x20 DUP3 ADD MSTORE RETURN JUMPDEST SWAP2 DUP2 PUSH1 0x1F DUP5 ADD SLT ISZERO PUSH2 0x10B6 JUMPI DUP3 CALLDATALOAD SWAP2 PUSH8 0xFFFFFFFFFFFFFFFF DUP4 GT PUSH2 0x10B6 JUMPI PUSH1 0x20 DUP4 DUP2 DUP7 ADD SWAP6 ADD ADD GT PUSH2 0x10B6 JUMPI JUMP JUMPDEST PUSH1 0x0 DUP1 REVERT JUMPDEST PUSH1 0x4 CALLDATALOAD SWAP1 PUSH1 0x1 PUSH1 0x1 PUSH1 0xA0 SHL SUB DUP3 AND DUP3 SUB PUSH2 0x10B6 JUMPI JUMP JUMPDEST PUSH1 0x20 SWAP1 DUP2 PUSH1 0x40 DUP2 DUP4 ADD SWAP3 DUP3 DUP2 MSTORE DUP6 MLOAD DUP1 SWAP5 MSTORE ADD SWAP4 ADD SWAP2 PUSH1 0x0 JUMPDEST DUP3 DUP2 LT PUSH2 0x10F8 JUMPI POP POP POP POP SWAP1 JUMP JUMPDEST DUP4 MLOAD DUP6 MSTORE SWAP4 DUP2 ADD SWAP4 SWAP3 DUP2 ADD SWAP3 PUSH1 0x1 ADD PUSH2 0x10EA JUMP JUMPDEST SWAP1 PUSH1 0x80 PUSH1 0x3 NOT DUP4 ADD SLT PUSH2 0x10B6 JUMPI PUSH1 0x4 CALLDATALOAD SWAP2 PUSH1 0x24 CALLDATALOAD SWAP2 PUSH1 0x44 CALLDATALOAD SWAP2 PUSH1 0x64 CALLDATALOAD SWAP1 PUSH8 0xFFFFFFFFFFFFFFFF DUP3 GT PUSH2 0x10B6 JUMPI PUSH2 0x1144 SWAP2 PUSH1 0x4 ADD PUSH2 0x1088 JUMP JUMPDEST SWAP1 SWAP2 JUMP JUMPDEST DUP1 SLOAD DUP3 LT ISZERO PUSH2 0x1160 JUMPI PUSH1 0x0 MSTORE PUSH1 0x20 PUSH1 0x0 KECCAK256 ADD SWAP1 PUSH1 0x0 SWAP1 JUMP JUMPDEST PUSH4 0x4E487B71 PUSH1 0xE0 SHL PUSH1 0x0 MSTORE PUSH1 0x32 PUSH1 0x4 MSTORE PUSH1 0x24 PUSH1 0x0 REVERT JUMPDEST SWAP1 PUSH1 0x3 DUP3 LT ISZERO PUSH2 0x1183 JUMPI MSTORE JUMP JUMPDEST PUSH4 0x4E487B71 PUSH1 0xE0 SHL PUSH1 0x0 MSTORE PUSH1 0x21 PUSH1 0x4 MSTORE PUSH1 0x24 PUSH1 0x0 REVERT JUMPDEST PUSH2 0x140 DUP2 ADD SWAP1 DUP2 LT PUSH8 0xFFFFFFFFFFFFFFFF DUP3 GT OR PUSH2 0x11B6 JUMPI PUSH1 0x40 MSTORE JUMP JUMPDEST PUSH4 0x4E487B71 PUSH1 0xE0 SHL PUSH1 0x0 MSTORE PUSH1 0x41 PUSH1 0x4 MSTORE PUSH1 0x24 PUSH1 0x0 REVERT JUMPDEST PUSH1 0x80 DUP2 ADD SWAP1 DUP2 LT PUSH8 0xFFFFFFFFFFFFFFFF DUP3 GT OR PUSH2 0x11B6 JUMPI PUSH1 0x40 MSTORE JUMP JUMPDEST SWAP1 PUSH1 0x1F DUP1 NOT SWAP2 ADD AND DUP2 ADD SWAP1 DUP2 LT PUSH8 0xFFFFFFFFFFFFFFFF DUP3 GT OR PUSH2 0x11B6 JUMPI PUSH1 0x40 MSTORE JUMP JUMPDEST DUP1 SLOAD PUSH9 0x10000000000000000 DUP2 LT ISZERO PUSH2 0x11B6 JUMPI PUSH2 0x122C SWAP2 PUSH1 0x1 DUP3 ADD DUP2 SSTORE PUSH2 0x1148 JUMP JUMPDEST DUP2 SWAP3 SWAP2 SLOAD SWAP1 PUSH1 0x3 SHL SWAP2 DUP3 SHL SWAP2 PUSH1 0x0 NOT SWAP1 SHL NOT AND OR SWAP1 SSTORE JUMP JUMPDEST PUSH1 0x2 PUSH1 0x0 SLOAD EQ PUSH2 0x1255 JUMPI PUSH1 0x2 PUSH1 0x0 SSTORE JUMP JUMPDEST PUSH1 0x40 MLOAD PUSH4 0x3EE5AEB5 PUSH1 0xE0 SHL DUP2 MSTORE PUSH1 0x4 SWAP1 REVERT JUMPDEST PUSH8 0xFFFFFFFFFFFFFFFF DUP2 GT PUSH2 0x11B6 JUMPI PUSH1 0x1F ADD PUSH1 0x1F NOT AND PUSH1 0x20 ADD SWAP1 JUMP JUMPDEST SWAP3 SWAP2 SWAP3 PUSH2 0x128F DUP3 PUSH2 0x1267 JUMP JUMPDEST SWAP2 PUSH2 0x129D PUSH1 0x40 MLOAD SWAP4 DUP5 PUSH2 0x11E8 JUMP JUMPDEST DUP3 SWAP5 DUP2 DUP5 MSTORE DUP2 DUP4 ADD GT PUSH2 0x10B6 JUMPI DUP3 DUP2 PUSH1 0x20 SWAP4 DUP5 PUSH1 0x0 SWAP7 ADD CALLDATACOPY ADD ADD MSTORE JUMP JUMPDEST DUP2 MLOAD SWAP2 SWAP1 PUSH1 0x41 DUP4 SUB PUSH2 0x12EB JUMPI PUSH2 0x12E4 SWAP3 POP PUSH1 0x20 DUP3 ADD MLOAD SWAP1 PUSH1 0x60 PUSH1 0x40 DUP5 ADD MLOAD SWAP4 ADD MLOAD PUSH1 0x0 BYTE SWAP1 PUSH2 0x12F6 JUMP JUMPDEST SWAP2 SWAP3 SWAP1 SWAP2 SWAP1 JUMP JUMPDEST POP POP PUSH1 0x0 SWAP2 PUSH1 0x2 SWAP2 SWAP1 JUMP JUMPDEST SWAP2 SWAP1 PUSH32 0x7FFFFFFFFFFFFFFFFFFFFFFFFFFFFFFF5D576E7357A4501DDFE92F46681B20A0 DUP5 GT PUSH2 0x137A JUMPI SWAP3 PUSH1 0x20 SWAP3 SWAP2 PUSH1 0xFF PUSH1 0x80 SWAP6 PUSH1 0x40 MLOAD SWAP5 DUP6 MSTORE AND DUP5 DUP5 ADD MSTORE PUSH1 0x40 DUP4 ADD MSTORE PUSH1 0x60 DUP3 ADD MSTORE PUSH1 0x0 SWAP3 DUP4 SWAP2 DUP3 DUP1 MSTORE PUSH1 0x1 GAS STATICCALL ISZERO PUSH2 0x136E JUMPI DUP1 MLOAD PUSH1 0x1 PUSH1 0x1 PUSH1 0xA0 SHL SUB DUP2 AND ISZERO PUSH2 0x1365 JUMPI SWAP2 DUP2 SWAP1 JUMP JUMPDEST POP DUP1 SWAP2 PUSH1 0x1 SWAP2 SWAP1 JUMP JUMPDEST PUSH1 0x40 MLOAD SWAP1 RETURNDATASIZE SWAP1 DUP3 RETURNDATACOPY RETURNDATASIZE SWAP1 REVERT JUMPDEST POP POP POP PUSH1 0x0 SWAP2 PUSH1 0x3 SWAP2 SWAP1 JUMP JUMPDEST PUSH1 0x4 DUP2 LT ISZERO PUSH2 0x1183 JUMPI DUP1 PUSH2 0x1398 JUMPI POP POP JUMP JUMPDEST PUSH1 0x1 DUP2 SUB PUSH2 0x13B2 JUMPI PUSH1 0x40 MLOAD PUSH4 0xF645EEDF PUSH1 0xE0 SHL DUP2 MSTORE PUSH1 0x4 SWAP1 REVERT JUMPDEST PUSH1 0x2 DUP2 SUB PUSH2 0x13D3 JUMPI PUSH1 0x40 MLOAD PUSH4 0xFCE698F7 PUSH1 0xE0 SHL DUP2 MSTORE PUSH1 0x4 DUP2 ADD DUP4 SWAP1 MSTORE PUSH1 0x24 SWAP1 REVERT JUMPDEST PUSH1 0x3 EQ PUSH2 0x13DD JUMPI POP JUMP JUMPDEST PUSH1 0x24 SWAP1 PUSH1 0x40 MLOAD SWAP1 PUSH4 0x35E2F383 PUSH1 0xE2 SHL DUP3 MSTORE PUSH1 0x4 DUP3 ADD MSTORE REVERT JUMPDEST SWAP2 SWAP1 DUP3 SUB SWAP2 DUP3 GT PUSH2 0x1402 JUMPI JUMP JUMPDEST PUSH4 0x4E487B71 PUSH1 0xE0 SHL PUSH1 0x0 MSTORE PUSH1 0x11 PUSH1 0x4 MSTORE PUSH1 0x24 PUSH1 0x0 REVERT JUMPDEST PUSH1 0x0 SWAP2 DUP3 SWAP2 DUP3 SWAP2 DUP3 SWAP2 PUSH1 0x1 PUSH1 0x1 PUSH1 0xA0 SHL SUB AND GAS CALL RETURNDATASIZE ISZERO PUSH2 0x146E JUMPI RETURNDATASIZE PUSH2 0x143C DUP2 PUSH2 0x1267 JUMP JUMPDEST SWAP1 PUSH2 0x144A PUSH1 0x40 MLOAD SWAP3 DUP4 PUSH2 0x11E8 JUMP JUMPDEST DUP2 MSTORE PUSH1 0x0 PUSH1 0x20 RETURNDATASIZE SWAP3 ADD RETURNDATACOPY JUMPDEST ISZERO PUSH2 0x145C JUMPI JUMP JUMPDEST PUSH1 0x40 MLOAD PUSH4 0x12171D83 PUSH1 0xE3 SHL DUP2 MSTORE PUSH1 0x4 SWAP1 REVERT JUMPDEST PUSH2 0x1455 JUMP JUMPDEST SWAP2 PUSH1 0x40 MLOAD SWAP2 PUSH1 0x20 DUP4 ADD SWAP4 DUP5 MSTORE PUSH1 0x40 DUP4 ADD MSTORE PUSH1 0x60 DUP3 ADD MSTORE PUSH1 0x60 DUP2 MSTORE PUSH2 0x1496 DUP2 PUSH2 0x11CC JUMP JUMPDEST MLOAD SWAP1 KECCAK256 SWAP1 JUMP JUMPDEST SWAP3 SWAP1 SWAP4 SWAP2 PUSH1 0x0 SWAP1 DUP5 DUP3 MSTORE PUSH1 0x2 PUSH1 0x20 MSTORE PUSH1 0x40 DUP3 KECCAK256 SWAP6 PUSH1 0x1 DUP1 PUSH1 0xA0 SHL SUB SWAP6 DUP7 PUSH1 0x1 DUP10 ADD SLOAD AND SWAP8 DUP9 ISZERO PUSH2 0x14F9 JUMPI PUSH1 0x3 ADD SLOAD DUP3 GT PUSH2 0x14EE JUMPI PUSH2 0x14E9 SWAP6 SWAP4 PUSH2 0x401 PUSH2 0x430 SWAP5 PUSH2 0x436 SWAP8 SWAP5 PUSH1 0x3C SWAP5 PUSH2 0x1473 JUMP JUMPDEST AND EQ SWAP1 JUMP JUMPDEST POP POP POP SWAP4 POP POP POP POP SWAP1 JUMP JUMPDEST POP POP POP POP SWAP4 POP POP POP POP SWAP1 JUMP INVALID LOG2 PUSH5 0x6970667358 0x22 SLT KECCAK256 DUP10 DUP1 CALL CALLDATASIZE LOG4 SWAP5 JUMPI CALLDATACOPY TIMESTAMP SWAP1 SWAP4 0x25 0x28 0xEF CREATE2 0x1F PUSH16 0xD8E32F154D7F03231D9E791BF3451764 PUSH20 0x6F6C634300081400330000000000000000000000 "},"methodIdentifiers":{"DISPUTE_PERIOD()":"a5bbe22b","MIN_DEPOSIT()":"e1e158a5","channelCount()":"acf8bf2a","channels(bytes32)":"7a7ebd7b","closeChannel(bytes32,uint256,uint256,bytes)":"cf027915","cooperativeClose(bytes32,uint256,bytes,bytes)":"093f6436","disputeChannel(bytes32,uint256,uint256,bytes)":"2bf87466","emergencyClose(bytes32)":"ef3983ec","finalizeClose(bytes32)":"b589db7b","getChannel(bytes32)":"831c2b82","getChannelBalance(bytes32)":"093c4ee6","getPaymentHash(bytes32,uint256,uint256)":"af035ab4","getRecipientChannels(address)":"26dddd83","getSenderChannels(address)":"7098f856","openChannel(address,uint256)":"24f453d1","recipientChannels(address,uint256)":"62e223bb","senderChannels(address,uint256)":"d9945742","topUpChannel(bytes32)":"e7e531c9","verifyPayment(bytes32,uint256,uint256,bytes)":"77d18161"}}}}}