{"contracts/Escrow.sol":{"ArcPayEscrow":{"abi":[{"inputs":[{"internalType":"address","name":"_feeCollector","type":"address"},{"internalType":"uint256","name":"_disputeFee","type":"uint256"}],"stateMutability":"nonpayable","type":"constructor"},{"inputs":[],"name":"AlreadyFunded","type":"error"},{"inputs":[],"name":"DisputeExists","type":"error"},{"inputs":[],"name":"EscrowExpired","type":"error"},{"inputs":[],"name":"EscrowNotExpired","type":"error"},{"inputs":[],"name":"EscrowNotFound","type":"error"},{"inputs":[],"name":"InvalidAddress","type":"error"},{"inputs":[],"name":"InvalidAmount","type":"error"},{"inputs":[],"name":"InvalidMilestone","type":"error"},{"inputs":[],"name":"InvalidShares","type":"error"},{"inputs":[],"name":"InvalidState","type":"error"},{"inputs":[],"name":"NoDispute","type":"error"},{"inputs":[],"name":"NotAuthorized","type":"error"},{"inputs":[],"name":"NotFunded","type":"error"},{"inputs":[{"internalType":"address","name":"owner","type":"address"}],"name":"OwnableInvalidOwner","type":"error"},{"inputs":[{"internalType":"address","name":"account","type":"address"}],"name":"OwnableUnauthorizedAccount","type":"error"},{"inputs":[],"name":"ReentrancyGuardReentrantCall","type":"error"},{"inputs":[],"name":"TransferFailed","type":"error"},{"anonymous":false,"inputs":[{"indexed":true,"internalType":"bytes32","name":"escrowId","type":"bytes32"},{"indexed":true,"internalType":"address","name":"initiator","type":"address"},{"indexed":false,"internalType":"string","name":"reason","type":"string"}],"name":"DisputeCreated","type":"event"},{"anonymous":false,"inputs":[{"indexed":true,"internalType":"bytes32","name":"escrowId","type":"bytes32"},{"indexed":true,"internalType":"address","name":"winner","type":"address"},{"indexed":false,"internalType":"uint256","name":"depositorShare","type":"uint256"},{"indexed":false,"internalType":"uint256","name":"beneficiaryShare","type":"uint256"}],"name":"DisputeResolved","type":"event"},{"anonymous":false,"inputs":[{"indexed":true,"internalType":"bytes32","name":"id","type":"bytes32"},{"indexed":true,"internalType":"address","name":"depositor","type":"address"},{"indexed":true,"internalType":"address","name":"beneficiary","type":"address"},{"indexed":false,"internalType":"address","name":"arbiter","type":"address"},{"indexed":false,"internalType":"uint256","name":"amount","type":"uint256"},{"indexed":false,"internalType":"uint256","name":"expiresAt","type":"uint256"}],"name":"EscrowCreated","type":"event"},{"anonymous":false,"inputs":[{"indexed":true,"internalType":"bytes32","name":"id","type":"bytes32"},{"indexed":false,"internalType":"uint256","name":"amount","type":"uint256"},{"indexed":false,"internalType":"uint256","name":"fundedAt","type":"uint256"}],"name":"EscrowFunded","type":"event"},{"anonymous":false,"inputs":[{"indexed":true,"internalType":"bytes32","name":"id","type":"bytes32"},{"indexed":true,"internalType":"address","name":"depositor","type":"address"},{"indexed":false,"internalType":"uint256","name":"amount","type":"uint256"}],"name":"EscrowRefunded","type":"event"},{"anonymous":false,"inputs":[{"indexed":true,"internalType":"bytes32","name":"id","type":"bytes32"},{"indexed":true,"internalType":"address","name":"beneficiary","type":"address"},{"indexed":false,"internalType":"uint256","name":"amount","type":"uint256"}],"name":"EscrowReleased","type":"event"},{"anonymous":false,"inputs":[{"indexed":true,"internalType":"bytes32","name":"escrowId","type":"bytes32"},{"indexed":false,"internalType":"uint256","name":"index","type":"uint256"},{"indexed":false,"internalType":"uint256","name":"amount","type":"uint256"}],"name":"MilestoneAdded","type":"event"},{"anonymous":false,"inputs":[{"indexed":true,"internalType":"bytes32","name":"escrowId","type":"bytes32"},{"indexed":false,"internalType":"uint256","name":"index","type":"uint256"},{"indexed":false,"internalType":"uint256","name":"amount","type":"uint256"}],"name":"MilestoneCompleted","type":"event"},{"anonymous":false,"inputs":[{"indexed":true,"internalType":"address","name":"previousOwner","type":"address"},{"indexed":true,"internalType":"address","name":"newOwner","type":"address"}],"name":"OwnershipTransferred","type":"event"},{"inputs":[{"internalType":"bytes32","name":"escrowId","type":"bytes32"},{"internalType":"uint256[]","name":"amounts","type":"uint256[]"},{"internalType":"string[]","name":"descriptions","type":"string[]"}],"name":"addMilestones","outputs":[],"stateMutability":"nonpayable","type":"function"},{"inputs":[{"internalType":"bytes32","name":"escrowId","type":"bytes32"},{"internalType":"uint256","name":"milestoneIndex","type":"uint256"}],"name":"completeMilestone","outputs":[],"stateMutability":"nonpayable","type":"function"},{"inputs":[{"internalType":"address","name":"beneficiary","type":"address"},{"internalType":"address","name":"arbiter","type":"address"},{"internalType":"uint256","name":"amount","type":"uint256"},{"internalType":"uint256","name":"expiresAt","type":"uint256"},{"internalType":"string","name":"conditionHash","type":"string"}],"name":"createAndFundEscrow","outputs":[{"internalType":"bytes32","name":"","type":"bytes32"}],"stateMutability":"payable","type":"function"},{"inputs":[{"internalType":"bytes32","name":"escrowId","type":"bytes32"},{"internalType":"string","name":"reason","type":"string"}],"name":"createDispute","outputs":[],"stateMutability":"nonpayable","type":"function"},{"inputs":[{"internalType":"address","name":"beneficiary","type":"address"},{"internalType":"address","name":"arbiter","type":"address"},{"internalType":"uint256","name":"amount","type":"uint256"},{"internalType":"uint256","name":"expiresAt","type":"uint256"},{"internalType":"string","name":"conditionHash","type":"string"}],"name":"createEscrow","outputs":[{"internalType":"bytes32","name":"","type":"bytes32"}],"stateMutability":"nonpayable","type":"function"},{"inputs":[],"name":"disputeFee","outputs":[{"internalType":"uint256","name":"","type":"uint256"}],"stateMutability":"view","type":"function"},{"inputs":[{"internalType":"bytes32","name":"","type":"bytes32"}],"name":"disputes","outputs":[{"internalType":"bytes32","name":"escrowId","type":"bytes32"},{"internalType":"address","name":"initiator","type":"address"},{"internalType":"string","name":"reason","type":"string"},{"internalType":"uint256","name":"createdAt","type":"uint256"},{"internalType":"bool","name":"resolved","type":"bool"},{"internalType":"address","name":"winner","type":"address"},{"internalType":"uint256","name":"depositorShare","type":"uint256"},{"internalType":"uint256","name":"beneficiaryShare","type":"uint256"}],"stateMutability":"view","type":"function"},{"inputs":[],"name":"escrowCount","outputs":[{"internalType":"uint256","name":"","type":"uint256"}],"stateMutability":"view","type":"function"},{"inputs":[{"internalType":"bytes32","name":"","type":"bytes32"}],"name":"escrows","outputs":[{"internalType":"bytes32","name":"id","type":"bytes32"},{"internalType":"address","name":"depositor","type":"address"},{"internalType":"address","name":"beneficiary","type":"address"},{"internalType":"address","name":"arbiter","type":"address"},{"internalType":"uint256","name":"amount","type":"uint256"},{"internalType":"uint256","name":"fundedAt","type":"uint256"},{"internalType":"uint256","name":"expiresAt","type":"uint256"},{"internalType":"enum ArcPayEscrow.EscrowState","name":"state","type":"uint8"},{"internalType":"string","name":"conditionHash","type":"string"},{"internalType":"uint256","name":"releasedAmount","type":"uint256"},{"internalType":"uint256","name":"refundedAmount","type":"uint256"}],"stateMutability":"view","type":"function"},{"inputs":[],"name":"feeCollector","outputs":[{"internalType":"address","name":"","type":"address"}],"stateMutability":"view","type":"function"},{"inputs":[{"internalType":"bytes32","name":"escrowId","type":"bytes32"}],"name":"fundEscrow","outputs":[],"stateMutability":"payable","type":"function"},{"inputs":[{"internalType":"bytes32","name":"escrowId","type":"bytes32"}],"name":"getDispute","outputs":[{"components":[{"internalType":"bytes32","name":"escrowId","type":"bytes32"},{"internalType":"address","name":"initiator","type":"address"},{"internalType":"string","name":"reason","type":"string"},{"internalType":"uint256","name":"createdAt","type":"uint256"},{"internalType":"bool","name":"resolved","type":"bool"},{"internalType":"address","name":"winner","type":"address"},{"internalType":"uint256","name":"depositorShare","type":"uint256"},{"internalType":"uint256","name":"beneficiaryShare","type":"uint256"}],"internalType":"struct ArcPayEscrow.Dispute","name":"","type":"tuple"}],"stateMutability":"view","type":"function"},{"inputs":[{"internalType":"bytes32","name":"escrowId","type":"bytes32"}],"name":"getEscrow","outputs":[{"components":[{"internalType":"bytes32","name":"id","type":"bytes32"},{"internalType":"address","name":"depositor","type":"address"},{"internalType":"address","name":"beneficiary","type":"address"},{"internalType":"address","name":"arbiter","type":"address"},{"internalType":"uint256","name":"amount","type":"uint256"},{"internalType":"uint256","name":"fundedAt","type":"uint256"},{"internalType":"uint256","name":"expiresAt","type":"uint256"},{"internalType":"enum ArcPayEscrow.EscrowState","name":"state","type":"uint8"},{"internalType":"string","name":"conditionHash","type":"string"},{"internalType":"uint256","name":"releasedAmount","type":"uint256"},{"internalType":"uint256","name":"refundedAmount","type":"uint256"}],"internalType":"struct ArcPayEscrow.Escrow","name":"","type":"tuple"}],"stateMutability":"view","type":"function"},{"inputs":[{"internalType":"bytes32","name":"escrowId","type":"bytes32"}],"name":"getMilestones","outputs":[{"components":[{"internalType":"uint256","name":"amount","type":"uint256"},{"internalType":"string","name":"description","type":"string"},{"internalType":"bool","name":"completed","type":"bool"},{"internalType":"uint256","name":"completedAt","type":"uint256"}],"internalType":"struct ArcPayEscrow.Milestone[]","name":"","type":"tuple[]"}],"stateMutability":"view","type":"function"},{"inputs":[{"internalType":"address","name":"user","type":"address"}],"name":"getUserEscrows","outputs":[{"internalType":"bytes32[]","name":"","type":"bytes32[]"}],"stateMutability":"view","type":"function"},{"inputs":[{"internalType":"bytes32","name":"","type":"bytes32"},{"internalType":"uint256","name":"","type":"uint256"}],"name":"milestones","outputs":[{"internalType":"uint256","name":"amount","type":"uint256"},{"internalType":"string","name":"description","type":"string"},{"internalType":"bool","name":"completed","type":"bool"},{"internalType":"uint256","name":"completedAt","type":"uint256"}],"stateMutability":"view","type":"function"},{"inputs":[],"name":"owner","outputs":[{"internalType":"address","name":"","type":"address"}],"stateMutability":"view","type":"function"},{"inputs":[{"internalType":"bytes32","name":"escrowId","type":"bytes32"}],"name":"refundEscrow","outputs":[],"stateMutability":"nonpayable","type":"function"},{"inputs":[{"internalType":"bytes32","name":"escrowId","type":"bytes32"}],"name":"releaseEscrow","outputs":[],"stateMutability":"nonpayable","type":"function"},{"inputs":[],"name":"renounceOwnership","outputs":[],"stateMutability":"nonpayable","type":"function"},{"inputs":[{"internalType":"bytes32","name":"escrowId","type":"bytes32"},{"internalType":"uint256","name":"depositorShare","type":"uint256"},{"internalType":"uint256","name":"beneficiaryShare","type":"uint256"}],"name":"resolveDispute","outputs":[],"stateMutability":"nonpayable","type":"function"},{"inputs":[{"internalType":"uint256","name":"_disputeFee","type":"uint256"}],"name":"setDisputeFee","outputs":[],"stateMutability":"nonpayable","type":"function"},{"inputs":[{"internalType":"address","name":"_feeCollector","type":"address"}],"name":"setFeeCollector","outputs":[],"stateMutability":"nonpayable","type":"function"},{"inputs":[{"internalType":"address","name":"newOwner","type":"address"}],"name":"transferOwnership","outputs":[],"stateMutability":"nonpayable","type":"function"},{"inputs":[{"internalType":"address","name":"","type":"address"},{"internalType":"uint256","name":"","type":"uint256"}],"name":"userEscrows","outputs":[{"internalType":"bytes32","name":"","type":"bytes32"}],"stateMutability":"view","type":"function"},{"stateMutability":"payable","type":"receive"}],"evm":{"bytecode":{"linkReferences":{},"object":"6080346100f157601f620024cc38819003918201601f19168301916001600160401b038311848410176100f65780849260409485528339810103126100f15780516001600160a01b0391828216918290036100f1576020015191600160005533156100d85760018054336001600160a01b0319808316821790935560405192939091167f8be0079c531659141344cd1fd0a4f28419497f9722a3daafe3b4186f6b6457e0600080a382156100c9575060045416176004556003556040516123bf90816200010d8239f35b63e6c4247b60e01b8152600490fd5b604051631e4fbdf760e01b815260006004820152602490fd5b600080fd5b634e487b7160e01b600052604160045260246000fdfe6080604052600436101561001b575b361561001957600080fd5b005b60003560e01c806311be199714611e7c578063136ba6aa14611d4b57806317299c0414611d2a5780632d83549c14611c5f578063447336f91461185757806347aed508146117835780635ccea85e146116cf578063669c8cba14611656578063675ac67a14611638578063715018a6146115db5780637cbc6b751461129e5780637f944dd0146112465780638da5cb5b1461121d5780639067fcdf14610e83578063a42dce8014610e3b578063b3da4ce214610cb1578063b75f186114610acf578063b9ce896b14610ab1578063bf89fc61146109d4578063c415b95c146109ab578063d27dc2db146105f3578063ea4a873c146104a1578063f023b811146102e9578063f2fde38b146102605763f8e65d610361000e57602036600319011261025b5760043561014a6122ae565b600081815260056020526040902060018101546001600160a01b0316801561024957600782019182549160ff831660068110156102335761022157330361020f5760068101544210156101fd576004810154908134036101eb577fd938b422b43f203b43d875e6185c3199a188df613005609fdb53bf610d39d73593600160409460ff19161790556005429101558151908152426020820152a26001600055005b60405163162908e360e11b8152600490fd5b604051633c4fac2d60e01b8152600490fd5b60405163ea8e4eb560e01b8152600490fd5b60405163baf3f0f760e01b8152600490fd5b634e487b7160e01b600052602160045260246000fd5b60405163f1d80ab160e01b8152600490fd5b600080fd5b3461025b57602036600319011261025b576102796120be565b6102816121d4565b6001600160a01b039081169081156102d057600154826001600160601b0360a01b821617600155167f8be0079c531659141344cd1fd0a4f28419497f9722a3daafe3b4186f6b6457e0600080a3005b604051631e4fbdf760e01b815260006004820152602490fd5b3461025b57602036600319011261025b57600061014060405161030b81611f73565b8281528260208201528260408201528260608201528260808201528260a08201528260c08201528260e08201526060610100820152826101208201520152600435600052600560205260406000206040519061036682611f73565b8054825260018101546001600160a01b039081166020840152600282015481166040840152600382015416606083015260048101546080830152600581015460a083015260068082015460c0840152600782015460ff16919082101561023357600a9160e08401526103da60088201611fcb565b610100840152600981015461012084015201546101408201526040518091602082528051602083015260018060a01b03602082015116604083015260018060a01b03604082015116606083015260018060a01b036060820151166080830152608081015160a083015260a081015160c083015260c081015160e083015261046a60e08201516101008401906120b1565b61010081015161014061048c6101609283610120870152610180860190612071565b92610120810151828601520151908301520390f35b3461025b5760208060031936011261025b576004356000526006815260406000208054906001600160401b0382116105dd578290604051926104e8838260051b0185611faa565b8084528284018092600052836000206000915b83831061058b5750505050604051918083019381845251809452604083019360408160051b85010192916000955b8287106105365785850386f35b909192938280600192603f19898203018552875190815181526105658383015160808086850152830190612071565b916040810151151560408301526060809101519101529601920196019592919092610529565b6004866001926040999899516105a081611f8f565b855481526105af858701611fcb565b8382015260ff60028701541615156040820152600386015460608201528152019201920191909594956104fb565b634e487b7160e01b600052604160045260246000fd5b3461025b5761060136612101565b9194909391906001600160a01b038116156109995783156101eb57428611156101fd576106e160025461063381612200565b60025560405133606090811b6bffffffffffffffffffffffff19908116602084019081529186901b16603483015260488201889052426068830152608882019290925261068d8160a881015b03601f198101835282611faa565b519020956040519361069e85611f73565b8785523360208601526001600160a01b0384811660408701528616606086015260808501879052600060a0860181905260c086018a905260e0860152369161222a565b610100830152600061012083015260006101408301528460005260056020526040600020825181556001810160018060a01b03602085015116906001600160601b0360a01b91828254161790556002820160018060a01b0360408601511682825416179055600382019060018060a01b03606086015116908254161790556080830151600482015560a0830151600582015560c0830151600682015560e08301516006811015610233576107989060078301612261565b6101008301518051906001600160401b0382116105dd576107bc6008840154611f1d565b601f8111610952575b5091879391602099938a90601f83116001146108c8579682600a936101409360008051602061236a833981519152999a6000926108bd575b50508160011b916000199060031b1c19161760088501555b61012081015160098501550151910155336000526008885261083b846040600020612279565b60018060a01b03811660005260088852610859846040600020612279565b6001600160a01b03851661089a575b604080516001600160a01b039687168152602081019790975286019190915290921692339290606090a4604051908152f35b60018060a01b038516600052600888526108b8846040600020612279565b610868565b015190508e806107fd565b60088498939298016000528b6000209060005b601f1984168110610938575082600a949260008051602061236a833981519152999a60019361014096601f1981161061091f575b505050811b016008850155610815565b015160001960f88460031b161c191690558e808061090f565b818a01518355988d01988c98506001909201918d016108db565b600884016000526020600020601f840160051c810160208510610992575b601f830160051c820181106109865750506107c5565b60008155600101610970565b5080610970565b60405163e6c4247b60e01b8152600490fd5b3461025b57600036600319011261025b576004546040516001600160a01b039091168152602090f35b3461025b57602036600319011261025b576004356109f06122ae565b600081815260056020526040902060018101546001600160a01b039291908316801561024957330361020f57600781019081549360ff851660068110156102335760010361022157836000526006602052604060002054610221576002827f3a9c1cd29cd3be251a72ce3c367c27dc1cb697ac4589965b76a83f9a25ca0710948260046020960154986009840199610a898b54826122ee565b9a5560ff191617905501610aa0868383541661230e565b541693604051908152a36001600055005b3461025b57600036600319011261025b576020600354604051908152f35b3461025b57606036600319011261025b57602435600435604435610af16122ae565b600082815260056020526040902060018101805490926001600160a01b03918216156102495781600384015416330361020f57600783019260ff845416600681101561023357600403610221576127109485610b4d848a6122e1565b03610c9f57866000526007602052604060002091600483019687549660ff88166102215760056040988760068a988f7f2e8e39bd838df355f6f1d78e5ab374e0b3d48804dbf1a48ac332223490c549719e600160ff19809716179055858201550155825416179055600482015490610bcb60098401928354906122ee565b9080610bd78d846122fb565b0490610bf0610be683856122ee565b93600354906122fb565b0480610c71575b5080610c59575b5080610c35575b505083891115610c2857505416905b835196875260208701521693a36001600055005b6002915001541690610c14565b80610c49610c50928760028701541661230e565b82546122e1565b90558980610c05565b610c66818787541661230e565b600a8401558b610bfe565b9190610c8e610c9991610c888560011c80926122ee565b936122ee565b92876004541661230e565b8c610bf7565b604051636edcc52360e01b8152600490fd5b3461025b57610cbf3661215a565b90610cc86122ae565b600081815260056020526040902060018101549092906001600160a01b0316801561024957330361020f57600783019260ff918285541660068110156102335760010361022157836000526006602052604060002054811015610e2957836000526006602052610d3c816040600020612170565b5091600283015491848316610e29578593610daf60409360017f210592fff19ef4ca4dead511c65d214f197bae467adc48ade023759a333921e49660ff19161760028401554260038401558254610d98600983019182546122e1565b9055600201548254906001600160a01b031661230e565b5482519182526020820152a2600160005b83600052600660205260406000208054821015610e1f576002610de4838693612170565b5001541615610dfb57610df690612200565b610dc0565b5050505060005b610e0e575b6001600055005b805460ff1916600217905580610e07565b5050915050610e02565b6040516302e845cd60e61b8152600490fd5b3461025b57602036600319011261025b57610e546120be565b610e5c6121d4565b6001600160a01b03168015610999576001600160601b0360a01b6004541617600455600080f35b3461025b57606036600319011261025b576024356001600160401b03811161025b57610eb39036906004016121a4565b6044356001600160401b03811161025b57610ed29036906004016121a4565b600493919335600052600560205260406000209260018060a01b03600185015416801561024957330361020f5760ff6007850154166006811015610233578015159081611211575b50610221578181036101eb579391906000946000935b818510610f4457866004870154036101eb57005b9091929395610f5f90610f588885886122d1565b35906122e1565b9560043560005260066020526040600020610f7b8285886122d1565b35858310156111fb578260051b840135601e198536030181121561025b5784016001600160401b0381351161025b5780353603602082011361025b57610fd79060405192610fc884611f8f565b8352369060208135910161222a565b916020820192835260006040830152600060608301528054600160401b8110156105dd5761100a91600182018155612170565b9290926111e55781518355518051906001600160401b0382116105dd576110346001850154611f1d565b601f811161119e575b50602090601f831160011461112a5791806003949260609460009261111f575b505060001982861b1c1916600191821b17908501555b61109260408201511515600286019060ff801983541691151516179055565b01519101556004356000526006602052604060002054908160001981011161110957611100916110c38286896122d1565b356040519160001901825260208201527fe1738cc47d42706bdb1240b9ee8ee7889c00019d5abc5a225159fedd922d5b59604060043592a2612200565b93929190610f30565b634e487b7160e01b600052601160045260246000fd5b015190508d8061105d565b906001850160005260206000209160005b601f19851681106111865750926003949260019260609583601f1981161061116e575b505050811b016001850155611073565b015160001983881b60f8161c191690558d808061115e565b9192602060018192868501518155019401920161113b565b600185016000526020600020601f840160051c8101602085106111de575b601f830160051c820181106111d257505061103d565b600081556001016111bc565b50806111bc565b634e487b7160e01b600052600060045260246000fd5b634e487b7160e01b600052603260045260246000fd5b60019150141586610f1a565b3461025b57600036600319011261025b576001546040516001600160a01b039091168152602090f35b3461025b57604036600319011261025b5761125f6120be565b6001600160a01b031660009081526008602052604090208054602435919082101561025b576020916112909161218c565b90546040519160031b1c8152f35b3461025b57604036600319011261025b576024356001600160401b03811161025b576112ce9036906004016120d4565b600435600090815260056020526040902060018101546001600160a01b0316801561024957600782019182549160ff83166006811015610233576001036102215760038201546001600160a01b03161561020f5733141590816115c3575b5061020f5760043560005260076020526003604060002001546115b15760ff1916600417905560405161135e81611f57565b600435815233602082015261137436838561222a565b604082015242606082015260006080820152600060a0820152600060c0820152600060e08201526004356000526007602052604060002090805182556001820160018060a01b036020830151166001600160601b0360a01b82541617905560408101518051906001600160401b0382116105dd576113f56002850154611f1d565b601f811161156a575b50602090601f83116001146114f55791806006949260e0946000926114ea575b50508160011b916000199060031b1c19161760028501555b606081015160038501556004840161146060808301511515829060ff801983541691151516179055565b60a08201518154610100600160a81b03191660089190911b610100600160a81b031617905560c08101516005850155015191015560408051602080825281018390529282918401376000604082840101527fa2e906264fb68532bc6b929f31717550b3696691ab4637269e02a7ef28ff683b339260408160043594601f80199101168101030190a3005b01519050888061141e565b906002850160005260206000209160005b601f19851681106115525750926006949260019260e09583601f19811610611539575b505050811b016002850155611436565b015160001960f88460031b161c19169055888080611529565b91926020600181928685015181550194019201611506565b600285016000526020600020601f840160051c8101602085106115aa575b601f830160051c8201811061159e5750506113fe565b60008155600101611588565b5080611588565b60405163502c754b60e01b8152600490fd5b600201546001600160a01b031633141590508561132c565b3461025b57600036600319011261025b576115f46121d4565b600180546001600160a01b031981169091556000906001600160a01b03167f8be0079c531659141344cd1fd0a4f28419497f9722a3daafe3b4186f6b6457e08280a3005b3461025b57600036600319011261025b576020600254604051908152f35b3461025b576116643661215a565b906000526006602052604060002090815481101561025b5761168591612170565b50805461169460018301611fcb565b91600360ff6002830154169101546116be6040519485948552608060208601526080850190612071565b911515604084015260608301520390f35b3461025b5760208060031936011261025b576001600160a01b036116f16120be565b1660005260088152604060002060405190818382549182815201908192600052846000209060005b8682821061176f57868661172f82880383611faa565b604051928392818401908285525180915260408401929160005b82811061175857505050500390f35b835185528695509381019392810192600101611749565b835485529093019260019283019201611719565b3461025b57602036600319011261025b5760043561179f6122ae565b8060005260056020526040600020906001820160018060a01b0390818154169182156102495782330361020f576007850191825460ff8116600681101561023357600103610221576006870154421061184557867ffc31a7ddbe933aa6e67f3c98c183fbc87addd2b602fcfb10238d2f85cf026617956020956003610aa0946118336004600a9d01546009870154906122ee565b809c8196015560ff191617905561230e565b604051635b3d0edd60e01b8152600490fd5b61186036612101565b949361186e939291936122ae565b6001600160a01b038516156109995782156101eb578234036101eb57428211156101fd5761194461067f6118ed6002546118a781612200565b60025560405192839142898c336020870193919060889593916001600160601b0319809260601b16865260601b1660148501526028840152604883015260688201520190565b60208151910120946040519761190289611f73565b8689523360208a01526001600160a01b0388811660408b0152841660608a0152608089018690524260a08a015260c08901859052600160e08a0152369161222a565b61010087015260006101208701526000610140870152836000526005602052604060002094865186556001860160018060a01b03602089015116906001600160601b0360a01b91828254161790556002870160018060a01b0360408a01511682825416179055600387019060018060a01b0360608a015116908254161790556080870151600487015560a0870151600587015560c0870151600687015560e08701516006811015610233576119fc9060078801612261565b6101008701519687516001600160401b0381116105dd57611a206008890154611f1d565b98601f8a11611c18575b602099508990601f8311600114611b675760409694899a600a6101407fd938b422b43f203b43d875e6185c3199a188df613005609fdb53bf610d39d7359b9997878e9860008051602061236a83398151915298611b1f98600092611b5c575b50508160011b916000199060031b1c19161760088501555b610120810151600985015501519101553360005260088c52611ac68489600020612279565b60018060a01b03811660005260088c52611ae38489600020612279565b6001600160a01b038516611b3a575b87516001600160a01b03958616815260208101889052604081019690965290931693339381906060820190565b0390a481519081524286820152a26001600055604051908152f35b60018060a01b03851660005260088c52611b578489600020612279565b611af2565b015190503880611a89565b9060088a016000528a6000209160005b601f1985168110611c01575094899a600a6101407fd938b422b43f203b43d875e6185c3199a188df613005609fdb53bf610d39d7359b99976001888f9998611b1f9860409f9d60008051602061236a8339815191529b601f19811610611be8575b505050811b016008850155611aa1565b015160001960f88460031b161c19169055388080611bd8565b91928c600181928685015181550194019201611b77565b600889016000526020600020601f830160051c810160208410611c58575b601f8c0160051c82018110611c4c575050611a2a565b60008155600101611c36565b5080611c36565b3461025b57602036600319011261025b5760043560005260056020526040600020805460018060a01b03918260018201541692611d198160028401541691600384015416611d076004850154600586015460068701549060ff60078901541692611ccb60088a01611fcb565b95600a60098b01549a0154986040519c8d9c8d5260208d015260408c015260608b015260808a015260a089015260c088015260e08701906120b1565b61016080610100870152850190612071565b916101208401526101408301520390f35b3461025b57602036600319011261025b57611d436121d4565b600435600355005b3461025b5760208060031936011261025b57600060e0604051611d6d81611f57565b8281528284820152606060408201528260608201528260808201528260a08201528260c0820152015260043560005260078152604060002060405190611db282611f57565b8054825260018101546001600160a01b03908116848401908152909190611ddb60028301611fcb565b9160408501928352600381015493606086019485526004820154608087019460ff8216151586528260a089019260081c16825282600660058601549560c08b0196875201549560e08a019687526040519a8b9a818c5251908b0152511660408901525194611e57610100968760608b01526101208a0190612071565b9651608089015251151560a0880152511660c08601525160e085015251908301520390f35b3461025b57602036600319011261025b576004356000908152600760205260409020805460018201546001600160a01b0390811692611ebd60028201611fcb565b906003810154926004820154611ef56006600585015494015494604051988998895260208901526101008060408a0152880190612071565b94606087015260ff81161515608087015260081c1660a085015260c084015260e08301520390f35b90600182811c92168015611f4d575b6020831014611f3757565b634e487b7160e01b600052602260045260246000fd5b91607f1691611f2c565b61010081019081106001600160401b038211176105dd57604052565b61016081019081106001600160401b038211176105dd57604052565b608081019081106001600160401b038211176105dd57604052565b90601f801991011681019081106001600160401b038211176105dd57604052565b9060405191826000825492611fdf84611f1d565b90818452600194858116908160001461204e575060011461200b575b505061200992500383611faa565b565b9093915060005260209081600020936000915b81831061203657505061200993508201013880611ffb565b8554888401850152948501948794509183019161201e565b91505061200994506020925060ff191682840152151560051b8201013880611ffb565b919082519283825260005b84811061209d575050826000602080949584010152601f8019910116010190565b60208183018101518483018201520161207c565b9060068210156102335752565b600435906001600160a01b038216820361025b57565b9181601f8401121561025b578235916001600160401b03831161025b576020838186019501011161025b57565b60a060031982011261025b576001600160a01b0391600435838116810361025b5792602435908116810361025b57916044359160643591608435906001600160401b03821161025b57612156916004016120d4565b9091565b604090600319011261025b576004359060243590565b80548210156111fb5760005260206000209060021b0190600090565b80548210156111fb5760005260206000200190600090565b9181601f8401121561025b578235916001600160401b03831161025b576020808501948460051b01011161025b57565b6001546001600160a01b031633036121e857565b60405163118cdaa760e01b8152336004820152602490fd5b60001981146111095760010190565b6001600160401b0381116105dd57601f01601f191660200190565b9291926122368261220f565b916122446040519384611faa565b82948184528183011161025b578281602093846000960137010152565b9060068110156102335760ff80198354169116179055565b8054600160401b8110156105dd576122969160018201815561218c565b819291549060031b91821b91600019901b1916179055565b6002600054146122bf576002600055565b604051633ee5aeb560e01b8152600490fd5b91908110156111fb5760051b0190565b9190820180921161110957565b9190820391821161110957565b8181029291811591840414171561110957565b6000918291829182916001600160a01b03165af13d15612364573d6123328161220f565b906123406040519283611faa565b8152600060203d92013e5b1561235257565b6040516312171d8360e31b8152600490fd5b61234b56fede903ba82b744662226413f30d7e7d0960cec2d77f2318d23dd8b135673a8f3ba26469706673582212202720f4d5b0c1e8f970d25540a2d27688e35dc8df2a2763e8d09098594e90bb3b64736f6c63430008140033","opcodes":"PUSH1 0x80 CALLVALUE PUSH2 0xF1 JUMPI PUSH1 0x1F PUSH3 0x24CC CODESIZE DUP2 SWAP1 SUB SWAP2 DUP3 ADD PUSH1 0x1F NOT AND DUP4 ADD SWAP2 PUSH1 0x1 PUSH1 0x1 PUSH1 0x40 SHL SUB DUP4 GT DUP5 DUP5 LT OR PUSH2 0xF6 JUMPI DUP1 DUP5 SWAP3 PUSH1 0x40 SWAP5 DUP6 MSTORE DUP4 CODECOPY DUP2 ADD SUB SLT PUSH2 0xF1 JUMPI DUP1 MLOAD PUSH1 0x1 PUSH1 0x1 PUSH1 0xA0 SHL SUB SWAP2 DUP3 DUP3 AND SWAP2 DUP3 SWAP1 SUB PUSH2 0xF1 JUMPI PUSH1 0x20 ADD MLOAD SWAP2 PUSH1 0x1 PUSH1 0x0 SSTORE CALLER ISZERO PUSH2 0xD8 JUMPI PUSH1 0x1 DUP1 SLOAD CALLER PUSH1 0x1 PUSH1 0x1 PUSH1 0xA0 SHL SUB NOT DUP1 DUP4 AND DUP3 OR SWAP1 SWAP4 SSTORE PUSH1 0x40 MLOAD SWAP3 SWAP4 SWAP1 SWAP2 AND PUSH32 0x8BE0079C531659141344CD1FD0A4F28419497F9722A3DAAFE3B4186F6B6457E0 PUSH1 0x0 DUP1 LOG3 DUP3 ISZERO PUSH2 0xC9 JUMPI POP PUSH1 0x4 SLOAD AND OR PUSH1 0x4 SSTORE PUSH1 0x3 SSTORE PUSH1 0x40 MLOAD PUSH2 0x23BF SWAP1 DUP2 PUSH3 0x10D DUP3 CODECOPY RETURN JUMPDEST PUSH4 0xE6C4247B PUSH1 0xE0 SHL DUP2 MSTORE PUSH1 0x4 SWAP1 REVERT JUMPDEST PUSH1 0x40 MLOAD PUSH4 0x1E4FBDF7 PUSH1 0xE0 SHL DUP2 MSTORE PUSH1 0x0 PUSH1 0x4 DUP3 ADD MSTORE PUSH1 0x24 SWAP1 REVERT JUMPDEST PUSH1 0x0 DUP1 REVERT JUMPDEST PUSH4 0x4E487B71 PUSH1 0xE0 SHL PUSH1 0x0 MSTORE PUSH1 0x41 PUSH1 0x4 MSTORE PUSH1 0x24 PUSH1 0x0 REVERT INVALID PUSH1 0x80 PUSH1 0x40 MSTORE PUSH1 0x4 CALLDATASIZE LT ISZERO PUSH2 0x1B JUMPI JUMPDEST CALLDATASIZE ISZERO PUSH2 0x19 JUMPI PUSH1 0x0 DUP1 REVERT JUMPDEST STOP JUMPDEST PUSH1 0x0 CALLDATALOAD PUSH1 0xE0 SHR DUP1 PUSH4 0x11BE1997 EQ PUSH2 0x1E7C JUMPI DUP1 PUSH4 0x136BA6AA EQ PUSH2 0x1D4B JUMPI DUP1 PUSH4 0x17299C04 EQ PUSH2 0x1D2A JUMPI DUP1 PUSH4 0x2D83549C EQ PUSH2 0x1C5F JUMPI DUP1 PUSH4 0x447336F9 EQ PUSH2 0x1857 JUMPI DUP1 PUSH4 0x47AED508 EQ PUSH2 0x1783 JUMPI DUP1 PUSH4 0x5CCEA85E EQ PUSH2 0x16CF JUMPI DUP1 PUSH4 0x669C8CBA EQ PUSH2 0x1656 JUMPI DUP1 PUSH4 0x675AC67A EQ PUSH2 0x1638 JUMPI DUP1 PUSH4 0x715018A6 EQ PUSH2 0x15DB JUMPI DUP1 PUSH4 0x7CBC6B75 EQ PUSH2 0x129E JUMPI DUP1 PUSH4 0x7F944DD0 EQ PUSH2 0x1246 JUMPI DUP1 PUSH4 0x8DA5CB5B EQ PUSH2 0x121D JUMPI DUP1 PUSH4 0x9067FCDF EQ PUSH2 0xE83 JUMPI DUP1 PUSH4 0xA42DCE80 EQ PUSH2 0xE3B JUMPI DUP1 PUSH4 0xB3DA4CE2 EQ PUSH2 0xCB1 JUMPI DUP1 PUSH4 0xB75F1861 EQ PUSH2 0xACF JUMPI DUP1 PUSH4 0xB9CE896B EQ PUSH2 0xAB1 JUMPI DUP1 PUSH4 0xBF89FC61 EQ PUSH2 0x9D4 JUMPI DUP1 PUSH4 0xC415B95C EQ PUSH2 0x9AB JUMPI DUP1 PUSH4 0xD27DC2DB EQ PUSH2 0x5F3 JUMPI DUP1 PUSH4 0xEA4A873C EQ PUSH2 0x4A1 JUMPI DUP1 PUSH4 0xF023B811 EQ PUSH2 0x2E9 JUMPI DUP1 PUSH4 0xF2FDE38B EQ PUSH2 0x260 JUMPI PUSH4 0xF8E65D61 SUB PUSH2 0xE JUMPI PUSH1 0x20 CALLDATASIZE PUSH1 0x3 NOT ADD SLT PUSH2 0x25B JUMPI PUSH1 0x4 CALLDATALOAD PUSH2 0x14A PUSH2 0x22AE JUMP JUMPDEST PUSH1 0x0 DUP2 DUP2 MSTORE PUSH1 0x5 PUSH1 0x20 MSTORE PUSH1 0x40 SWAP1 KECCAK256 PUSH1 0x1 DUP2 ADD SLOAD PUSH1 0x1 PUSH1 0x1 PUSH1 0xA0 SHL SUB AND DUP1 ISZERO PUSH2 0x249 JUMPI PUSH1 0x7 DUP3 ADD SWAP2 DUP3 SLOAD SWAP2 PUSH1 0xFF DUP4 AND PUSH1 0x6 DUP2 LT ISZERO PUSH2 0x233 JUMPI PUSH2 0x221 JUMPI CALLER SUB PUSH2 0x20F JUMPI PUSH1 0x6 DUP2 ADD SLOAD TIMESTAMP LT ISZERO PUSH2 0x1FD JUMPI PUSH1 0x4 DUP2 ADD SLOAD SWAP1 DUP2 CALLVALUE SUB PUSH2 0x1EB JUMPI PUSH32 0xD938B422B43F203B43D875E6185C3199A188DF613005609FDB53BF610D39D735 SWAP4 PUSH1 0x1 PUSH1 0x40 SWAP5 PUSH1 0xFF NOT AND OR SWAP1 SSTORE PUSH1 0x5 TIMESTAMP SWAP2 ADD SSTORE DUP2 MLOAD SWAP1 DUP2 MSTORE TIMESTAMP PUSH1 0x20 DUP3 ADD MSTORE LOG2 PUSH1 0x1 PUSH1 0x0 SSTORE STOP JUMPDEST PUSH1 0x40 MLOAD PUSH4 0x162908E3 PUSH1 0xE1 SHL DUP2 MSTORE PUSH1 0x4 SWAP1 REVERT JUMPDEST PUSH1 0x40 MLOAD PUSH4 0x3C4FAC2D PUSH1 0xE0 SHL DUP2 MSTORE PUSH1 0x4 SWAP1 REVERT JUMPDEST PUSH1 0x40 MLOAD PUSH4 0xEA8E4EB5 PUSH1 0xE0 SHL DUP2 MSTORE PUSH1 0x4 SWAP1 REVERT JUMPDEST PUSH1 0x40 MLOAD PUSH4 0xBAF3F0F7 PUSH1 0xE0 SHL DUP2 MSTORE PUSH1 0x4 SWAP1 REVERT JUMPDEST PUSH4 0x4E487B71 PUSH1 0xE0 SHL PUSH1 0x0 MSTORE PUSH1 0x21 PUSH1 0x4 MSTORE PUSH1 0x24 PUSH1 0x0 REVERT JUMPDEST PUSH1 0x40 MLOAD PUSH4 0xF1D80AB1 PUSH1 0xE0 SHL DUP2 MSTORE PUSH1 0x4 SWAP1 REVERT JUMPDEST PUSH1 0x0 DUP1 REVERT JUMPDEST CALLVALUE PUSH2 0x25B JUMPI PUSH1 0x20 CALLDATASIZE PUSH1 0x3 NOT ADD SLT PUSH2 0x25B JUMPI PUSH2 0x279 PUSH2 0x20BE JUMP JUMPDEST PUSH2 0x281 PUSH2 0x21D4 JUMP JUMPDEST PUSH1 0x1 PUSH1 0x1 PUSH1 0xA0 SHL SUB SWAP1 DUP2 AND SWAP1 DUP2 ISZERO PUSH2 0x2D0 JUMPI PUSH1 0x1 SLOAD DUP3 PUSH1 0x1 PUSH1 0x1 PUSH1 0x60 SHL SUB PUSH1 0xA0 SHL DUP3 AND OR PUSH1 0x1 SSTORE AND PUSH32 0x8BE0079C531659141344CD1FD0A4F28419497F9722A3DAAFE3B4186F6B6457E0 PUSH1 0x0 DUP1 LOG3 STOP JUMPDEST PUSH1 0x40 MLOAD PUSH4 0x1E4FBDF7 PUSH1 0xE0 SHL DUP2 MSTORE PUSH1 0x0 PUSH1 0x4 DUP3 ADD MSTORE PUSH1 0x24 SWAP1 REVERT JUMPDEST CALLVALUE PUSH2 0x25B JUMPI PUSH1 0x20 CALLDATASIZE PUSH1 0x3 NOT ADD SLT PUSH2 0x25B JUMPI PUSH1 0x0 PUSH2 0x140 PUSH1 0x40 MLOAD PUSH2 0x30B DUP2 PUSH2 0x1F73 JUMP JUMPDEST DUP3 DUP2 MSTORE DUP3 PUSH1 0x20 DUP3 ADD MSTORE DUP3 PUSH1 0x40 DUP3 ADD MSTORE DUP3 PUSH1 0x60 DUP3 ADD MSTORE DUP3 PUSH1 0x80 DUP3 ADD MSTORE DUP3 PUSH1 0xA0 DUP3 ADD MSTORE DUP3 PUSH1 0xC0 DUP3 ADD MSTORE DUP3 PUSH1 0xE0 DUP3 ADD MSTORE PUSH1 0x60 PUSH2 0x100 DUP3 ADD MSTORE DUP3 PUSH2 0x120 DUP3 ADD MSTORE ADD MSTORE PUSH1 0x4 CALLDATALOAD PUSH1 0x0 MSTORE PUSH1 0x5 PUSH1 0x20 MSTORE PUSH1 0x40 PUSH1 0x0 KECCAK256 PUSH1 0x40 MLOAD SWAP1 PUSH2 0x366 DUP3 PUSH2 0x1F73 JUMP JUMPDEST DUP1 SLOAD DUP3 MSTORE PUSH1 0x1 DUP2 ADD SLOAD PUSH1 0x1 PUSH1 0x1 PUSH1 0xA0 SHL SUB SWAP1 DUP2 AND PUSH1 0x20 DUP5 ADD MSTORE PUSH1 0x2 DUP3 ADD SLOAD DUP2 AND PUSH1 0x40 DUP5 ADD MSTORE PUSH1 0x3 DUP3 ADD SLOAD AND PUSH1 0x60 DUP4 ADD MSTORE PUSH1 0x4 DUP2 ADD SLOAD PUSH1 0x80 DUP4 ADD MSTORE PUSH1 0x5 DUP2 ADD SLOAD PUSH1 0xA0 DUP4 ADD MSTORE PUSH1 0x6 DUP1 DUP3 ADD SLOAD PUSH1 0xC0 DUP5 ADD MSTORE PUSH1 0x7 DUP3 ADD SLOAD PUSH1 0xFF AND SWAP2 SWAP1 DUP3 LT ISZERO PUSH2 0x233 JUMPI PUSH1 0xA SWAP2 PUSH1 0xE0 DUP5 ADD MSTORE PUSH2 0x3DA PUSH1 0x8 DUP3 ADD PUSH2 0x1FCB JUMP JUMPDEST PUSH2 0x100 DUP5 ADD MSTORE PUSH1 0x9 DUP2 ADD SLOAD PUSH2 0x120 DUP5 ADD MSTORE ADD SLOAD PUSH2 0x140 DUP3 ADD MSTORE PUSH1 0x40 MLOAD DUP1 SWAP2 PUSH1 0x20 DUP3 MSTORE DUP1 MLOAD PUSH1 0x20 DUP4 ADD MSTORE PUSH1 0x1 DUP1 PUSH1 0xA0 SHL SUB PUSH1 0x20 DUP3 ADD MLOAD AND PUSH1 0x40 DUP4 ADD MSTORE PUSH1 0x1 DUP1 PUSH1 0xA0 SHL SUB PUSH1 0x40 DUP3 ADD MLOAD AND PUSH1 0x60 DUP4 ADD MSTORE PUSH1 0x1 DUP1 PUSH1 0xA0 SHL SUB PUSH1 0x60 DUP3 ADD MLOAD AND PUSH1 0x80 DUP4 ADD MSTORE PUSH1 0x80 DUP2 ADD MLOAD PUSH1 0xA0 DUP4 ADD MSTORE PUSH1 0xA0 DUP2 ADD MLOAD PUSH1 0xC0 DUP4 ADD MSTORE PUSH1 0xC0 DUP2 ADD MLOAD PUSH1 0xE0 DUP4 ADD MSTORE PUSH2 0x46A PUSH1 0xE0 DUP3 ADD MLOAD PUSH2 0x100 DUP5 ADD SWAP1 PUSH2 0x20B1 JUMP JUMPDEST PUSH2 0x100 DUP2 ADD MLOAD PUSH2 0x140 PUSH2 0x48C PUSH2 0x160 SWAP3 DUP4 PUSH2 0x120 DUP8 ADD MSTORE PUSH2 0x180 DUP7 ADD SWAP1 PUSH2 0x2071 JUMP JUMPDEST SWAP3 PUSH2 0x120 DUP2 ADD MLOAD DUP3 DUP7 ADD MSTORE ADD MLOAD SWAP1 DUP4 ADD MSTORE SUB SWAP1 RETURN JUMPDEST CALLVALUE PUSH2 0x25B JUMPI PUSH1 0x20 DUP1 PUSH1 0x3 NOT CALLDATASIZE ADD SLT PUSH2 0x25B JUMPI PUSH1 0x4 CALLDATALOAD PUSH1 0x0 MSTORE PUSH1 0x6 DUP2 MSTORE PUSH1 0x40 PUSH1 0x0 KECCAK256 DUP1 SLOAD SWAP1 PUSH1 0x1 PUSH1 0x1 PUSH1 0x40 SHL SUB DUP3 GT PUSH2 0x5DD JUMPI DUP3 SWAP1 PUSH1 0x40 MLOAD SWAP3 PUSH2 0x4E8 DUP4 DUP3 PUSH1 0x5 SHL ADD DUP6 PUSH2 0x1FAA JUMP JUMPDEST DUP1 DUP5 MSTORE DUP3 DUP5 ADD DUP1 SWAP3 PUSH1 0x0 MSTORE DUP4 PUSH1 0x0 KECCAK256 PUSH1 0x0 SWAP2 JUMPDEST DUP4 DUP4 LT PUSH2 0x58B JUMPI POP POP POP POP PUSH1 0x40 MLOAD SWAP2 DUP1 DUP4 ADD SWAP4 DUP2 DUP5 MSTORE MLOAD DUP1 SWAP5 MSTORE PUSH1 0x40 DUP4 ADD SWAP4 PUSH1 0x40 DUP2 PUSH1 0x5 SHL DUP6 ADD ADD SWAP3 SWAP2 PUSH1 0x0 SWAP6 JUMPDEST DUP3 DUP8 LT PUSH2 0x536 JUMPI DUP6 DUP6 SUB DUP7 RETURN JUMPDEST SWAP1 SWAP2 SWAP3 SWAP4 DUP3 DUP1 PUSH1 0x1 SWAP3 PUSH1 0x3F NOT DUP10 DUP3 SUB ADD DUP6 MSTORE DUP8 MLOAD SWAP1 DUP2 MLOAD DUP2 MSTORE PUSH2 0x565 DUP4 DUP4 ADD MLOAD PUSH1 0x80 DUP1 DUP7 DUP6 ADD MSTORE DUP4 ADD SWAP1 PUSH2 0x2071 JUMP JUMPDEST SWAP2 PUSH1 0x40 DUP2 ADD MLOAD ISZERO ISZERO PUSH1 0x40 DUP4 ADD MSTORE PUSH1 0x60 DUP1 SWAP2 ADD MLOAD SWAP2 ADD MSTORE SWAP7 ADD SWAP3 ADD SWAP7 ADD SWAP6 SWAP3 SWAP2 SWAP1 SWAP3 PUSH2 0x529 JUMP JUMPDEST PUSH1 0x4 DUP7 PUSH1 0x1 SWAP3 PUSH1 0x40 SWAP10 SWAP9 SWAP10 MLOAD PUSH2 0x5A0 DUP2 PUSH2 0x1F8F JUMP JUMPDEST DUP6 SLOAD DUP2 MSTORE PUSH2 0x5AF DUP6 DUP8 ADD PUSH2 0x1FCB JUMP JUMPDEST DUP4 DUP3 ADD MSTORE PUSH1 0xFF PUSH1 0x2 DUP8 ADD SLOAD AND ISZERO ISZERO PUSH1 0x40 DUP3 ADD MSTORE PUSH1 0x3 DUP7 ADD SLOAD PUSH1 0x60 DUP3 ADD MSTORE DUP2 MSTORE ADD SWAP3 ADD SWAP3 ADD SWAP2 SWAP1 SWAP6 SWAP5 SWAP6 PUSH2 0x4FB JUMP JUMPDEST PUSH4 0x4E487B71 PUSH1 0xE0 SHL PUSH1 0x0 MSTORE PUSH1 0x41 PUSH1 0x4 MSTORE PUSH1 0x24 PUSH1 0x0 REVERT JUMPDEST CALLVALUE PUSH2 0x25B JUMPI PUSH2 0x601 CALLDATASIZE PUSH2 0x2101 JUMP JUMPDEST SWAP2 SWAP5 SWAP1 SWAP4 SWAP2 SWAP1 PUSH1 0x1 PUSH1 0x1 PUSH1 0xA0 SHL SUB DUP2 AND ISZERO PUSH2 0x999 JUMPI DUP4 ISZERO PUSH2 0x1EB JUMPI TIMESTAMP DUP7 GT ISZERO PUSH2 0x1FD JUMPI PUSH2 0x6E1 PUSH1 0x2 SLOAD PUSH2 0x633 DUP2 PUSH2 0x2200 JUMP JUMPDEST PUSH1 0x2 SSTORE PUSH1 0x40 MLOAD CALLER PUSH1 0x60 SWAP1 DUP2 SHL PUSH12 0xFFFFFFFFFFFFFFFFFFFFFFFF NOT SWAP1 DUP2 AND PUSH1 0x20 DUP5 ADD SWAP1 DUP2 MSTORE SWAP2 DUP7 SWAP1 SHL AND PUSH1 0x34 DUP4 ADD MSTORE PUSH1 0x48 DUP3 ADD DUP9 SWAP1 MSTORE TIMESTAMP PUSH1 0x68 DUP4 ADD MSTORE PUSH1 0x88 DUP3 ADD SWAP3 SWAP1 SWAP3 MSTORE PUSH2 0x68D DUP2 PUSH1 0xA8 DUP2 ADD JUMPDEST SUB PUSH1 0x1F NOT DUP2 ADD DUP4 MSTORE DUP3 PUSH2 0x1FAA JUMP JUMPDEST MLOAD SWAP1 KECCAK256 SWAP6 PUSH1 0x40 MLOAD SWAP4 PUSH2 0x69E DUP6 PUSH2 0x1F73 JUMP JUMPDEST DUP8 DUP6 MSTORE CALLER PUSH1 0x20 DUP7 ADD MSTORE PUSH1 0x1 PUSH1 0x1 PUSH1 0xA0 SHL SUB DUP5 DUP2 AND PUSH1 0x40 DUP8 ADD MSTORE DUP7 AND PUSH1 0x60 DUP7 ADD MSTORE PUSH1 0x80 DUP6 ADD DUP8 SWAP1 MSTORE PUSH1 0x0 PUSH1 0xA0 DUP7 ADD DUP2 SWAP1 MSTORE PUSH1 0xC0 DUP7 ADD DUP11 SWAP1 MSTORE PUSH1 0xE0 DUP7 ADD MSTORE CALLDATASIZE SWAP2 PUSH2 0x222A JUMP JUMPDEST PUSH2 0x100 DUP4 ADD MSTORE PUSH1 0x0 PUSH2 0x120 DUP4 ADD MSTORE PUSH1 0x0 PUSH2 0x140 DUP4 ADD MSTORE DUP5 PUSH1 0x0 MSTORE PUSH1 0x5 PUSH1 0x20 MSTORE PUSH1 0x40 PUSH1 0x0 KECCAK256 DUP3 MLOAD DUP2 SSTORE PUSH1 0x1 DUP2 ADD PUSH1 0x1 DUP1 PUSH1 0xA0 SHL SUB PUSH1 0x20 DUP6 ADD MLOAD AND SWAP1 PUSH1 0x1 PUSH1 0x1 PUSH1 0x60 SHL SUB PUSH1 0xA0 SHL SWAP2 DUP3 DUP3 SLOAD AND OR SWAP1 SSTORE PUSH1 0x2 DUP3 ADD PUSH1 0x1 DUP1 PUSH1 0xA0 SHL SUB PUSH1 0x40 DUP7 ADD MLOAD AND DUP3 DUP3 SLOAD AND OR SWAP1 SSTORE PUSH1 0x3 DUP3 ADD SWAP1 PUSH1 0x1 DUP1 PUSH1 0xA0 SHL SUB PUSH1 0x60 DUP7 ADD MLOAD AND SWAP1 DUP3 SLOAD AND OR SWAP1 SSTORE PUSH1 0x80 DUP4 ADD MLOAD PUSH1 0x4 DUP3 ADD SSTORE PUSH1 0xA0 DUP4 ADD MLOAD PUSH1 0x5 DUP3 ADD SSTORE PUSH1 0xC0 DUP4 ADD MLOAD PUSH1 0x6 DUP3 ADD SSTORE PUSH1 0xE0 DUP4 ADD MLOAD PUSH1 0x6 DUP2 LT ISZERO PUSH2 0x233 JUMPI PUSH2 0x798 SWAP1 PUSH1 0x7 DUP4 ADD PUSH2 0x2261 JUMP JUMPDEST PUSH2 0x100 DUP4 ADD MLOAD DUP1 MLOAD SWAP1 PUSH1 0x1 PUSH1 0x1 PUSH1 0x40 SHL SUB DUP3 GT PUSH2 0x5DD JUMPI PUSH2 0x7BC PUSH1 0x8 DUP5 ADD SLOAD PUSH2 0x1F1D JUMP JUMPDEST PUSH1 0x1F DUP2 GT PUSH2 0x952 JUMPI JUMPDEST POP SWAP2 DUP8 SWAP4 SWAP2 PUSH1 0x20 SWAP10 SWAP4 DUP11 SWAP1 PUSH1 0x1F DUP4 GT PUSH1 0x1 EQ PUSH2 0x8C8 JUMPI SWAP7 DUP3 PUSH1 0xA SWAP4 PUSH2 0x140 SWAP4 PUSH1 0x0 DUP1 MLOAD PUSH1 0x20 PUSH2 0x236A DUP4 CODECOPY DUP2 MLOAD SWAP2 MSTORE SWAP10 SWAP11 PUSH1 0x0 SWAP3 PUSH2 0x8BD JUMPI JUMPDEST POP POP DUP2 PUSH1 0x1 SHL SWAP2 PUSH1 0x0 NOT SWAP1 PUSH1 0x3 SHL SHR NOT AND OR PUSH1 0x8 DUP6 ADD SSTORE JUMPDEST PUSH2 0x120 DUP2 ADD MLOAD PUSH1 0x9 DUP6 ADD SSTORE ADD MLOAD SWAP2 ADD SSTORE CALLER PUSH1 0x0 MSTORE PUSH1 0x8 DUP9 MSTORE PUSH2 0x83B DUP5 PUSH1 0x40 PUSH1 0x0 KECCAK256 PUSH2 0x2279 JUMP JUMPDEST PUSH1 0x1 DUP1 PUSH1 0xA0 SHL SUB DUP2 AND PUSH1 0x0 MSTORE PUSH1 0x8 DUP9 MSTORE PUSH2 0x859 DUP5 PUSH1 0x40 PUSH1 0x0 KECCAK256 PUSH2 0x2279 JUMP JUMPDEST PUSH1 0x1 PUSH1 0x1 PUSH1 0xA0 SHL SUB DUP6 AND PUSH2 0x89A JUMPI JUMPDEST PUSH1 0x40 DUP1 MLOAD PUSH1 0x1 PUSH1 0x1 PUSH1 0xA0 SHL SUB SWAP7 DUP8 AND DUP2 MSTORE PUSH1 0x20 DUP2 ADD SWAP8 SWAP1 SWAP8 MSTORE DUP7 ADD SWAP2 SWAP1 SWAP2 MSTORE SWAP1 SWAP3 AND SWAP3 CALLER SWAP3 SWAP1 PUSH1 0x60 SWAP1 LOG4 PUSH1 0x40 MLOAD SWAP1 DUP2 MSTORE RETURN JUMPDEST PUSH1 0x1 DUP1 PUSH1 0xA0 SHL SUB DUP6 AND PUSH1 0x0 MSTORE PUSH1 0x8 DUP9 MSTORE PUSH2 0x8B8 DUP5 PUSH1 0x40 PUSH1 0x0 KECCAK256 PUSH2 0x2279 JUMP JUMPDEST PUSH2 0x868 JUMP JUMPDEST ADD MLOAD SWAP1 POP DUP15 DUP1 PUSH2 0x7FD JUMP JUMPDEST PUSH1 0x8 DUP5 SWAP9 SWAP4 SWAP3 SWAP9 ADD PUSH1 0x0 MSTORE DUP12 PUSH1 0x0 KECCAK256 SWAP1 PUSH1 0x0 JUMPDEST PUSH1 0x1F NOT DUP5 AND DUP2 LT PUSH2 0x938 JUMPI POP DUP3 PUSH1 0xA SWAP5 SWAP3 PUSH1 0x0 DUP1 MLOAD PUSH1 0x20 PUSH2 0x236A DUP4 CODECOPY DUP2 MLOAD SWAP2 MSTORE SWAP10 SWAP11 PUSH1 0x1 SWAP4 PUSH2 0x140 SWAP7 PUSH1 0x1F NOT DUP2 AND LT PUSH2 0x91F JUMPI JUMPDEST POP POP POP DUP2 SHL ADD PUSH1 0x8 DUP6 ADD SSTORE PUSH2 0x815 JUMP JUMPDEST ADD MLOAD PUSH1 0x0 NOT PUSH1 0xF8 DUP5 PUSH1 0x3 SHL AND SHR NOT AND SWAP1 SSTORE DUP15 DUP1 DUP1 PUSH2 0x90F JUMP JUMPDEST DUP2 DUP11 ADD MLOAD DUP4 SSTORE SWAP9 DUP14 ADD SWAP9 DUP13 SWAP9 POP PUSH1 0x1 SWAP1 SWAP3 ADD SWAP2 DUP14 ADD PUSH2 0x8DB JUMP JUMPDEST PUSH1 0x8 DUP5 ADD PUSH1 0x0 MSTORE PUSH1 0x20 PUSH1 0x0 KECCAK256 PUSH1 0x1F DUP5 ADD PUSH1 0x5 SHR DUP2 ADD PUSH1 0x20 DUP6 LT PUSH2 0x992 JUMPI JUMPDEST PUSH1 0x1F DUP4 ADD PUSH1 0x5 SHR DUP3 ADD DUP2 LT PUSH2 0x986 JUMPI POP POP PUSH2 0x7C5 JUMP JUMPDEST PUSH1 0x0 DUP2 SSTORE PUSH1 0x1 ADD PUSH2 0x970 JUMP JUMPDEST POP DUP1 PUSH2 0x970 JUMP JUMPDEST PUSH1 0x40 MLOAD PUSH4 0xE6C4247B PUSH1 0xE0 SHL DUP2 MSTORE PUSH1 0x4 SWAP1 REVERT JUMPDEST CALLVALUE PUSH2 0x25B JUMPI PUSH1 0x0 CALLDATASIZE PUSH1 0x3 NOT ADD SLT PUSH2 0x25B JUMPI PUSH1 0x4 SLOAD PUSH1 0x40 MLOAD PUSH1 0x1 PUSH1 0x1 PUSH1 0xA0 SHL SUB SWAP1 SWAP2 AND DUP2 MSTORE PUSH1 0x20 SWAP1 RETURN JUMPDEST CALLVALUE PUSH2 0x25B JUMPI PUSH1 0x20 CALLDATASIZE PUSH1 0x3 NOT ADD SLT PUSH2 0x25B JUMPI PUSH1 0x4 CALLDATALOAD PUSH2 0x9F0 PUSH2 0x22AE JUMP JUMPDEST PUSH1 0x0 DUP2 DUP2 MSTORE PUSH1 0x5 PUSH1 0x20 MSTORE PUSH1 0x40 SWAP1 KECCAK256 PUSH1 0x1 DUP2 ADD SLOAD PUSH1 0x1 PUSH1 0x1 PUSH1 0xA0 SHL SUB SWAP3 SWAP2 SWAP1 DUP4 AND DUP1 ISZERO PUSH2 0x249 JUMPI CALLER SUB PUSH2 0x20F JUMPI PUSH1 0x7 DUP2 ADD SWAP1 DUP2 SLOAD SWAP4 PUSH1 0xFF DUP6 AND PUSH1 0x6 DUP2 LT ISZERO PUSH2 0x233 JUMPI PUSH1 0x1 SUB PUSH2 0x221 JUMPI DUP4 PUSH1 0x0 MSTORE PUSH1 0x6 PUSH1 0x20 MSTORE PUSH1 0x40 PUSH1 0x0 KECCAK256 SLOAD PUSH2 0x221 JUMPI PUSH1 0x2 DUP3 PUSH32 0x3A9C1CD29CD3BE251A72CE3C367C27DC1CB697AC4589965B76A83F9A25CA0710 SWAP5 DUP3 PUSH1 0x4 PUSH1 0x20 SWAP7 ADD SLOAD SWAP9 PUSH1 0x9 DUP5 ADD SWAP10 PUSH2 0xA89 DUP12 SLOAD DUP3 PUSH2 0x22EE JUMP JUMPDEST SWAP11 SSTORE PUSH1 0xFF NOT AND OR SWAP1 SSTORE ADD PUSH2 0xAA0 DUP7 DUP4 DUP4 SLOAD AND PUSH2 0x230E JUMP JUMPDEST SLOAD AND SWAP4 PUSH1 0x40 MLOAD SWAP1 DUP2 MSTORE LOG3 PUSH1 0x1 PUSH1 0x0 SSTORE STOP JUMPDEST CALLVALUE PUSH2 0x25B JUMPI PUSH1 0x0 CALLDATASIZE PUSH1 0x3 NOT ADD SLT PUSH2 0x25B JUMPI PUSH1 0x20 PUSH1 0x3 SLOAD PUSH1 0x40 MLOAD SWAP1 DUP2 MSTORE RETURN JUMPDEST CALLVALUE PUSH2 0x25B JUMPI PUSH1 0x60 CALLDATASIZE PUSH1 0x3 NOT ADD SLT PUSH2 0x25B JUMPI PUSH1 0x24 CALLDATALOAD PUSH1 0x4 CALLDATALOAD PUSH1 0x44 CALLDATALOAD PUSH2 0xAF1 PUSH2 0x22AE JUMP JUMPDEST PUSH1 0x0 DUP3 DUP2 MSTORE PUSH1 0x5 PUSH1 0x20 MSTORE PUSH1 0x40 SWAP1 KECCAK256 PUSH1 0x1 DUP2 ADD DUP1 SLOAD SWAP1 SWAP3 PUSH1 0x1 PUSH1 0x1 PUSH1 0xA0 SHL SUB SWAP2 DUP3 AND ISZERO PUSH2 0x249 JUMPI DUP2 PUSH1 0x3 DUP5 ADD SLOAD AND CALLER SUB PUSH2 0x20F JUMPI PUSH1 0x7 DUP4 ADD SWAP3 PUSH1 0xFF DUP5 SLOAD AND PUSH1 0x6 DUP2 LT ISZERO PUSH2 0x233 JUMPI PUSH1 0x4 SUB PUSH2 0x221 JUMPI PUSH2 0x2710 SWAP5 DUP6 PUSH2 0xB4D DUP5 DUP11 PUSH2 0x22E1 JUMP JUMPDEST SUB PUSH2 0xC9F JUMPI DUP7 PUSH1 0x0 MSTORE PUSH1 0x7 PUSH1 0x20 MSTORE PUSH1 0x40 PUSH1 0x0 KECCAK256 SWAP2 PUSH1 0x4 DUP4 ADD SWAP7 DUP8 SLOAD SWAP7 PUSH1 0xFF DUP9 AND PUSH2 0x221 JUMPI PUSH1 0x5 PUSH1 0x40 SWAP9 DUP8 PUSH1 0x6 DUP11 SWAP9 DUP16 PUSH32 0x2E8E39BD838DF355F6F1D78E5AB374E0B3D48804DBF1A48AC332223490C54971 SWAP15 PUSH1 0x1 PUSH1 0xFF NOT DUP1 SWAP8 AND OR SWAP1 SSTORE DUP6 DUP3 ADD SSTORE ADD SSTORE DUP3 SLOAD AND OR SWAP1 SSTORE PUSH1 0x4 DUP3 ADD SLOAD SWAP1 PUSH2 0xBCB PUSH1 0x9 DUP5 ADD SWAP3 DUP4 SLOAD SWAP1 PUSH2 0x22EE JUMP JUMPDEST SWAP1 DUP1 PUSH2 0xBD7 DUP14 DUP5 PUSH2 0x22FB JUMP JUMPDEST DIV SWAP1 PUSH2 0xBF0 PUSH2 0xBE6 DUP4 DUP6 PUSH2 0x22EE JUMP JUMPDEST SWAP4 PUSH1 0x3 SLOAD SWAP1 PUSH2 0x22FB JUMP JUMPDEST DIV DUP1 PUSH2 0xC71 JUMPI JUMPDEST POP DUP1 PUSH2 0xC59 JUMPI JUMPDEST POP DUP1 PUSH2 0xC35 JUMPI JUMPDEST POP POP DUP4 DUP10 GT ISZERO PUSH2 0xC28 JUMPI POP SLOAD AND SWAP1 JUMPDEST DUP4 MLOAD SWAP7 DUP8 MSTORE PUSH1 0x20 DUP8 ADD MSTORE AND SWAP4 LOG3 PUSH1 0x1 PUSH1 0x0 SSTORE STOP JUMPDEST PUSH1 0x2 SWAP2 POP ADD SLOAD AND SWAP1 PUSH2 0xC14 JUMP JUMPDEST DUP1 PUSH2 0xC49 PUSH2 0xC50 SWAP3 DUP8 PUSH1 0x2 DUP8 ADD SLOAD AND PUSH2 0x230E JUMP JUMPDEST DUP3 SLOAD PUSH2 0x22E1 JUMP JUMPDEST SWAP1 SSTORE DUP10 DUP1 PUSH2 0xC05 JUMP JUMPDEST PUSH2 0xC66 DUP2 DUP8 DUP8 SLOAD AND PUSH2 0x230E JUMP JUMPDEST PUSH1 0xA DUP5 ADD SSTORE DUP12 PUSH2 0xBFE JUMP JUMPDEST SWAP2 SWAP1 PUSH2 0xC8E PUSH2 0xC99 SWAP2 PUSH2 0xC88 DUP6 PUSH1 0x1 SHR DUP1 SWAP3 PUSH2 0x22EE JUMP JUMPDEST SWAP4 PUSH2 0x22EE JUMP JUMPDEST SWAP3 DUP8 PUSH1 0x4 SLOAD AND PUSH2 0x230E JUMP JUMPDEST DUP13 PUSH2 0xBF7 JUMP JUMPDEST PUSH1 0x40 MLOAD PUSH4 0x6EDCC523 PUSH1 0xE0 SHL DUP2 MSTORE PUSH1 0x4 SWAP1 REVERT JUMPDEST CALLVALUE PUSH2 0x25B JUMPI PUSH2 0xCBF CALLDATASIZE PUSH2 0x215A JUMP JUMPDEST SWAP1 PUSH2 0xCC8 PUSH2 0x22AE JUMP JUMPDEST PUSH1 0x0 DUP2 DUP2 MSTORE PUSH1 0x5 PUSH1 0x20 MSTORE PUSH1 0x40 SWAP1 KECCAK256 PUSH1 0x1 DUP2 ADD SLOAD SWAP1 SWAP3 SWAP1 PUSH1 0x1 PUSH1 0x1 PUSH1 0xA0 SHL SUB AND DUP1 ISZERO PUSH2 0x249 JUMPI CALLER SUB PUSH2 0x20F JUMPI PUSH1 0x7 DUP4 ADD SWAP3 PUSH1 0xFF SWAP2 DUP3 DUP6 SLOAD AND PUSH1 0x6 DUP2 LT ISZERO PUSH2 0x233 JUMPI PUSH1 0x1 SUB PUSH2 0x221 JUMPI DUP4 PUSH1 0x0 MSTORE PUSH1 0x6 PUSH1 0x20 MSTORE PUSH1 0x40 PUSH1 0x0 KECCAK256 SLOAD DUP2 LT ISZERO PUSH2 0xE29 JUMPI DUP4 PUSH1 0x0 MSTORE PUSH1 0x6 PUSH1 0x20 MSTORE PUSH2 0xD3C DUP2 PUSH1 0x40 PUSH1 0x0 KECCAK256 PUSH2 0x2170 JUMP JUMPDEST POP SWAP2 PUSH1 0x2 DUP4 ADD SLOAD SWAP2 DUP5 DUP4 AND PUSH2 0xE29 JUMPI DUP6 SWAP4 PUSH2 0xDAF PUSH1 0x40 SWAP4 PUSH1 0x1 PUSH32 0x210592FFF19EF4CA4DEAD511C65D214F197BAE467ADC48ADE023759A333921E4 SWAP7 PUSH1 0xFF NOT AND OR PUSH1 0x2 DUP5 ADD SSTORE TIMESTAMP PUSH1 0x3 DUP5 ADD SSTORE DUP3 SLOAD PUSH2 0xD98 PUSH1 0x9 DUP4 ADD SWAP2 DUP3 SLOAD PUSH2 0x22E1 JUMP JUMPDEST SWAP1 SSTORE PUSH1 0x2 ADD SLOAD DUP3 SLOAD SWAP1 PUSH1 0x1 PUSH1 0x1 PUSH1 0xA0 SHL SUB AND PUSH2 0x230E JUMP JUMPDEST SLOAD DUP3 MLOAD SWAP2 DUP3 MSTORE PUSH1 0x20 DUP3 ADD MSTORE LOG2 PUSH1 0x1 PUSH1 0x0 JUMPDEST DUP4 PUSH1 0x0 MSTORE PUSH1 0x6 PUSH1 0x20 MSTORE PUSH1 0x40 PUSH1 0x0 KECCAK256 DUP1 SLOAD DUP3 LT ISZERO PUSH2 0xE1F JUMPI PUSH1 0x2 PUSH2 0xDE4 DUP4 DUP7 SWAP4 PUSH2 0x2170 JUMP JUMPDEST POP ADD SLOAD AND ISZERO PUSH2 0xDFB JUMPI PUSH2 0xDF6 SWAP1 PUSH2 0x2200 JUMP JUMPDEST PUSH2 0xDC0 JUMP JUMPDEST POP POP POP POP PUSH1 0x0 JUMPDEST PUSH2 0xE0E JUMPI JUMPDEST PUSH1 0x1 PUSH1 0x0 SSTORE STOP JUMPDEST DUP1 SLOAD PUSH1 0xFF NOT AND PUSH1 0x2 OR SWAP1 SSTORE DUP1 PUSH2 0xE07 JUMP JUMPDEST POP POP SWAP2 POP POP PUSH2 0xE02 JUMP JUMPDEST PUSH1 0x40 MLOAD PUSH4 0x2E845CD PUSH1 0xE6 SHL DUP2 MSTORE PUSH1 0x4 SWAP1 REVERT JUMPDEST CALLVALUE PUSH2 0x25B JUMPI PUSH1 0x20 CALLDATASIZE PUSH1 0x3 NOT ADD SLT PUSH2 0x25B JUMPI PUSH2 0xE54 PUSH2 0x20BE JUMP JUMPDEST PUSH2 0xE5C PUSH2 0x21D4 JUMP JUMPDEST PUSH1 0x1 PUSH1 0x1 PUSH1 0xA0 SHL SUB AND DUP1 ISZERO PUSH2 0x999 JUMPI PUSH1 0x1 PUSH1 0x1 PUSH1 0x60 SHL SUB PUSH1 0xA0 SHL PUSH1 0x4 SLOAD AND OR PUSH1 0x4 SSTORE PUSH1 0x0 DUP1 RETURN JUMPDEST CALLVALUE PUSH2 0x25B JUMPI PUSH1 0x60 CALLDATASIZE PUSH1 0x3 NOT ADD SLT PUSH2 0x25B JUMPI PUSH1 0x24 CALLDATALOAD PUSH1 0x1 PUSH1 0x1 PUSH1 0x40 SHL SUB DUP2 GT PUSH2 0x25B JUMPI PUSH2 0xEB3 SWAP1 CALLDATASIZE SWAP1 PUSH1 0x4 ADD PUSH2 0x21A4 JUMP JUMPDEST PUSH1 0x44 CALLDATALOAD PUSH1 0x1 PUSH1 0x1 PUSH1 0x40 SHL SUB DUP2 GT PUSH2 0x25B JUMPI PUSH2 0xED2 SWAP1 CALLDATASIZE SWAP1 PUSH1 0x4 ADD PUSH2 0x21A4 JUMP JUMPDEST PUSH1 0x4 SWAP4 SWAP2 SWAP4 CALLDATALOAD PUSH1 0x0 MSTORE PUSH1 0x5 PUSH1 0x20 MSTORE PUSH1 0x40 PUSH1 0x0 KECCAK256 SWAP3 PUSH1 0x1 DUP1 PUSH1 0xA0 SHL SUB PUSH1 0x1 DUP6 ADD SLOAD AND DUP1 ISZERO PUSH2 0x249 JUMPI CALLER SUB PUSH2 0x20F JUMPI PUSH1 0xFF PUSH1 0x7 DUP6 ADD SLOAD AND PUSH1 0x6 DUP2 LT ISZERO PUSH2 0x233 JUMPI DUP1 ISZERO ISZERO SWAP1 DUP2 PUSH2 0x1211 JUMPI JUMPDEST POP PUSH2 0x221 JUMPI DUP2 DUP2 SUB PUSH2 0x1EB JUMPI SWAP4 SWAP2 SWAP1 PUSH1 0x0 SWAP5 PUSH1 0x0 SWAP4 JUMPDEST DUP2 DUP6 LT PUSH2 0xF44 JUMPI DUP7 PUSH1 0x4 DUP8 ADD SLOAD SUB PUSH2 0x1EB JUMPI STOP JUMPDEST SWAP1 SWAP2 SWAP3 SWAP4 SWAP6 PUSH2 0xF5F SWAP1 PUSH2 0xF58 DUP9 DUP6 DUP9 PUSH2 0x22D1 JUMP JUMPDEST CALLDATALOAD SWAP1 PUSH2 0x22E1 JUMP JUMPDEST SWAP6 PUSH1 0x4 CALLDATALOAD PUSH1 0x0 MSTORE PUSH1 0x6 PUSH1 0x20 MSTORE PUSH1 0x40 PUSH1 0x0 KECCAK256 PUSH2 0xF7B DUP3 DUP6 DUP9 PUSH2 0x22D1 JUMP JUMPDEST CALLDATALOAD DUP6 DUP4 LT ISZERO PUSH2 0x11FB JUMPI DUP3 PUSH1 0x5 SHL DUP5 ADD CALLDATALOAD PUSH1 0x1E NOT DUP6 CALLDATASIZE SUB ADD DUP2 SLT ISZERO PUSH2 0x25B JUMPI DUP5 ADD PUSH1 0x1 PUSH1 0x1 PUSH1 0x40 SHL SUB DUP2 CALLDATALOAD GT PUSH2 0x25B JUMPI DUP1 CALLDATALOAD CALLDATASIZE SUB PUSH1 0x20 DUP3 ADD SGT PUSH2 0x25B JUMPI PUSH2 0xFD7 SWAP1 PUSH1 0x40 MLOAD SWAP3 PUSH2 0xFC8 DUP5 PUSH2 0x1F8F JUMP JUMPDEST DUP4 MSTORE CALLDATASIZE SWAP1 PUSH1 0x20 DUP2 CALLDATALOAD SWAP2 ADD PUSH2 0x222A JUMP JUMPDEST SWAP2 PUSH1 0x20 DUP3 ADD SWAP3 DUP4 MSTORE PUSH1 0x0 PUSH1 0x40 DUP4 ADD MSTORE PUSH1 0x0 PUSH1 0x60 DUP4 ADD MSTORE DUP1 SLOAD PUSH1 0x1 PUSH1 0x40 SHL DUP2 LT ISZERO PUSH2 0x5DD JUMPI PUSH2 0x100A SWAP2 PUSH1 0x1 DUP3 ADD DUP2 SSTORE PUSH2 0x2170 JUMP JUMPDEST SWAP3 SWAP1 SWAP3 PUSH2 0x11E5 JUMPI DUP2 MLOAD DUP4 SSTORE MLOAD DUP1 MLOAD SWAP1 PUSH1 0x1 PUSH1 0x1 PUSH1 0x40 SHL SUB DUP3 GT PUSH2 0x5DD JUMPI PUSH2 0x1034 PUSH1 0x1 DUP6 ADD SLOAD PUSH2 0x1F1D JUMP JUMPDEST PUSH1 0x1F DUP2 GT PUSH2 0x119E JUMPI JUMPDEST POP PUSH1 0x20 SWAP1 PUSH1 0x1F DUP4 GT PUSH1 0x1 EQ PUSH2 0x112A JUMPI SWAP2 DUP1 PUSH1 0x3 SWAP5 SWAP3 PUSH1 0x60 SWAP5 PUSH1 0x0 SWAP3 PUSH2 0x111F JUMPI JUMPDEST POP POP PUSH1 0x0 NOT DUP3 DUP7 SHL SHR NOT AND PUSH1 0x1 SWAP2 DUP3 SHL OR SWAP1 DUP6 ADD SSTORE JUMPDEST PUSH2 0x1092 PUSH1 0x40 DUP3 ADD MLOAD ISZERO ISZERO PUSH1 0x2 DUP7 ADD SWAP1 PUSH1 0xFF DUP1 NOT DUP4 SLOAD AND SWAP2 ISZERO ISZERO AND OR SWAP1 SSTORE JUMP JUMPDEST ADD MLOAD SWAP2 ADD SSTORE PUSH1 0x4 CALLDATALOAD PUSH1 0x0 MSTORE PUSH1 0x6 PUSH1 0x20 MSTORE PUSH1 0x40 PUSH1 0x0 KECCAK256 SLOAD SWAP1 DUP2 PUSH1 0x0 NOT DUP2 ADD GT PUSH2 0x1109 JUMPI PUSH2 0x1100 SWAP2 PUSH2 0x10C3 DUP3 DUP7 DUP10 PUSH2 0x22D1 JUMP JUMPDEST CALLDATALOAD PUSH1 0x40 MLOAD SWAP2 PUSH1 0x0 NOT ADD DUP3 MSTORE PUSH1 0x20 DUP3 ADD MSTORE PUSH32 0xE1738CC47D42706BDB1240B9EE8EE7889C00019D5ABC5A225159FEDD922D5B59 PUSH1 0x40 PUSH1 0x4 CALLDATALOAD SWAP3 LOG2 PUSH2 0x2200 JUMP JUMPDEST SWAP4 SWAP3 SWAP2 SWAP1 PUSH2 0xF30 JUMP JUMPDEST PUSH4 0x4E487B71 PUSH1 0xE0 SHL PUSH1 0x0 MSTORE PUSH1 0x11 PUSH1 0x4 MSTORE PUSH1 0x24 PUSH1 0x0 REVERT JUMPDEST ADD MLOAD SWAP1 POP DUP14 DUP1 PUSH2 0x105D JUMP JUMPDEST SWAP1 PUSH1 0x1 DUP6 ADD PUSH1 0x0 MSTORE PUSH1 0x20 PUSH1 0x0 KECCAK256 SWAP2 PUSH1 0x0 JUMPDEST PUSH1 0x1F NOT DUP6 AND DUP2 LT PUSH2 0x1186 JUMPI POP SWAP3 PUSH1 0x3 SWAP5 SWAP3 PUSH1 0x1 SWAP3 PUSH1 0x60 SWAP6 DUP4 PUSH1 0x1F NOT DUP2 AND LT PUSH2 0x116E JUMPI JUMPDEST POP POP POP DUP2 SHL ADD PUSH1 0x1 DUP6 ADD SSTORE PUSH2 0x1073 JUMP JUMPDEST ADD MLOAD PUSH1 0x0 NOT DUP4 DUP9 SHL PUSH1 0xF8 AND SHR NOT AND SWAP1 SSTORE DUP14 DUP1 DUP1 PUSH2 0x115E JUMP JUMPDEST SWAP2 SWAP3 PUSH1 0x20 PUSH1 0x1 DUP2 SWAP3 DUP7 DUP6 ADD MLOAD DUP2 SSTORE ADD SWAP5 ADD SWAP3 ADD PUSH2 0x113B JUMP JUMPDEST PUSH1 0x1 DUP6 ADD PUSH1 0x0 MSTORE PUSH1 0x20 PUSH1 0x0 KECCAK256 PUSH1 0x1F DUP5 ADD PUSH1 0x5 SHR DUP2 ADD PUSH1 0x20 DUP6 LT PUSH2 0x11DE JUMPI JUMPDEST PUSH1 0x1F DUP4 ADD PUSH1 0x5 SHR DUP3 ADD DUP2 LT PUSH2 0x11D2 JUMPI POP POP PUSH2 0x103D JUMP JUMPDEST PUSH1 0x0 DUP2 SSTORE PUSH1 0x1 ADD PUSH2 0x11BC JUMP JUMPDEST POP DUP1 PUSH2 0x11BC JUMP JUMPDEST PUSH4 0x4E487B71 PUSH1 0xE0 SHL PUSH1 0x0 MSTORE PUSH1 0x0 PUSH1 0x4 MSTORE PUSH1 0x24 PUSH1 0x0 REVERT JUMPDEST PUSH4 0x4E487B71 PUSH1 0xE0 SHL PUSH1 0x0 MSTORE PUSH1 0x32 PUSH1 0x4 MSTORE PUSH1 0x24 PUSH1 0x0 REVERT JUMPDEST PUSH1 0x1 SWAP2 POP EQ ISZERO DUP7 PUSH2 0xF1A JUMP JUMPDEST CALLVALUE PUSH2 0x25B JUMPI PUSH1 0x0 CALLDATASIZE PUSH1 0x3 NOT ADD SLT PUSH2 0x25B JUMPI PUSH1 0x1 SLOAD PUSH1 0x40 MLOAD PUSH1 0x1 PUSH1 0x1 PUSH1 0xA0 SHL SUB SWAP1 SWAP2 AND DUP2 MSTORE PUSH1 0x20 SWAP1 RETURN JUMPDEST CALLVALUE PUSH2 0x25B JUMPI PUSH1 0x40 CALLDATASIZE PUSH1 0x3 NOT ADD SLT PUSH2 0x25B JUMPI PUSH2 0x125F PUSH2 0x20BE JUMP JUMPDEST PUSH1 0x1 PUSH1 0x1 PUSH1 0xA0 SHL SUB AND PUSH1 0x0 SWAP1 DUP2 MSTORE PUSH1 0x8 PUSH1 0x20 MSTORE PUSH1 0x40 SWAP1 KECCAK256 DUP1 SLOAD PUSH1 0x24 CALLDATALOAD SWAP2 SWAP1 DUP3 LT ISZERO PUSH2 0x25B JUMPI PUSH1 0x20 SWAP2 PUSH2 0x1290 SWAP2 PUSH2 0x218C JUMP JUMPDEST SWAP1 SLOAD PUSH1 0x40 MLOAD SWAP2 PUSH1 0x3 SHL SHR DUP2 MSTORE RETURN JUMPDEST CALLVALUE PUSH2 0x25B JUMPI PUSH1 0x40 CALLDATASIZE PUSH1 0x3 NOT ADD SLT PUSH2 0x25B JUMPI PUSH1 0x24 CALLDATALOAD PUSH1 0x1 PUSH1 0x1 PUSH1 0x40 SHL SUB DUP2 GT PUSH2 0x25B JUMPI PUSH2 0x12CE SWAP1 CALLDATASIZE SWAP1 PUSH1 0x4 ADD PUSH2 0x20D4 JUMP JUMPDEST PUSH1 0x4 CALLDATALOAD PUSH1 0x0 SWAP1 DUP2 MSTORE PUSH1 0x5 PUSH1 0x20 MSTORE PUSH1 0x40 SWAP1 KECCAK256 PUSH1 0x1 DUP2 ADD SLOAD PUSH1 0x1 PUSH1 0x1 PUSH1 0xA0 SHL SUB AND DUP1 ISZERO PUSH2 0x249 JUMPI PUSH1 0x7 DUP3 ADD SWAP2 DUP3 SLOAD SWAP2 PUSH1 0xFF DUP4 AND PUSH1 0x6 DUP2 LT ISZERO PUSH2 0x233 JUMPI PUSH1 0x1 SUB PUSH2 0x221 JUMPI PUSH1 0x3 DUP3 ADD SLOAD PUSH1 0x1 PUSH1 0x1 PUSH1 0xA0 SHL SUB AND ISZERO PUSH2 0x20F JUMPI CALLER EQ ISZERO SWAP1 DUP2 PUSH2 0x15C3 JUMPI JUMPDEST POP PUSH2 0x20F JUMPI PUSH1 0x4 CALLDATALOAD PUSH1 0x0 MSTORE PUSH1 0x7 PUSH1 0x20 MSTORE PUSH1 0x3 PUSH1 0x40 PUSH1 0x0 KECCAK256 ADD SLOAD PUSH2 0x15B1 JUMPI PUSH1 0xFF NOT AND PUSH1 0x4 OR SWAP1 SSTORE PUSH1 0x40 MLOAD PUSH2 0x135E DUP2 PUSH2 0x1F57 JUMP JUMPDEST PUSH1 0x4 CALLDATALOAD DUP2 MSTORE CALLER PUSH1 0x20 DUP3 ADD MSTORE PUSH2 0x1374 CALLDATASIZE DUP4 DUP6 PUSH2 0x222A JUMP JUMPDEST PUSH1 0x40 DUP3 ADD MSTORE TIMESTAMP PUSH1 0x60 DUP3 ADD MSTORE PUSH1 0x0 PUSH1 0x80 DUP3 ADD MSTORE PUSH1 0x0 PUSH1 0xA0 DUP3 ADD MSTORE PUSH1 0x0 PUSH1 0xC0 DUP3 ADD MSTORE PUSH1 0x0 PUSH1 0xE0 DUP3 ADD MSTORE PUSH1 0x4 CALLDATALOAD PUSH1 0x0 MSTORE PUSH1 0x7 PUSH1 0x20 MSTORE PUSH1 0x40 PUSH1 0x0 KECCAK256 SWAP1 DUP1 MLOAD DUP3 SSTORE PUSH1 0x1 DUP3 ADD PUSH1 0x1 DUP1 PUSH1 0xA0 SHL SUB PUSH1 0x20 DUP4 ADD MLOAD AND PUSH1 0x1 PUSH1 0x1 PUSH1 0x60 SHL SUB PUSH1 0xA0 SHL DUP3 SLOAD AND OR SWAP1 SSTORE PUSH1 0x40 DUP2 ADD MLOAD DUP1 MLOAD SWAP1 PUSH1 0x1 PUSH1 0x1 PUSH1 0x40 SHL SUB DUP3 GT PUSH2 0x5DD JUMPI PUSH2 0x13F5 PUSH1 0x2 DUP6 ADD SLOAD PUSH2 0x1F1D JUMP JUMPDEST PUSH1 0x1F DUP2 GT PUSH2 0x156A JUMPI JUMPDEST POP PUSH1 0x20 SWAP1 PUSH1 0x1F DUP4 GT PUSH1 0x1 EQ PUSH2 0x14F5 JUMPI SWAP2 DUP1 PUSH1 0x6 SWAP5 SWAP3 PUSH1 0xE0 SWAP5 PUSH1 0x0 SWAP3 PUSH2 0x14EA JUMPI JUMPDEST POP POP DUP2 PUSH1 0x1 SHL SWAP2 PUSH1 0x0 NOT SWAP1 PUSH1 0x3 SHL SHR NOT AND OR PUSH1 0x2 DUP6 ADD SSTORE JUMPDEST PUSH1 0x60 DUP2 ADD MLOAD PUSH1 0x3 DUP6 ADD SSTORE PUSH1 0x4 DUP5 ADD PUSH2 0x1460 PUSH1 0x80 DUP4 ADD MLOAD ISZERO ISZERO DUP3 SWAP1 PUSH1 0xFF DUP1 NOT DUP4 SLOAD AND SWAP2 ISZERO ISZERO AND OR SWAP1 SSTORE JUMP JUMPDEST PUSH1 0xA0 DUP3 ADD MLOAD DUP2 SLOAD PUSH2 0x100 PUSH1 0x1 PUSH1 0xA8 SHL SUB NOT AND PUSH1 0x8 SWAP2 SWAP1 SWAP2 SHL PUSH2 0x100 PUSH1 0x1 PUSH1 0xA8 SHL SUB AND OR SWAP1 SSTORE PUSH1 0xC0 DUP2 ADD MLOAD PUSH1 0x5 DUP6 ADD SSTORE ADD MLOAD SWAP2 ADD SSTORE PUSH1 0x40 DUP1 MLOAD PUSH1 0x20 DUP1 DUP3 MSTORE DUP2 ADD DUP4 SWAP1 MSTORE SWAP3 DUP3 SWAP2 DUP5 ADD CALLDATACOPY PUSH1 0x0 PUSH1 0x40 DUP3 DUP5 ADD ADD MSTORE PUSH32 0xA2E906264FB68532BC6B929F31717550B3696691AB4637269E02A7EF28FF683B CALLER SWAP3 PUSH1 0x40 DUP2 PUSH1 0x4 CALLDATALOAD SWAP5 PUSH1 0x1F DUP1 NOT SWAP2 ADD AND DUP2 ADD SUB ADD SWAP1 LOG3 STOP JUMPDEST ADD MLOAD SWAP1 POP DUP9 DUP1 PUSH2 0x141E JUMP JUMPDEST SWAP1 PUSH1 0x2 DUP6 ADD PUSH1 0x0 MSTORE PUSH1 0x20 PUSH1 0x0 KECCAK256 SWAP2 PUSH1 0x0 JUMPDEST PUSH1 0x1F NOT DUP6 AND DUP2 LT PUSH2 0x1552 JUMPI POP SWAP3 PUSH1 0x6 SWAP5 SWAP3 PUSH1 0x1 SWAP3 PUSH1 0xE0 SWAP6 DUP4 PUSH1 0x1F NOT DUP2 AND LT PUSH2 0x1539 JUMPI JUMPDEST POP POP POP DUP2 SHL ADD PUSH1 0x2 DUP6 ADD SSTORE PUSH2 0x1436 JUMP JUMPDEST ADD MLOAD PUSH1 0x0 NOT PUSH1 0xF8 DUP5 PUSH1 0x3 SHL AND SHR NOT AND SWAP1 SSTORE DUP9 DUP1 DUP1 PUSH2 0x1529 JUMP JUMPDEST SWAP2 SWAP3 PUSH1 0x20 PUSH1 0x1 DUP2 SWAP3 DUP7 DUP6 ADD MLOAD DUP2 SSTORE ADD SWAP5 ADD SWAP3 ADD PUSH2 0x1506 JUMP JUMPDEST PUSH1 0x2 DUP6 ADD PUSH1 0x0 MSTORE PUSH1 0x20 PUSH1 0x0 KECCAK256 PUSH1 0x1F DUP5 ADD PUSH1 0x5 SHR DUP2 ADD PUSH1 0x20 DUP6 LT PUSH2 0x15AA JUMPI JUMPDEST PUSH1 0x1F DUP4 ADD PUSH1 0x5 SHR DUP3 ADD DUP2 LT PUSH2 0x159E JUMPI POP POP PUSH2 0x13FE JUMP JUMPDEST PUSH1 0x0 DUP2 SSTORE PUSH1 0x1 ADD PUSH2 0x1588 JUMP JUMPDEST POP DUP1 PUSH2 0x1588 JUMP JUMPDEST PUSH1 0x40 MLOAD PUSH4 0x502C754B PUSH1 0xE0 SHL DUP2 MSTORE PUSH1 0x4 SWAP1 REVERT JUMPDEST PUSH1 0x2 ADD SLOAD PUSH1 0x1 PUSH1 0x1 PUSH1 0xA0 SHL SUB AND CALLER EQ ISZERO SWAP1 POP DUP6 PUSH2 0x132C JUMP JUMPDEST CALLVALUE PUSH2 0x25B JUMPI PUSH1 0x0 CALLDATASIZE PUSH1 0x3 NOT ADD SLT PUSH2 0x25B JUMPI PUSH2 0x15F4 PUSH2 0x21D4 JUMP JUMPDEST PUSH1 0x1 DUP1 SLOAD PUSH1 0x1 PUSH1 0x1 PUSH1 0xA0 SHL SUB NOT DUP2 AND SWAP1 SWAP2 SSTORE PUSH1 0x0 SWAP1 PUSH1 0x1 PUSH1 0x1 PUSH1 0xA0 SHL SUB AND PUSH32 0x8BE0079C531659141344CD1FD0A4F28419497F9722A3DAAFE3B4186F6B6457E0 DUP3 DUP1 LOG3 STOP JUMPDEST CALLVALUE PUSH2 0x25B JUMPI PUSH1 0x0 CALLDATASIZE PUSH1 0x3 NOT ADD SLT PUSH2 0x25B JUMPI PUSH1 0x20 PUSH1 0x2 SLOAD PUSH1 0x40 MLOAD SWAP1 DUP2 MSTORE RETURN JUMPDEST CALLVALUE PUSH2 0x25B JUMPI PUSH2 0x1664 CALLDATASIZE PUSH2 0x215A JUMP JUMPDEST SWAP1 PUSH1 0x0 MSTORE PUSH1 0x6 PUSH1 0x20 MSTORE PUSH1 0x40 PUSH1 0x0 KECCAK256 SWAP1 DUP2 SLOAD DUP2 LT ISZERO PUSH2 0x25B JUMPI PUSH2 0x1685 SWAP2 PUSH2 0x2170 JUMP JUMPDEST POP DUP1 SLOAD PUSH2 0x1694 PUSH1 0x1 DUP4 ADD PUSH2 0x1FCB JUMP JUMPDEST SWAP2 PUSH1 0x3 PUSH1 0xFF PUSH1 0x2 DUP4 ADD SLOAD AND SWAP2 ADD SLOAD PUSH2 0x16BE PUSH1 0x40 MLOAD SWAP5 DUP6 SWAP5 DUP6 MSTORE PUSH1 0x80 PUSH1 0x20 DUP7 ADD MSTORE PUSH1 0x80 DUP6 ADD SWAP1 PUSH2 0x2071 JUMP JUMPDEST SWAP2 ISZERO ISZERO PUSH1 0x40 DUP5 ADD MSTORE PUSH1 0x60 DUP4 ADD MSTORE SUB SWAP1 RETURN JUMPDEST CALLVALUE PUSH2 0x25B JUMPI PUSH1 0x20 DUP1 PUSH1 0x3 NOT CALLDATASIZE ADD SLT PUSH2 0x25B JUMPI PUSH1 0x1 PUSH1 0x1 PUSH1 0xA0 SHL SUB PUSH2 0x16F1 PUSH2 0x20BE JUMP JUMPDEST AND PUSH1 0x0 MSTORE PUSH1 0x8 DUP2 MSTORE PUSH1 0x40 PUSH1 0x0 KECCAK256 PUSH1 0x40 MLOAD SWAP1 DUP2 DUP4 DUP3 SLOAD SWAP2 DUP3 DUP2 MSTORE ADD SWAP1 DUP2 SWAP3 PUSH1 0x0 MSTORE DUP5 PUSH1 0x0 KECCAK256 SWAP1 PUSH1 0x0 JUMPDEST DUP7 DUP3 DUP3 LT PUSH2 0x176F JUMPI DUP7 DUP7 PUSH2 0x172F DUP3 DUP9 SUB DUP4 PUSH2 0x1FAA JUMP JUMPDEST PUSH1 0x40 MLOAD SWAP3 DUP4 SWAP3 DUP2 DUP5 ADD SWAP1 DUP3 DUP6 MSTORE MLOAD DUP1 SWAP2 MSTORE PUSH1 0x40 DUP5 ADD SWAP3 SWAP2 PUSH1 0x0 JUMPDEST DUP3 DUP2 LT PUSH2 0x1758 JUMPI POP POP POP POP SUB SWAP1 RETURN JUMPDEST DUP4 MLOAD DUP6 MSTORE DUP7 SWAP6 POP SWAP4 DUP2 ADD SWAP4 SWAP3 DUP2 ADD SWAP3 PUSH1 0x1 ADD PUSH2 0x1749 JUMP JUMPDEST DUP4 SLOAD DUP6 MSTORE SWAP1 SWAP4 ADD SWAP3 PUSH1 0x1 SWAP3 DUP4 ADD SWAP3 ADD PUSH2 0x1719 JUMP JUMPDEST CALLVALUE PUSH2 0x25B JUMPI PUSH1 0x20 CALLDATASIZE PUSH1 0x3 NOT ADD SLT PUSH2 0x25B JUMPI PUSH1 0x4 CALLDATALOAD PUSH2 0x179F PUSH2 0x22AE JUMP JUMPDEST DUP1 PUSH1 0x0 MSTORE PUSH1 0x5 PUSH1 0x20 MSTORE PUSH1 0x40 PUSH1 0x0 KECCAK256 SWAP1 PUSH1 0x1 DUP3 ADD PUSH1 0x1 DUP1 PUSH1 0xA0 SHL SUB SWAP1 DUP2 DUP2 SLOAD AND SWAP2 DUP3 ISZERO PUSH2 0x249 JUMPI DUP3 CALLER SUB PUSH2 0x20F JUMPI PUSH1 0x7 DUP6 ADD SWAP2 DUP3 SLOAD PUSH1 0xFF DUP2 AND PUSH1 0x6 DUP2 LT ISZERO PUSH2 0x233 JUMPI PUSH1 0x1 SUB PUSH2 0x221 JUMPI PUSH1 0x6 DUP8 ADD SLOAD TIMESTAMP LT PUSH2 0x1845 JUMPI DUP7 PUSH32 0xFC31A7DDBE933AA6E67F3C98C183FBC87ADDD2B602FCFB10238D2F85CF026617 SWAP6 PUSH1 0x20 SWAP6 PUSH1 0x3 PUSH2 0xAA0 SWAP5 PUSH2 0x1833 PUSH1 0x4 PUSH1 0xA SWAP14 ADD SLOAD PUSH1 0x9 DUP8 ADD SLOAD SWAP1 PUSH2 0x22EE JUMP JUMPDEST DUP1 SWAP13 DUP2 SWAP7 ADD SSTORE PUSH1 0xFF NOT AND OR SWAP1 SSTORE PUSH2 0x230E JUMP JUMPDEST PUSH1 0x40 MLOAD PUSH4 0x5B3D0EDD PUSH1 0xE0 SHL DUP2 MSTORE PUSH1 0x4 SWAP1 REVERT JUMPDEST PUSH2 0x1860 CALLDATASIZE PUSH2 0x2101 JUMP JUMPDEST SWAP5 SWAP4 PUSH2 0x186E SWAP4 SWAP3 SWAP2 SWAP4 PUSH2 0x22AE JUMP JUMPDEST PUSH1 0x1 PUSH1 0x1 PUSH1 0xA0 SHL SUB DUP6 AND ISZERO PUSH2 0x999 JUMPI DUP3 ISZERO PUSH2 0x1EB JUMPI DUP3 CALLVALUE SUB PUSH2 0x1EB JUMPI TIMESTAMP DUP3 GT ISZERO PUSH2 0x1FD JUMPI PUSH2 0x1944 PUSH2 0x67F PUSH2 0x18ED PUSH1 0x2 SLOAD PUSH2 0x18A7 DUP2 PUSH2 0x2200 JUMP JUMPDEST PUSH1 0x2 SSTORE PUSH1 0x40 MLOAD SWAP3 DUP4 SWAP2 TIMESTAMP DUP10 DUP13 CALLER PUSH1 0x20 DUP8 ADD SWAP4 SWAP2 SWAP1 PUSH1 0x88 SWAP6 SWAP4 SWAP2 PUSH1 0x1 PUSH1 0x1 PUSH1 0x60 SHL SUB NOT DUP1 SWAP3 PUSH1 0x60 SHL AND DUP7 MSTORE PUSH1 0x60 SHL AND PUSH1 0x14 DUP6 ADD MSTORE PUSH1 0x28 DUP5 ADD MSTORE PUSH1 0x48 DUP4 ADD MSTORE PUSH1 0x68 DUP3 ADD MSTORE ADD SWAP1 JUMP JUMPDEST PUSH1 0x20 DUP2 MLOAD SWAP2 ADD KECCAK256 SWAP5 PUSH1 0x40 MLOAD SWAP8 PUSH2 0x1902 DUP10 PUSH2 0x1F73 JUMP JUMPDEST DUP7 DUP10 MSTORE CALLER PUSH1 0x20 DUP11 ADD MSTORE PUSH1 0x1 PUSH1 0x1 PUSH1 0xA0 SHL SUB DUP9 DUP2 AND PUSH1 0x40 DUP12 ADD MSTORE DUP5 AND PUSH1 0x60 DUP11 ADD MSTORE PUSH1 0x80 DUP10 ADD DUP7 SWAP1 MSTORE TIMESTAMP PUSH1 0xA0 DUP11 ADD MSTORE PUSH1 0xC0 DUP10 ADD DUP6 SWAP1 MSTORE PUSH1 0x1 PUSH1 0xE0 DUP11 ADD MSTORE CALLDATASIZE SWAP2 PUSH2 0x222A JUMP JUMPDEST PUSH2 0x100 DUP8 ADD MSTORE PUSH1 0x0 PUSH2 0x120 DUP8 ADD MSTORE PUSH1 0x0 PUSH2 0x140 DUP8 ADD MSTORE DUP4 PUSH1 0x0 MSTORE PUSH1 0x5 PUSH1 0x20 MSTORE PUSH1 0x40 PUSH1 0x0 KECCAK256 SWAP5 DUP7 MLOAD DUP7 SSTORE PUSH1 0x1 DUP7 ADD PUSH1 0x1 DUP1 PUSH1 0xA0 SHL SUB PUSH1 0x20 DUP10 ADD MLOAD AND SWAP1 PUSH1 0x1 PUSH1 0x1 PUSH1 0x60 SHL SUB PUSH1 0xA0 SHL SWAP2 DUP3 DUP3 SLOAD AND OR SWAP1 SSTORE PUSH1 0x2 DUP8 ADD PUSH1 0x1 DUP1 PUSH1 0xA0 SHL SUB PUSH1 0x40 DUP11 ADD MLOAD AND DUP3 DUP3 SLOAD AND OR SWAP1 SSTORE PUSH1 0x3 DUP8 ADD SWAP1 PUSH1 0x1 DUP1 PUSH1 0xA0 SHL SUB PUSH1 0x60 DUP11 ADD MLOAD AND SWAP1 DUP3 SLOAD AND OR SWAP1 SSTORE PUSH1 0x80 DUP8 ADD MLOAD PUSH1 0x4 DUP8 ADD SSTORE PUSH1 0xA0 DUP8 ADD MLOAD PUSH1 0x5 DUP8 ADD SSTORE PUSH1 0xC0 DUP8 ADD MLOAD PUSH1 0x6 DUP8 ADD SSTORE PUSH1 0xE0 DUP8 ADD MLOAD PUSH1 0x6 DUP2 LT ISZERO PUSH2 0x233 JUMPI PUSH2 0x19FC SWAP1 PUSH1 0x7 DUP9 ADD PUSH2 0x2261 JUMP JUMPDEST PUSH2 0x100 DUP8 ADD MLOAD SWAP7 DUP8 MLOAD PUSH1 0x1 PUSH1 0x1 PUSH1 0x40 SHL SUB DUP2 GT PUSH2 0x5DD JUMPI PUSH2 0x1A20 PUSH1 0x8 DUP10 ADD SLOAD PUSH2 0x1F1D JUMP JUMPDEST SWAP9 PUSH1 0x1F DUP11 GT PUSH2 0x1C18 JUMPI JUMPDEST PUSH1 0x20 SWAP10 POP DUP10 SWAP1 PUSH1 0x1F DUP4 GT PUSH1 0x1 EQ PUSH2 0x1B67 JUMPI PUSH1 0x40 SWAP7 SWAP5 DUP10 SWAP11 PUSH1 0xA PUSH2 0x140 PUSH32 0xD938B422B43F203B43D875E6185C3199A188DF613005609FDB53BF610D39D735 SWAP12 SWAP10 SWAP8 DUP8 DUP15 SWAP9 PUSH1 0x0 DUP1 MLOAD PUSH1 0x20 PUSH2 0x236A DUP4 CODECOPY DUP2 MLOAD SWAP2 MSTORE SWAP9 PUSH2 0x1B1F SWAP9 PUSH1 0x0 SWAP3 PUSH2 0x1B5C JUMPI JUMPDEST POP POP DUP2 PUSH1 0x1 SHL SWAP2 PUSH1 0x0 NOT SWAP1 PUSH1 0x3 SHL SHR NOT AND OR PUSH1 0x8 DUP6 ADD SSTORE JUMPDEST PUSH2 0x120 DUP2 ADD MLOAD PUSH1 0x9 DUP6 ADD SSTORE ADD MLOAD SWAP2 ADD SSTORE CALLER PUSH1 0x0 MSTORE PUSH1 0x8 DUP13 MSTORE PUSH2 0x1AC6 DUP5 DUP10 PUSH1 0x0 KECCAK256 PUSH2 0x2279 JUMP JUMPDEST PUSH1 0x1 DUP1 PUSH1 0xA0 SHL SUB DUP2 AND PUSH1 0x0 MSTORE PUSH1 0x8 DUP13 MSTORE PUSH2 0x1AE3 DUP5 DUP10 PUSH1 0x0 KECCAK256 PUSH2 0x2279 JUMP JUMPDEST PUSH1 0x1 PUSH1 0x1 PUSH1 0xA0 SHL SUB DUP6 AND PUSH2 0x1B3A JUMPI JUMPDEST DUP8 MLOAD PUSH1 0x1 PUSH1 0x1 PUSH1 0xA0 SHL SUB SWAP6 DUP7 AND DUP2 MSTORE PUSH1 0x20 DUP2 ADD DUP9 SWAP1 MSTORE PUSH1 0x40 DUP2 ADD SWAP7 SWAP1 SWAP7 MSTORE SWAP1 SWAP4 AND SWAP4 CALLER SWAP4 DUP2 SWAP1 PUSH1 0x60 DUP3 ADD SWAP1 JUMP JUMPDEST SUB SWAP1 LOG4 DUP2 MLOAD SWAP1 DUP2 MSTORE TIMESTAMP DUP7 DUP3 ADD MSTORE LOG2 PUSH1 0x1 PUSH1 0x0 SSTORE PUSH1 0x40 MLOAD SWAP1 DUP2 MSTORE RETURN JUMPDEST PUSH1 0x1 DUP1 PUSH1 0xA0 SHL SUB DUP6 AND PUSH1 0x0 MSTORE PUSH1 0x8 DUP13 MSTORE PUSH2 0x1B57 DUP5 DUP10 PUSH1 0x0 KECCAK256 PUSH2 0x2279 JUMP JUMPDEST PUSH2 0x1AF2 JUMP JUMPDEST ADD MLOAD SWAP1 POP CODESIZE DUP1 PUSH2 0x1A89 JUMP JUMPDEST SWAP1 PUSH1 0x8 DUP11 ADD PUSH1 0x0 MSTORE DUP11 PUSH1 0x0 KECCAK256 SWAP2 PUSH1 0x0 JUMPDEST PUSH1 0x1F NOT DUP6 AND DUP2 LT PUSH2 0x1C01 JUMPI POP SWAP5 DUP10 SWAP11 PUSH1 0xA PUSH2 0x140 PUSH32 0xD938B422B43F203B43D875E6185C3199A188DF613005609FDB53BF610D39D735 SWAP12 SWAP10 SWAP8 PUSH1 0x1 DUP9 DUP16 SWAP10 SWAP9 PUSH2 0x1B1F SWAP9 PUSH1 0x40 SWAP16 SWAP14 PUSH1 0x0 DUP1 MLOAD PUSH1 0x20 PUSH2 0x236A DUP4 CODECOPY DUP2 MLOAD SWAP2 MSTORE SWAP12 PUSH1 0x1F NOT DUP2 AND LT PUSH2 0x1BE8 JUMPI JUMPDEST POP POP POP DUP2 SHL ADD PUSH1 0x8 DUP6 ADD SSTORE PUSH2 0x1AA1 JUMP JUMPDEST ADD MLOAD PUSH1 0x0 NOT PUSH1 0xF8 DUP5 PUSH1 0x3 SHL AND SHR NOT AND SWAP1 SSTORE CODESIZE DUP1 DUP1 PUSH2 0x1BD8 JUMP JUMPDEST SWAP2 SWAP3 DUP13 PUSH1 0x1 DUP2 SWAP3 DUP7 DUP6 ADD MLOAD DUP2 SSTORE ADD SWAP5 ADD SWAP3 ADD PUSH2 0x1B77 JUMP JUMPDEST PUSH1 0x8 DUP10 ADD PUSH1 0x0 MSTORE PUSH1 0x20 PUSH1 0x0 KECCAK256 PUSH1 0x1F DUP4 ADD PUSH1 0x5 SHR DUP2 ADD PUSH1 0x20 DUP5 LT PUSH2 0x1C58 JUMPI JUMPDEST PUSH1 0x1F DUP13 ADD PUSH1 0x5 SHR DUP3 ADD DUP2 LT PUSH2 0x1C4C JUMPI POP POP PUSH2 0x1A2A JUMP JUMPDEST PUSH1 0x0 DUP2 SSTORE PUSH1 0x1 ADD PUSH2 0x1C36 JUMP JUMPDEST POP DUP1 PUSH2 0x1C36 JUMP JUMPDEST CALLVALUE PUSH2 0x25B JUMPI PUSH1 0x20 CALLDATASIZE PUSH1 0x3 NOT ADD SLT PUSH2 0x25B JUMPI PUSH1 0x4 CALLDATALOAD PUSH1 0x0 MSTORE PUSH1 0x5 PUSH1 0x20 MSTORE PUSH1 0x40 PUSH1 0x0 KECCAK256 DUP1 SLOAD PUSH1 0x1 DUP1 PUSH1 0xA0 SHL SUB SWAP2 DUP3 PUSH1 0x1 DUP3 ADD SLOAD AND SWAP3 PUSH2 0x1D19 DUP2 PUSH1 0x2 DUP5 ADD SLOAD AND SWAP2 PUSH1 0x3 DUP5 ADD SLOAD AND PUSH2 0x1D07 PUSH1 0x4 DUP6 ADD SLOAD PUSH1 0x5 DUP7 ADD SLOAD PUSH1 0x6 DUP8 ADD SLOAD SWAP1 PUSH1 0xFF PUSH1 0x7 DUP10 ADD SLOAD AND SWAP3 PUSH2 0x1CCB PUSH1 0x8 DUP11 ADD PUSH2 0x1FCB JUMP JUMPDEST SWAP6 PUSH1 0xA PUSH1 0x9 DUP12 ADD SLOAD SWAP11 ADD SLOAD SWAP9 PUSH1 0x40 MLOAD SWAP13 DUP14 SWAP13 DUP14 MSTORE PUSH1 0x20 DUP14 ADD MSTORE PUSH1 0x40 DUP13 ADD MSTORE PUSH1 0x60 DUP12 ADD MSTORE PUSH1 0x80 DUP11 ADD MSTORE PUSH1 0xA0 DUP10 ADD MSTORE PUSH1 0xC0 DUP9 ADD MSTORE PUSH1 0xE0 DUP8 ADD SWAP1 PUSH2 0x20B1 JUMP JUMPDEST PUSH2 0x160 DUP1 PUSH2 0x100 DUP8 ADD MSTORE DUP6 ADD SWAP1 PUSH2 0x2071 JUMP JUMPDEST SWAP2 PUSH2 0x120 DUP5 ADD MSTORE PUSH2 0x140 DUP4 ADD MSTORE SUB SWAP1 RETURN JUMPDEST CALLVALUE PUSH2 0x25B JUMPI PUSH1 0x20 CALLDATASIZE PUSH1 0x3 NOT ADD SLT PUSH2 0x25B JUMPI PUSH2 0x1D43 PUSH2 0x21D4 JUMP JUMPDEST PUSH1 0x4 CALLDATALOAD PUSH1 0x3 SSTORE STOP JUMPDEST CALLVALUE PUSH2 0x25B JUMPI PUSH1 0x20 DUP1 PUSH1 0x3 NOT CALLDATASIZE ADD SLT PUSH2 0x25B JUMPI PUSH1 0x0 PUSH1 0xE0 PUSH1 0x40 MLOAD PUSH2 0x1D6D DUP2 PUSH2 0x1F57 JUMP JUMPDEST DUP3 DUP2 MSTORE DUP3 DUP5 DUP3 ADD MSTORE PUSH1 0x60 PUSH1 0x40 DUP3 ADD MSTORE DUP3 PUSH1 0x60 DUP3 ADD MSTORE DUP3 PUSH1 0x80 DUP3 ADD MSTORE DUP3 PUSH1 0xA0 DUP3 ADD MSTORE DUP3 PUSH1 0xC0 DUP3 ADD MSTORE ADD MSTORE PUSH1 0x4 CALLDATALOAD PUSH1 0x0 MSTORE PUSH1 0x7 DUP2 MSTORE PUSH1 0x40 PUSH1 0x0 KECCAK256 PUSH1 0x40 MLOAD SWAP1 PUSH2 0x1DB2 DUP3 PUSH2 0x1F57 JUMP JUMPDEST DUP1 SLOAD DUP3 MSTORE PUSH1 0x1 DUP2 ADD SLOAD PUSH1 0x1 PUSH1 0x1 PUSH1 0xA0 SHL SUB SWAP1 DUP2 AND DUP5 DUP5 ADD SWAP1 DUP2 MSTORE SWAP1 SWAP2 SWAP1 PUSH2 0x1DDB PUSH1 0x2 DUP4 ADD PUSH2 0x1FCB JUMP JUMPDEST SWAP2 PUSH1 0x40 DUP6 ADD SWAP3 DUP4 MSTORE PUSH1 0x3 DUP2 ADD SLOAD SWAP4 PUSH1 0x60 DUP7 ADD SWAP5 DUP6 MSTORE PUSH1 0x4 DUP3 ADD SLOAD PUSH1 0x80 DUP8 ADD SWAP5 PUSH1 0xFF DUP3 AND ISZERO ISZERO DUP7 MSTORE DUP3 PUSH1 0xA0 DUP10 ADD SWAP3 PUSH1 0x8 SHR AND DUP3 MSTORE DUP3 PUSH1 0x6 PUSH1 0x5 DUP7 ADD SLOAD SWAP6 PUSH1 0xC0 DUP12 ADD SWAP7 DUP8 MSTORE ADD SLOAD SWAP6 PUSH1 0xE0 DUP11 ADD SWAP7 DUP8 MSTORE PUSH1 0x40 MLOAD SWAP11 DUP12 SWAP11 DUP2 DUP13 MSTORE MLOAD SWAP1 DUP12 ADD MSTORE MLOAD AND PUSH1 0x40 DUP10 ADD MSTORE MLOAD SWAP5 PUSH2 0x1E57 PUSH2 0x100 SWAP7 DUP8 PUSH1 0x60 DUP12 ADD MSTORE PUSH2 0x120 DUP11 ADD SWAP1 PUSH2 0x2071 JUMP JUMPDEST SWAP7 MLOAD PUSH1 0x80 DUP10 ADD MSTORE MLOAD ISZERO ISZERO PUSH1 0xA0 DUP9 ADD MSTORE MLOAD AND PUSH1 0xC0 DUP7 ADD MSTORE MLOAD PUSH1 0xE0 DUP6 ADD MSTORE MLOAD SWAP1 DUP4 ADD MSTORE SUB SWAP1 RETURN JUMPDEST CALLVALUE PUSH2 0x25B JUMPI PUSH1 0x20 CALLDATASIZE PUSH1 0x3 NOT ADD SLT PUSH2 0x25B JUMPI PUSH1 0x4 CALLDATALOAD PUSH1 0x0 SWAP1 DUP2 MSTORE PUSH1 0x7 PUSH1 0x20 MSTORE PUSH1 0x40 SWAP1 KECCAK256 DUP1 SLOAD PUSH1 0x1 DUP3 ADD SLOAD PUSH1 0x1 PUSH1 0x1 PUSH1 0xA0 SHL SUB SWAP1 DUP2 AND SWAP3 PUSH2 0x1EBD PUSH1 0x2 DUP3 ADD PUSH2 0x1FCB JUMP JUMPDEST SWAP1 PUSH1 0x3 DUP2 ADD SLOAD SWAP3 PUSH1 0x4 DUP3 ADD SLOAD PUSH2 0x1EF5 PUSH1 0x6 PUSH1 0x5 DUP6 ADD SLOAD SWAP5 ADD SLOAD SWAP5 PUSH1 0x40 MLOAD SWAP9 DUP10 SWAP9 DUP10 MSTORE PUSH1 0x20 DUP10 ADD MSTORE PUSH2 0x100 DUP1 PUSH1 0x40 DUP11 ADD MSTORE DUP9 ADD SWAP1 PUSH2 0x2071 JUMP JUMPDEST SWAP5 PUSH1 0x60 DUP8 ADD MSTORE PUSH1 0xFF DUP2 AND ISZERO ISZERO PUSH1 0x80 DUP8 ADD MSTORE PUSH1 0x8 SHR AND PUSH1 0xA0 DUP6 ADD MSTORE PUSH1 0xC0 DUP5 ADD MSTORE PUSH1 0xE0 DUP4 ADD MSTORE SUB SWAP1 RETURN JUMPDEST SWAP1 PUSH1 0x1 DUP3 DUP2 SHR SWAP3 AND DUP1 ISZERO PUSH2 0x1F4D JUMPI JUMPDEST PUSH1 0x20 DUP4 LT EQ PUSH2 0x1F37 JUMPI JUMP JUMPDEST PUSH4 0x4E487B71 PUSH1 0xE0 SHL PUSH1 0x0 MSTORE PUSH1 0x22 PUSH1 0x4 MSTORE PUSH1 0x24 PUSH1 0x0 REVERT JUMPDEST SWAP2 PUSH1 0x7F AND SWAP2 PUSH2 0x1F2C JUMP JUMPDEST PUSH2 0x100 DUP2 ADD SWAP1 DUP2 LT PUSH1 0x1 PUSH1 0x1 PUSH1 0x40 SHL SUB DUP3 GT OR PUSH2 0x5DD JUMPI PUSH1 0x40 MSTORE JUMP JUMPDEST PUSH2 0x160 DUP2 ADD SWAP1 DUP2 LT PUSH1 0x1 PUSH1 0x1 PUSH1 0x40 SHL SUB DUP3 GT OR PUSH2 0x5DD JUMPI PUSH1 0x40 MSTORE JUMP JUMPDEST PUSH1 0x80 DUP2 ADD SWAP1 DUP2 LT PUSH1 0x1 PUSH1 0x1 PUSH1 0x40 SHL SUB DUP3 GT OR PUSH2 0x5DD JUMPI PUSH1 0x40 MSTORE JUMP JUMPDEST SWAP1 PUSH1 0x1F DUP1 NOT SWAP2 ADD AND DUP2 ADD SWAP1 DUP2 LT PUSH1 0x1 PUSH1 0x1 PUSH1 0x40 SHL SUB DUP3 GT OR PUSH2 0x5DD JUMPI PUSH1 0x40 MSTORE JUMP JUMPDEST SWAP1 PUSH1 0x40 MLOAD SWAP2 DUP3 PUSH1 0x0 DUP3 SLOAD SWAP3 PUSH2 0x1FDF DUP5 PUSH2 0x1F1D JUMP JUMPDEST SWAP1 DUP2 DUP5 MSTORE PUSH1 0x1 SWAP5 DUP6 DUP2 AND SWAP1 DUP2 PUSH1 0x0 EQ PUSH2 0x204E JUMPI POP PUSH1 0x1 EQ PUSH2 0x200B JUMPI JUMPDEST POP POP PUSH2 0x2009 SWAP3 POP SUB DUP4 PUSH2 0x1FAA JUMP JUMPDEST JUMP JUMPDEST SWAP1 SWAP4 SWAP2 POP PUSH1 0x0 MSTORE PUSH1 0x20 SWAP1 DUP2 PUSH1 0x0 KECCAK256 SWAP4 PUSH1 0x0 SWAP2 JUMPDEST DUP2 DUP4 LT PUSH2 0x2036 JUMPI POP POP PUSH2 0x2009 SWAP4 POP DUP3 ADD ADD CODESIZE DUP1 PUSH2 0x1FFB JUMP JUMPDEST DUP6 SLOAD DUP9 DUP5 ADD DUP6 ADD MSTORE SWAP5 DUP6 ADD SWAP5 DUP8 SWAP5 POP SWAP2 DUP4 ADD SWAP2 PUSH2 0x201E JUMP JUMPDEST SWAP2 POP POP PUSH2 0x2009 SWAP5 POP PUSH1 0x20 SWAP3 POP PUSH1 0xFF NOT AND DUP3 DUP5 ADD MSTORE ISZERO ISZERO PUSH1 0x5 SHL DUP3 ADD ADD CODESIZE DUP1 PUSH2 0x1FFB JUMP JUMPDEST SWAP2 SWAP1 DUP3 MLOAD SWAP3 DUP4 DUP3 MSTORE PUSH1 0x0 JUMPDEST DUP5 DUP2 LT PUSH2 0x209D JUMPI POP POP DUP3 PUSH1 0x0 PUSH1 0x20 DUP1 SWAP5 SWAP6 DUP5 ADD ADD MSTORE PUSH1 0x1F DUP1 NOT SWAP2 ADD AND ADD ADD SWAP1 JUMP JUMPDEST PUSH1 0x20 DUP2 DUP4 ADD DUP2 ADD MLOAD DUP5 DUP4 ADD DUP3 ADD MSTORE ADD PUSH2 0x207C JUMP JUMPDEST SWAP1 PUSH1 0x6 DUP3 LT ISZERO PUSH2 0x233 JUMPI MSTORE JUMP JUMPDEST PUSH1 0x4 CALLDATALOAD SWAP1 PUSH1 0x1 PUSH1 0x1 PUSH1 0xA0 SHL SUB DUP3 AND DUP3 SUB PUSH2 0x25B JUMPI JUMP JUMPDEST SWAP2 DUP2 PUSH1 0x1F DUP5 ADD SLT ISZERO PUSH2 0x25B JUMPI DUP3 CALLDATALOAD SWAP2 PUSH1 0x1 PUSH1 0x1 PUSH1 0x40 SHL SUB DUP4 GT PUSH2 0x25B JUMPI PUSH1 0x20 DUP4 DUP2 DUP7 ADD SWAP6 ADD ADD GT PUSH2 0x25B JUMPI JUMP JUMPDEST PUSH1 0xA0 PUSH1 0x3 NOT DUP3 ADD SLT PUSH2 0x25B JUMPI PUSH1 0x1 PUSH1 0x1 PUSH1 0xA0 SHL SUB SWAP2 PUSH1 0x4 CALLDATALOAD DUP4 DUP2 AND DUP2 SUB PUSH2 0x25B JUMPI SWAP3 PUSH1 0x24 CALLDATALOAD SWAP1 DUP2 AND DUP2 SUB PUSH2 0x25B JUMPI SWAP2 PUSH1 0x44 CALLDATALOAD SWAP2 PUSH1 0x64 CALLDATALOAD SWAP2 PUSH1 0x84 CALLDATALOAD SWAP1 PUSH1 0x1 PUSH1 0x1 PUSH1 0x40 SHL SUB DUP3 GT PUSH2 0x25B JUMPI PUSH2 0x2156 SWAP2 PUSH1 0x4 ADD PUSH2 0x20D4 JUMP JUMPDEST SWAP1 SWAP2 JUMP JUMPDEST PUSH1 0x40 SWAP1 PUSH1 0x3 NOT ADD SLT PUSH2 0x25B JUMPI PUSH1 0x4 CALLDATALOAD SWAP1 PUSH1 0x24 CALLDATALOAD SWAP1 JUMP JUMPDEST DUP1 SLOAD DUP3 LT ISZERO PUSH2 0x11FB JUMPI PUSH1 0x0 MSTORE PUSH1 0x20 PUSH1 0x0 KECCAK256 SWAP1 PUSH1 0x2 SHL ADD SWAP1 PUSH1 0x0 SWAP1 JUMP JUMPDEST DUP1 SLOAD DUP3 LT ISZERO PUSH2 0x11FB JUMPI PUSH1 0x0 MSTORE PUSH1 0x20 PUSH1 0x0 KECCAK256 ADD SWAP1 PUSH1 0x0 SWAP1 JUMP JUMPDEST SWAP2 DUP2 PUSH1 0x1F DUP5 ADD SLT ISZERO PUSH2 0x25B JUMPI DUP3 CALLDATALOAD SWAP2 PUSH1 0x1 PUSH1 0x1 PUSH1 0x40 SHL SUB DUP4 GT PUSH2 0x25B JUMPI PUSH1 0x20 DUP1 DUP6 ADD SWAP5 DUP5 PUSH1 0x5 SHL ADD ADD GT PUSH2 0x25B JUMPI JUMP JUMPDEST PUSH1 0x1 SLOAD PUSH1 0x1 PUSH1 0x1 PUSH1 0xA0 SHL SUB AND CALLER SUB PUSH2 0x21E8 JUMPI JUMP JUMPDEST PUSH1 0x40 MLOAD PUSH4 0x118CDAA7 PUSH1 0xE0 SHL DUP2 MSTORE CALLER PUSH1 0x4 DUP3 ADD MSTORE PUSH1 0x24 SWAP1 REVERT JUMPDEST PUSH1 0x0 NOT DUP2 EQ PUSH2 0x1109 JUMPI PUSH1 0x1 ADD SWAP1 JUMP JUMPDEST PUSH1 0x1 PUSH1 0x1 PUSH1 0x40 SHL SUB DUP2 GT PUSH2 0x5DD JUMPI PUSH1 0x1F ADD PUSH1 0x1F NOT AND PUSH1 0x20 ADD SWAP1 JUMP JUMPDEST SWAP3 SWAP2 SWAP3 PUSH2 0x2236 DUP3 PUSH2 0x220F JUMP JUMPDEST SWAP2 PUSH2 0x2244 PUSH1 0x40 MLOAD SWAP4 DUP5 PUSH2 0x1FAA JUMP JUMPDEST DUP3 SWAP5 DUP2 DUP5 MSTORE DUP2 DUP4 ADD GT PUSH2 0x25B JUMPI DUP3 DUP2 PUSH1 0x20 SWAP4 DUP5 PUSH1 0x0 SWAP7 ADD CALLDATACOPY ADD ADD MSTORE JUMP JUMPDEST SWAP1 PUSH1 0x6 DUP2 LT ISZERO PUSH2 0x233 JUMPI PUSH1 0xFF DUP1 NOT DUP4 SLOAD AND SWAP2 AND OR SWAP1 SSTORE JUMP JUMPDEST DUP1 SLOAD PUSH1 0x1 PUSH1 0x40 SHL DUP2 LT ISZERO PUSH2 0x5DD JUMPI PUSH2 0x2296 SWAP2 PUSH1 0x1 DUP3 ADD DUP2 SSTORE PUSH2 0x218C JUMP JUMPDEST DUP2 SWAP3 SWAP2 SLOAD SWAP1 PUSH1 0x3 SHL SWAP2 DUP3 SHL SWAP2 PUSH1 0x0 NOT SWAP1 SHL NOT AND OR SWAP1 SSTORE JUMP JUMPDEST PUSH1 0x2 PUSH1 0x0 SLOAD EQ PUSH2 0x22BF JUMPI PUSH1 0x2 PUSH1 0x0 SSTORE JUMP JUMPDEST PUSH1 0x40 MLOAD PUSH4 0x3EE5AEB5 PUSH1 0xE0 SHL DUP2 MSTORE PUSH1 0x4 SWAP1 REVERT JUMPDEST SWAP2 SWAP1 DUP2 LT ISZERO PUSH2 0x11FB JUMPI PUSH1 0x5 SHL ADD SWAP1 JUMP JUMPDEST SWAP2 SWAP1 DUP3 ADD DUP1 SWAP3 GT PUSH2 0x1109 JUMPI JUMP JUMPDEST SWAP2 SWAP1 DUP3 SUB SWAP2 DUP3 GT PUSH2 0x1109 JUMPI JUMP JUMPDEST DUP2 DUP2 MUL SWAP3 SWAP2 DUP2 ISZERO SWAP2 DUP5 DIV EQ OR ISZERO PUSH2 0x1109 JUMPI JUMP JUMPDEST PUSH1 0x0 SWAP2 DUP3 SWAP2 DUP3 SWAP2 DUP3 SWAP2 PUSH1 0x1 PUSH1 0x1 PUSH1 0xA0 SHL SUB AND GAS CALL RETURNDATASIZE ISZERO PUSH2 0x2364 JUMPI RETURNDATASIZE PUSH2 0x2332 DUP2 PUSH2 0x220F JUMP JUMPDEST SWAP1 PUSH2 0x2340 PUSH1 0x40 MLOAD SWAP3 DUP4 PUSH2 0x1FAA JUMP JUMPDEST DUP2 MSTORE PUSH1 0x0 PUSH1 0x20 RETURNDATASIZE SWAP3 ADD RETURNDATACOPY JUMPDEST ISZERO PUSH2 0x2352 JUMPI JUMP JUMPDEST PUSH1 0x40 MLOAD PUSH4 0x12171D83 PUSH1 0xE3 SHL DUP2 MSTORE PUSH1 0x4 SWAP1 REVERT JUMPDEST PUSH2 0x234B JUMP INVALID 0xDE SWAP1 EXTCODESIZE 0xA8 0x2B PUSH21 0x4662226413F30D7E7D0960CEC2D77F2318D23DD8B1 CALLDATALOAD PUSH8 0x3A8F3BA264697066 PUSH20 0x582212202720F4D5B0C1E8F970D25540A2D27688 0xE3 0x5D 0xC8 0xDF 0x2A 0x27 PUSH4 0xE8D09098 MSIZE 0x4E SWAP1 0xBB EXTCODESIZE PUSH5 0x736F6C6343 STOP ADDMOD EQ STOP CALLER "},"methodIdentifiers":{"addMilestones(bytes32,uint256[],string[])":"9067fcdf","completeMilestone(bytes32,uint256)":"b3da4ce2","createAndFundEscrow(address,address,uint256,uint256,string)":"447336f9","createDispute(bytes32,string)":"7cbc6b75","createEscrow(address,address,uint256,uint256,string)":"d27dc2db","disputeFee()":"b9ce896b","disputes(bytes32)":"11be1997","escrowCount()":"675ac67a","escrows(bytes32)":"2d83549c","feeCollector()":"c415b95c","fundEscrow(bytes32)":"f8e65d61","getDispute(bytes32)":"136ba6aa","getEscrow(bytes32)":"f023b811","getMilestones(bytes32)":"ea4a873c","getUserEscrows(address)":"5ccea85e","milestones(bytes32,uint256)":"669c8cba","owner()":"8da5cb5b","refundEscrow(bytes32)":"47aed508","releaseEscrow(bytes32)":"bf89fc61","renounceOwnership()":"715018a6","resolveDispute(bytes32,uint256,uint256)":"b75f1861","setDisputeFee(uint256)":"17299c04","setFeeCollector(address)":"a42dce80","transferOwnership(address)":"f2fde38b","userEscrows(address,uint256)":"7f944dd0"}}}}}