{"contracts/StealthRegistry.sol":{"ArcPayStealthRegistry":{"abi":[{"inputs":[],"stateMutability":"nonpayable","type":"constructor"},{"inputs":[],"name":"AlreadyClaimed","type":"error"},{"inputs":[],"name":"AnnouncementNotFound","type":"error"},{"inputs":[],"name":"InvalidAddress","type":"error"},{"inputs":[],"name":"InvalidAmount","type":"error"},{"inputs":[],"name":"InvalidPubKey","type":"error"},{"inputs":[],"name":"MetaAddressAlreadyRegistered","type":"error"},{"inputs":[],"name":"MetaAddressInactive","type":"error"},{"inputs":[],"name":"MetaAddressNotRegistered","type":"error"},{"inputs":[],"name":"NotAuthorized","type":"error"},{"inputs":[],"name":"ReentrancyGuardReentrantCall","type":"error"},{"inputs":[],"name":"TransferFailed","type":"error"},{"anonymous":false,"inputs":[{"indexed":true,"internalType":"address","name":"user","type":"address"}],"name":"MetaAddressDeactivated","type":"event"},{"anonymous":false,"inputs":[{"indexed":true,"internalType":"address","name":"user","type":"address"},{"indexed":false,"internalType":"bytes","name":"spendingPubKey","type":"bytes"},{"indexed":false,"internalType":"bytes","name":"viewingPubKey","type":"bytes"}],"name":"MetaAddressRegistered","type":"event"},{"anonymous":false,"inputs":[{"indexed":true,"internalType":"address","name":"user","type":"address"},{"indexed":false,"internalType":"bytes","name":"spendingPubKey","type":"bytes"},{"indexed":false,"internalType":"bytes","name":"viewingPubKey","type":"bytes"}],"name":"MetaAddressUpdated","type":"event"},{"anonymous":false,"inputs":[{"indexed":true,"internalType":"bytes32","name":"id","type":"bytes32"},{"indexed":true,"internalType":"address","name":"stealthAddress","type":"address"},{"indexed":true,"internalType":"address","name":"claimer","type":"address"},{"indexed":false,"internalType":"uint256","name":"amount","type":"uint256"}],"name":"PaymentClaimed","type":"event"},{"anonymous":false,"inputs":[{"indexed":true,"internalType":"bytes32","name":"id","type":"bytes32"},{"indexed":true,"internalType":"address","name":"stealthAddress","type":"address"},{"indexed":false,"internalType":"uint256","name":"amount","type":"uint256"},{"indexed":false,"internalType":"bytes","name":"ephemeralPubKey","type":"bytes"},{"indexed":false,"internalType":"bytes","name":"encryptedMemo","type":"bytes"}],"name":"StealthPayment","type":"event"},{"inputs":[{"internalType":"uint256","name":"","type":"uint256"}],"name":"allAnnouncements","outputs":[{"internalType":"bytes32","name":"","type":"bytes32"}],"stateMutability":"view","type":"function"},{"inputs":[],"name":"announcementCount","outputs":[{"internalType":"uint256","name":"","type":"uint256"}],"stateMutability":"view","type":"function"},{"inputs":[{"internalType":"bytes32","name":"","type":"bytes32"}],"name":"announcements","outputs":[{"internalType":"bytes32","name":"id","type":"bytes32"},{"internalType":"address","name":"stealthAddress","type":"address"},{"internalType":"uint256","name":"amount","type":"uint256"},{"internalType":"bytes","name":"ephemeralPubKey","type":"bytes"},{"internalType":"bytes","name":"encryptedMemo","type":"bytes"},{"internalType":"uint256","name":"timestamp","type":"uint256"},{"internalType":"bool","name":"claimed","type":"bool"}],"stateMutability":"view","type":"function"},{"inputs":[],"name":"deactivateMetaAddress","outputs":[],"stateMutability":"nonpayable","type":"function"},{"inputs":[{"internalType":"bytes32","name":"id","type":"bytes32"}],"name":"getAnnouncement","outputs":[{"components":[{"internalType":"bytes32","name":"id","type":"bytes32"},{"internalType":"address","name":"stealthAddress","type":"address"},{"internalType":"uint256","name":"amount","type":"uint256"},{"internalType":"bytes","name":"ephemeralPubKey","type":"bytes"},{"internalType":"bytes","name":"encryptedMemo","type":"bytes"},{"internalType":"uint256","name":"timestamp","type":"uint256"},{"internalType":"bool","name":"claimed","type":"bool"}],"internalType":"struct ArcPayStealthRegistry.Announcement","name":"","type":"tuple"}],"stateMutability":"view","type":"function"},{"inputs":[{"internalType":"uint256","name":"fromIndex","type":"uint256"},{"internalType":"uint256","name":"count","type":"uint256"}],"name":"getAnnouncements","outputs":[{"components":[{"internalType":"bytes32","name":"id","type":"bytes32"},{"internalType":"address","name":"stealthAddress","type":"address"},{"internalType":"uint256","name":"amount","type":"uint256"},{"internalType":"bytes","name":"ephemeralPubKey","type":"bytes"},{"internalType":"bytes","name":"encryptedMemo","type":"bytes"},{"internalType":"uint256","name":"timestamp","type":"uint256"},{"internalType":"bool","name":"claimed","type":"bool"}],"internalType":"struct ArcPayStealthRegistry.Announcement[]","name":"","type":"tuple[]"}],"stateMutability":"view","type":"function"},{"inputs":[{"internalType":"address","name":"user","type":"address"}],"name":"getMetaAddress","outputs":[{"components":[{"internalType":"bytes","name":"spendingPubKey","type":"bytes"},{"internalType":"bytes","name":"viewingPubKey","type":"bytes"},{"internalType":"uint256","name":"registeredAt","type":"uint256"},{"internalType":"bool","name":"active","type":"bool"}],"internalType":"struct ArcPayStealthRegistry.StealthMetaAddress","name":"","type":"tuple"}],"stateMutability":"view","type":"function"},{"inputs":[{"internalType":"uint256","name":"count","type":"uint256"}],"name":"getNewAnnouncements","outputs":[{"components":[{"internalType":"bytes32","name":"id","type":"bytes32"},{"internalType":"address","name":"stealthAddress","type":"address"},{"internalType":"uint256","name":"amount","type":"uint256"},{"internalType":"bytes","name":"ephemeralPubKey","type":"bytes"},{"internalType":"bytes","name":"encryptedMemo","type":"bytes"},{"internalType":"uint256","name":"timestamp","type":"uint256"},{"internalType":"bool","name":"claimed","type":"bool"}],"internalType":"struct ArcPayStealthRegistry.Announcement[]","name":"","type":"tuple[]"},{"internalType":"uint256","name":"newLastIndex","type":"uint256"}],"stateMutability":"view","type":"function"},{"inputs":[],"name":"getTotalAnnouncements","outputs":[{"internalType":"uint256","name":"","type":"uint256"}],"stateMutability":"view","type":"function"},{"inputs":[{"internalType":"address","name":"user","type":"address"}],"name":"isRegistered","outputs":[{"internalType":"bool","name":"","type":"bool"}],"stateMutability":"view","type":"function"},{"inputs":[{"internalType":"address","name":"","type":"address"}],"name":"lastScannedIndex","outputs":[{"internalType":"uint256","name":"","type":"uint256"}],"stateMutability":"view","type":"function"},{"inputs":[{"internalType":"bytes32","name":"announcementId","type":"bytes32"}],"name":"markClaimed","outputs":[],"stateMutability":"nonpayable","type":"function"},{"inputs":[{"internalType":"address","name":"","type":"address"}],"name":"metaAddresses","outputs":[{"internalType":"bytes","name":"spendingPubKey","type":"bytes"},{"internalType":"bytes","name":"viewingPubKey","type":"bytes"},{"internalType":"uint256","name":"registeredAt","type":"uint256"},{"internalType":"bool","name":"active","type":"bool"}],"stateMutability":"view","type":"function"},{"inputs":[],"name":"reactivateMetaAddress","outputs":[],"stateMutability":"nonpayable","type":"function"},{"inputs":[{"internalType":"bytes","name":"spendingPubKey","type":"bytes"},{"internalType":"bytes","name":"viewingPubKey","type":"bytes"}],"name":"registerMetaAddress","outputs":[],"stateMutability":"nonpayable","type":"function"},{"inputs":[{"internalType":"address","name":"stealthAddress","type":"address"},{"internalType":"bytes","name":"ephemeralPubKey","type":"bytes"},{"internalType":"bytes","name":"encryptedMemo","type":"bytes"}],"name":"sendStealthPayment","outputs":[{"internalType":"bytes32","name":"","type":"bytes32"}],"stateMutability":"payable","type":"function"},{"inputs":[{"internalType":"uint256","name":"index","type":"uint256"}],"name":"updateLastScanned","outputs":[],"stateMutability":"nonpayable","type":"function"},{"inputs":[{"internalType":"bytes","name":"spendingPubKey","type":"bytes"},{"internalType":"bytes","name":"viewingPubKey","type":"bytes"}],"name":"updateMetaAddress","outputs":[],"stateMutability":"nonpayable","type":"function"},{"inputs":[{"internalType":"address","name":"","type":"address"},{"internalType":"uint256","name":"","type":"uint256"}],"name":"userAnnouncements","outputs":[{"internalType":"bytes32","name":"","type":"bytes32"}],"stateMutability":"view","type":"function"},{"stateMutability":"payable","type":"receive"}],"evm":{"bytecode":{"linkReferences":{},"object":"6080806040523461001b57600160005561185890816100218239f35b600080fdfe608080604052600436101561001d575b50361561001b57600080fd5b005b60003560e01c9081630ce0dbed14610e45575080630fa787a914610d685780631c5b5d9f14610d315780632caa851214610ca55780634c4a0f5014610c545780635fad12bd14610bab57806362771a3014610b645780636fa8cf3314610b465780637d40d6c214610aa15780639d1a5b3914610881578063a8be2cd114610847578063ab2a57791461080d578063abd4b5f114610331578063abe21fac1461026b578063ba0281ba1461022f578063c3c5a547146101d6578063d7e6c91f14610199578063e44f2b191461017b5763f7fa6dc9146100fb573861000f565b34610176576000366003190112610176573360005260026020526002604060002001541561016457336000526002602052600360406000200160ff198154169055337f148a1885eae47617c4e825e270cdfe6d19ec39eb8f38381173a42c51456c97b1600080a2005b60405163c2eb334d60e01b8152600490fd5b600080fd5b34610176576000366003190112610176576020600554604051908152f35b34610176576020366003190112610176576101cc6101b860043561170e565b60405192839260408452604084019061139d565b9060208301520390f35b34610176576020366003190112610176576001600160a01b036101f761115c565b16600052600260205260206040600020600281015415159081610220575b506040519015158152f35b60ff9150600301541682610215565b3461017657602036600319011261017657600435600554808211610263575b50336000526006602052604060002055600080f35b90508161024e565b3461017657602036600319011261017657600435806000526003602052604060002060058101541561031f5760018101546001600160a01b0316903382900361030d57600681019081549160ff83166102fb57600160029360ff19161790550154916040519283527f1a76fc2f6d557973efb4b9d751e9da9fd98d58a675e7387356274e023695ce3260203394a4005b604051630c8d9eab60e31b8152600490fd5b60405163ea8e4eb560e01b8152600490fd5b60405163887da63760e01b8152600490fd5b60603660031901126101765761034561115c565b6024356001600160401b038111610176576103649036906004016110e5565b916044356001600160401b038111610176576103849036906004016110e5565b90916002600054146107fb5760026000556001600160a01b038116156107e95734156107d757602185036107c557600154936103bf856114ea565b6001556040519460208601903360601b82526bffffffffffffffffffffffff198460601b1660348801523460488801524260688801526088870152608886528560c08101106001600160401b0360c0880111176106ad5760c08601604052855190209461042e60c08201611254565b8560c082015260e081019060018060a01b03841682526101008101348152610457368a86611414565b90610120830191825261046b36888a611414565b61014084015242610160840152600061018084015288600052600360205260406000209360c08401518555600185019060018060a01b039051166bffffffffffffffffffffffff60a01b825416179055516002840155518051906001600160401b0382116106ad5781906104ef826104e660038801546111ff565b6003880161144b565b602090601f831160011461075357600092610748575b50508160011b916000199060031b1c19161760038301555b6101408101518051906001600160401b0382116106ad5761054e8261054560048701546111ff565b6004870161144b565b602090601f83116001146106ce579282600693610180936105ac97966000926106c3575b50508160011b916000199060031b1c19161760048501555b61016081015160058501550151151591019060ff801983541691151516179055565b600554680100000000000000008110156106ad578060016105d092016005556111b2565b815460001960039290921b91821b19169087901b1790556000808080346001600160a01b0387165af13d156106a8573d610609816113f9565b90610617604051928361126f565b8152600060203d92013e5b15610696576020956106867ffc62420205488e7ec281046987cb80e3855307bcdbd14ef457de8e02636dbe9d93879561066d60405195869534875260608d880152606087019161149f565b84810360408601526001600160a01b039092169761149f565b0390a36001600055604051908152f35b6040516312171d8360e31b8152600490fd5b610622565b634e487b7160e01b600052604160045260246000fd5b015190508d80610572565b906004850160005260206000209160005b601f1985168110610730575083610180936105ac979693600193600697601f19811610610717575b505050811b01600485015561058a565b015160001960f88460031b161c191690558d8080610707565b919260206001819286850151815501940192016106df565b015190508a80610505565b9250600385016000526020600020906000935b601f19841685106107aa576001945083601f19811610610791575b505050811b01600383015561051d565b015160001960f88460031b161c191690558a8080610781565b81810151835560209485019460019093019290910190610766565b6040516379fae7af60e01b8152600490fd5b60405163162908e360e11b8152600490fd5b60405163e6c4247b60e01b8152600490fd5b604051633ee5aeb560e01b8152600490fd5b346101765760403660031901126101765761084361082f6024356004356115ff565b60405191829160208352602083019061139d565b0390f35b34610176576020366003190112610176576001600160a01b0361086861115c565b1660005260066020526020604060002054604051908152f35b346101765761088f36611112565b9291602181036107c557602184036107c557336000526020600281526002604060002001541561016457336000526002815260406000206001600160401b03918284116106ad576108ea846108e484546111ff565b8461144b565b836000601f8211600114610a3c57600091610a31575b508460011b906000198660031b1c19161782555b60018092019287116106ad576109348761092e85546111ff565b8561144b565b600090601f88116001146109a557509186807fadc2c139e602a83d397cb63fecf58f752ffa736816e83bed4c6656c51654424b9798936109959560009361099a575b501b906000198460031b1c19161790555b6040519384933397856114c0565b0390a2005b88013592508a610976565b90601f1988168460005282600020926000905b828210610a1a575050918893917fadc2c139e602a83d397cb63fecf58f752ffa736816e83bed4c6656c51654424b9899610995969410610a00575b505082811b019055610987565b870135600019600386901b60f8161c1916905588806109f3565b808685968294968c013581550195019301906109b8565b905086013588610900565b600084815283812092508690601f198216905b85828210610a8857505010610a6e575b5050600184811b018255610914565b870135600019600387901b60f8161c191690558780610a5f565b8b85013586556001909501949384019389935001610a4f565b346101765760203660031901126101765760043560005260036020526040600020805460018060a01b03600183015416916002810154610b35610ae660038401611290565b610b27610af560048601611290565b9160ff60066005880154970154169460405198899889526020890152604088015260e0606088015260e0870190611172565b908582036080870152611172565b9160a0840152151560c08301520390f35b34610176576000366003190112610176576020600154604051908152f35b34610176576000366003190112610176573360005260026020526002604060002001541561016457336000908152600260205260409020600301805460ff19166001179055005b3461017657602036600319011261017657610bc461150f565b506004356000526003602052610843604060002060ff600660405192610be984611254565b8054845260018101546001600160a01b0316602085015260028101546040850152610c1660038201611290565b6060850152610c2760048201611290565b6080850152600581015460a0850152015416151560c0820152604051918291602083526020830190611336565b3461017657604036600319011261017657610c6d61115c565b6001600160a01b0316600090815260046020526040902080546024359081101561017657602091600052816000200154604051908152f35b34610176576020366003190112610176576001600160a01b03610cc661115c565b166000526002602052610d126040600020610ce081611290565b90610ced60018201611290565b610d2060ff600360028501549401541691604051958695608087526080870190611172565b908582036020870152611172565b916040840152151560608301520390f35b346101765760203660031901126101765760043560055481101561017657610d5a6020916111b2565b90546040519160031b1c8152f35b346101765760208060031936011261017657608090610d8561115c565b60006060604051610d9581611239565b8181528185820152826040820152015260018060a01b031660005260028152604060002060405191610dc683611239565b610dcf82611290565b8352610e32610de060018401611290565b828501908152610e1f60ff60036002870154966040890197885201541693606087019415158552604051978897828952519188015260a0870190611172565b9051858203601f19016040870152611172565b9151606084015251151560808301520390f35b3461017657610e5336611112565b936021839293036110d65750602184036107c55733600052602093600285526002604060002001546110c45760405194610e8c86611239565b610e97368487611414565b8652610ea4368386611414565b8187019081526040870190428252606088019260018085523360005260028252604060002099519182516001600160401b03938482116106ad578c8291610eef836108e484546111ff565b8491601f84116001146110615750600092611056575b5050600019600383901b1c191690831b178b555b818b01935180519384116106ad57610f3b84610f3587546111ff565b8761144b565b81601f8511600114610fbe57509383806003956109959a99957f71f5161111395441b9faefff5f6fe6a1221ada7b832b79db7923ddb1fff134fc9e9f98956109879a96600094610fb3575b50501b9160001990871b1c19161790555b51600284015551151591019060ff801983541691151516179055565b015192503880610f86565b9190601f9493941984168660005283600020936000905b82821061103f5750509361098797937f71f5161111395441b9faefff5f6fe6a1221ada7b832b79db7923ddb1fff134fc9d9e979360039793836109959d9c9810611027575b505050811b019055610f97565b015160001983891b60f8161c191690558e808061101a565b808886978294978701518155019601940190610fd5565b015190508d80610f05565b9190869450601f19841692600052856000209260005b878282106110ae5750508411611095575b505050811b018b55610f19565b015160001960f88460031b161c191690558d8080611088565b8385015186558997909501949384019301611077565b6040516373e25ef960e11b8152600490fd5b6379fae7af60e01b8152600490fd5b9181601f84011215610176578235916001600160401b038311610176576020838186019501011161017657565b6040600319820112610176576001600160401b0391600435838111610176578261113e916004016110e5565b9390939260243591821161017657611158916004016110e5565b9091565b600435906001600160a01b038216820361017657565b919082519283825260005b84811061119e575050826000602080949584010152601f8019910116010190565b60208183018101518483018201520161117d565b6005548110156111e95760056000527f036b6384b5eca791c62761152d0c79bb0604c104a5fb6f4eb0703f3154bb3db00190600090565b634e487b7160e01b600052603260045260246000fd5b90600182811c9216801561122f575b602083101461121957565b634e487b7160e01b600052602260045260246000fd5b91607f169161120e565b608081019081106001600160401b038211176106ad57604052565b60e081019081106001600160401b038211176106ad57604052565b90601f801991011681019081106001600160401b038211176106ad57604052565b90604051918260008254926112a4846111ff565b90818452600194858116908160001461131357506001146112d0575b50506112ce9250038361126f565b565b9093915060005260209081600020936000915b8183106112fb5750506112ce935082010138806112c0565b855488840185015294850194879450918301916112e3565b9150506112ce94506020925060ff191682840152151560051b82010138806112c0565b908151815260018060a01b0360208301511660208201526040820151604082015260c080611388611376606086015160e0606087015260e0860190611172565b60808601518582036080870152611172565b9360a081015160a08501520151151591015290565b908082519081815260208091019281808460051b8301019501936000915b8483106113cb5750505050505090565b90919293949584806113e9600193601f198682030187528a51611336565b98019301930191949392906113bb565b6001600160401b0381116106ad57601f01601f191660200190565b929192611420826113f9565b9161142e604051938461126f565b829481845281830111610176578281602093846000960137010152565b90601f811161145957505050565b600091825260208220906020601f850160051c83019410611495575b601f0160051c01915b82811061148a57505050565b81815560010161147e565b9092508290611475565b908060209392818452848401376000828201840152601f01601f1916010190565b92906114d9906114e7959360408652604086019161149f565b92602081850391015261149f565b90565b60001981146114f95760010190565b634e487b7160e01b600052601160045260246000fd5b6040519061151c82611254565b600060c083828152826020820152826040820152606080820152606060808201528260a08201520152565b6001600160401b0381116106ad5760051b60200190565b604051602081018181106001600160401b038211176106ad576040526000815290565b9061158b82611547565b611598604051918261126f565b82815280926115a9601f1991611547565b019060005b8281106115ba57505050565b6020906115c561150f565b828285010152016115ae565b919082018092116114f957565b919082039182116114f957565b80518210156111e95760209160051b010190565b90600590815490818410156117025761162c9161161d8592836115d1565b908082116116fa575b506115de565b9061163682611581565b92600090815b84811061164b57505050505090565b8061166161165c6116f593856115d1565b6111b2565b9054600391821b1c855260ff60066020928084526116b1604091828a209280519661168b88611254565b8454885260018501546001600160a01b0316908801526002840154908701528201611290565b60608501526116c260048201611290565b60808501528881015460a0850152015416151560c08201526116e482896115eb565b526116ef81886115eb565b506114ea565b61163c565b905038611626565b505050506114e761155e565b9060003381526006602091818352604092838220549260059687548086101561180e578561173b916115de565b90808210156118065750945b61175086611581565b97845b87811061176a57505050505050906114e7916115d1565b8061177b61165c611801938a6115d1565b9054600391821b1c885280875260ff86868a206117c388519461179d86611254565b8254865260018301546001600160a01b03168c87015260028301548a8701528201611290565b60608501526117d460048201611290565b60808501528681015460a0850152015416151560c08201526117f6828d6115eb565b526116ef818c6115eb565b611753565b905094611747565b505050505092505061181e61155e565b919056fea264697066735822122008a110dab7a3ae270351525c7c79c3897c4913358f1fdb1840877e34579ad3f964736f6c63430008140033","opcodes":"PUSH1 0x80 DUP1 PUSH1 0x40 MSTORE CALLVALUE PUSH2 0x1B JUMPI PUSH1 0x1 PUSH1 0x0 SSTORE PUSH2 0x1858 SWAP1 DUP2 PUSH2 0x21 DUP3 CODECOPY RETURN JUMPDEST PUSH1 0x0 DUP1 REVERT INVALID PUSH1 0x80 DUP1 PUSH1 0x40 MSTORE PUSH1 0x4 CALLDATASIZE LT ISZERO PUSH2 0x1D JUMPI JUMPDEST POP CALLDATASIZE ISZERO PUSH2 0x1B JUMPI PUSH1 0x0 DUP1 REVERT JUMPDEST STOP JUMPDEST PUSH1 0x0 CALLDATALOAD PUSH1 0xE0 SHR SWAP1 DUP2 PUSH4 0xCE0DBED EQ PUSH2 0xE45 JUMPI POP DUP1 PUSH4 0xFA787A9 EQ PUSH2 0xD68 JUMPI DUP1 PUSH4 0x1C5B5D9F EQ PUSH2 0xD31 JUMPI DUP1 PUSH4 0x2CAA8512 EQ PUSH2 0xCA5 JUMPI DUP1 PUSH4 0x4C4A0F50 EQ PUSH2 0xC54 JUMPI DUP1 PUSH4 0x5FAD12BD EQ PUSH2 0xBAB JUMPI DUP1 PUSH4 0x62771A30 EQ PUSH2 0xB64 JUMPI DUP1 PUSH4 0x6FA8CF33 EQ PUSH2 0xB46 JUMPI DUP1 PUSH4 0x7D40D6C2 EQ PUSH2 0xAA1 JUMPI DUP1 PUSH4 0x9D1A5B39 EQ PUSH2 0x881 JUMPI DUP1 PUSH4 0xA8BE2CD1 EQ PUSH2 0x847 JUMPI DUP1 PUSH4 0xAB2A5779 EQ PUSH2 0x80D JUMPI DUP1 PUSH4 0xABD4B5F1 EQ PUSH2 0x331 JUMPI DUP1 PUSH4 0xABE21FAC EQ PUSH2 0x26B JUMPI DUP1 PUSH4 0xBA0281BA EQ PUSH2 0x22F JUMPI DUP1 PUSH4 0xC3C5A547 EQ PUSH2 0x1D6 JUMPI DUP1 PUSH4 0xD7E6C91F EQ PUSH2 0x199 JUMPI DUP1 PUSH4 0xE44F2B19 EQ PUSH2 0x17B JUMPI PUSH4 0xF7FA6DC9 EQ PUSH2 0xFB JUMPI CODESIZE PUSH2 0xF JUMP JUMPDEST CALLVALUE PUSH2 0x176 JUMPI PUSH1 0x0 CALLDATASIZE PUSH1 0x3 NOT ADD SLT PUSH2 0x176 JUMPI CALLER PUSH1 0x0 MSTORE PUSH1 0x2 PUSH1 0x20 MSTORE PUSH1 0x2 PUSH1 0x40 PUSH1 0x0 KECCAK256 ADD SLOAD ISZERO PUSH2 0x164 JUMPI CALLER PUSH1 0x0 MSTORE PUSH1 0x2 PUSH1 0x20 MSTORE PUSH1 0x3 PUSH1 0x40 PUSH1 0x0 KECCAK256 ADD PUSH1 0xFF NOT DUP2 SLOAD AND SWAP1 SSTORE CALLER PUSH32 0x148A1885EAE47617C4E825E270CDFE6D19EC39EB8F38381173A42C51456C97B1 PUSH1 0x0 DUP1 LOG2 STOP JUMPDEST PUSH1 0x40 MLOAD PUSH4 0xC2EB334D PUSH1 0xE0 SHL DUP2 MSTORE PUSH1 0x4 SWAP1 REVERT JUMPDEST PUSH1 0x0 DUP1 REVERT JUMPDEST CALLVALUE PUSH2 0x176 JUMPI PUSH1 0x0 CALLDATASIZE PUSH1 0x3 NOT ADD SLT PUSH2 0x176 JUMPI PUSH1 0x20 PUSH1 0x5 SLOAD PUSH1 0x40 MLOAD SWAP1 DUP2 MSTORE RETURN JUMPDEST CALLVALUE PUSH2 0x176 JUMPI PUSH1 0x20 CALLDATASIZE PUSH1 0x3 NOT ADD SLT PUSH2 0x176 JUMPI PUSH2 0x1CC PUSH2 0x1B8 PUSH1 0x4 CALLDATALOAD PUSH2 0x170E JUMP JUMPDEST PUSH1 0x40 MLOAD SWAP3 DUP4 SWAP3 PUSH1 0x40 DUP5 MSTORE PUSH1 0x40 DUP5 ADD SWAP1 PUSH2 0x139D JUMP JUMPDEST SWAP1 PUSH1 0x20 DUP4 ADD MSTORE SUB SWAP1 RETURN JUMPDEST CALLVALUE PUSH2 0x176 JUMPI PUSH1 0x20 CALLDATASIZE PUSH1 0x3 NOT ADD SLT PUSH2 0x176 JUMPI PUSH1 0x1 PUSH1 0x1 PUSH1 0xA0 SHL SUB PUSH2 0x1F7 PUSH2 0x115C JUMP JUMPDEST AND PUSH1 0x0 MSTORE PUSH1 0x2 PUSH1 0x20 MSTORE PUSH1 0x20 PUSH1 0x40 PUSH1 0x0 KECCAK256 PUSH1 0x2 DUP2 ADD SLOAD ISZERO ISZERO SWAP1 DUP2 PUSH2 0x220 JUMPI JUMPDEST POP PUSH1 0x40 MLOAD SWAP1 ISZERO ISZERO DUP2 MSTORE RETURN JUMPDEST PUSH1 0xFF SWAP2 POP PUSH1 0x3 ADD SLOAD AND DUP3 PUSH2 0x215 JUMP JUMPDEST CALLVALUE PUSH2 0x176 JUMPI PUSH1 0x20 CALLDATASIZE PUSH1 0x3 NOT ADD SLT PUSH2 0x176 JUMPI PUSH1 0x4 CALLDATALOAD PUSH1 0x5 SLOAD DUP1 DUP3 GT PUSH2 0x263 JUMPI JUMPDEST POP CALLER PUSH1 0x0 MSTORE PUSH1 0x6 PUSH1 0x20 MSTORE PUSH1 0x40 PUSH1 0x0 KECCAK256 SSTORE PUSH1 0x0 DUP1 RETURN JUMPDEST SWAP1 POP DUP2 PUSH2 0x24E JUMP JUMPDEST CALLVALUE PUSH2 0x176 JUMPI PUSH1 0x20 CALLDATASIZE PUSH1 0x3 NOT ADD SLT PUSH2 0x176 JUMPI PUSH1 0x4 CALLDATALOAD DUP1 PUSH1 0x0 MSTORE PUSH1 0x3 PUSH1 0x20 MSTORE PUSH1 0x40 PUSH1 0x0 KECCAK256 PUSH1 0x5 DUP2 ADD SLOAD ISZERO PUSH2 0x31F JUMPI PUSH1 0x1 DUP2 ADD SLOAD PUSH1 0x1 PUSH1 0x1 PUSH1 0xA0 SHL SUB AND SWAP1 CALLER DUP3 SWAP1 SUB PUSH2 0x30D JUMPI PUSH1 0x6 DUP2 ADD SWAP1 DUP2 SLOAD SWAP2 PUSH1 0xFF DUP4 AND PUSH2 0x2FB JUMPI PUSH1 0x1 PUSH1 0x2 SWAP4 PUSH1 0xFF NOT AND OR SWAP1 SSTORE ADD SLOAD SWAP2 PUSH1 0x40 MLOAD SWAP3 DUP4 MSTORE PUSH32 0x1A76FC2F6D557973EFB4B9D751E9DA9FD98D58A675E7387356274E023695CE32 PUSH1 0x20 CALLER SWAP5 LOG4 STOP JUMPDEST PUSH1 0x40 MLOAD PUSH4 0xC8D9EAB PUSH1 0xE3 SHL DUP2 MSTORE PUSH1 0x4 SWAP1 REVERT JUMPDEST PUSH1 0x40 MLOAD PUSH4 0xEA8E4EB5 PUSH1 0xE0 SHL DUP2 MSTORE PUSH1 0x4 SWAP1 REVERT JUMPDEST PUSH1 0x40 MLOAD PUSH4 0x887DA637 PUSH1 0xE0 SHL DUP2 MSTORE PUSH1 0x4 SWAP1 REVERT JUMPDEST PUSH1 0x60 CALLDATASIZE PUSH1 0x3 NOT ADD SLT PUSH2 0x176 JUMPI PUSH2 0x345 PUSH2 0x115C JUMP JUMPDEST PUSH1 0x24 CALLDATALOAD PUSH1 0x1 PUSH1 0x1 PUSH1 0x40 SHL SUB DUP2 GT PUSH2 0x176 JUMPI PUSH2 0x364 SWAP1 CALLDATASIZE SWAP1 PUSH1 0x4 ADD PUSH2 0x10E5 JUMP JUMPDEST SWAP2 PUSH1 0x44 CALLDATALOAD PUSH1 0x1 PUSH1 0x1 PUSH1 0x40 SHL SUB DUP2 GT PUSH2 0x176 JUMPI PUSH2 0x384 SWAP1 CALLDATASIZE SWAP1 PUSH1 0x4 ADD PUSH2 0x10E5 JUMP JUMPDEST SWAP1 SWAP2 PUSH1 0x2 PUSH1 0x0 SLOAD EQ PUSH2 0x7FB JUMPI PUSH1 0x2 PUSH1 0x0 SSTORE PUSH1 0x1 PUSH1 0x1 PUSH1 0xA0 SHL SUB DUP2 AND ISZERO PUSH2 0x7E9 JUMPI CALLVALUE ISZERO PUSH2 0x7D7 JUMPI PUSH1 0x21 DUP6 SUB PUSH2 0x7C5 JUMPI PUSH1 0x1 SLOAD SWAP4 PUSH2 0x3BF DUP6 PUSH2 0x14EA JUMP JUMPDEST PUSH1 0x1 SSTORE PUSH1 0x40 MLOAD SWAP5 PUSH1 0x20 DUP7 ADD SWAP1 CALLER PUSH1 0x60 SHL DUP3 MSTORE PUSH12 0xFFFFFFFFFFFFFFFFFFFFFFFF NOT DUP5 PUSH1 0x60 SHL AND PUSH1 0x34 DUP9 ADD MSTORE CALLVALUE PUSH1 0x48 DUP9 ADD MSTORE TIMESTAMP PUSH1 0x68 DUP9 ADD MSTORE PUSH1 0x88 DUP8 ADD MSTORE PUSH1 0x88 DUP7 MSTORE DUP6 PUSH1 0xC0 DUP2 ADD LT PUSH1 0x1 PUSH1 0x1 PUSH1 0x40 SHL SUB PUSH1 0xC0 DUP9 ADD GT OR PUSH2 0x6AD JUMPI PUSH1 0xC0 DUP7 ADD PUSH1 0x40 MSTORE DUP6 MLOAD SWAP1 KECCAK256 SWAP5 PUSH2 0x42E PUSH1 0xC0 DUP3 ADD PUSH2 0x1254 JUMP JUMPDEST DUP6 PUSH1 0xC0 DUP3 ADD MSTORE PUSH1 0xE0 DUP2 ADD SWAP1 PUSH1 0x1 DUP1 PUSH1 0xA0 SHL SUB DUP5 AND DUP3 MSTORE PUSH2 0x100 DUP2 ADD CALLVALUE DUP2 MSTORE PUSH2 0x457 CALLDATASIZE DUP11 DUP7 PUSH2 0x1414 JUMP JUMPDEST SWAP1 PUSH2 0x120 DUP4 ADD SWAP2 DUP3 MSTORE PUSH2 0x46B CALLDATASIZE DUP9 DUP11 PUSH2 0x1414 JUMP JUMPDEST PUSH2 0x140 DUP5 ADD MSTORE TIMESTAMP PUSH2 0x160 DUP5 ADD MSTORE PUSH1 0x0 PUSH2 0x180 DUP5 ADD MSTORE DUP9 PUSH1 0x0 MSTORE PUSH1 0x3 PUSH1 0x20 MSTORE PUSH1 0x40 PUSH1 0x0 KECCAK256 SWAP4 PUSH1 0xC0 DUP5 ADD MLOAD DUP6 SSTORE PUSH1 0x1 DUP6 ADD SWAP1 PUSH1 0x1 DUP1 PUSH1 0xA0 SHL SUB SWAP1 MLOAD AND PUSH12 0xFFFFFFFFFFFFFFFFFFFFFFFF PUSH1 0xA0 SHL DUP3 SLOAD AND OR SWAP1 SSTORE MLOAD PUSH1 0x2 DUP5 ADD SSTORE MLOAD DUP1 MLOAD SWAP1 PUSH1 0x1 PUSH1 0x1 PUSH1 0x40 SHL SUB DUP3 GT PUSH2 0x6AD JUMPI DUP2 SWAP1 PUSH2 0x4EF DUP3 PUSH2 0x4E6 PUSH1 0x3 DUP9 ADD SLOAD PUSH2 0x11FF JUMP JUMPDEST PUSH1 0x3 DUP9 ADD PUSH2 0x144B JUMP JUMPDEST PUSH1 0x20 SWAP1 PUSH1 0x1F DUP4 GT PUSH1 0x1 EQ PUSH2 0x753 JUMPI PUSH1 0x0 SWAP3 PUSH2 0x748 JUMPI JUMPDEST POP POP DUP2 PUSH1 0x1 SHL SWAP2 PUSH1 0x0 NOT SWAP1 PUSH1 0x3 SHL SHR NOT AND OR PUSH1 0x3 DUP4 ADD SSTORE JUMPDEST PUSH2 0x140 DUP2 ADD MLOAD DUP1 MLOAD SWAP1 PUSH1 0x1 PUSH1 0x1 PUSH1 0x40 SHL SUB DUP3 GT PUSH2 0x6AD JUMPI PUSH2 0x54E DUP3 PUSH2 0x545 PUSH1 0x4 DUP8 ADD SLOAD PUSH2 0x11FF JUMP JUMPDEST PUSH1 0x4 DUP8 ADD PUSH2 0x144B JUMP JUMPDEST PUSH1 0x20 SWAP1 PUSH1 0x1F DUP4 GT PUSH1 0x1 EQ PUSH2 0x6CE JUMPI SWAP3 DUP3 PUSH1 0x6 SWAP4 PUSH2 0x180 SWAP4 PUSH2 0x5AC SWAP8 SWAP7 PUSH1 0x0 SWAP3 PUSH2 0x6C3 JUMPI JUMPDEST POP POP DUP2 PUSH1 0x1 SHL SWAP2 PUSH1 0x0 NOT SWAP1 PUSH1 0x3 SHL SHR NOT AND OR PUSH1 0x4 DUP6 ADD SSTORE JUMPDEST PUSH2 0x160 DUP2 ADD MLOAD PUSH1 0x5 DUP6 ADD SSTORE ADD MLOAD ISZERO ISZERO SWAP2 ADD SWAP1 PUSH1 0xFF DUP1 NOT DUP4 SLOAD AND SWAP2 ISZERO ISZERO AND OR SWAP1 SSTORE JUMP JUMPDEST PUSH1 0x5 SLOAD PUSH9 0x10000000000000000 DUP2 LT ISZERO PUSH2 0x6AD JUMPI DUP1 PUSH1 0x1 PUSH2 0x5D0 SWAP3 ADD PUSH1 0x5 SSTORE PUSH2 0x11B2 JUMP JUMPDEST DUP2 SLOAD PUSH1 0x0 NOT PUSH1 0x3 SWAP3 SWAP1 SWAP3 SHL SWAP2 DUP3 SHL NOT AND SWAP1 DUP8 SWAP1 SHL OR SWAP1 SSTORE PUSH1 0x0 DUP1 DUP1 DUP1 CALLVALUE PUSH1 0x1 PUSH1 0x1 PUSH1 0xA0 SHL SUB DUP8 AND GAS CALL RETURNDATASIZE ISZERO PUSH2 0x6A8 JUMPI RETURNDATASIZE PUSH2 0x609 DUP2 PUSH2 0x13F9 JUMP JUMPDEST SWAP1 PUSH2 0x617 PUSH1 0x40 MLOAD SWAP3 DUP4 PUSH2 0x126F JUMP JUMPDEST DUP2 MSTORE PUSH1 0x0 PUSH1 0x20 RETURNDATASIZE SWAP3 ADD RETURNDATACOPY JUMPDEST ISZERO PUSH2 0x696 JUMPI PUSH1 0x20 SWAP6 PUSH2 0x686 PUSH32 0xFC62420205488E7EC281046987CB80E3855307BCDBD14EF457DE8E02636DBE9D SWAP4 DUP8 SWAP6 PUSH2 0x66D PUSH1 0x40 MLOAD SWAP6 DUP7 SWAP6 CALLVALUE DUP8 MSTORE PUSH1 0x60 DUP14 DUP9 ADD MSTORE PUSH1 0x60 DUP8 ADD SWAP2 PUSH2 0x149F JUMP JUMPDEST DUP5 DUP2 SUB PUSH1 0x40 DUP7 ADD MSTORE PUSH1 0x1 PUSH1 0x1 PUSH1 0xA0 SHL SUB SWAP1 SWAP3 AND SWAP8 PUSH2 0x149F JUMP JUMPDEST SUB SWAP1 LOG3 PUSH1 0x1 PUSH1 0x0 SSTORE PUSH1 0x40 MLOAD SWAP1 DUP2 MSTORE RETURN JUMPDEST PUSH1 0x40 MLOAD PUSH4 0x12171D83 PUSH1 0xE3 SHL DUP2 MSTORE PUSH1 0x4 SWAP1 REVERT JUMPDEST PUSH2 0x622 JUMP JUMPDEST PUSH4 0x4E487B71 PUSH1 0xE0 SHL PUSH1 0x0 MSTORE PUSH1 0x41 PUSH1 0x4 MSTORE PUSH1 0x24 PUSH1 0x0 REVERT JUMPDEST ADD MLOAD SWAP1 POP DUP14 DUP1 PUSH2 0x572 JUMP JUMPDEST SWAP1 PUSH1 0x4 DUP6 ADD PUSH1 0x0 MSTORE PUSH1 0x20 PUSH1 0x0 KECCAK256 SWAP2 PUSH1 0x0 JUMPDEST PUSH1 0x1F NOT DUP6 AND DUP2 LT PUSH2 0x730 JUMPI POP DUP4 PUSH2 0x180 SWAP4 PUSH2 0x5AC SWAP8 SWAP7 SWAP4 PUSH1 0x1 SWAP4 PUSH1 0x6 SWAP8 PUSH1 0x1F NOT DUP2 AND LT PUSH2 0x717 JUMPI JUMPDEST POP POP POP DUP2 SHL ADD PUSH1 0x4 DUP6 ADD SSTORE PUSH2 0x58A JUMP JUMPDEST ADD MLOAD PUSH1 0x0 NOT PUSH1 0xF8 DUP5 PUSH1 0x3 SHL AND SHR NOT AND SWAP1 SSTORE DUP14 DUP1 DUP1 PUSH2 0x707 JUMP JUMPDEST SWAP2 SWAP3 PUSH1 0x20 PUSH1 0x1 DUP2 SWAP3 DUP7 DUP6 ADD MLOAD DUP2 SSTORE ADD SWAP5 ADD SWAP3 ADD PUSH2 0x6DF JUMP JUMPDEST ADD MLOAD SWAP1 POP DUP11 DUP1 PUSH2 0x505 JUMP JUMPDEST SWAP3 POP PUSH1 0x3 DUP6 ADD PUSH1 0x0 MSTORE PUSH1 0x20 PUSH1 0x0 KECCAK256 SWAP1 PUSH1 0x0 SWAP4 JUMPDEST PUSH1 0x1F NOT DUP5 AND DUP6 LT PUSH2 0x7AA JUMPI PUSH1 0x1 SWAP5 POP DUP4 PUSH1 0x1F NOT DUP2 AND LT PUSH2 0x791 JUMPI JUMPDEST POP POP POP DUP2 SHL ADD PUSH1 0x3 DUP4 ADD SSTORE PUSH2 0x51D JUMP JUMPDEST ADD MLOAD PUSH1 0x0 NOT PUSH1 0xF8 DUP5 PUSH1 0x3 SHL AND SHR NOT AND SWAP1 SSTORE DUP11 DUP1 DUP1 PUSH2 0x781 JUMP JUMPDEST DUP2 DUP2 ADD MLOAD DUP4 SSTORE PUSH1 0x20 SWAP5 DUP6 ADD SWAP5 PUSH1 0x1 SWAP1 SWAP4 ADD SWAP3 SWAP1 SWAP2 ADD SWAP1 PUSH2 0x766 JUMP JUMPDEST PUSH1 0x40 MLOAD PUSH4 0x79FAE7AF PUSH1 0xE0 SHL DUP2 MSTORE PUSH1 0x4 SWAP1 REVERT JUMPDEST PUSH1 0x40 MLOAD PUSH4 0x162908E3 PUSH1 0xE1 SHL DUP2 MSTORE PUSH1 0x4 SWAP1 REVERT JUMPDEST PUSH1 0x40 MLOAD PUSH4 0xE6C4247B PUSH1 0xE0 SHL DUP2 MSTORE PUSH1 0x4 SWAP1 REVERT JUMPDEST PUSH1 0x40 MLOAD PUSH4 0x3EE5AEB5 PUSH1 0xE0 SHL DUP2 MSTORE PUSH1 0x4 SWAP1 REVERT JUMPDEST CALLVALUE PUSH2 0x176 JUMPI PUSH1 0x40 CALLDATASIZE PUSH1 0x3 NOT ADD SLT PUSH2 0x176 JUMPI PUSH2 0x843 PUSH2 0x82F PUSH1 0x24 CALLDATALOAD PUSH1 0x4 CALLDATALOAD PUSH2 0x15FF JUMP JUMPDEST PUSH1 0x40 MLOAD SWAP2 DUP3 SWAP2 PUSH1 0x20 DUP4 MSTORE PUSH1 0x20 DUP4 ADD SWAP1 PUSH2 0x139D JUMP JUMPDEST SUB SWAP1 RETURN JUMPDEST CALLVALUE PUSH2 0x176 JUMPI PUSH1 0x20 CALLDATASIZE PUSH1 0x3 NOT ADD SLT PUSH2 0x176 JUMPI PUSH1 0x1 PUSH1 0x1 PUSH1 0xA0 SHL SUB PUSH2 0x868 PUSH2 0x115C JUMP JUMPDEST AND PUSH1 0x0 MSTORE PUSH1 0x6 PUSH1 0x20 MSTORE PUSH1 0x20 PUSH1 0x40 PUSH1 0x0 KECCAK256 SLOAD PUSH1 0x40 MLOAD SWAP1 DUP2 MSTORE RETURN JUMPDEST CALLVALUE PUSH2 0x176 JUMPI PUSH2 0x88F CALLDATASIZE PUSH2 0x1112 JUMP JUMPDEST SWAP3 SWAP2 PUSH1 0x21 DUP2 SUB PUSH2 0x7C5 JUMPI PUSH1 0x21 DUP5 SUB PUSH2 0x7C5 JUMPI CALLER PUSH1 0x0 MSTORE PUSH1 0x20 PUSH1 0x2 DUP2 MSTORE PUSH1 0x2 PUSH1 0x40 PUSH1 0x0 KECCAK256 ADD SLOAD ISZERO PUSH2 0x164 JUMPI CALLER PUSH1 0x0 MSTORE PUSH1 0x2 DUP2 MSTORE PUSH1 0x40 PUSH1 0x0 KECCAK256 PUSH1 0x1 PUSH1 0x1 PUSH1 0x40 SHL SUB SWAP2 DUP3 DUP5 GT PUSH2 0x6AD JUMPI PUSH2 0x8EA DUP5 PUSH2 0x8E4 DUP5 SLOAD PUSH2 0x11FF JUMP JUMPDEST DUP5 PUSH2 0x144B JUMP JUMPDEST DUP4 PUSH1 0x0 PUSH1 0x1F DUP3 GT PUSH1 0x1 EQ PUSH2 0xA3C JUMPI PUSH1 0x0 SWAP2 PUSH2 0xA31 JUMPI JUMPDEST POP DUP5 PUSH1 0x1 SHL SWAP1 PUSH1 0x0 NOT DUP7 PUSH1 0x3 SHL SHR NOT AND OR DUP3 SSTORE JUMPDEST PUSH1 0x1 DUP1 SWAP3 ADD SWAP3 DUP8 GT PUSH2 0x6AD JUMPI PUSH2 0x934 DUP8 PUSH2 0x92E DUP6 SLOAD PUSH2 0x11FF JUMP JUMPDEST DUP6 PUSH2 0x144B JUMP JUMPDEST PUSH1 0x0 SWAP1 PUSH1 0x1F DUP9 GT PUSH1 0x1 EQ PUSH2 0x9A5 JUMPI POP SWAP2 DUP7 DUP1 PUSH32 0xADC2C139E602A83D397CB63FECF58F752FFA736816E83BED4C6656C51654424B SWAP8 SWAP9 SWAP4 PUSH2 0x995 SWAP6 PUSH1 0x0 SWAP4 PUSH2 0x99A JUMPI JUMPDEST POP SHL SWAP1 PUSH1 0x0 NOT DUP5 PUSH1 0x3 SHL SHR NOT AND OR SWAP1 SSTORE JUMPDEST PUSH1 0x40 MLOAD SWAP4 DUP5 SWAP4 CALLER SWAP8 DUP6 PUSH2 0x14C0 JUMP JUMPDEST SUB SWAP1 LOG2 STOP JUMPDEST DUP9 ADD CALLDATALOAD SWAP3 POP DUP11 PUSH2 0x976 JUMP JUMPDEST SWAP1 PUSH1 0x1F NOT DUP9 AND DUP5 PUSH1 0x0 MSTORE DUP3 PUSH1 0x0 KECCAK256 SWAP3 PUSH1 0x0 SWAP1 JUMPDEST DUP3 DUP3 LT PUSH2 0xA1A JUMPI POP POP SWAP2 DUP9 SWAP4 SWAP2 PUSH32 0xADC2C139E602A83D397CB63FECF58F752FFA736816E83BED4C6656C51654424B SWAP9 SWAP10 PUSH2 0x995 SWAP7 SWAP5 LT PUSH2 0xA00 JUMPI JUMPDEST POP POP DUP3 DUP2 SHL ADD SWAP1 SSTORE PUSH2 0x987 JUMP JUMPDEST DUP8 ADD CALLDATALOAD PUSH1 0x0 NOT PUSH1 0x3 DUP7 SWAP1 SHL PUSH1 0xF8 AND SHR NOT AND SWAP1 SSTORE DUP9 DUP1 PUSH2 0x9F3 JUMP JUMPDEST DUP1 DUP7 DUP6 SWAP7 DUP3 SWAP5 SWAP7 DUP13 ADD CALLDATALOAD DUP2 SSTORE ADD SWAP6 ADD SWAP4 ADD SWAP1 PUSH2 0x9B8 JUMP JUMPDEST SWAP1 POP DUP7 ADD CALLDATALOAD DUP9 PUSH2 0x900 JUMP JUMPDEST PUSH1 0x0 DUP5 DUP2 MSTORE DUP4 DUP2 KECCAK256 SWAP3 POP DUP7 SWAP1 PUSH1 0x1F NOT DUP3 AND SWAP1 JUMPDEST DUP6 DUP3 DUP3 LT PUSH2 0xA88 JUMPI POP POP LT PUSH2 0xA6E JUMPI JUMPDEST POP POP PUSH1 0x1 DUP5 DUP2 SHL ADD DUP3 SSTORE PUSH2 0x914 JUMP JUMPDEST DUP8 ADD CALLDATALOAD PUSH1 0x0 NOT PUSH1 0x3 DUP8 SWAP1 SHL PUSH1 0xF8 AND SHR NOT AND SWAP1 SSTORE DUP8 DUP1 PUSH2 0xA5F JUMP JUMPDEST DUP12 DUP6 ADD CALLDATALOAD DUP7 SSTORE PUSH1 0x1 SWAP1 SWAP6 ADD SWAP5 SWAP4 DUP5 ADD SWAP4 DUP10 SWAP4 POP ADD PUSH2 0xA4F JUMP JUMPDEST CALLVALUE PUSH2 0x176 JUMPI PUSH1 0x20 CALLDATASIZE PUSH1 0x3 NOT ADD SLT PUSH2 0x176 JUMPI PUSH1 0x4 CALLDATALOAD PUSH1 0x0 MSTORE PUSH1 0x3 PUSH1 0x20 MSTORE PUSH1 0x40 PUSH1 0x0 KECCAK256 DUP1 SLOAD PUSH1 0x1 DUP1 PUSH1 0xA0 SHL SUB PUSH1 0x1 DUP4 ADD SLOAD AND SWAP2 PUSH1 0x2 DUP2 ADD SLOAD PUSH2 0xB35 PUSH2 0xAE6 PUSH1 0x3 DUP5 ADD PUSH2 0x1290 JUMP JUMPDEST PUSH2 0xB27 PUSH2 0xAF5 PUSH1 0x4 DUP7 ADD PUSH2 0x1290 JUMP JUMPDEST SWAP2 PUSH1 0xFF PUSH1 0x6 PUSH1 0x5 DUP9 ADD SLOAD SWAP8 ADD SLOAD AND SWAP5 PUSH1 0x40 MLOAD SWAP9 DUP10 SWAP9 DUP10 MSTORE PUSH1 0x20 DUP10 ADD MSTORE PUSH1 0x40 DUP9 ADD MSTORE PUSH1 0xE0 PUSH1 0x60 DUP9 ADD MSTORE PUSH1 0xE0 DUP8 ADD SWAP1 PUSH2 0x1172 JUMP JUMPDEST SWAP1 DUP6 DUP3 SUB PUSH1 0x80 DUP8 ADD MSTORE PUSH2 0x1172 JUMP JUMPDEST SWAP2 PUSH1 0xA0 DUP5 ADD MSTORE ISZERO ISZERO PUSH1 0xC0 DUP4 ADD MSTORE SUB SWAP1 RETURN JUMPDEST CALLVALUE PUSH2 0x176 JUMPI PUSH1 0x0 CALLDATASIZE PUSH1 0x3 NOT ADD SLT PUSH2 0x176 JUMPI PUSH1 0x20 PUSH1 0x1 SLOAD PUSH1 0x40 MLOAD SWAP1 DUP2 MSTORE RETURN JUMPDEST CALLVALUE PUSH2 0x176 JUMPI PUSH1 0x0 CALLDATASIZE PUSH1 0x3 NOT ADD SLT PUSH2 0x176 JUMPI CALLER PUSH1 0x0 MSTORE PUSH1 0x2 PUSH1 0x20 MSTORE PUSH1 0x2 PUSH1 0x40 PUSH1 0x0 KECCAK256 ADD SLOAD ISZERO PUSH2 0x164 JUMPI CALLER PUSH1 0x0 SWAP1 DUP2 MSTORE PUSH1 0x2 PUSH1 0x20 MSTORE PUSH1 0x40 SWAP1 KECCAK256 PUSH1 0x3 ADD DUP1 SLOAD PUSH1 0xFF NOT AND PUSH1 0x1 OR SWAP1 SSTORE STOP JUMPDEST CALLVALUE PUSH2 0x176 JUMPI PUSH1 0x20 CALLDATASIZE PUSH1 0x3 NOT ADD SLT PUSH2 0x176 JUMPI PUSH2 0xBC4 PUSH2 0x150F JUMP JUMPDEST POP PUSH1 0x4 CALLDATALOAD PUSH1 0x0 MSTORE PUSH1 0x3 PUSH1 0x20 MSTORE PUSH2 0x843 PUSH1 0x40 PUSH1 0x0 KECCAK256 PUSH1 0xFF PUSH1 0x6 PUSH1 0x40 MLOAD SWAP3 PUSH2 0xBE9 DUP5 PUSH2 0x1254 JUMP JUMPDEST DUP1 SLOAD DUP5 MSTORE PUSH1 0x1 DUP2 ADD SLOAD PUSH1 0x1 PUSH1 0x1 PUSH1 0xA0 SHL SUB AND PUSH1 0x20 DUP6 ADD MSTORE PUSH1 0x2 DUP2 ADD SLOAD PUSH1 0x40 DUP6 ADD MSTORE PUSH2 0xC16 PUSH1 0x3 DUP3 ADD PUSH2 0x1290 JUMP JUMPDEST PUSH1 0x60 DUP6 ADD MSTORE PUSH2 0xC27 PUSH1 0x4 DUP3 ADD PUSH2 0x1290 JUMP JUMPDEST PUSH1 0x80 DUP6 ADD MSTORE PUSH1 0x5 DUP2 ADD SLOAD PUSH1 0xA0 DUP6 ADD MSTORE ADD SLOAD AND ISZERO ISZERO PUSH1 0xC0 DUP3 ADD MSTORE PUSH1 0x40 MLOAD SWAP2 DUP3 SWAP2 PUSH1 0x20 DUP4 MSTORE PUSH1 0x20 DUP4 ADD SWAP1 PUSH2 0x1336 JUMP JUMPDEST CALLVALUE PUSH2 0x176 JUMPI PUSH1 0x40 CALLDATASIZE PUSH1 0x3 NOT ADD SLT PUSH2 0x176 JUMPI PUSH2 0xC6D PUSH2 0x115C JUMP JUMPDEST PUSH1 0x1 PUSH1 0x1 PUSH1 0xA0 SHL SUB AND PUSH1 0x0 SWAP1 DUP2 MSTORE PUSH1 0x4 PUSH1 0x20 MSTORE PUSH1 0x40 SWAP1 KECCAK256 DUP1 SLOAD PUSH1 0x24 CALLDATALOAD SWAP1 DUP2 LT ISZERO PUSH2 0x176 JUMPI PUSH1 0x20 SWAP2 PUSH1 0x0 MSTORE DUP2 PUSH1 0x0 KECCAK256 ADD SLOAD PUSH1 0x40 MLOAD SWAP1 DUP2 MSTORE RETURN JUMPDEST CALLVALUE PUSH2 0x176 JUMPI PUSH1 0x20 CALLDATASIZE PUSH1 0x3 NOT ADD SLT PUSH2 0x176 JUMPI PUSH1 0x1 PUSH1 0x1 PUSH1 0xA0 SHL SUB PUSH2 0xCC6 PUSH2 0x115C JUMP JUMPDEST AND PUSH1 0x0 MSTORE PUSH1 0x2 PUSH1 0x20 MSTORE PUSH2 0xD12 PUSH1 0x40 PUSH1 0x0 KECCAK256 PUSH2 0xCE0 DUP2 PUSH2 0x1290 JUMP JUMPDEST SWAP1 PUSH2 0xCED PUSH1 0x1 DUP3 ADD PUSH2 0x1290 JUMP JUMPDEST PUSH2 0xD20 PUSH1 0xFF PUSH1 0x3 PUSH1 0x2 DUP6 ADD SLOAD SWAP5 ADD SLOAD AND SWAP2 PUSH1 0x40 MLOAD SWAP6 DUP7 SWAP6 PUSH1 0x80 DUP8 MSTORE PUSH1 0x80 DUP8 ADD SWAP1 PUSH2 0x1172 JUMP JUMPDEST SWAP1 DUP6 DUP3 SUB PUSH1 0x20 DUP8 ADD MSTORE PUSH2 0x1172 JUMP JUMPDEST SWAP2 PUSH1 0x40 DUP5 ADD MSTORE ISZERO ISZERO PUSH1 0x60 DUP4 ADD MSTORE SUB SWAP1 RETURN JUMPDEST CALLVALUE PUSH2 0x176 JUMPI PUSH1 0x20 CALLDATASIZE PUSH1 0x3 NOT ADD SLT PUSH2 0x176 JUMPI PUSH1 0x4 CALLDATALOAD PUSH1 0x5 SLOAD DUP2 LT ISZERO PUSH2 0x176 JUMPI PUSH2 0xD5A PUSH1 0x20 SWAP2 PUSH2 0x11B2 JUMP JUMPDEST SWAP1 SLOAD PUSH1 0x40 MLOAD SWAP2 PUSH1 0x3 SHL SHR DUP2 MSTORE RETURN JUMPDEST CALLVALUE PUSH2 0x176 JUMPI PUSH1 0x20 DUP1 PUSH1 0x3 NOT CALLDATASIZE ADD SLT PUSH2 0x176 JUMPI PUSH1 0x80 SWAP1 PUSH2 0xD85 PUSH2 0x115C JUMP JUMPDEST PUSH1 0x0 PUSH1 0x60 PUSH1 0x40 MLOAD PUSH2 0xD95 DUP2 PUSH2 0x1239 JUMP JUMPDEST DUP2 DUP2 MSTORE DUP2 DUP6 DUP3 ADD MSTORE DUP3 PUSH1 0x40 DUP3 ADD MSTORE ADD MSTORE PUSH1 0x1 DUP1 PUSH1 0xA0 SHL SUB AND PUSH1 0x0 MSTORE PUSH1 0x2 DUP2 MSTORE PUSH1 0x40 PUSH1 0x0 KECCAK256 PUSH1 0x40 MLOAD SWAP2 PUSH2 0xDC6 DUP4 PUSH2 0x1239 JUMP JUMPDEST PUSH2 0xDCF DUP3 PUSH2 0x1290 JUMP JUMPDEST DUP4 MSTORE PUSH2 0xE32 PUSH2 0xDE0 PUSH1 0x1 DUP5 ADD PUSH2 0x1290 JUMP JUMPDEST DUP3 DUP6 ADD SWAP1 DUP2 MSTORE PUSH2 0xE1F PUSH1 0xFF PUSH1 0x3 PUSH1 0x2 DUP8 ADD SLOAD SWAP7 PUSH1 0x40 DUP10 ADD SWAP8 DUP9 MSTORE ADD SLOAD AND SWAP4 PUSH1 0x60 DUP8 ADD SWAP5 ISZERO ISZERO DUP6 MSTORE PUSH1 0x40 MLOAD SWAP8 DUP9 SWAP8 DUP3 DUP10 MSTORE MLOAD SWAP2 DUP9 ADD MSTORE PUSH1 0xA0 DUP8 ADD SWAP1 PUSH2 0x1172 JUMP JUMPDEST SWAP1 MLOAD DUP6 DUP3 SUB PUSH1 0x1F NOT ADD PUSH1 0x40 DUP8 ADD MSTORE PUSH2 0x1172 JUMP JUMPDEST SWAP2 MLOAD PUSH1 0x60 DUP5 ADD MSTORE MLOAD ISZERO ISZERO PUSH1 0x80 DUP4 ADD MSTORE SUB SWAP1 RETURN JUMPDEST CALLVALUE PUSH2 0x176 JUMPI PUSH2 0xE53 CALLDATASIZE PUSH2 0x1112 JUMP JUMPDEST SWAP4 PUSH1 0x21 DUP4 SWAP3 SWAP4 SUB PUSH2 0x10D6 JUMPI POP PUSH1 0x21 DUP5 SUB PUSH2 0x7C5 JUMPI CALLER PUSH1 0x0 MSTORE PUSH1 0x20 SWAP4 PUSH1 0x2 DUP6 MSTORE PUSH1 0x2 PUSH1 0x40 PUSH1 0x0 KECCAK256 ADD SLOAD PUSH2 0x10C4 JUMPI PUSH1 0x40 MLOAD SWAP5 PUSH2 0xE8C DUP7 PUSH2 0x1239 JUMP JUMPDEST PUSH2 0xE97 CALLDATASIZE DUP5 DUP8 PUSH2 0x1414 JUMP JUMPDEST DUP7 MSTORE PUSH2 0xEA4 CALLDATASIZE DUP4 DUP7 PUSH2 0x1414 JUMP JUMPDEST DUP2 DUP8 ADD SWAP1 DUP2 MSTORE PUSH1 0x40 DUP8 ADD SWAP1 TIMESTAMP DUP3 MSTORE PUSH1 0x60 DUP9 ADD SWAP3 PUSH1 0x1 DUP1 DUP6 MSTORE CALLER PUSH1 0x0 MSTORE PUSH1 0x2 DUP3 MSTORE PUSH1 0x40 PUSH1 0x0 KECCAK256 SWAP10 MLOAD SWAP2 DUP3 MLOAD PUSH1 0x1 PUSH1 0x1 PUSH1 0x40 SHL SUB SWAP4 DUP5 DUP3 GT PUSH2 0x6AD JUMPI DUP13 DUP3 SWAP2 PUSH2 0xEEF DUP4 PUSH2 0x8E4 DUP5 SLOAD PUSH2 0x11FF JUMP JUMPDEST DUP5 SWAP2 PUSH1 0x1F DUP5 GT PUSH1 0x1 EQ PUSH2 0x1061 JUMPI POP PUSH1 0x0 SWAP3 PUSH2 0x1056 JUMPI JUMPDEST POP POP PUSH1 0x0 NOT PUSH1 0x3 DUP4 SWAP1 SHL SHR NOT AND SWAP1 DUP4 SHL OR DUP12 SSTORE JUMPDEST DUP2 DUP12 ADD SWAP4 MLOAD DUP1 MLOAD SWAP4 DUP5 GT PUSH2 0x6AD JUMPI PUSH2 0xF3B DUP5 PUSH2 0xF35 DUP8 SLOAD PUSH2 0x11FF JUMP JUMPDEST DUP8 PUSH2 0x144B JUMP JUMPDEST DUP2 PUSH1 0x1F DUP6 GT PUSH1 0x1 EQ PUSH2 0xFBE JUMPI POP SWAP4 DUP4 DUP1 PUSH1 0x3 SWAP6 PUSH2 0x995 SWAP11 SWAP10 SWAP6 PUSH32 0x71F5161111395441B9FAEFFF5F6FE6A1221ADA7B832B79DB7923DDB1FFF134FC SWAP15 SWAP16 SWAP9 SWAP6 PUSH2 0x987 SWAP11 SWAP7 PUSH1 0x0 SWAP5 PUSH2 0xFB3 JUMPI JUMPDEST POP POP SHL SWAP2 PUSH1 0x0 NOT SWAP1 DUP8 SHL SHR NOT AND OR SWAP1 SSTORE JUMPDEST MLOAD PUSH1 0x2 DUP5 ADD SSTORE MLOAD ISZERO ISZERO SWAP2 ADD SWAP1 PUSH1 0xFF DUP1 NOT DUP4 SLOAD AND SWAP2 ISZERO ISZERO AND OR SWAP1 SSTORE JUMP JUMPDEST ADD MLOAD SWAP3 POP CODESIZE DUP1 PUSH2 0xF86 JUMP JUMPDEST SWAP2 SWAP1 PUSH1 0x1F SWAP5 SWAP4 SWAP5 NOT DUP5 AND DUP7 PUSH1 0x0 MSTORE DUP4 PUSH1 0x0 KECCAK256 SWAP4 PUSH1 0x0 SWAP1 JUMPDEST DUP3 DUP3 LT PUSH2 0x103F JUMPI POP POP SWAP4 PUSH2 0x987 SWAP8 SWAP4 PUSH32 0x71F5161111395441B9FAEFFF5F6FE6A1221ADA7B832B79DB7923DDB1FFF134FC SWAP14 SWAP15 SWAP8 SWAP4 PUSH1 0x3 SWAP8 SWAP4 DUP4 PUSH2 0x995 SWAP14 SWAP13 SWAP9 LT PUSH2 0x1027 JUMPI JUMPDEST POP POP POP DUP2 SHL ADD SWAP1 SSTORE PUSH2 0xF97 JUMP JUMPDEST ADD MLOAD PUSH1 0x0 NOT DUP4 DUP10 SHL PUSH1 0xF8 AND SHR NOT AND SWAP1 SSTORE DUP15 DUP1 DUP1 PUSH2 0x101A JUMP JUMPDEST DUP1 DUP9 DUP7 SWAP8 DUP3 SWAP5 SWAP8 DUP8 ADD MLOAD DUP2 SSTORE ADD SWAP7 ADD SWAP5 ADD SWAP1 PUSH2 0xFD5 JUMP JUMPDEST ADD MLOAD SWAP1 POP DUP14 DUP1 PUSH2 0xF05 JUMP JUMPDEST SWAP2 SWAP1 DUP7 SWAP5 POP PUSH1 0x1F NOT DUP5 AND SWAP3 PUSH1 0x0 MSTORE DUP6 PUSH1 0x0 KECCAK256 SWAP3 PUSH1 0x0 JUMPDEST DUP8 DUP3 DUP3 LT PUSH2 0x10AE JUMPI POP POP DUP5 GT PUSH2 0x1095 JUMPI JUMPDEST POP POP POP DUP2 SHL ADD DUP12 SSTORE PUSH2 0xF19 JUMP JUMPDEST ADD MLOAD PUSH1 0x0 NOT PUSH1 0xF8 DUP5 PUSH1 0x3 SHL AND SHR NOT AND SWAP1 SSTORE DUP14 DUP1 DUP1 PUSH2 0x1088 JUMP JUMPDEST DUP4 DUP6 ADD MLOAD DUP7 SSTORE DUP10 SWAP8 SWAP1 SWAP6 ADD SWAP5 SWAP4 DUP5 ADD SWAP4 ADD PUSH2 0x1077 JUMP JUMPDEST PUSH1 0x40 MLOAD PUSH4 0x73E25EF9 PUSH1 0xE1 SHL DUP2 MSTORE PUSH1 0x4 SWAP1 REVERT JUMPDEST PUSH4 0x79FAE7AF PUSH1 0xE0 SHL DUP2 MSTORE PUSH1 0x4 SWAP1 REVERT JUMPDEST SWAP2 DUP2 PUSH1 0x1F DUP5 ADD SLT ISZERO PUSH2 0x176 JUMPI DUP3 CALLDATALOAD SWAP2 PUSH1 0x1 PUSH1 0x1 PUSH1 0x40 SHL SUB DUP4 GT PUSH2 0x176 JUMPI PUSH1 0x20 DUP4 DUP2 DUP7 ADD SWAP6 ADD ADD GT PUSH2 0x176 JUMPI JUMP JUMPDEST PUSH1 0x40 PUSH1 0x3 NOT DUP3 ADD SLT PUSH2 0x176 JUMPI PUSH1 0x1 PUSH1 0x1 PUSH1 0x40 SHL SUB SWAP2 PUSH1 0x4 CALLDATALOAD DUP4 DUP2 GT PUSH2 0x176 JUMPI DUP3 PUSH2 0x113E SWAP2 PUSH1 0x4 ADD PUSH2 0x10E5 JUMP JUMPDEST SWAP4 SWAP1 SWAP4 SWAP3 PUSH1 0x24 CALLDATALOAD SWAP2 DUP3 GT PUSH2 0x176 JUMPI PUSH2 0x1158 SWAP2 PUSH1 0x4 ADD PUSH2 0x10E5 JUMP JUMPDEST SWAP1 SWAP2 JUMP JUMPDEST PUSH1 0x4 CALLDATALOAD SWAP1 PUSH1 0x1 PUSH1 0x1 PUSH1 0xA0 SHL SUB DUP3 AND DUP3 SUB PUSH2 0x176 JUMPI JUMP JUMPDEST SWAP2 SWAP1 DUP3 MLOAD SWAP3 DUP4 DUP3 MSTORE PUSH1 0x0 JUMPDEST DUP5 DUP2 LT PUSH2 0x119E JUMPI POP POP DUP3 PUSH1 0x0 PUSH1 0x20 DUP1 SWAP5 SWAP6 DUP5 ADD ADD MSTORE PUSH1 0x1F DUP1 NOT SWAP2 ADD AND ADD ADD SWAP1 JUMP JUMPDEST PUSH1 0x20 DUP2 DUP4 ADD DUP2 ADD MLOAD DUP5 DUP4 ADD DUP3 ADD MSTORE ADD PUSH2 0x117D JUMP JUMPDEST PUSH1 0x5 SLOAD DUP2 LT ISZERO PUSH2 0x11E9 JUMPI PUSH1 0x5 PUSH1 0x0 MSTORE PUSH32 0x36B6384B5ECA791C62761152D0C79BB0604C104A5FB6F4EB0703F3154BB3DB0 ADD SWAP1 PUSH1 0x0 SWAP1 JUMP JUMPDEST PUSH4 0x4E487B71 PUSH1 0xE0 SHL PUSH1 0x0 MSTORE PUSH1 0x32 PUSH1 0x4 MSTORE PUSH1 0x24 PUSH1 0x0 REVERT JUMPDEST SWAP1 PUSH1 0x1 DUP3 DUP2 SHR SWAP3 AND DUP1 ISZERO PUSH2 0x122F JUMPI JUMPDEST PUSH1 0x20 DUP4 LT EQ PUSH2 0x1219 JUMPI JUMP JUMPDEST PUSH4 0x4E487B71 PUSH1 0xE0 SHL PUSH1 0x0 MSTORE PUSH1 0x22 PUSH1 0x4 MSTORE PUSH1 0x24 PUSH1 0x0 REVERT JUMPDEST SWAP2 PUSH1 0x7F AND SWAP2 PUSH2 0x120E JUMP JUMPDEST PUSH1 0x80 DUP2 ADD SWAP1 DUP2 LT PUSH1 0x1 PUSH1 0x1 PUSH1 0x40 SHL SUB DUP3 GT OR PUSH2 0x6AD JUMPI PUSH1 0x40 MSTORE JUMP JUMPDEST PUSH1 0xE0 DUP2 ADD SWAP1 DUP2 LT PUSH1 0x1 PUSH1 0x1 PUSH1 0x40 SHL SUB DUP3 GT OR PUSH2 0x6AD JUMPI PUSH1 0x40 MSTORE JUMP JUMPDEST SWAP1 PUSH1 0x1F DUP1 NOT SWAP2 ADD AND DUP2 ADD SWAP1 DUP2 LT PUSH1 0x1 PUSH1 0x1 PUSH1 0x40 SHL SUB DUP3 GT OR PUSH2 0x6AD JUMPI PUSH1 0x40 MSTORE JUMP JUMPDEST SWAP1 PUSH1 0x40 MLOAD SWAP2 DUP3 PUSH1 0x0 DUP3 SLOAD SWAP3 PUSH2 0x12A4 DUP5 PUSH2 0x11FF JUMP JUMPDEST SWAP1 DUP2 DUP5 MSTORE PUSH1 0x1 SWAP5 DUP6 DUP2 AND SWAP1 DUP2 PUSH1 0x0 EQ PUSH2 0x1313 JUMPI POP PUSH1 0x1 EQ PUSH2 0x12D0 JUMPI JUMPDEST POP POP PUSH2 0x12CE SWAP3 POP SUB DUP4 PUSH2 0x126F JUMP JUMPDEST JUMP JUMPDEST SWAP1 SWAP4 SWAP2 POP PUSH1 0x0 MSTORE PUSH1 0x20 SWAP1 DUP2 PUSH1 0x0 KECCAK256 SWAP4 PUSH1 0x0 SWAP2 JUMPDEST DUP2 DUP4 LT PUSH2 0x12FB JUMPI POP POP PUSH2 0x12CE SWAP4 POP DUP3 ADD ADD CODESIZE DUP1 PUSH2 0x12C0 JUMP JUMPDEST DUP6 SLOAD DUP9 DUP5 ADD DUP6 ADD MSTORE SWAP5 DUP6 ADD SWAP5 DUP8 SWAP5 POP SWAP2 DUP4 ADD SWAP2 PUSH2 0x12E3 JUMP JUMPDEST SWAP2 POP POP PUSH2 0x12CE SWAP5 POP PUSH1 0x20 SWAP3 POP PUSH1 0xFF NOT AND DUP3 DUP5 ADD MSTORE ISZERO ISZERO PUSH1 0x5 SHL DUP3 ADD ADD CODESIZE DUP1 PUSH2 0x12C0 JUMP JUMPDEST SWAP1 DUP2 MLOAD DUP2 MSTORE PUSH1 0x1 DUP1 PUSH1 0xA0 SHL SUB PUSH1 0x20 DUP4 ADD MLOAD AND PUSH1 0x20 DUP3 ADD MSTORE PUSH1 0x40 DUP3 ADD MLOAD PUSH1 0x40 DUP3 ADD MSTORE PUSH1 0xC0 DUP1 PUSH2 0x1388 PUSH2 0x1376 PUSH1 0x60 DUP7 ADD MLOAD PUSH1 0xE0 PUSH1 0x60 DUP8 ADD MSTORE PUSH1 0xE0 DUP7 ADD SWAP1 PUSH2 0x1172 JUMP JUMPDEST PUSH1 0x80 DUP7 ADD MLOAD DUP6 DUP3 SUB PUSH1 0x80 DUP8 ADD MSTORE PUSH2 0x1172 JUMP JUMPDEST SWAP4 PUSH1 0xA0 DUP2 ADD MLOAD PUSH1 0xA0 DUP6 ADD MSTORE ADD MLOAD ISZERO ISZERO SWAP2 ADD MSTORE SWAP1 JUMP JUMPDEST SWAP1 DUP1 DUP3 MLOAD SWAP1 DUP2 DUP2 MSTORE PUSH1 0x20 DUP1 SWAP2 ADD SWAP3 DUP2 DUP1 DUP5 PUSH1 0x5 SHL DUP4 ADD ADD SWAP6 ADD SWAP4 PUSH1 0x0 SWAP2 JUMPDEST DUP5 DUP4 LT PUSH2 0x13CB JUMPI POP POP POP POP POP POP SWAP1 JUMP JUMPDEST SWAP1 SWAP2 SWAP3 SWAP4 SWAP5 SWAP6 DUP5 DUP1 PUSH2 0x13E9 PUSH1 0x1 SWAP4 PUSH1 0x1F NOT DUP7 DUP3 SUB ADD DUP8 MSTORE DUP11 MLOAD PUSH2 0x1336 JUMP JUMPDEST SWAP9 ADD SWAP4 ADD SWAP4 ADD SWAP2 SWAP5 SWAP4 SWAP3 SWAP1 PUSH2 0x13BB JUMP JUMPDEST PUSH1 0x1 PUSH1 0x1 PUSH1 0x40 SHL SUB DUP2 GT PUSH2 0x6AD JUMPI PUSH1 0x1F ADD PUSH1 0x1F NOT AND PUSH1 0x20 ADD SWAP1 JUMP JUMPDEST SWAP3 SWAP2 SWAP3 PUSH2 0x1420 DUP3 PUSH2 0x13F9 JUMP JUMPDEST SWAP2 PUSH2 0x142E PUSH1 0x40 MLOAD SWAP4 DUP5 PUSH2 0x126F JUMP JUMPDEST DUP3 SWAP5 DUP2 DUP5 MSTORE DUP2 DUP4 ADD GT PUSH2 0x176 JUMPI DUP3 DUP2 PUSH1 0x20 SWAP4 DUP5 PUSH1 0x0 SWAP7 ADD CALLDATACOPY ADD ADD MSTORE JUMP JUMPDEST SWAP1 PUSH1 0x1F DUP2 GT PUSH2 0x1459 JUMPI POP POP POP JUMP JUMPDEST PUSH1 0x0 SWAP2 DUP3 MSTORE PUSH1 0x20 DUP3 KECCAK256 SWAP1 PUSH1 0x20 PUSH1 0x1F DUP6 ADD PUSH1 0x5 SHR DUP4 ADD SWAP5 LT PUSH2 0x1495 JUMPI JUMPDEST PUSH1 0x1F ADD PUSH1 0x5 SHR ADD SWAP2 JUMPDEST DUP3 DUP2 LT PUSH2 0x148A JUMPI POP POP POP JUMP JUMPDEST DUP2 DUP2 SSTORE PUSH1 0x1 ADD PUSH2 0x147E JUMP JUMPDEST SWAP1 SWAP3 POP DUP3 SWAP1 PUSH2 0x1475 JUMP JUMPDEST SWAP1 DUP1 PUSH1 0x20 SWAP4 SWAP3 DUP2 DUP5 MSTORE DUP5 DUP5 ADD CALLDATACOPY PUSH1 0x0 DUP3 DUP3 ADD DUP5 ADD MSTORE PUSH1 0x1F ADD PUSH1 0x1F NOT AND ADD ADD SWAP1 JUMP JUMPDEST SWAP3 SWAP1 PUSH2 0x14D9 SWAP1 PUSH2 0x14E7 SWAP6 SWAP4 PUSH1 0x40 DUP7 MSTORE PUSH1 0x40 DUP7 ADD SWAP2 PUSH2 0x149F JUMP JUMPDEST SWAP3 PUSH1 0x20 DUP2 DUP6 SUB SWAP2 ADD MSTORE PUSH2 0x149F JUMP JUMPDEST SWAP1 JUMP JUMPDEST PUSH1 0x0 NOT DUP2 EQ PUSH2 0x14F9 JUMPI PUSH1 0x1 ADD SWAP1 JUMP JUMPDEST PUSH4 0x4E487B71 PUSH1 0xE0 SHL PUSH1 0x0 MSTORE PUSH1 0x11 PUSH1 0x4 MSTORE PUSH1 0x24 PUSH1 0x0 REVERT JUMPDEST PUSH1 0x40 MLOAD SWAP1 PUSH2 0x151C DUP3 PUSH2 0x1254 JUMP JUMPDEST PUSH1 0x0 PUSH1 0xC0 DUP4 DUP3 DUP2 MSTORE DUP3 PUSH1 0x20 DUP3 ADD MSTORE DUP3 PUSH1 0x40 DUP3 ADD MSTORE PUSH1 0x60 DUP1 DUP3 ADD MSTORE PUSH1 0x60 PUSH1 0x80 DUP3 ADD MSTORE DUP3 PUSH1 0xA0 DUP3 ADD MSTORE ADD MSTORE JUMP JUMPDEST PUSH1 0x1 PUSH1 0x1 PUSH1 0x40 SHL SUB DUP2 GT PUSH2 0x6AD JUMPI PUSH1 0x5 SHL PUSH1 0x20 ADD SWAP1 JUMP JUMPDEST PUSH1 0x40 MLOAD PUSH1 0x20 DUP2 ADD DUP2 DUP2 LT PUSH1 0x1 PUSH1 0x1 PUSH1 0x40 SHL SUB DUP3 GT OR PUSH2 0x6AD JUMPI PUSH1 0x40 MSTORE PUSH1 0x0 DUP2 MSTORE SWAP1 JUMP JUMPDEST SWAP1 PUSH2 0x158B DUP3 PUSH2 0x1547 JUMP JUMPDEST PUSH2 0x1598 PUSH1 0x40 MLOAD SWAP2 DUP3 PUSH2 0x126F JUMP JUMPDEST DUP3 DUP2 MSTORE DUP1 SWAP3 PUSH2 0x15A9 PUSH1 0x1F NOT SWAP2 PUSH2 0x1547 JUMP JUMPDEST ADD SWAP1 PUSH1 0x0 JUMPDEST DUP3 DUP2 LT PUSH2 0x15BA JUMPI POP POP POP JUMP JUMPDEST PUSH1 0x20 SWAP1 PUSH2 0x15C5 PUSH2 0x150F JUMP JUMPDEST DUP3 DUP3 DUP6 ADD ADD MSTORE ADD PUSH2 0x15AE JUMP JUMPDEST SWAP2 SWAP1 DUP3 ADD DUP1 SWAP3 GT PUSH2 0x14F9 JUMPI JUMP JUMPDEST SWAP2 SWAP1 DUP3 SUB SWAP2 DUP3 GT PUSH2 0x14F9 JUMPI JUMP JUMPDEST DUP1 MLOAD DUP3 LT ISZERO PUSH2 0x11E9 JUMPI PUSH1 0x20 SWAP2 PUSH1 0x5 SHL ADD ADD SWAP1 JUMP JUMPDEST SWAP1 PUSH1 0x5 SWAP1 DUP2 SLOAD SWAP1 DUP2 DUP5 LT ISZERO PUSH2 0x1702 JUMPI PUSH2 0x162C SWAP2 PUSH2 0x161D DUP6 SWAP3 DUP4 PUSH2 0x15D1 JUMP JUMPDEST SWAP1 DUP1 DUP3 GT PUSH2 0x16FA JUMPI JUMPDEST POP PUSH2 0x15DE JUMP JUMPDEST SWAP1 PUSH2 0x1636 DUP3 PUSH2 0x1581 JUMP JUMPDEST SWAP3 PUSH1 0x0 SWAP1 DUP2 JUMPDEST DUP5 DUP2 LT PUSH2 0x164B JUMPI POP POP POP POP POP SWAP1 JUMP JUMPDEST DUP1 PUSH2 0x1661 PUSH2 0x165C PUSH2 0x16F5 SWAP4 DUP6 PUSH2 0x15D1 JUMP JUMPDEST PUSH2 0x11B2 JUMP JUMPDEST SWAP1 SLOAD PUSH1 0x3 SWAP2 DUP3 SHL SHR DUP6 MSTORE PUSH1 0xFF PUSH1 0x6 PUSH1 0x20 SWAP3 DUP1 DUP5 MSTORE PUSH2 0x16B1 PUSH1 0x40 SWAP2 DUP3 DUP11 KECCAK256 SWAP3 DUP1 MLOAD SWAP7 PUSH2 0x168B DUP9 PUSH2 0x1254 JUMP JUMPDEST DUP5 SLOAD DUP9 MSTORE PUSH1 0x1 DUP6 ADD SLOAD PUSH1 0x1 PUSH1 0x1 PUSH1 0xA0 SHL SUB AND SWAP1 DUP9 ADD MSTORE PUSH1 0x2 DUP5 ADD SLOAD SWAP1 DUP8 ADD MSTORE DUP3 ADD PUSH2 0x1290 JUMP JUMPDEST PUSH1 0x60 DUP6 ADD MSTORE PUSH2 0x16C2 PUSH1 0x4 DUP3 ADD PUSH2 0x1290 JUMP JUMPDEST PUSH1 0x80 DUP6 ADD MSTORE DUP9 DUP2 ADD SLOAD PUSH1 0xA0 DUP6 ADD MSTORE ADD SLOAD AND ISZERO ISZERO PUSH1 0xC0 DUP3 ADD MSTORE PUSH2 0x16E4 DUP3 DUP10 PUSH2 0x15EB JUMP JUMPDEST MSTORE PUSH2 0x16EF DUP2 DUP9 PUSH2 0x15EB JUMP JUMPDEST POP PUSH2 0x14EA JUMP JUMPDEST PUSH2 0x163C JUMP JUMPDEST SWAP1 POP CODESIZE PUSH2 0x1626 JUMP JUMPDEST POP POP POP POP PUSH2 0x14E7 PUSH2 0x155E JUMP JUMPDEST SWAP1 PUSH1 0x0 CALLER DUP2 MSTORE PUSH1 0x6 PUSH1 0x20 SWAP2 DUP2 DUP4 MSTORE PUSH1 0x40 SWAP3 DUP4 DUP3 KECCAK256 SLOAD SWAP3 PUSH1 0x5 SWAP7 DUP8 SLOAD DUP1 DUP7 LT ISZERO PUSH2 0x180E JUMPI DUP6 PUSH2 0x173B SWAP2 PUSH2 0x15DE JUMP JUMPDEST SWAP1 DUP1 DUP3 LT ISZERO PUSH2 0x1806 JUMPI POP SWAP5 JUMPDEST PUSH2 0x1750 DUP7 PUSH2 0x1581 JUMP JUMPDEST SWAP8 DUP5 JUMPDEST DUP8 DUP2 LT PUSH2 0x176A JUMPI POP POP POP POP POP POP SWAP1 PUSH2 0x14E7 SWAP2 PUSH2 0x15D1 JUMP JUMPDEST DUP1 PUSH2 0x177B PUSH2 0x165C PUSH2 0x1801 SWAP4 DUP11 PUSH2 0x15D1 JUMP JUMPDEST SWAP1 SLOAD PUSH1 0x3 SWAP2 DUP3 SHL SHR DUP9 MSTORE DUP1 DUP8 MSTORE PUSH1 0xFF DUP7 DUP7 DUP11 KECCAK256 PUSH2 0x17C3 DUP9 MLOAD SWAP5 PUSH2 0x179D DUP7 PUSH2 0x1254 JUMP JUMPDEST DUP3 SLOAD DUP7 MSTORE PUSH1 0x1 DUP4 ADD SLOAD PUSH1 0x1 PUSH1 0x1 PUSH1 0xA0 SHL SUB AND DUP13 DUP8 ADD MSTORE PUSH1 0x2 DUP4 ADD SLOAD DUP11 DUP8 ADD MSTORE DUP3 ADD PUSH2 0x1290 JUMP JUMPDEST PUSH1 0x60 DUP6 ADD MSTORE PUSH2 0x17D4 PUSH1 0x4 DUP3 ADD PUSH2 0x1290 JUMP JUMPDEST PUSH1 0x80 DUP6 ADD MSTORE DUP7 DUP2 ADD SLOAD PUSH1 0xA0 DUP6 ADD MSTORE ADD SLOAD AND ISZERO ISZERO PUSH1 0xC0 DUP3 ADD MSTORE PUSH2 0x17F6 DUP3 DUP14 PUSH2 0x15EB JUMP JUMPDEST MSTORE PUSH2 0x16EF DUP2 DUP13 PUSH2 0x15EB JUMP JUMPDEST PUSH2 0x1753 JUMP JUMPDEST SWAP1 POP SWAP5 PUSH2 0x1747 JUMP JUMPDEST POP POP POP POP POP SWAP3 POP POP PUSH2 0x181E PUSH2 0x155E JUMP JUMPDEST SWAP2 SWAP1 JUMP INVALID LOG2 PUSH5 0x6970667358 0x22 SLT KECCAK256 ADDMOD LOG1 LT 0xDA 0xB7 LOG3 0xAE 0x27 SUB MLOAD MSTORE 0x5C PUSH29 0x79C3897C4913358F1FDB1840877E34579AD3F964736F6C634300081400 CALLER "},"methodIdentifiers":{"allAnnouncements(uint256)":"1c5b5d9f","announcementCount()":"6fa8cf33","announcements(bytes32)":"7d40d6c2","deactivateMetaAddress()":"f7fa6dc9","getAnnouncement(bytes32)":"5fad12bd","getAnnouncements(uint256,uint256)":"ab2a5779","getMetaAddress(address)":"0fa787a9","getNewAnnouncements(uint256)":"d7e6c91f","getTotalAnnouncements()":"e44f2b19","isRegistered(address)":"c3c5a547","lastScannedIndex(address)":"a8be2cd1","markClaimed(bytes32)":"abe21fac","metaAddresses(address)":"2caa8512","reactivateMetaAddress()":"62771a30","registerMetaAddress(bytes,bytes)":"0ce0dbed","sendStealthPayment(address,bytes,bytes)":"abd4b5f1","updateLastScanned(uint256)":"ba0281ba","updateMetaAddress(bytes,bytes)":"9d1a5b39","userAnnouncements(address,uint256)":"4c4a0f50"}}}}}