{
  "_format": "hh-sol-artifact-1",
  "contractName": "ArcPayStealthRegistry",
  "sourceName": "contracts/StealthRegistry.sol",
  "abi": [
    {
      "inputs": [],
      "stateMutability": "nonpayable",
      "type": "constructor"
    },
    {
      "inputs": [],
      "name": "AlreadyClaimed",
      "type": "error"
    },
    {
      "inputs": [],
      "name": "AnnouncementNotFound",
      "type": "error"
    },
    {
      "inputs": [],
      "name": "InvalidAddress",
      "type": "error"
    },
    {
      "inputs": [],
      "name": "InvalidAmount",
      "type": "error"
    },
    {
      "inputs": [],
      "name": "InvalidPubKey",
      "type": "error"
    },
    {
      "inputs": [],
      "name": "MetaAddressAlreadyRegistered",
      "type": "error"
    },
    {
      "inputs": [],
      "name": "MetaAddressInactive",
      "type": "error"
    },
    {
      "inputs": [],
      "name": "MetaAddressNotRegistered",
      "type": "error"
    },
    {
      "inputs": [],
      "name": "NotAuthorized",
      "type": "error"
    },
    {
      "inputs": [],
      "name": "ReentrancyGuardReentrantCall",
      "type": "error"
    },
    {
      "inputs": [],
      "name": "TransferFailed",
      "type": "error"
    },
    {
      "anonymous": false,
      "inputs": [
        {
          "indexed": true,
          "internalType": "address",
          "name": "user",
          "type": "address"
        }
      ],
      "name": "MetaAddressDeactivated",
      "type": "event"
    },
    {
      "anonymous": false,
      "inputs": [
        {
          "indexed": true,
          "internalType": "address",
          "name": "user",
          "type": "address"
        },
        {
          "indexed": false,
          "internalType": "bytes",
          "name": "spendingPubKey",
          "type": "bytes"
        },
        {
          "indexed": false,
          "internalType": "bytes",
          "name": "viewingPubKey",
          "type": "bytes"
        }
      ],
      "name": "MetaAddressRegistered",
      "type": "event"
    },
    {
      "anonymous": false,
      "inputs": [
        {
          "indexed": true,
          "internalType": "address",
          "name": "user",
          "type": "address"
        },
        {
          "indexed": false,
          "internalType": "bytes",
          "name": "spendingPubKey",
          "type": "bytes"
        },
        {
          "indexed": false,
          "internalType": "bytes",
          "name": "viewingPubKey",
          "type": "bytes"
        }
      ],
      "name": "MetaAddressUpdated",
      "type": "event"
    },
    {
      "anonymous": false,
      "inputs": [
        {
          "indexed": true,
          "internalType": "bytes32",
          "name": "id",
          "type": "bytes32"
        },
        {
          "indexed": true,
          "internalType": "address",
          "name": "stealthAddress",
          "type": "address"
        },
        {
          "indexed": true,
          "internalType": "address",
          "name": "claimer",
          "type": "address"
        },
        {
          "indexed": false,
          "internalType": "uint256",
          "name": "amount",
          "type": "uint256"
        }
      ],
      "name": "PaymentClaimed",
      "type": "event"
    },
    {
      "anonymous": false,
      "inputs": [
        {
          "indexed": true,
          "internalType": "bytes32",
          "name": "id",
          "type": "bytes32"
        },
        {
          "indexed": true,
          "internalType": "address",
          "name": "stealthAddress",
          "type": "address"
        },
        {
          "indexed": false,
          "internalType": "uint256",
          "name": "amount",
          "type": "uint256"
        },
        {
          "indexed": false,
          "internalType": "bytes",
          "name": "ephemeralPubKey",
          "type": "bytes"
        },
        {
          "indexed": false,
          "internalType": "bytes",
          "name": "encryptedMemo",
          "type": "bytes"
        }
      ],
      "name": "StealthPayment",
      "type": "event"
    },
    {
      "inputs": [
        {
          "internalType": "uint256",
          "name": "",
          "type": "uint256"
        }
      ],
      "name": "allAnnouncements",
      "outputs": [
        {
          "internalType": "bytes32",
          "name": "",
          "type": "bytes32"
        }
      ],
      "stateMutability": "view",
      "type": "function"
    },
    {
      "inputs": [],
      "name": "announcementCount",
      "outputs": [
        {
          "internalType": "uint256",
          "name": "",
          "type": "uint256"
        }
      ],
      "stateMutability": "view",
      "type": "function"
    },
    {
      "inputs": [
        {
          "internalType": "bytes32",
          "name": "",
          "type": "bytes32"
        }
      ],
      "name": "announcements",
      "outputs": [
        {
          "internalType": "bytes32",
          "name": "id",
          "type": "bytes32"
        },
        {
          "internalType": "address",
          "name": "stealthAddress",
          "type": "address"
        },
        {
          "internalType": "uint256",
          "name": "amount",
          "type": "uint256"
        },
        {
          "internalType": "bytes",
          "name": "ephemeralPubKey",
          "type": "bytes"
        },
        {
          "internalType": "bytes",
          "name": "encryptedMemo",
          "type": "bytes"
        },
        {
          "internalType": "uint256",
          "name": "timestamp",
          "type": "uint256"
        },
        {
          "internalType": "bool",
          "name": "claimed",
          "type": "bool"
        }
      ],
      "stateMutability": "view",
      "type": "function"
    },
    {
      "inputs": [],
      "name": "deactivateMetaAddress",
      "outputs": [],
      "stateMutability": "nonpayable",
      "type": "function"
    },
    {
      "inputs": [
        {
          "internalType": "bytes32",
          "name": "id",
          "type": "bytes32"
        }
      ],
      "name": "getAnnouncement",
      "outputs": [
        {
          "components": [
            {
              "internalType": "bytes32",
              "name": "id",
              "type": "bytes32"
            },
            {
              "internalType": "address",
              "name": "stealthAddress",
              "type": "address"
            },
            {
              "internalType": "uint256",
              "name": "amount",
              "type": "uint256"
            },
            {
              "internalType": "bytes",
              "name": "ephemeralPubKey",
              "type": "bytes"
            },
            {
              "internalType": "bytes",
              "name": "encryptedMemo",
              "type": "bytes"
            },
            {
              "internalType": "uint256",
              "name": "timestamp",
              "type": "uint256"
            },
            {
              "internalType": "bool",
              "name": "claimed",
              "type": "bool"
            }
          ],
          "internalType": "struct ArcPayStealthRegistry.Announcement",
          "name": "",
          "type": "tuple"
        }
      ],
      "stateMutability": "view",
      "type": "function"
    },
    {
      "inputs": [
        {
          "internalType": "uint256",
          "name": "fromIndex",
          "type": "uint256"
        },
        {
          "internalType": "uint256",
          "name": "count",
          "type": "uint256"
        }
      ],
      "name": "getAnnouncements",
      "outputs": [
        {
          "components": [
            {
              "internalType": "bytes32",
              "name": "id",
              "type": "bytes32"
            },
            {
              "internalType": "address",
              "name": "stealthAddress",
              "type": "address"
            },
            {
              "internalType": "uint256",
              "name": "amount",
              "type": "uint256"
            },
            {
              "internalType": "bytes",
              "name": "ephemeralPubKey",
              "type": "bytes"
            },
            {
              "internalType": "bytes",
              "name": "encryptedMemo",
              "type": "bytes"
            },
            {
              "internalType": "uint256",
              "name": "timestamp",
              "type": "uint256"
            },
            {
              "internalType": "bool",
              "name": "claimed",
              "type": "bool"
            }
          ],
          "internalType": "struct ArcPayStealthRegistry.Announcement[]",
          "name": "",
          "type": "tuple[]"
        }
      ],
      "stateMutability": "view",
      "type": "function"
    },
    {
      "inputs": [
        {
          "internalType": "address",
          "name": "user",
          "type": "address"
        }
      ],
      "name": "getMetaAddress",
      "outputs": [
        {
          "components": [
            {
              "internalType": "bytes",
              "name": "spendingPubKey",
              "type": "bytes"
            },
            {
              "internalType": "bytes",
              "name": "viewingPubKey",
              "type": "bytes"
            },
            {
              "internalType": "uint256",
              "name": "registeredAt",
              "type": "uint256"
            },
            {
              "internalType": "bool",
              "name": "active",
              "type": "bool"
            }
          ],
          "internalType": "struct ArcPayStealthRegistry.StealthMetaAddress",
          "name": "",
          "type": "tuple"
        }
      ],
      "stateMutability": "view",
      "type": "function"
    },
    {
      "inputs": [
        {
          "internalType": "uint256",
          "name": "count",
          "type": "uint256"
        }
      ],
      "name": "getNewAnnouncements",
      "outputs": [
        {
          "components": [
            {
              "internalType": "bytes32",
              "name": "id",
              "type": "bytes32"
            },
            {
              "internalType": "address",
              "name": "stealthAddress",
              "type": "address"
            },
            {
              "internalType": "uint256",
              "name": "amount",
              "type": "uint256"
            },
            {
              "internalType": "bytes",
              "name": "ephemeralPubKey",
              "type": "bytes"
            },
            {
              "internalType": "bytes",
              "name": "encryptedMemo",
              "type": "bytes"
            },
            {
              "internalType": "uint256",
              "name": "timestamp",
              "type": "uint256"
            },
            {
              "internalType": "bool",
              "name": "claimed",
              "type": "bool"
            }
          ],
          "internalType": "struct ArcPayStealthRegistry.Announcement[]",
          "name": "",
          "type": "tuple[]"
        },
        {
          "internalType": "uint256",
          "name": "newLastIndex",
          "type": "uint256"
        }
      ],
      "stateMutability": "view",
      "type": "function"
    },
    {
      "inputs": [],
      "name": "getTotalAnnouncements",
      "outputs": [
        {
          "internalType": "uint256",
          "name": "",
          "type": "uint256"
        }
      ],
      "stateMutability": "view",
      "type": "function"
    },
    {
      "inputs": [
        {
          "internalType": "address",
          "name": "user",
          "type": "address"
        }
      ],
      "name": "isRegistered",
      "outputs": [
        {
          "internalType": "bool",
          "name": "",
          "type": "bool"
        }
      ],
      "stateMutability": "view",
      "type": "function"
    },
    {
      "inputs": [
        {
          "internalType": "address",
          "name": "",
          "type": "address"
        }
      ],
      "name": "lastScannedIndex",
      "outputs": [
        {
          "internalType": "uint256",
          "name": "",
          "type": "uint256"
        }
      ],
      "stateMutability": "view",
      "type": "function"
    },
    {
      "inputs": [
        {
          "internalType": "bytes32",
          "name": "announcementId",
          "type": "bytes32"
        }
      ],
      "name": "markClaimed",
      "outputs": [],
      "stateMutability": "nonpayable",
      "type": "function"
    },
    {
      "inputs": [
        {
          "internalType": "address",
          "name": "",
          "type": "address"
        }
      ],
      "name": "metaAddresses",
      "outputs": [
        {
          "internalType": "bytes",
          "name": "spendingPubKey",
          "type": "bytes"
        },
        {
          "internalType": "bytes",
          "name": "viewingPubKey",
          "type": "bytes"
        },
        {
          "internalType": "uint256",
          "name": "registeredAt",
          "type": "uint256"
        },
        {
          "internalType": "bool",
          "name": "active",
          "type": "bool"
        }
      ],
      "stateMutability": "view",
      "type": "function"
    },
    {
      "inputs": [],
      "name": "reactivateMetaAddress",
      "outputs": [],
      "stateMutability": "nonpayable",
      "type": "function"
    },
    {
      "inputs": [
        {
          "internalType": "bytes",
          "name": "spendingPubKey",
          "type": "bytes"
        },
        {
          "internalType": "bytes",
          "name": "viewingPubKey",
          "type": "bytes"
        }
      ],
      "name": "registerMetaAddress",
      "outputs": [],
      "stateMutability": "nonpayable",
      "type": "function"
    },
    {
      "inputs": [
        {
          "internalType": "address",
          "name": "stealthAddress",
          "type": "address"
        },
        {
          "internalType": "bytes",
          "name": "ephemeralPubKey",
          "type": "bytes"
        },
        {
          "internalType": "bytes",
          "name": "encryptedMemo",
          "type": "bytes"
        }
      ],
      "name": "sendStealthPayment",
      "outputs": [
        {
          "internalType": "bytes32",
          "name": "",
          "type": "bytes32"
        }
      ],
      "stateMutability": "payable",
      "type": "function"
    },
    {
      "inputs": [
        {
          "internalType": "uint256",
          "name": "index",
          "type": "uint256"
        }
      ],
      "name": "updateLastScanned",
      "outputs": [],
      "stateMutability": "nonpayable",
      "type": "function"
    },
    {
      "inputs": [
        {
          "internalType": "bytes",
          "name": "spendingPubKey",
          "type": "bytes"
        },
        {
          "internalType": "bytes",
          "name": "viewingPubKey",
          "type": "bytes"
        }
      ],
      "name": "updateMetaAddress",
      "outputs": [],
      "stateMutability": "nonpayable",
      "type": "function"
    },
    {
      "inputs": [
        {
          "internalType": "address",
          "name": "",
          "type": "address"
        },
        {
          "internalType": "uint256",
          "name": "",
          "type": "uint256"
        }
      ],
      "name": "userAnnouncements",
      "outputs": [
        {
          "internalType": "bytes32",
          "name": "",
          "type": "bytes32"
        }
      ],
      "stateMutability": "view",
      "type": "function"
    },
    {
      "stateMutability": "payable",
      "type": "receive"
    }
  ],
  "bytecode": "0x6080806040523461001b57600160005561185890816100218239f35b600080fdfe608080604052600436101561001d575b50361561001b57600080fd5b005b60003560e01c9081630ce0dbed14610e45575080630fa787a914610d685780631c5b5d9f14610d315780632caa851214610ca55780634c4a0f5014610c545780635fad12bd14610bab57806362771a3014610b645780636fa8cf3314610b465780637d40d6c214610aa15780639d1a5b3914610881578063a8be2cd114610847578063ab2a57791461080d578063abd4b5f114610331578063abe21fac1461026b578063ba0281ba1461022f578063c3c5a547146101d6578063d7e6c91f14610199578063e44f2b191461017b5763f7fa6dc9146100fb573861000f565b34610176576000366003190112610176573360005260026020526002604060002001541561016457336000526002602052600360406000200160ff198154169055337f148a1885eae47617c4e825e270cdfe6d19ec39eb8f38381173a42c51456c97b1600080a2005b60405163c2eb334d60e01b8152600490fd5b600080fd5b34610176576000366003190112610176576020600554604051908152f35b34610176576020366003190112610176576101cc6101b860043561170e565b60405192839260408452604084019061139d565b9060208301520390f35b34610176576020366003190112610176576001600160a01b036101f761115c565b16600052600260205260206040600020600281015415159081610220575b506040519015158152f35b60ff9150600301541682610215565b3461017657602036600319011261017657600435600554808211610263575b50336000526006602052604060002055600080f35b90508161024e565b3461017657602036600319011261017657600435806000526003602052604060002060058101541561031f5760018101546001600160a01b0316903382900361030d57600681019081549160ff83166102fb57600160029360ff19161790550154916040519283527f1a76fc2f6d557973efb4b9d751e9da9fd98d58a675e7387356274e023695ce3260203394a4005b604051630c8d9eab60e31b8152600490fd5b60405163ea8e4eb560e01b8152600490fd5b60405163887da63760e01b8152600490fd5b60603660031901126101765761034561115c565b6024356001600160401b038111610176576103649036906004016110e5565b916044356001600160401b038111610176576103849036906004016110e5565b90916002600054146107fb5760026000556001600160a01b038116156107e95734156107d757602185036107c557600154936103bf856114ea565b6001556040519460208601903360601b82526bffffffffffffffffffffffff198460601b1660348801523460488801524260688801526088870152608886528560c08101106001600160401b0360c0880111176106ad5760c08601604052855190209461042e60c08201611254565b8560c082015260e081019060018060a01b03841682526101008101348152610457368a86611414565b90610120830191825261046b36888a611414565b61014084015242610160840152600061018084015288600052600360205260406000209360c08401518555600185019060018060a01b039051166bffffffffffffffffffffffff60a01b825416179055516002840155518051906001600160401b0382116106ad5781906104ef826104e660038801546111ff565b6003880161144b565b602090601f831160011461075357600092610748575b50508160011b916000199060031b1c19161760038301555b6101408101518051906001600160401b0382116106ad5761054e8261054560048701546111ff565b6004870161144b565b602090601f83116001146106ce579282600693610180936105ac97966000926106c3575b50508160011b916000199060031b1c19161760048501555b61016081015160058501550151151591019060ff801983541691151516179055565b600554680100000000000000008110156106ad578060016105d092016005556111b2565b815460001960039290921b91821b19169087901b1790556000808080346001600160a01b0387165af13d156106a8573d610609816113f9565b90610617604051928361126f565b8152600060203d92013e5b15610696576020956106867ffc62420205488e7ec281046987cb80e3855307bcdbd14ef457de8e02636dbe9d93879561066d60405195869534875260608d880152606087019161149f565b84810360408601526001600160a01b039092169761149f565b0390a36001600055604051908152f35b6040516312171d8360e31b8152600490fd5b610622565b634e487b7160e01b600052604160045260246000fd5b015190508d80610572565b906004850160005260206000209160005b601f1985168110610730575083610180936105ac979693600193600697601f19811610610717575b505050811b01600485015561058a565b015160001960f88460031b161c191690558d8080610707565b919260206001819286850151815501940192016106df565b015190508a80610505565b9250600385016000526020600020906000935b601f19841685106107aa576001945083601f19811610610791575b505050811b01600383015561051d565b015160001960f88460031b161c191690558a8080610781565b81810151835560209485019460019093019290910190610766565b6040516379fae7af60e01b8152600490fd5b60405163162908e360e11b8152600490fd5b60405163e6c4247b60e01b8152600490fd5b604051633ee5aeb560e01b8152600490fd5b346101765760403660031901126101765761084361082f6024356004356115ff565b60405191829160208352602083019061139d565b0390f35b34610176576020366003190112610176576001600160a01b0361086861115c565b1660005260066020526020604060002054604051908152f35b346101765761088f36611112565b9291602181036107c557602184036107c557336000526020600281526002604060002001541561016457336000526002815260406000206001600160401b03918284116106ad576108ea846108e484546111ff565b8461144b565b836000601f8211600114610a3c57600091610a31575b508460011b906000198660031b1c19161782555b60018092019287116106ad576109348761092e85546111ff565b8561144b565b600090601f88116001146109a557509186807fadc2c139e602a83d397cb63fecf58f752ffa736816e83bed4c6656c51654424b9798936109959560009361099a575b501b906000198460031b1c19161790555b6040519384933397856114c0565b0390a2005b88013592508a610976565b90601f1988168460005282600020926000905b828210610a1a575050918893917fadc2c139e602a83d397cb63fecf58f752ffa736816e83bed4c6656c51654424b9899610995969410610a00575b505082811b019055610987565b870135600019600386901b60f8161c1916905588806109f3565b808685968294968c013581550195019301906109b8565b905086013588610900565b600084815283812092508690601f198216905b85828210610a8857505010610a6e575b5050600184811b018255610914565b870135600019600387901b60f8161c191690558780610a5f565b8b85013586556001909501949384019389935001610a4f565b346101765760203660031901126101765760043560005260036020526040600020805460018060a01b03600183015416916002810154610b35610ae660038401611290565b610b27610af560048601611290565b9160ff60066005880154970154169460405198899889526020890152604088015260e0606088015260e0870190611172565b908582036080870152611172565b9160a0840152151560c08301520390f35b34610176576000366003190112610176576020600154604051908152f35b34610176576000366003190112610176573360005260026020526002604060002001541561016457336000908152600260205260409020600301805460ff19166001179055005b3461017657602036600319011261017657610bc461150f565b506004356000526003602052610843604060002060ff600660405192610be984611254565b8054845260018101546001600160a01b0316602085015260028101546040850152610c1660038201611290565b6060850152610c2760048201611290565b6080850152600581015460a0850152015416151560c0820152604051918291602083526020830190611336565b3461017657604036600319011261017657610c6d61115c565b6001600160a01b0316600090815260046020526040902080546024359081101561017657602091600052816000200154604051908152f35b34610176576020366003190112610176576001600160a01b03610cc661115c565b166000526002602052610d126040600020610ce081611290565b90610ced60018201611290565b610d2060ff600360028501549401541691604051958695608087526080870190611172565b908582036020870152611172565b916040840152151560608301520390f35b346101765760203660031901126101765760043560055481101561017657610d5a6020916111b2565b90546040519160031b1c8152f35b346101765760208060031936011261017657608090610d8561115c565b60006060604051610d9581611239565b8181528185820152826040820152015260018060a01b031660005260028152604060002060405191610dc683611239565b610dcf82611290565b8352610e32610de060018401611290565b828501908152610e1f60ff60036002870154966040890197885201541693606087019415158552604051978897828952519188015260a0870190611172565b9051858203601f19016040870152611172565b9151606084015251151560808301520390f35b3461017657610e5336611112565b936021839293036110d65750602184036107c55733600052602093600285526002604060002001546110c45760405194610e8c86611239565b610e97368487611414565b8652610ea4368386611414565b8187019081526040870190428252606088019260018085523360005260028252604060002099519182516001600160401b03938482116106ad578c8291610eef836108e484546111ff565b8491601f84116001146110615750600092611056575b5050600019600383901b1c191690831b178b555b818b01935180519384116106ad57610f3b84610f3587546111ff565b8761144b565b81601f8511600114610fbe57509383806003956109959a99957f71f5161111395441b9faefff5f6fe6a1221ada7b832b79db7923ddb1fff134fc9e9f98956109879a96600094610fb3575b50501b9160001990871b1c19161790555b51600284015551151591019060ff801983541691151516179055565b015192503880610f86565b9190601f9493941984168660005283600020936000905b82821061103f5750509361098797937f71f5161111395441b9faefff5f6fe6a1221ada7b832b79db7923ddb1fff134fc9d9e979360039793836109959d9c9810611027575b505050811b019055610f97565b015160001983891b60f8161c191690558e808061101a565b808886978294978701518155019601940190610fd5565b015190508d80610f05565b9190869450601f19841692600052856000209260005b878282106110ae5750508411611095575b505050811b018b55610f19565b015160001960f88460031b161c191690558d8080611088565b8385015186558997909501949384019301611077565b6040516373e25ef960e11b8152600490fd5b6379fae7af60e01b8152600490fd5b9181601f84011215610176578235916001600160401b038311610176576020838186019501011161017657565b6040600319820112610176576001600160401b0391600435838111610176578261113e916004016110e5565b9390939260243591821161017657611158916004016110e5565b9091565b600435906001600160a01b038216820361017657565b919082519283825260005b84811061119e575050826000602080949584010152601f8019910116010190565b60208183018101518483018201520161117d565b6005548110156111e95760056000527f036b6384b5eca791c62761152d0c79bb0604c104a5fb6f4eb0703f3154bb3db00190600090565b634e487b7160e01b600052603260045260246000fd5b90600182811c9216801561122f575b602083101461121957565b634e487b7160e01b600052602260045260246000fd5b91607f169161120e565b608081019081106001600160401b038211176106ad57604052565b60e081019081106001600160401b038211176106ad57604052565b90601f801991011681019081106001600160401b038211176106ad57604052565b90604051918260008254926112a4846111ff565b90818452600194858116908160001461131357506001146112d0575b50506112ce9250038361126f565b565b9093915060005260209081600020936000915b8183106112fb5750506112ce935082010138806112c0565b855488840185015294850194879450918301916112e3565b9150506112ce94506020925060ff191682840152151560051b82010138806112c0565b908151815260018060a01b0360208301511660208201526040820151604082015260c080611388611376606086015160e0606087015260e0860190611172565b60808601518582036080870152611172565b9360a081015160a08501520151151591015290565b908082519081815260208091019281808460051b8301019501936000915b8483106113cb5750505050505090565b90919293949584806113e9600193601f198682030187528a51611336565b98019301930191949392906113bb565b6001600160401b0381116106ad57601f01601f191660200190565b929192611420826113f9565b9161142e604051938461126f565b829481845281830111610176578281602093846000960137010152565b90601f811161145957505050565b600091825260208220906020601f850160051c83019410611495575b601f0160051c01915b82811061148a57505050565b81815560010161147e565b9092508290611475565b908060209392818452848401376000828201840152601f01601f1916010190565b92906114d9906114e7959360408652604086019161149f565b92602081850391015261149f565b90565b60001981146114f95760010190565b634e487b7160e01b600052601160045260246000fd5b6040519061151c82611254565b600060c083828152826020820152826040820152606080820152606060808201528260a08201520152565b6001600160401b0381116106ad5760051b60200190565b604051602081018181106001600160401b038211176106ad576040526000815290565b9061158b82611547565b611598604051918261126f565b82815280926115a9601f1991611547565b019060005b8281106115ba57505050565b6020906115c561150f565b828285010152016115ae565b919082018092116114f957565b919082039182116114f957565b80518210156111e95760209160051b010190565b90600590815490818410156117025761162c9161161d8592836115d1565b908082116116fa575b506115de565b9061163682611581565b92600090815b84811061164b57505050505090565b8061166161165c6116f593856115d1565b6111b2565b9054600391821b1c855260ff60066020928084526116b1604091828a209280519661168b88611254565b8454885260018501546001600160a01b0316908801526002840154908701528201611290565b60608501526116c260048201611290565b60808501528881015460a0850152015416151560c08201526116e482896115eb565b526116ef81886115eb565b506114ea565b61163c565b905038611626565b505050506114e761155e565b9060003381526006602091818352604092838220549260059687548086101561180e578561173b916115de565b90808210156118065750945b61175086611581565b97845b87811061176a57505050505050906114e7916115d1565b8061177b61165c611801938a6115d1565b9054600391821b1c885280875260ff86868a206117c388519461179d86611254565b8254865260018301546001600160a01b03168c87015260028301548a8701528201611290565b60608501526117d460048201611290565b60808501528681015460a0850152015416151560c08201526117f6828d6115eb565b526116ef818c6115eb565b611753565b905094611747565b505050505092505061181e61155e565b919056fea264697066735822122008a110dab7a3ae270351525c7c79c3897c4913358f1fdb1840877e34579ad3f964736f6c63430008140033",
  "linkReferences": {},
  "deployedLinkReferences": {}
}