{
  "_format": "hh-sol-artifact-1",
  "contractName": "ArcPayPaymentChannel",
  "sourceName": "contracts/PaymentChannel.sol",
  "abi": [
    {
      "inputs": [],
      "name": "ChannelNotFound",
      "type": "error"
    },
    {
      "inputs": [],
      "name": "DisputePeriodActive",
      "type": "error"
    },
    {
      "inputs": [],
      "name": "DisputePeriodExpired",
      "type": "error"
    },
    {
      "inputs": [],
      "name": "ECDSAInvalidSignature",
      "type": "error"
    },
    {
      "inputs": [
        {
          "internalType": "uint256",
          "name": "length",
          "type": "uint256"
        }
      ],
      "name": "ECDSAInvalidSignatureLength",
      "type": "error"
    },
    {
      "inputs": [
        {
          "internalType": "bytes32",
          "name": "s",
          "type": "bytes32"
        }
      ],
      "name": "ECDSAInvalidSignatureS",
      "type": "error"
    },
    {
      "inputs": [],
      "name": "InsufficientBalance",
      "type": "error"
    },
    {
      "inputs": [],
      "name": "InvalidAddress",
      "type": "error"
    },
    {
      "inputs": [],
      "name": "InvalidAmount",
      "type": "error"
    },
    {
      "inputs": [],
      "name": "InvalidDeposit",
      "type": "error"
    },
    {
      "inputs": [],
      "name": "InvalidNonce",
      "type": "error"
    },
    {
      "inputs": [],
      "name": "InvalidSignature",
      "type": "error"
    },
    {
      "inputs": [],
      "name": "InvalidState",
      "type": "error"
    },
    {
      "inputs": [],
      "name": "NotAuthorized",
      "type": "error"
    },
    {
      "inputs": [],
      "name": "ReentrancyGuardReentrantCall",
      "type": "error"
    },
    {
      "inputs": [],
      "name": "TransferFailed",
      "type": "error"
    },
    {
      "anonymous": false,
      "inputs": [
        {
          "indexed": true,
          "internalType": "bytes32",
          "name": "id",
          "type": "bytes32"
        },
        {
          "indexed": false,
          "internalType": "uint256",
          "name": "senderRefund",
          "type": "uint256"
        },
        {
          "indexed": false,
          "internalType": "uint256",
          "name": "recipientPayment",
          "type": "uint256"
        }
      ],
      "name": "ChannelClosed",
      "type": "event"
    },
    {
      "anonymous": false,
      "inputs": [
        {
          "indexed": true,
          "internalType": "bytes32",
          "name": "id",
          "type": "bytes32"
        },
        {
          "indexed": false,
          "internalType": "uint256",
          "name": "spent",
          "type": "uint256"
        },
        {
          "indexed": false,
          "internalType": "uint256",
          "name": "closingAt",
          "type": "uint256"
        }
      ],
      "name": "ChannelClosing",
      "type": "event"
    },
    {
      "anonymous": false,
      "inputs": [
        {
          "indexed": true,
          "internalType": "bytes32",
          "name": "id",
          "type": "bytes32"
        },
        {
          "indexed": false,
          "internalType": "uint256",
          "name": "newSpent",
          "type": "uint256"
        },
        {
          "indexed": false,
          "internalType": "uint256",
          "name": "newNonce",
          "type": "uint256"
        }
      ],
      "name": "ChannelDisputed",
      "type": "event"
    },
    {
      "anonymous": false,
      "inputs": [
        {
          "indexed": true,
          "internalType": "bytes32",
          "name": "id",
          "type": "bytes32"
        },
        {
          "indexed": true,
          "internalType": "address",
          "name": "sender",
          "type": "address"
        },
        {
          "indexed": true,
          "internalType": "address",
          "name": "recipient",
          "type": "address"
        },
        {
          "indexed": false,
          "internalType": "uint256",
          "name": "deposit",
          "type": "uint256"
        }
      ],
      "name": "ChannelOpened",
      "type": "event"
    },
    {
      "anonymous": false,
      "inputs": [
        {
          "indexed": true,
          "internalType": "bytes32",
          "name": "id",
          "type": "bytes32"
        },
        {
          "indexed": false,
          "internalType": "uint256",
          "name": "additionalDeposit",
          "type": "uint256"
        },
        {
          "indexed": false,
          "internalType": "uint256",
          "name": "newTotal",
          "type": "uint256"
        }
      ],
      "name": "ChannelTopUp",
      "type": "event"
    },
    {
      "anonymous": false,
      "inputs": [
        {
          "indexed": true,
          "internalType": "bytes32",
          "name": "channelId",
          "type": "bytes32"
        },
        {
          "indexed": false,
          "internalType": "uint256",
          "name": "amount",
          "type": "uint256"
        },
        {
          "indexed": false,
          "internalType": "uint256",
          "name": "totalSpent",
          "type": "uint256"
        },
        {
          "indexed": false,
          "internalType": "uint256",
          "name": "nonce",
          "type": "uint256"
        }
      ],
      "name": "PaymentSigned",
      "type": "event"
    },
    {
      "inputs": [],
      "name": "DISPUTE_PERIOD",
      "outputs": [
        {
          "internalType": "uint256",
          "name": "",
          "type": "uint256"
        }
      ],
      "stateMutability": "view",
      "type": "function"
    },
    {
      "inputs": [],
      "name": "MIN_DEPOSIT",
      "outputs": [
        {
          "internalType": "uint256",
          "name": "",
          "type": "uint256"
        }
      ],
      "stateMutability": "view",
      "type": "function"
    },
    {
      "inputs": [],
      "name": "channelCount",
      "outputs": [
        {
          "internalType": "uint256",
          "name": "",
          "type": "uint256"
        }
      ],
      "stateMutability": "view",
      "type": "function"
    },
    {
      "inputs": [
        {
          "internalType": "bytes32",
          "name": "",
          "type": "bytes32"
        }
      ],
      "name": "channels",
      "outputs": [
        {
          "internalType": "bytes32",
          "name": "id",
          "type": "bytes32"
        },
        {
          "internalType": "address",
          "name": "sender",
          "type": "address"
        },
        {
          "internalType": "address",
          "name": "recipient",
          "type": "address"
        },
        {
          "internalType": "uint256",
          "name": "deposit",
          "type": "uint256"
        },
        {
          "internalType": "uint256",
          "name": "spent",
          "type": "uint256"
        },
        {
          "internalType": "uint256",
          "name": "nonce",
          "type": "uint256"
        },
        {
          "internalType": "enum ArcPayPaymentChannel.ChannelState",
          "name": "state",
          "type": "uint8"
        },
        {
          "internalType": "uint256",
          "name": "createdAt",
          "type": "uint256"
        },
        {
          "internalType": "uint256",
          "name": "closingAt",
          "type": "uint256"
        },
        {
          "internalType": "uint256",
          "name": "closedAt",
          "type": "uint256"
        }
      ],
      "stateMutability": "view",
      "type": "function"
    },
    {
      "inputs": [
        {
          "internalType": "bytes32",
          "name": "channelId",
          "type": "bytes32"
        },
        {
          "internalType": "uint256",
          "name": "spent",
          "type": "uint256"
        },
        {
          "internalType": "uint256",
          "name": "nonce",
          "type": "uint256"
        },
        {
          "internalType": "bytes",
          "name": "signature",
          "type": "bytes"
        }
      ],
      "name": "closeChannel",
      "outputs": [],
      "stateMutability": "nonpayable",
      "type": "function"
    },
    {
      "inputs": [
        {
          "internalType": "bytes32",
          "name": "channelId",
          "type": "bytes32"
        },
        {
          "internalType": "uint256",
          "name": "spent",
          "type": "uint256"
        },
        {
          "internalType": "bytes",
          "name": "senderSignature",
          "type": "bytes"
        },
        {
          "internalType": "bytes",
          "name": "recipientSignature",
          "type": "bytes"
        }
      ],
      "name": "cooperativeClose",
      "outputs": [],
      "stateMutability": "nonpayable",
      "type": "function"
    },
    {
      "inputs": [
        {
          "internalType": "bytes32",
          "name": "channelId",
          "type": "bytes32"
        },
        {
          "internalType": "uint256",
          "name": "spent",
          "type": "uint256"
        },
        {
          "internalType": "uint256",
          "name": "nonce",
          "type": "uint256"
        },
        {
          "internalType": "bytes",
          "name": "signature",
          "type": "bytes"
        }
      ],
      "name": "disputeChannel",
      "outputs": [],
      "stateMutability": "nonpayable",
      "type": "function"
    },
    {
      "inputs": [
        {
          "internalType": "bytes32",
          "name": "channelId",
          "type": "bytes32"
        }
      ],
      "name": "emergencyClose",
      "outputs": [],
      "stateMutability": "nonpayable",
      "type": "function"
    },
    {
      "inputs": [
        {
          "internalType": "bytes32",
          "name": "channelId",
          "type": "bytes32"
        }
      ],
      "name": "finalizeClose",
      "outputs": [],
      "stateMutability": "nonpayable",
      "type": "function"
    },
    {
      "inputs": [
        {
          "internalType": "bytes32",
          "name": "channelId",
          "type": "bytes32"
        }
      ],
      "name": "getChannel",
      "outputs": [
        {
          "components": [
            {
              "internalType": "bytes32",
              "name": "id",
              "type": "bytes32"
            },
            {
              "internalType": "address",
              "name": "sender",
              "type": "address"
            },
            {
              "internalType": "address",
              "name": "recipient",
              "type": "address"
            },
            {
              "internalType": "uint256",
              "name": "deposit",
              "type": "uint256"
            },
            {
              "internalType": "uint256",
              "name": "spent",
              "type": "uint256"
            },
            {
              "internalType": "uint256",
              "name": "nonce",
              "type": "uint256"
            },
            {
              "internalType": "enum ArcPayPaymentChannel.ChannelState",
              "name": "state",
              "type": "uint8"
            },
            {
              "internalType": "uint256",
              "name": "createdAt",
              "type": "uint256"
            },
            {
              "internalType": "uint256",
              "name": "closingAt",
              "type": "uint256"
            },
            {
              "internalType": "uint256",
              "name": "closedAt",
              "type": "uint256"
            }
          ],
          "internalType": "struct ArcPayPaymentChannel.Channel",
          "name": "",
          "type": "tuple"
        }
      ],
      "stateMutability": "view",
      "type": "function"
    },
    {
      "inputs": [
        {
          "internalType": "bytes32",
          "name": "channelId",
          "type": "bytes32"
        }
      ],
      "name": "getChannelBalance",
      "outputs": [
        {
          "internalType": "uint256",
          "name": "available",
          "type": "uint256"
        },
        {
          "internalType": "uint256",
          "name": "spent",
          "type": "uint256"
        }
      ],
      "stateMutability": "view",
      "type": "function"
    },
    {
      "inputs": [
        {
          "internalType": "bytes32",
          "name": "channelId",
          "type": "bytes32"
        },
        {
          "internalType": "uint256",
          "name": "spent",
          "type": "uint256"
        },
        {
          "internalType": "uint256",
          "name": "nonce",
          "type": "uint256"
        }
      ],
      "name": "getPaymentHash",
      "outputs": [
        {
          "internalType": "bytes32",
          "name": "",
          "type": "bytes32"
        }
      ],
      "stateMutability": "pure",
      "type": "function"
    },
    {
      "inputs": [
        {
          "internalType": "address",
          "name": "recipient",
          "type": "address"
        }
      ],
      "name": "getRecipientChannels",
      "outputs": [
        {
          "internalType": "bytes32[]",
          "name": "",
          "type": "bytes32[]"
        }
      ],
      "stateMutability": "view",
      "type": "function"
    },
    {
      "inputs": [
        {
          "internalType": "address",
          "name": "sender",
          "type": "address"
        }
      ],
      "name": "getSenderChannels",
      "outputs": [
        {
          "internalType": "bytes32[]",
          "name": "",
          "type": "bytes32[]"
        }
      ],
      "stateMutability": "view",
      "type": "function"
    },
    {
      "inputs": [
        {
          "internalType": "address",
          "name": "recipient",
          "type": "address"
        },
        {
          "internalType": "uint256",
          "name": "deposit",
          "type": "uint256"
        }
      ],
      "name": "openChannel",
      "outputs": [
        {
          "internalType": "bytes32",
          "name": "",
          "type": "bytes32"
        }
      ],
      "stateMutability": "payable",
      "type": "function"
    },
    {
      "inputs": [
        {
          "internalType": "address",
          "name": "",
          "type": "address"
        },
        {
          "internalType": "uint256",
          "name": "",
          "type": "uint256"
        }
      ],
      "name": "recipientChannels",
      "outputs": [
        {
          "internalType": "bytes32",
          "name": "",
          "type": "bytes32"
        }
      ],
      "stateMutability": "view",
      "type": "function"
    },
    {
      "inputs": [
        {
          "internalType": "address",
          "name": "",
          "type": "address"
        },
        {
          "internalType": "uint256",
          "name": "",
          "type": "uint256"
        }
      ],
      "name": "senderChannels",
      "outputs": [
        {
          "internalType": "bytes32",
          "name": "",
          "type": "bytes32"
        }
      ],
      "stateMutability": "view",
      "type": "function"
    },
    {
      "inputs": [
        {
          "internalType": "bytes32",
          "name": "channelId",
          "type": "bytes32"
        }
      ],
      "name": "topUpChannel",
      "outputs": [],
      "stateMutability": "payable",
      "type": "function"
    },
    {
      "inputs": [
        {
          "internalType": "bytes32",
          "name": "channelId",
          "type": "bytes32"
        },
        {
          "internalType": "uint256",
          "name": "spent",
          "type": "uint256"
        },
        {
          "internalType": "uint256",
          "name": "nonce",
          "type": "uint256"
        },
        {
          "internalType": "bytes",
          "name": "signature",
          "type": "bytes"
        }
      ],
      "name": "verifyPayment",
      "outputs": [
        {
          "internalType": "bool",
          "name": "",
          "type": "bool"
        }
      ],
      "stateMutability": "view",
      "type": "function"
    },
    {
      "stateMutability": "payable",
      "type": "receive"
    }
  ],
  "bytecode": "0x6080806040523461001b57600160005561153b90816100218239f35b600080fdfe608060405260048036101561001d575b50361561001b57600080fd5b005b60009060e08235811c908163093c4ee614611047578163093f643614610e1357816324f453d114610bac57816326dddd8314610b395781632bf87466146109f157816362e223bb146109995781637098f8561461091657816377d18161146108ef5781637a7ebd7b14610848578163831c2b82146106cd57508063a5bbe22b146106b0578063acf8bf2a14610692578063af035ab414610665578063b589db7b14610520578063cf02791514610373578063d99457421461031c578063e1e158a5146102f7578063e7e531c91461020d5763ef3983ec146100fe575061000f565b346102095760203660031901126102095780359061011a611244565b81835260026020526040832060018101549091906001600160a01b0390811680156101f85733036101e857600683019283549360ff851660038110156101d5576002146101c457927faee37d46ae7638649199a415cd6d49cc67df520cf2c80210daac017e0df3ab9894926002836040968260036101b09701978854809785015560ff1916179055426009820155015416611418565b548151908582526020820152a26001815580f35b60405163baf3f0f760e01b81528490fd5b634e487b7160e01b885260218552602488fd5b5060405163ea8e4eb560e01b8152fd5b604051630781f76560e21b81528390fd5b5080fd5b50602036600319011261020957803590610225611244565b81835260026020526040832060018101546001600160a01b031680156101f85733036101e85760ff60068201541660038110156102e4576102d45734156102c4576003018054913483018093116102b15750817f211ddc278e48a0587f835c2b8c2cd91385b678a9541738aab765455f4d117a6192604092558151903482526020820152a26001815580f35b634e487b7160e01b855260119052602484fd5b5060405163162908e360e11b8152fd5b5060405163baf3f0f760e01b8152fd5b634e487b7160e01b855260218352602485fd5b8234610319578060031936011261031957602060405166038d7ea4c680008152f35b80fd5b8234610319576040366003190112610319576103366110bb565b6001600160a01b03168152600360205260408120805460243592908310156103195760206103648484611148565b90549060031b1c604051908152f35b5034610209576103823661110c565b9061038f95939495611244565b85875260026020526040872060018101549093906001600160a01b0390811690811561050f578060028701541633036104fe57600686019485549460ff861660038110156104eb576104da5760038801548a116104c95761043f9161043061043692603c8f8f8f8b9061040192611473565b7f19457468657265756d205369676e6564204d6573736167653a0a3332000000008252601c5220923691611283565b906112ba565b90929192611386565b16036104b857906001918686860155600585015560ff1916179055610e104201918242116104a55750918160409260087f4bed3455798bb016511dab3740951b12a6874f2b0670992e78dcb210a3362ace95015582519182526020820152a26001815580f35b634e487b7160e01b865260119052602485fd5b604051638baa579f60e01b81528590fd5b604051631e9acf1760e31b81528990fd5b60405163baf3f0f760e01b81528990fd5b634e487b7160e01b8d5260218a5260248dfd5b60405163ea8e4eb560e01b81528790fd5b604051630781f76560e21b81528790fd5b50346102095760203660031901126102095780359061053d611244565b8183526002602052604083206001810180546001600160a01b0393908416156106565760068301805460ff811660038110156106435760010361063257600885015442106106215760ff1916600217905542600984015582015460038301547faee37d46ae7638649199a415cd6d49cc67df520cf2c80210daac017e0df3ab98946040949093916105cf9084906113f5565b93849184828161060b575b505050816105f8575b50505082519182526020820152a26001815580f35b610603925416611418565b3882816105e3565b600261061993015416611418565b3884826105da565b604051637cf214ed60e01b81528390fd5b60405163baf3f0f760e01b81528390fd5b634e487b7160e01b895260218452602489fd5b604051630781f76560e21b8152fd5b50903461031957606036600319011261031957602061068a6044356024358535611473565b604051908152f35b82346103195780600319360112610319576020600154604051908152f35b82346103195780600319360112610319576020604051610e108152f35b90508234610319576020366003190112610319576040516106ed81611199565b8181528160208201528160408201528160608201528160808201528160a08201528160c08201528183820152816101206101009282848201520152833582526002602052604082206040519261074284611199565b8154845260018201546001600160a01b03908116602086015260028301541660408501526003808301546060860152868301546080860152600583015460a0860152600683015460ff169190821015610835576101408661012087876009888860c0850152600781015486850152600881015483850152015483830152604051938251855260018060a01b03602084015116602086015260018060a01b036040840151166040860152606083015160608601526080830151608086015260a083015160a086015261081b60c084015160c0870190611176565b808301519085015280820151908401520151610120820152f35b634e487b7160e01b815260218752602490fd5b9050346108eb5760203660031901126108eb576040610140938335815260026020522080549260018060a01b03926108da84600185015416946002850154169260038501549085015460058601549060ff60068801541692600788015496600960088a0154990154996040519b8c5260208c015260408b015260608a0152608089015260a088015260c0870190611176565b840152610100830152610120820152f35b8280fd5b833461031957602061090c6109033661110c565b9392909261149c565b6040519015158152f35b833461031957602080600319360112610209576001600160a01b036109396110bb565b1682526003815260408220916040518092808554928381520194835280832092905b8282106109825761097e85610972818903826111e8565b604051918291826110d1565b0390f35b83548652948501946001938401939091019061095b565b828434610319576040366003190112610319576109b46110bb565b6001600160a01b0316815260209190915260408120805460243592908310156103195760206109e38484611148565b90546040519160031b1c8152f35b50503461020957610a013661110c565b8487969293949596526002602052604087209060018060a01b0380600184015416918215610b285760ff6006850154166003811015610b1557600103610b04576008840154421015610af35760058401958654881115610ae25760038501548911610ad157610a809161043061043692603c8e6104018f8f8f91611473565b1603610ac1579284927fc669951fba8a1db4a33b34c47fafe7cbb6f3efb10d40acffbfc52769d5f1689e95829360409601555582519182526020820152a280f35b50604051638baa579f60e01b8152fd5b604051631e9acf1760e31b81528690fd5b604051633ab3447f60e11b81528690fd5b604051630435161560e51b81528590fd5b60405163baf3f0f760e01b81528590fd5b634e487b7160e01b8b526021865260248bfd5b604051630781f76560e21b81528590fd5b50503461020957602090816003193601126108eb576001600160a01b03610b5e6110bb565b168352815260408220916040518092808554928381520194835280832092905b828210610b955761097e85610972818903826111e8565b835486529485019460019384019390910190610b7e565b905082604036600319011261031957610bc36110bb565b9060243591610bd0611244565b6001600160a01b0392818416918215610e0257338314610e025766038d7ea4c680003410610df157813403610de057600154956000198714610dcd5760018701600155604051602097888201933360601b85526bffffffffffffffffffffffff199060601b16603483015242604883015260688201526068815260a081019281841067ffffffffffffffff851117610dba5788908460405282519020978893610c7886611199565b84865260c0840190338252840188815261010085018881526101208601918b83526101408701938c85526101608801958d87528d6101808a0198428a526101a08b019a828c526101c0019b828d52825260029052604090209a518b558060018c01925116916bffffffffffffffffffffffff60a01b928382541617905560028b0192511690825416179055516003880155518c8701555160058601556006850190516003811015610da757916009939160019a9b9c96959360ff801983541691161790555160078501555160088401555191015533845260038752610d60866040862061120a565b8284528652610d72856040852061120a565b604051908152847f448d27f1fe12f92a2070111296e68fd6ef0a01c0e05bf5819eda0dbcf267bf3d873393a455604051908152f35b634e487b7160e01b895260218c52602489fd5b634e487b7160e01b875260418a52602487fd5b634e487b7160e01b855260118852602485fd5b60405163162908e360e11b81528790fd5b604051635972996f60e11b81528790fd5b60405163e6c4247b60e01b81528790fd5b505034610209576080366003190112610209578035906024356044359167ffffffffffffffff9283811161104357610e4e9036908301611088565b9360643590811161103f57610e669036908401611088565b9490610e70611244565b86885260026020526040882091600183019460018060a01b0397888754169081156101f857600686019485549460ff8616600381101561102c578015159081611020575b50610b0457600388015498898c11610ad157610f7694938f8f948f958f92610f5f96610f6d96610f56603c94610430976040519060208201928352604082015270636f6f70657261746976655f636c6f736560781b606082015260518152610f1b816111cc565b519020926104307f19457468657265756d205369676e6564204d6573736167653a0a3332000000009384875285601c52878720923691611283565b909a919a611386565b8252601c5220923691611283565b90959195611386565b1603610ac157600285015489169594939291908916869003611011579383610fdb9360028a989694897faee37d46ae7638649199a415cd6d49cc67df520cf2c80210daac017e0df3ab989d9b9960409d97015560ff19161790556009429101556113f5565b9384918480611001575b5050816105f85750505082519182526020820152a26001815580f35b61100a91611418565b3884610fe5565b604051638baa579f60e01b8152fd5b60019150141538610eb4565b634e487b7160e01b8f526021865260248ffd5b8680fd5b8580fd5b5050346102095760203660031901126102095761107b604080938335815260026020522091600383015492015480926113f5565b9082519182526020820152f35b9181601f840112156110b65782359167ffffffffffffffff83116110b657602083818601950101116110b657565b600080fd5b600435906001600160a01b03821682036110b657565b6020908160408183019282815285518094520193019160005b8281106110f8575050505090565b8351855293810193928101926001016110ea565b9060806003198301126110b6576004359160243591604435916064359067ffffffffffffffff82116110b65761114491600401611088565b9091565b80548210156111605760005260206000200190600090565b634e487b7160e01b600052603260045260246000fd5b9060038210156111835752565b634e487b7160e01b600052602160045260246000fd5b610140810190811067ffffffffffffffff8211176111b657604052565b634e487b7160e01b600052604160045260246000fd5b6080810190811067ffffffffffffffff8211176111b657604052565b90601f8019910116810190811067ffffffffffffffff8211176111b657604052565b8054680100000000000000008110156111b65761122c91600182018155611148565b819291549060031b91821b91600019901b1916179055565b600260005414611255576002600055565b604051633ee5aeb560e01b8152600490fd5b67ffffffffffffffff81116111b657601f01601f191660200190565b92919261128f82611267565b9161129d60405193846111e8565b8294818452818301116110b6578281602093846000960137010152565b81519190604183036112eb576112e492506020820151906060604084015193015160001a906112f6565b9192909190565b505060009160029190565b91907f7fffffffffffffffffffffffffffffff5d576e7357a4501ddfe92f46681b20a0841161137a57926020929160ff608095604051948552168484015260408301526060820152600092839182805260015afa1561136e5780516001600160a01b0381161561136557918190565b50809160019190565b604051903d90823e3d90fd5b50505060009160039190565b60048110156111835780611398575050565b600181036113b25760405163f645eedf60e01b8152600490fd5b600281036113d35760405163fce698f760e01b815260048101839052602490fd5b6003146113dd5750565b602490604051906335e2f38360e21b82526004820152fd5b9190820391821161140257565b634e487b7160e01b600052601160045260246000fd5b6000918291829182916001600160a01b03165af13d1561146e573d61143c81611267565b9061144a60405192836111e8565b8152600060203d92013e5b1561145c57565b6040516312171d8360e31b8152600490fd5b611455565b9160405191602083019384526040830152606082015260608152611496816111cc565b51902090565b929093916000908482526002602052604082209560018060a01b0395866001890154169788156114f9576003015482116114ee576114e99593610401610430946104369794603c94611473565b161490565b505050935050505090565b5050505093505050509056fea26469706673582212208980f136a49457374290932528eff51f6fd8e32f154d7f03231d9e791bf3451764736f6c63430008140033",
  "linkReferences": {},
  "deployedLinkReferences": {}
}